{
  "contractName": "AppointmentManager",
  "abi": [
    {
      "inputs": [],
      "name": "getAppointmentsLength",
      "outputs": [
        {
          "internalType": "uint256",
          "name": "",
          "type": "uint256"
        }
      ],
      "stateMutability": "view",
      "type": "function",
      "constant": true
    },
    {
      "inputs": [
        {
          "internalType": "uint256",
          "name": "i",
          "type": "uint256"
        }
      ],
      "name": "hasAppointment",
      "outputs": [
        {
          "internalType": "bool",
          "name": "",
          "type": "bool"
        }
      ],
      "stateMutability": "view",
      "type": "function",
      "constant": true
    },
    {
      "inputs": [
        {
          "internalType": "uint256",
          "name": "i",
          "type": "uint256"
        }
      ],
      "name": "isAppointmentApproved",
      "outputs": [
        {
          "internalType": "bool",
          "name": "",
          "type": "bool"
        }
      ],
      "stateMutability": "view",
      "type": "function",
      "constant": true
    },
    {
      "inputs": [
        {
          "internalType": "address",
          "name": "client",
          "type": "address"
        },
        {
          "internalType": "uint256",
          "name": "service",
          "type": "uint256"
        },
        {
          "internalType": "uint256",
          "name": "time",
          "type": "uint256"
        }
      ],
      "name": "requestAppointment",
      "outputs": [],
      "stateMutability": "nonpayable",
      "type": "function"
    },
    {
      "inputs": [
        {
          "internalType": "uint256",
          "name": "i",
          "type": "uint256"
        }
      ],
      "name": "approveAppointment",
      "outputs": [],
      "stateMutability": "nonpayable",
      "type": "function"
    },
    {
      "inputs": [
        {
          "internalType": "uint256",
          "name": "i",
          "type": "uint256"
        }
      ],
      "name": "getServiceIndex",
      "outputs": [
        {
          "internalType": "uint256",
          "name": "",
          "type": "uint256"
        }
      ],
      "stateMutability": "view",
      "type": "function",
      "constant": true
    },
    {
      "inputs": [
        {
          "internalType": "address",
          "name": "client",
          "type": "address"
        }
      ],
      "name": "getClientAppointments",
      "outputs": [
        {
          "internalType": "int256[5]",
          "name": "",
          "type": "int256[5]"
        }
      ],
      "stateMutability": "view",
      "type": "function",
      "constant": true
    },
    {
      "inputs": [
        {
          "internalType": "uint256",
          "name": "i",
          "type": "uint256"
        }
      ],
      "name": "getAppointmentService",
      "outputs": [
        {
          "internalType": "uint256",
          "name": "",
          "type": "uint256"
        }
      ],
      "stateMutability": "view",
      "type": "function",
      "constant": true
    },
    {
      "inputs": [
        {
          "internalType": "uint256",
          "name": "i",
          "type": "uint256"
        }
      ],
      "name": "getAppointmentTime",
      "outputs": [
        {
          "internalType": "uint256",
          "name": "",
          "type": "uint256"
        }
      ],
      "stateMutability": "view",
      "type": "function",
      "constant": true
    }
  ],
  "bytecode": "0x608060405234801561001057600080fd5b506109c2806100206000396000f3fe608060405234801561001057600080fd5b50600436106100935760003560e01c806378ec04d91161006657806378ec04d914610132578063929ff95314610162578063b61cb6af1461017e578063cb32db72146101ae578063e4cc4e45146101de57610093565b8063064eac8a146100985780630daae746146100b4578063454322b8146100e45780634b47d82714610102575b600080fd5b6100b260048036038101906100ad919061067c565b61020e565b005b6100ce60048036038101906100c9919061067c565b61025f565b6040516100db91906106b8565b60405180910390f35b6100ec61028d565b6040516100f991906106b8565b60405180910390f35b61011c6004803603810190610117919061067c565b610299565b60405161012991906106ee565b60405180910390f35b61014c6004803603810190610147919061067c565b6102a9565b60405161015991906106b8565b60405180910390f35b61017c60048036038101906101779190610767565b6102d7565b005b6101986004803603810190610193919061067c565b610442565b6040516101a591906106ee565b60405180910390f35b6101c860048036038101906101c3919061067c565b6104a4565b6040516101d591906106b8565b60405180910390f35b6101f860048036038101906101f391906107ba565b6104d2565b604051610205919061089c565b60405180910390f35b600260008281548110610224576102236108b7565b5b906000526020600020906004020160030160146101000a81548160ff02191690836002811115610257576102566108e6565b5b021790555050565b6000808281548110610274576102736108b7565b5b9060005260206000209060040201600001549050919050565b60008080549050905090565b6000808054905082109050919050565b60008082815481106102be576102bd6108b7565b5b9060005260206000209060040201600001549050919050565b60006040518060a001604052808481526020018381526020018573ffffffffffffffffffffffffffffffffffffffff168152602001600073ffffffffffffffffffffffffffffffffffffffff1681526020016001600281111561033d5761033c6108e6565b5b8152509080600181540180825580915050600190039060005260206000209060040201600090919091909150600082015181600001556020820151816001015560408201518160020160006101000a81548173ffffffffffffffffffffffffffffffffffffffff021916908373ffffffffffffffffffffffffffffffffffffffff16021790555060608201518160030160006101000a81548173ffffffffffffffffffffffffffffffffffffffff021916908373ffffffffffffffffffffffffffffffffffffffff16021790555060808201518160030160146101000a81548160ff02191690836002811115610436576104356108e6565b5b02179055505050505050565b6000600280811115610457576104566108e6565b5b6000838154811061046b5761046a6108b7565b5b906000526020600020906004020160030160149054906101000a900460ff16600281111561049c5761049b6108e6565b5b149050919050565b60008082815481106104b9576104b86108b7565b5b9060005260206000209060040201600101549050919050565b6104da61061f565b6000806000808054905090506000600590506104f461061f565b5b828410801561050357508185105b156105bb578673ffffffffffffffffffffffffffffffffffffffff1660008581548110610533576105326108b7565b5b906000526020600020906004020160020160009054906101000a900473ffffffffffffffffffffffffffffffffffffffff1673ffffffffffffffffffffffffffffffffffffffff16036105aa578381868061058d90610944565b9750600581106105a05761059f6108b7565b5b6020020181815250505b836105b490610944565b93506104f5565b5b81851015610612577fffffffffffffffffffffffffffffffffffffffffffffffffffffffffffffffff8186600581106105f8576105f76108b7565b5b6020020181815250508461060b90610944565b94506105bc565b8095505050505050919050565b6040518060a00160405280600590602082028036833780820191505090505090565b600080fd5b6000819050919050565b61065981610646565b811461066457600080fd5b50565b60008135905061067681610650565b92915050565b60006020828403121561069257610691610641565b5b60006106a084828501610667565b91505092915050565b6106b281610646565b82525050565b60006020820190506106cd60008301846106a9565b92915050565b60008115159050919050565b6106e8816106d3565b82525050565b600060208201905061070360008301846106df565b92915050565b600073ffffffffffffffffffffffffffffffffffffffff82169050919050565b600061073482610709565b9050919050565b61074481610729565b811461074f57600080fd5b50565b6000813590506107618161073b565b92915050565b6000806000606084860312156107805761077f610641565b5b600061078e86828701610752565b935050602061079f86828701610667565b92505060406107b086828701610667565b9150509250925092565b6000602082840312156107d0576107cf610641565b5b60006107de84828501610752565b91505092915050565b600060059050919050565b600081905092915050565b6000819050919050565b6000819050919050565b61081a81610807565b82525050565b600061082c8383610811565b60208301905092915050565b6000602082019050919050565b61084e816107e7565b61085881846107f2565b9250610863826107fd565b8060005b8381101561089457815161087b8782610820565b965061088683610838565b925050600181019050610867565b505050505050565b600060a0820190506108b16000830184610845565b92915050565b7f4e487b7100000000000000000000000000000000000000000000000000000000600052603260045260246000fd5b7f4e487b7100000000000000000000000000000000000000000000000000000000600052602160045260246000fd5b7f4e487b7100000000000000000000000000000000000000000000000000000000600052601160045260246000fd5b600061094f82610646565b91507fffffffffffffffffffffffffffffffffffffffffffffffffffffffffffffffff820361098157610980610915565b5b60018201905091905056fea2646970667358221220cf230cb7c39038dd16df35b49a0a433bc78a895f06bc36a0b906767d0e8df29664736f6c63430008110033",
  "immutableReferences": {},
  "source": "pragma solidity ^0.8.13;\r\n\r\ncontract AppointmentManager {\r\n    enum AppointmentStatus {\r\n        Unknown,\r\n        Unapproved,\r\n        Approved\r\n    }\r\n\r\n    struct Appointment {\r\n        uint256 service;\r\n        uint256 time;\r\n        address client;\r\n        address worker;\r\n        AppointmentStatus status;\r\n    }\r\n\r\n    Appointment[] appointments;\r\n\r\n    function getAppointmentsLength() external view returns (uint256) {\r\n        return appointments.length;\r\n    }\r\n\r\n    function hasAppointment(uint256 i) external view returns (bool) {\r\n        return i < appointments.length;\r\n    }\r\n\r\n    function isAppointmentApproved(uint256 i) external view returns (bool) {\r\n        return appointments[i].status == AppointmentStatus.Approved;\r\n    }\r\n\r\n    function requestAppointment(\r\n        address client,\r\n        uint256 service,\r\n        uint256 time\r\n    ) external {\r\n        appointments.push(\r\n            Appointment(\r\n                service,\r\n                time,\r\n                client,\r\n                address(0),\r\n                AppointmentStatus.Unapproved\r\n            )\r\n        );\r\n    }\r\n\r\n    function approveAppointment(uint256 i) external {\r\n        appointments[i].status = AppointmentStatus.Approved;\r\n    }\r\n\r\n    function getServiceIndex(uint256 i) external view returns (uint256) {\r\n        return appointments[i].service;\r\n    }\r\n\r\n    function getClientAppointments(address client)\r\n        external\r\n        view\r\n        returns (int256[5] memory)\r\n    {\r\n        uint256 iRet = 0;\r\n        uint256 iA = 0;\r\n        uint256 aL = appointments.length;\r\n        uint256 reqI = 5;\r\n\r\n        int256[5] memory result;\r\n\r\n        for (; iA < aL && iRet < reqI; ++iA) {\r\n            if (appointments[iA].client == client) {\r\n                result[iRet++] = int256(iA);\r\n            }\r\n        }\r\n\r\n        for (; iRet < reqI; ++iRet) {\r\n            result[iRet] = -1;\r\n        }\r\n\r\n        return result;\r\n    }\r\n\r\n    function getAppointmentService(uint256 i) external view returns (uint256) {\r\n        return appointments[i].service;\r\n    }\r\n\r\n    function getAppointmentTime(uint256 i) external view returns (uint256) {\r\n        return appointments[i].time;\r\n    }\r\n}\r\n",
  "sourcePath": "/home/seva/Projects/uni-eth-practice/contracts/AppointmentManager.sol",
  "compiler": {
    "name": "solc",
    "version": "0.8.17+commit.8df45f5f.Emscripten.clang"
  },
  "schemaVersion": "3.4.11",
  "updatedAt": "2022-12-09T08:45:24.804Z",
  "networkType": "ethereum",
  "devdoc": {
    "kind": "dev",
    "methods": {},
    "version": 1
  },
  "userdoc": {
    "kind": "user",
    "methods": {},
    "version": 1
  }
}