{
  "contractName": "AppointmentManager",
  "abi": [
    {
      "inputs": [],
      "name": "getAppointmentsLength",
      "outputs": [
        {
          "internalType": "uint256",
          "name": "",
          "type": "uint256"
        }
      ],
      "stateMutability": "view",
      "type": "function",
      "constant": true
    },
    {
      "inputs": [
        {
          "internalType": "uint256",
          "name": "i",
          "type": "uint256"
        }
      ],
      "name": "hasAppointment",
      "outputs": [
        {
          "internalType": "bool",
          "name": "",
          "type": "bool"
        }
      ],
      "stateMutability": "view",
      "type": "function",
      "constant": true
    },
    {
      "inputs": [
        {
          "internalType": "uint256",
          "name": "i",
          "type": "uint256"
        }
      ],
      "name": "isAppointmentApproved",
      "outputs": [
        {
          "internalType": "bool",
          "name": "",
          "type": "bool"
        }
      ],
      "stateMutability": "view",
      "type": "function",
      "constant": true
    },
    {
      "inputs": [
        {
          "internalType": "address",
          "name": "client",
          "type": "address"
        },
        {
          "internalType": "uint256",
          "name": "service",
          "type": "uint256"
        },
        {
          "internalType": "uint256",
          "name": "time",
          "type": "uint256"
        }
      ],
      "name": "requestAppointment",
      "outputs": [],
      "stateMutability": "nonpayable",
      "type": "function"
    },
    {
      "inputs": [
        {
          "internalType": "uint256",
          "name": "i",
          "type": "uint256"
        }
      ],
      "name": "approveAppointment",
      "outputs": [],
      "stateMutability": "nonpayable",
      "type": "function"
    },
    {
      "inputs": [
        {
          "internalType": "uint256",
          "name": "i",
          "type": "uint256"
        }
      ],
      "name": "getServiceIndex",
      "outputs": [
        {
          "internalType": "uint256",
          "name": "",
          "type": "uint256"
        }
      ],
      "stateMutability": "view",
      "type": "function",
      "constant": true
    },
    {
      "inputs": [
        {
          "internalType": "address",
          "name": "client",
          "type": "address"
        }
      ],
      "name": "getClientAppointments",
      "outputs": [
        {
          "internalType": "int256[5]",
          "name": "",
          "type": "int256[5]"
        }
      ],
      "stateMutability": "view",
      "type": "function",
      "constant": true
    },
    {
      "inputs": [
        {
          "internalType": "uint256",
          "name": "serviceI",
          "type": "uint256"
        }
      ],
      "name": "getUnapprovedAppointments",
      "outputs": [
        {
          "internalType": "int256[5]",
          "name": "",
          "type": "int256[5]"
        }
      ],
      "stateMutability": "view",
      "type": "function",
      "constant": true
    },
    {
      "inputs": [
        {
          "internalType": "uint256",
          "name": "i",
          "type": "uint256"
        }
      ],
      "name": "getAppointmentService",
      "outputs": [
        {
          "internalType": "uint256",
          "name": "",
          "type": "uint256"
        }
      ],
      "stateMutability": "view",
      "type": "function",
      "constant": true
    },
    {
      "inputs": [
        {
          "internalType": "uint256",
          "name": "i",
          "type": "uint256"
        }
      ],
      "name": "getAppointmentTime",
      "outputs": [
        {
          "internalType": "uint256",
          "name": "",
          "type": "uint256"
        }
      ],
      "stateMutability": "view",
      "type": "function",
      "constant": true
    }
  ],
  "bytecode": "0x608060405234801561001057600080fd5b50610b61806100206000396000f3fe608060405234801561001057600080fd5b506004361061009e5760003560e01c80637c7ba0d4116100665780637c7ba0d41461016d578063929ff9531461019d578063b61cb6af146101b9578063cb32db72146101e9578063e4cc4e45146102195761009e565b8063064eac8a146100a35780630daae746146100bf578063454322b8146100ef5780634b47d8271461010d57806378ec04d91461013d575b600080fd5b6100bd60048036038101906100b8919061081b565b610249565b005b6100d960048036038101906100d4919061081b565b61029a565b6040516100e69190610857565b60405180910390f35b6100f76102c8565b6040516101049190610857565b60405180910390f35b6101276004803603810190610122919061081b565b6102d4565b604051610134919061088d565b60405180910390f35b6101576004803603810190610152919061081b565b6102e4565b6040516101649190610857565b60405180910390f35b6101876004803603810190610182919061081b565b610312565b604051610194919061095d565b60405180910390f35b6101b760048036038101906101b291906109d6565b610476565b005b6101d360048036038101906101ce919061081b565b6105e1565b6040516101e0919061088d565b60405180910390f35b61020360048036038101906101fe919061081b565b610643565b6040516102109190610857565b60405180910390f35b610233600480360381019061022e9190610a29565b610671565b604051610240919061095d565b60405180910390f35b60026000828154811061025f5761025e610a56565b5b906000526020600020906004020160030160146101000a81548160ff0219169083600281111561029257610291610a85565b5b021790555050565b60008082815481106102af576102ae610a56565b5b9060005260206000209060040201600001549050919050565b60008080549050905090565b6000808054905082109050919050565b60008082815481106102f9576102f8610a56565b5b9060005260206000209060040201600001549050919050565b61031a6107be565b6000806000808054905090506000600590506103346107be565b5b828410801561034357508185105b1561041257866000858154811061035d5761035c610a56565b5b9060005260206000209060040201600001541480156103d257506001600281111561038b5761038a610a85565b5b6000858154811061039f5761039e610a56565b5b906000526020600020906004020160030160149054906101000a900460ff1660028111156103d0576103cf610a85565b5b145b1561040157838186806103e490610ae3565b9750600581106103f7576103f6610a56565b5b6020020181815250505b8361040b90610ae3565b9350610335565b5b81851015610469577fffffffffffffffffffffffffffffffffffffffffffffffffffffffffffffffff81866005811061044f5761044e610a56565b5b6020020181815250508461046290610ae3565b9450610413565b8095505050505050919050565b60006040518060a001604052808481526020018381526020018573ffffffffffffffffffffffffffffffffffffffff168152602001600073ffffffffffffffffffffffffffffffffffffffff168152602001600160028111156104dc576104db610a85565b5b8152509080600181540180825580915050600190039060005260206000209060040201600090919091909150600082015181600001556020820151816001015560408201518160020160006101000a81548173ffffffffffffffffffffffffffffffffffffffff021916908373ffffffffffffffffffffffffffffffffffffffff16021790555060608201518160030160006101000a81548173ffffffffffffffffffffffffffffffffffffffff021916908373ffffffffffffffffffffffffffffffffffffffff16021790555060808201518160030160146101000a81548160ff021916908360028111156105d5576105d4610a85565b5b02179055505050505050565b60006002808111156105f6576105f5610a85565b5b6000838154811061060a57610609610a56565b5b906000526020600020906004020160030160149054906101000a900460ff16600281111561063b5761063a610a85565b5b149050919050565b600080828154811061065857610657610a56565b5b9060005260206000209060040201600101549050919050565b6106796107be565b6000806000808054905090506000600590506106936107be565b5b82841080156106a257508185105b1561075a578673ffffffffffffffffffffffffffffffffffffffff16600085815481106106d2576106d1610a56565b5b906000526020600020906004020160020160009054906101000a900473ffffffffffffffffffffffffffffffffffffffff1673ffffffffffffffffffffffffffffffffffffffff1603610749578381868061072c90610ae3565b97506005811061073f5761073e610a56565b5b6020020181815250505b8361075390610ae3565b9350610694565b5b818510156107b1577fffffffffffffffffffffffffffffffffffffffffffffffffffffffffffffffff81866005811061079757610796610a56565b5b602002018181525050846107aa90610ae3565b945061075b565b8095505050505050919050565b6040518060a00160405280600590602082028036833780820191505090505090565b600080fd5b6000819050919050565b6107f8816107e5565b811461080357600080fd5b50565b600081359050610815816107ef565b92915050565b600060208284031215610831576108306107e0565b5b600061083f84828501610806565b91505092915050565b610851816107e5565b82525050565b600060208201905061086c6000830184610848565b92915050565b60008115159050919050565b61088781610872565b82525050565b60006020820190506108a2600083018461087e565b92915050565b600060059050919050565b600081905092915050565b6000819050919050565b6000819050919050565b6108db816108c8565b82525050565b60006108ed83836108d2565b60208301905092915050565b6000602082019050919050565b61090f816108a8565b61091981846108b3565b9250610924826108be565b8060005b8381101561095557815161093c87826108e1565b9650610947836108f9565b925050600181019050610928565b505050505050565b600060a0820190506109726000830184610906565b92915050565b600073ffffffffffffffffffffffffffffffffffffffff82169050919050565b60006109a382610978565b9050919050565b6109b381610998565b81146109be57600080fd5b50565b6000813590506109d0816109aa565b92915050565b6000806000606084860312156109ef576109ee6107e0565b5b60006109fd868287016109c1565b9350506020610a0e86828701610806565b9250506040610a1f86828701610806565b9150509250925092565b600060208284031215610a3f57610a3e6107e0565b5b6000610a4d848285016109c1565b91505092915050565b7f4e487b7100000000000000000000000000000000000000000000000000000000600052603260045260246000fd5b7f4e487b7100000000000000000000000000000000000000000000000000000000600052602160045260246000fd5b7f4e487b7100000000000000000000000000000000000000000000000000000000600052601160045260246000fd5b6000610aee826107e5565b91507fffffffffffffffffffffffffffffffffffffffffffffffffffffffffffffffff8203610b2057610b1f610ab4565b5b60018201905091905056fea2646970667358221220849a9005915413448e3b011b5ae9f012b4b2af679064ddae4dfcabedcb16ba0d64736f6c63430008110033",
  "immutableReferences": {},
  "source": "pragma solidity ^0.8.13;\r\n\r\ncontract AppointmentManager {\r\n    enum AppointmentStatus {\r\n        Unknown,\r\n        Unapproved,\r\n        Approved\r\n    }\r\n\r\n    struct Appointment {\r\n        uint256 service;\r\n        uint256 time;\r\n        address client;\r\n        address worker;\r\n        AppointmentStatus status;\r\n    }\r\n\r\n    Appointment[] appointments;\r\n\r\n    function getAppointmentsLength() external view returns (uint256) {\r\n        return appointments.length;\r\n    }\r\n\r\n    function hasAppointment(uint256 i) external view returns (bool) {\r\n        return i < appointments.length;\r\n    }\r\n\r\n    function isAppointmentApproved(uint256 i) external view returns (bool) {\r\n        return appointments[i].status == AppointmentStatus.Approved;\r\n    }\r\n\r\n    function requestAppointment(\r\n        address client,\r\n        uint256 service,\r\n        uint256 time\r\n    ) external {\r\n        appointments.push(\r\n            Appointment(\r\n                service,\r\n                time,\r\n                client,\r\n                address(0),\r\n                AppointmentStatus.Unapproved\r\n            )\r\n        );\r\n    }\r\n\r\n    function approveAppointment(uint256 i) external {\r\n        appointments[i].status = AppointmentStatus.Approved;\r\n    }\r\n\r\n    function getServiceIndex(uint256 i) external view returns (uint256) {\r\n        return appointments[i].service;\r\n    }\r\n\r\n    function getClientAppointments(address client)\r\n        external\r\n        view\r\n        returns (int256[5] memory)\r\n    {\r\n        uint256 iRet = 0;\r\n        uint256 iA = 0;\r\n        uint256 aL = appointments.length;\r\n        uint256 reqI = 5;\r\n\r\n        int256[5] memory result;\r\n\r\n        for (; iA < aL && iRet < reqI; ++iA) {\r\n            if (appointments[iA].client == client) {\r\n                result[iRet++] = int256(iA);\r\n            }\r\n        }\r\n\r\n        for (; iRet < reqI; ++iRet) {\r\n            result[iRet] = -1;\r\n        }\r\n\r\n        return result;\r\n    }\r\n\r\n    function getUnapprovedAppointments(uint256 serviceI)\r\n        external\r\n        view\r\n        returns (int256[5] memory)\r\n    {\r\n        uint256 iRet = 0;\r\n        uint256 iA = 0;\r\n        uint256 aL = appointments.length;\r\n        uint256 reqI = 5;\r\n\r\n        int256[5] memory result;\r\n\r\n        for (; iA < aL && iRet < reqI; ++iA) {\r\n            if (\r\n                appointments[iA].service == serviceI &&\r\n                appointments[iA].status == AppointmentStatus.Unapproved\r\n            ) {\r\n                result[iRet++] = int256(iA);\r\n            }\r\n        }\r\n\r\n        for (; iRet < reqI; ++iRet) {\r\n            result[iRet] = -1;\r\n        }\r\n\r\n        return result;\r\n    }\r\n\r\n    function getAppointmentService(uint256 i) external view returns (uint256) {\r\n        return appointments[i].service;\r\n    }\r\n\r\n    function getAppointmentTime(uint256 i) external view returns (uint256) {\r\n        return appointments[i].time;\r\n    }\r\n}\r\n",
  "sourcePath": "/home/seva/Projects/uni-eth-practice/contracts/AppointmentManager.sol",
  "compiler": {
    "name": "solc",
    "version": "0.8.17+commit.8df45f5f.Emscripten.clang"
  },
  "schemaVersion": "3.4.11",
  "updatedAt": "2022-12-10T08:26:38.418Z",
  "networkType": "ethereum",
  "devdoc": {
    "kind": "dev",
    "methods": {},
    "version": 1
  },
  "userdoc": {
    "kind": "user",
    "methods": {},
    "version": 1
  }
}