{
  "contractName": "ClientManager",
  "abi": [
    {
      "inputs": [
        {
          "internalType": "address",
          "name": "addr",
          "type": "address"
        },
        {
          "internalType": "string",
          "name": "name",
          "type": "string"
        }
      ],
      "name": "registerClient",
      "outputs": [],
      "stateMutability": "nonpayable",
      "type": "function"
    },
    {
      "inputs": [
        {
          "internalType": "address",
          "name": "addr",
          "type": "address"
        }
      ],
      "name": "isClientHere",
      "outputs": [
        {
          "internalType": "bool",
          "name": "",
          "type": "bool"
        }
      ],
      "stateMutability": "view",
      "type": "function",
      "constant": true
    },
    {
      "inputs": [
        {
          "internalType": "address",
          "name": "addr",
          "type": "address"
        }
      ],
      "name": "getClientName",
      "outputs": [
        {
          "internalType": "string",
          "name": "",
          "type": "string"
        }
      ],
      "stateMutability": "view",
      "type": "function",
      "constant": true
    },
    {
      "inputs": [
        {
          "internalType": "address",
          "name": "v",
          "type": "address"
        }
      ],
      "name": "putTest",
      "outputs": [],
      "stateMutability": "nonpayable",
      "type": "function"
    },
    {
      "inputs": [],
      "name": "getTest",
      "outputs": [
        {
          "internalType": "address",
          "name": "",
          "type": "address"
        }
      ],
      "stateMutability": "view",
      "type": "function",
      "constant": true
    }
  ],
  "bytecode": "0x608060405234801561001057600080fd5b5061099e806100206000396000f3fe608060405234801561001057600080fd5b50600436106100575760003560e01c806373923d341461005c578063a8cd0a801461008c578063c41a26e3146100aa578063f0e734d4146100c6578063f2fef58b146100f6575b600080fd5b610076600480360381019061007191906103b0565b610112565b604051610083919061046d565b60405180910390f35b6100946101e5565b6040516100a1919061049e565b60405180910390f35b6100c460048036038101906100bf91906103b0565b61020f565b005b6100e060048036038101906100db91906103b0565b610253565b6040516100ed91906104d4565b60405180910390f35b610110600480360381019061010b9190610624565b6102ab565b005b60606000808373ffffffffffffffffffffffffffffffffffffffff1673ffffffffffffffffffffffffffffffffffffffff1681526020019081526020016000206000018054610160906106af565b80601f016020809104026020016040519081016040528092919081815260200182805461018c906106af565b80156101d95780601f106101ae576101008083540402835291602001916101d9565b820191906000526020600020905b8154815290600101906020018083116101bc57829003601f168201915b50505050509050919050565b6000600160009054906101000a900473ffffffffffffffffffffffffffffffffffffffff16905090565b80600160006101000a81548173ffffffffffffffffffffffffffffffffffffffff021916908373ffffffffffffffffffffffffffffffffffffffff16021790555050565b60008060008373ffffffffffffffffffffffffffffffffffffffff1673ffffffffffffffffffffffffffffffffffffffff16815260200190815260200160002060010160009054906101000a900460ff169050919050565b6040518060400160405280828152602001600115158152506000808473ffffffffffffffffffffffffffffffffffffffff1673ffffffffffffffffffffffffffffffffffffffff16815260200190815260200160002060008201518160000190816103169190610896565b5060208201518160010160006101000a81548160ff0219169083151502179055509050505050565b6000604051905090565b600080fd5b600080fd5b600073ffffffffffffffffffffffffffffffffffffffff82169050919050565b600061037d82610352565b9050919050565b61038d81610372565b811461039857600080fd5b50565b6000813590506103aa81610384565b92915050565b6000602082840312156103c6576103c5610348565b5b60006103d48482850161039b565b91505092915050565b600081519050919050565b600082825260208201905092915050565b60005b838110156104175780820151818401526020810190506103fc565b60008484015250505050565b6000601f19601f8301169050919050565b600061043f826103dd565b61044981856103e8565b93506104598185602086016103f9565b61046281610423565b840191505092915050565b600060208201905081810360008301526104878184610434565b905092915050565b61049881610372565b82525050565b60006020820190506104b3600083018461048f565b92915050565b60008115159050919050565b6104ce816104b9565b82525050565b60006020820190506104e960008301846104c5565b92915050565b600080fd5b600080fd5b7f4e487b7100000000000000000000000000000000000000000000000000000000600052604160045260246000fd5b61053182610423565b810181811067ffffffffffffffff821117156105505761054f6104f9565b5b80604052505050565b600061056361033e565b905061056f8282610528565b919050565b600067ffffffffffffffff82111561058f5761058e6104f9565b5b61059882610423565b9050602081019050919050565b82818337600083830152505050565b60006105c76105c284610574565b610559565b9050828152602081018484840111156105e3576105e26104f4565b5b6105ee8482856105a5565b509392505050565b600082601f83011261060b5761060a6104ef565b5b813561061b8482602086016105b4565b91505092915050565b6000806040838503121561063b5761063a610348565b5b60006106498582860161039b565b925050602083013567ffffffffffffffff81111561066a5761066961034d565b5b610676858286016105f6565b9150509250929050565b7f4e487b7100000000000000000000000000000000000000000000000000000000600052602260045260246000fd5b600060028204905060018216806106c757607f821691505b6020821081036106da576106d9610680565b5b50919050565b60008190508160005260206000209050919050565b60006020601f8301049050919050565b600082821b905092915050565b6000600883026107427fffffffffffffffffffffffffffffffffffffffffffffffffffffffffffffffff82610705565b61074c8683610705565b95508019841693508086168417925050509392505050565b6000819050919050565b6000819050919050565b600061079361078e61078984610764565b61076e565b610764565b9050919050565b6000819050919050565b6107ad83610778565b6107c16107b98261079a565b848454610712565b825550505050565b600090565b6107d66107c9565b6107e18184846107a4565b505050565b5b81811015610805576107fa6000826107ce565b6001810190506107e7565b5050565b601f82111561084a5761081b816106e0565b610824846106f5565b81016020851015610833578190505b61084761083f856106f5565b8301826107e6565b50505b505050565b600082821c905092915050565b600061086d6000198460080261084f565b1980831691505092915050565b6000610886838361085c565b9150826002028217905092915050565b61089f826103dd565b67ffffffffffffffff8111156108b8576108b76104f9565b5b6108c282546106af565b6108cd828285610809565b600060209050601f83116001811461090057600084156108ee578287015190505b6108f8858261087a565b865550610960565b601f19841661090e866106e0565b60005b8281101561093657848901518255600182019150602085019450602081019050610911565b86831015610953578489015161094f601f89168261085c565b8355505b6001600288020188555050505b50505050505056fea26469706673582212205c153e1897d441530528b61d2fde4c5d658e2cd2faafbd51a0fa2b14d8dfff9664736f6c63430008110033",
  "immutableReferences": {},
  "source": "pragma solidity ^0.8.13;\r\n\r\ncontract ClientManager {\r\n    struct Client {\r\n        string name;\r\n        bool isHere;\r\n    }\r\n\r\n    mapping(address => Client) clients;\r\n\r\n    function registerClient(address addr, string memory name) external {\r\n        clients[addr] = Client(name, true);\r\n    }\r\n\r\n    function isClientHere(address addr) external view returns (bool) {\r\n        return clients[addr].isHere;\r\n    }\r\n\r\n    function getClientName(address addr) external view returns (string memory) {\r\n        return clients[addr].name;\r\n    }\r\n\r\n    address testV;\r\n\r\n    function putTest(address v) external {\r\n        testV = v;\r\n    }\r\n\r\n    function getTest() external view returns (address) {\r\n        return testV;\r\n    }\r\n}\r\n",
  "sourcePath": "/home/seva/Projects/uni-eth-practice/contracts/ClientManager.sol",
  "compiler": {
    "name": "solc",
    "version": "0.8.17+commit.8df45f5f.Emscripten.clang"
  },
  "schemaVersion": "3.4.11",
  "updatedAt": "2022-12-10T09:09:10.821Z",
  "networkType": "ethereum",
  "devdoc": {
    "kind": "dev",
    "methods": {},
    "version": 1
  },
  "userdoc": {
    "kind": "user",
    "methods": {},
    "version": 1
  }
}