{
  "contractName": "ClientManager",
  "abi": [
    {
      "inputs": [
        {
          "internalType": "address",
          "name": "addr",
          "type": "address"
        },
        {
          "internalType": "string",
          "name": "name",
          "type": "string"
        }
      ],
      "name": "registerClient",
      "outputs": [],
      "stateMutability": "nonpayable",
      "type": "function"
    },
    {
      "inputs": [
        {
          "internalType": "address",
          "name": "addr",
          "type": "address"
        }
      ],
      "name": "isClientHere",
      "outputs": [
        {
          "internalType": "bool",
          "name": "",
          "type": "bool"
        }
      ],
      "stateMutability": "view",
      "type": "function",
      "constant": true
    }
  ],
  "bytecode": "0x608060405234801561001057600080fd5b50610712806100206000396000f3fe608060405234801561001057600080fd5b50600436106100365760003560e01c8063f0e734d41461003b578063f2fef58b1461006b575b600080fd5b610055600480360381019061005091906101e4565b610087565b604051610062919061022c565b60405180910390f35b6100856004803603810190610080919061038d565b6100df565b005b60008060008373ffffffffffffffffffffffffffffffffffffffff1673ffffffffffffffffffffffffffffffffffffffff16815260200190815260200160002060010160009054906101000a900460ff169050919050565b6040518060400160405280828152602001600115158152506000808473ffffffffffffffffffffffffffffffffffffffff1673ffffffffffffffffffffffffffffffffffffffff168152602001908152602001600020600082015181600001908161014a919061060a565b5060208201518160010160006101000a81548160ff0219169083151502179055509050505050565b6000604051905090565b600080fd5b600080fd5b600073ffffffffffffffffffffffffffffffffffffffff82169050919050565b60006101b182610186565b9050919050565b6101c1816101a6565b81146101cc57600080fd5b50565b6000813590506101de816101b8565b92915050565b6000602082840312156101fa576101f961017c565b5b6000610208848285016101cf565b91505092915050565b60008115159050919050565b61022681610211565b82525050565b6000602082019050610241600083018461021d565b92915050565b600080fd5b600080fd5b6000601f19601f8301169050919050565b7f4e487b7100000000000000000000000000000000000000000000000000000000600052604160045260246000fd5b61029a82610251565b810181811067ffffffffffffffff821117156102b9576102b8610262565b5b80604052505050565b60006102cc610172565b90506102d88282610291565b919050565b600067ffffffffffffffff8211156102f8576102f7610262565b5b61030182610251565b9050602081019050919050565b82818337600083830152505050565b600061033061032b846102dd565b6102c2565b90508281526020810184848401111561034c5761034b61024c565b5b61035784828561030e565b509392505050565b600082601f83011261037457610373610247565b5b813561038484826020860161031d565b91505092915050565b600080604083850312156103a4576103a361017c565b5b60006103b2858286016101cf565b925050602083013567ffffffffffffffff8111156103d3576103d2610181565b5b6103df8582860161035f565b9150509250929050565b600081519050919050565b7f4e487b7100000000000000000000000000000000000000000000000000000000600052602260045260246000fd5b6000600282049050600182168061043b57607f821691505b60208210810361044e5761044d6103f4565b5b50919050565b60008190508160005260206000209050919050565b60006020601f8301049050919050565b600082821b905092915050565b6000600883026104b67fffffffffffffffffffffffffffffffffffffffffffffffffffffffffffffffff82610479565b6104c08683610479565b95508019841693508086168417925050509392505050565b6000819050919050565b6000819050919050565b60006105076105026104fd846104d8565b6104e2565b6104d8565b9050919050565b6000819050919050565b610521836104ec565b61053561052d8261050e565b848454610486565b825550505050565b600090565b61054a61053d565b610555818484610518565b505050565b5b818110156105795761056e600082610542565b60018101905061055b565b5050565b601f8211156105be5761058f81610454565b61059884610469565b810160208510156105a7578190505b6105bb6105b385610469565b83018261055a565b50505b505050565b600082821c905092915050565b60006105e1600019846008026105c3565b1980831691505092915050565b60006105fa83836105d0565b9150826002028217905092915050565b610613826103e9565b67ffffffffffffffff81111561062c5761062b610262565b5b6106368254610423565b61064182828561057d565b600060209050601f8311600181146106745760008415610662578287015190505b61066c85826105ee565b8655506106d4565b601f19841661068286610454565b60005b828110156106aa57848901518255600182019150602085019450602081019050610685565b868310156106c757848901516106c3601f8916826105d0565b8355505b6001600288020188555050505b50505050505056fea264697066735822122012d142d9e8b3b63c7c260901809804317f2c1f62cba58888c42c5d66eb4c712464736f6c63430008110033",
  "immutableReferences": {},
  "source": "pragma solidity ^0.8.13;\r\n\r\ncontract ClientManager {\r\n    struct Client {\r\n        string name;\r\n        bool isHere;\r\n    }\r\n\r\n    mapping(address => Client) clients;\r\n\r\n    function registerClient(address addr, string memory name) external {\r\n        clients[addr] = Client(name, true);\r\n    }\r\n\r\n    function isClientHere(address addr) external view returns (bool) {\r\n        return clients[addr].isHere;\r\n    }\r\n}\r\n",
  "sourcePath": "/home/seva/Projects/uni-eth-practice/contracts/ClientManager.sol",
  "compiler": {
    "name": "solc",
    "version": "0.8.17+commit.8df45f5f.Emscripten.clang"
  },
  "schemaVersion": "3.4.11",
  "updatedAt": "2022-12-09T08:45:24.798Z",
  "networkType": "ethereum",
  "devdoc": {
    "kind": "dev",
    "methods": {},
    "version": 1
  },
  "userdoc": {
    "kind": "user",
    "methods": {},
    "version": 1
  }
}