{
  "contractName": "ClientManager",
  "abi": [
    {
      "inputs": [
        {
          "internalType": "address",
          "name": "addr",
          "type": "address"
        },
        {
          "internalType": "string",
          "name": "name",
          "type": "string"
        }
      ],
      "name": "registerClient",
      "outputs": [],
      "stateMutability": "nonpayable",
      "type": "function"
    },
    {
      "inputs": [
        {
          "internalType": "address",
          "name": "addr",
          "type": "address"
        }
      ],
      "name": "isClientHere",
      "outputs": [
        {
          "internalType": "bool",
          "name": "",
          "type": "bool"
        }
      ],
      "stateMutability": "view",
      "type": "function",
      "constant": true
    },
    {
      "inputs": [
        {
          "internalType": "address",
          "name": "v",
          "type": "address"
        }
      ],
      "name": "putTest",
      "outputs": [],
      "stateMutability": "nonpayable",
      "type": "function"
    },
    {
      "inputs": [],
      "name": "getTest",
      "outputs": [
        {
          "internalType": "address",
          "name": "",
          "type": "address"
        }
      ],
      "stateMutability": "view",
      "type": "function",
      "constant": true
    }
  ],
  "bytecode": "0x608060405234801561001057600080fd5b506107fa806100206000396000f3fe608060405234801561001057600080fd5b506004361061004c5760003560e01c8063a8cd0a8014610051578063c41a26e31461006f578063f0e734d41461008b578063f2fef58b146100bb575b600080fd5b6100596100d7565b6040516100669190610271565b60405180910390f35b610089600480360381019061008491906102cc565b610101565b005b6100a560048036038101906100a091906102cc565b610145565b6040516100b29190610314565b60405180910390f35b6100d560048036038101906100d09190610475565b61019d565b005b6000600160009054906101000a900473ffffffffffffffffffffffffffffffffffffffff16905090565b80600160006101000a81548173ffffffffffffffffffffffffffffffffffffffff021916908373ffffffffffffffffffffffffffffffffffffffff16021790555050565b60008060008373ffffffffffffffffffffffffffffffffffffffff1673ffffffffffffffffffffffffffffffffffffffff16815260200190815260200160002060010160009054906101000a900460ff169050919050565b6040518060400160405280828152602001600115158152506000808473ffffffffffffffffffffffffffffffffffffffff1673ffffffffffffffffffffffffffffffffffffffff168152602001908152602001600020600082015181600001908161020891906106f2565b5060208201518160010160006101000a81548160ff0219169083151502179055509050505050565b600073ffffffffffffffffffffffffffffffffffffffff82169050919050565b600061025b82610230565b9050919050565b61026b81610250565b82525050565b60006020820190506102866000830184610262565b92915050565b6000604051905090565b600080fd5b600080fd5b6102a981610250565b81146102b457600080fd5b50565b6000813590506102c6816102a0565b92915050565b6000602082840312156102e2576102e1610296565b5b60006102f0848285016102b7565b91505092915050565b60008115159050919050565b61030e816102f9565b82525050565b60006020820190506103296000830184610305565b92915050565b600080fd5b600080fd5b6000601f19601f8301169050919050565b7f4e487b7100000000000000000000000000000000000000000000000000000000600052604160045260246000fd5b61038282610339565b810181811067ffffffffffffffff821117156103a1576103a061034a565b5b80604052505050565b60006103b461028c565b90506103c08282610379565b919050565b600067ffffffffffffffff8211156103e0576103df61034a565b5b6103e982610339565b9050602081019050919050565b82818337600083830152505050565b6000610418610413846103c5565b6103aa565b90508281526020810184848401111561043457610433610334565b5b61043f8482856103f6565b509392505050565b600082601f83011261045c5761045b61032f565b5b813561046c848260208601610405565b91505092915050565b6000806040838503121561048c5761048b610296565b5b600061049a858286016102b7565b925050602083013567ffffffffffffffff8111156104bb576104ba61029b565b5b6104c785828601610447565b9150509250929050565b600081519050919050565b7f4e487b7100000000000000000000000000000000000000000000000000000000600052602260045260246000fd5b6000600282049050600182168061052357607f821691505b602082108103610536576105356104dc565b5b50919050565b60008190508160005260206000209050919050565b60006020601f8301049050919050565b600082821b905092915050565b60006008830261059e7fffffffffffffffffffffffffffffffffffffffffffffffffffffffffffffffff82610561565b6105a88683610561565b95508019841693508086168417925050509392505050565b6000819050919050565b6000819050919050565b60006105ef6105ea6105e5846105c0565b6105ca565b6105c0565b9050919050565b6000819050919050565b610609836105d4565b61061d610615826105f6565b84845461056e565b825550505050565b600090565b610632610625565b61063d818484610600565b505050565b5b818110156106615761065660008261062a565b600181019050610643565b5050565b601f8211156106a6576106778161053c565b61068084610551565b8101602085101561068f578190505b6106a361069b85610551565b830182610642565b50505b505050565b600082821c905092915050565b60006106c9600019846008026106ab565b1980831691505092915050565b60006106e283836106b8565b9150826002028217905092915050565b6106fb826104d1565b67ffffffffffffffff8111156107145761071361034a565b5b61071e825461050b565b610729828285610665565b600060209050601f83116001811461075c576000841561074a578287015190505b61075485826106d6565b8655506107bc565b601f19841661076a8661053c565b60005b828110156107925784890151825560018201915060208501945060208101905061076d565b868310156107af57848901516107ab601f8916826106b8565b8355505b6001600288020188555050505b50505050505056fea2646970667358221220603055f9ef23238edcf5fa881d094402372cc87b3e4cb49f29b1779c60450f6e64736f6c63430008110033",
  "immutableReferences": {},
  "source": "pragma solidity ^0.8.13;\r\n\r\ncontract ClientManager {\r\n    struct Client {\r\n        string name;\r\n        bool isHere;\r\n    }\r\n\r\n    mapping(address => Client) clients;\r\n\r\n    function registerClient(address addr, string memory name) external {\r\n        clients[addr] = Client(name, true);\r\n    }\r\n\r\n    function isClientHere(address addr) external view returns (bool) {\r\n        return clients[addr].isHere;\r\n    }\r\n\r\n    address testV;\r\n\r\n    function putTest(address v) external {\r\n        testV = v;\r\n    }\r\n\r\n    function getTest() external view returns (address) {\r\n        return testV;\r\n    }\r\n}\r\n",
  "sourcePath": "/home/seva/Projects/uni-eth-practice/contracts/ClientManager.sol",
  "compiler": {
    "name": "solc",
    "version": "0.8.17+commit.8df45f5f.Emscripten.clang"
  },
  "schemaVersion": "3.4.11",
  "updatedAt": "2022-12-10T08:44:17.630Z",
  "networkType": "ethereum",
  "devdoc": {
    "kind": "dev",
    "methods": {},
    "version": 1
  },
  "userdoc": {
    "kind": "user",
    "methods": {},
    "version": 1
  }
}