{
  "contractName": "MassageRoom",
  "abi": [
    {
      "inputs": [],
      "stateMutability": "nonpayable",
      "type": "constructor"
    },
    {
      "inputs": [
        {
          "internalType": "address",
          "name": "v",
          "type": "address"
        }
      ],
      "name": "putTest",
      "outputs": [],
      "stateMutability": "nonpayable",
      "type": "function"
    },
    {
      "inputs": [],
      "name": "getTest",
      "outputs": [
        {
          "internalType": "address",
          "name": "",
          "type": "address"
        }
      ],
      "stateMutability": "view",
      "type": "function",
      "constant": true
    },
    {
      "inputs": [
        {
          "internalType": "address",
          "name": "v",
          "type": "address"
        }
      ],
      "name": "putTestHop",
      "outputs": [],
      "stateMutability": "nonpayable",
      "type": "function"
    },
    {
      "inputs": [],
      "name": "getTestHop",
      "outputs": [
        {
          "internalType": "address",
          "name": "",
          "type": "address"
        }
      ],
      "stateMutability": "view",
      "type": "function",
      "constant": true
    },
    {
      "inputs": [],
      "name": "getTestValue",
      "outputs": [
        {
          "internalType": "uint256",
          "name": "",
          "type": "uint256"
        }
      ],
      "stateMutability": "pure",
      "type": "function",
      "constant": true
    },
    {
      "inputs": [],
      "name": "isAdmin",
      "outputs": [
        {
          "internalType": "bool",
          "name": "",
          "type": "bool"
        }
      ],
      "stateMutability": "view",
      "type": "function",
      "constant": true
    },
    {
      "inputs": [
        {
          "internalType": "string",
          "name": "name",
          "type": "string"
        }
      ],
      "name": "askToRegisterAsWorker",
      "outputs": [],
      "stateMutability": "nonpayable",
      "type": "function"
    },
    {
      "inputs": [
        {
          "internalType": "address",
          "name": "workerAddr",
          "type": "address"
        }
      ],
      "name": "approveWorkerRegistrationRequest",
      "outputs": [],
      "stateMutability": "nonpayable",
      "type": "function"
    },
    {
      "inputs": [
        {
          "internalType": "address",
          "name": "addr",
          "type": "address"
        }
      ],
      "name": "isWorkerRequestHere",
      "outputs": [
        {
          "internalType": "bool",
          "name": "",
          "type": "bool"
        }
      ],
      "stateMutability": "view",
      "type": "function",
      "constant": true
    },
    {
      "inputs": [
        {
          "internalType": "address",
          "name": "addr",
          "type": "address"
        }
      ],
      "name": "isAWorker",
      "outputs": [
        {
          "internalType": "bool",
          "name": "",
          "type": "bool"
        }
      ],
      "stateMutability": "view",
      "type": "function",
      "constant": true
    },
    {
      "inputs": [
        {
          "internalType": "address",
          "name": "addr",
          "type": "address"
        }
      ],
      "name": "getWorkerName",
      "outputs": [
        {
          "internalType": "string",
          "name": "",
          "type": "string"
        }
      ],
      "stateMutability": "view",
      "type": "function",
      "constant": true
    },
    {
      "inputs": [
        {
          "internalType": "address",
          "name": "workerAddr",
          "type": "address"
        }
      ],
      "name": "isWorkerAvailable",
      "outputs": [
        {
          "internalType": "bool",
          "name": "",
          "type": "bool"
        }
      ],
      "stateMutability": "view",
      "type": "function",
      "constant": true
    },
    {
      "inputs": [
        {
          "internalType": "address",
          "name": "workerAddr",
          "type": "address"
        }
      ],
      "name": "setWorkerAsUnavailable",
      "outputs": [],
      "stateMutability": "nonpayable",
      "type": "function"
    },
    {
      "inputs": [
        {
          "internalType": "address",
          "name": "workerAddr",
          "type": "address"
        }
      ],
      "name": "setWorkerAsAvailable",
      "outputs": [],
      "stateMutability": "nonpayable",
      "type": "function"
    },
    {
      "inputs": [
        {
          "internalType": "string",
          "name": "name",
          "type": "string"
        }
      ],
      "name": "registerAsClient",
      "outputs": [],
      "stateMutability": "nonpayable",
      "type": "function"
    },
    {
      "inputs": [
        {
          "internalType": "address",
          "name": "addr",
          "type": "address"
        }
      ],
      "name": "isAClient",
      "outputs": [
        {
          "internalType": "bool",
          "name": "",
          "type": "bool"
        }
      ],
      "stateMutability": "view",
      "type": "function",
      "constant": true
    },
    {
      "inputs": [
        {
          "internalType": "string",
          "name": "name",
          "type": "string"
        },
        {
          "internalType": "uint256",
          "name": "price",
          "type": "uint256"
        }
      ],
      "name": "createService",
      "outputs": [],
      "stateMutability": "nonpayable",
      "type": "function"
    },
    {
      "inputs": [],
      "name": "getServicesLength",
      "outputs": [
        {
          "internalType": "uint256",
          "name": "",
          "type": "uint256"
        }
      ],
      "stateMutability": "view",
      "type": "function",
      "constant": true
    },
    {
      "inputs": [
        {
          "internalType": "uint256",
          "name": "i",
          "type": "uint256"
        }
      ],
      "name": "getServiceName",
      "outputs": [
        {
          "internalType": "string",
          "name": "",
          "type": "string"
        }
      ],
      "stateMutability": "view",
      "type": "function",
      "constant": true
    },
    {
      "inputs": [
        {
          "internalType": "uint256",
          "name": "i",
          "type": "uint256"
        }
      ],
      "name": "getServicePrice",
      "outputs": [
        {
          "internalType": "uint256",
          "name": "",
          "type": "uint256"
        }
      ],
      "stateMutability": "view",
      "type": "function",
      "constant": true
    },
    {
      "inputs": [
        {
          "internalType": "uint256",
          "name": "i",
          "type": "uint256"
        }
      ],
      "name": "setServiceAsUnavailable",
      "outputs": [],
      "stateMutability": "nonpayable",
      "type": "function"
    },
    {
      "inputs": [
        {
          "internalType": "uint256",
          "name": "i",
          "type": "uint256"
        }
      ],
      "name": "setServiceAsAvailable",
      "outputs": [],
      "stateMutability": "nonpayable",
      "type": "function"
    },
    {
      "inputs": [
        {
          "internalType": "uint256",
          "name": "i",
          "type": "uint256"
        }
      ],
      "name": "isServiceAvailable",
      "outputs": [
        {
          "internalType": "bool",
          "name": "",
          "type": "bool"
        }
      ],
      "stateMutability": "view",
      "type": "function",
      "constant": true
    },
    {
      "inputs": [
        {
          "internalType": "uint256",
          "name": "serviceI",
          "type": "uint256"
        },
        {
          "internalType": "uint256",
          "name": "time",
          "type": "uint256"
        }
      ],
      "name": "requestAppointment",
      "outputs": [],
      "stateMutability": "payable",
      "type": "function",
      "payable": true
    },
    {
      "inputs": [
        {
          "internalType": "uint256",
          "name": "i",
          "type": "uint256"
        }
      ],
      "name": "isAppointmentApproved",
      "outputs": [
        {
          "internalType": "bool",
          "name": "",
          "type": "bool"
        }
      ],
      "stateMutability": "view",
      "type": "function",
      "constant": true
    },
    {
      "inputs": [
        {
          "internalType": "uint256",
          "name": "i",
          "type": "uint256"
        }
      ],
      "name": "approveAppointment",
      "outputs": [],
      "stateMutability": "payable",
      "type": "function",
      "payable": true
    },
    {
      "inputs": [
        {
          "internalType": "address",
          "name": "client",
          "type": "address"
        }
      ],
      "name": "getClientAppointments",
      "outputs": [
        {
          "internalType": "int256[5]",
          "name": "",
          "type": "int256[5]"
        }
      ],
      "stateMutability": "view",
      "type": "function",
      "constant": true
    },
    {
      "inputs": [
        {
          "internalType": "uint256",
          "name": "serviceI",
          "type": "uint256"
        }
      ],
      "name": "getUnapprovedAppointments",
      "outputs": [
        {
          "internalType": "int256[5]",
          "name": "",
          "type": "int256[5]"
        }
      ],
      "stateMutability": "view",
      "type": "function",
      "constant": true
    },
    {
      "inputs": [
        {
          "internalType": "uint256",
          "name": "i",
          "type": "uint256"
        }
      ],
      "name": "getAppointmentService",
      "outputs": [
        {
          "internalType": "uint256",
          "name": "",
          "type": "uint256"
        }
      ],
      "stateMutability": "view",
      "type": "function",
      "constant": true
    },
    {
      "inputs": [
        {
          "internalType": "uint256",
          "name": "i",
          "type": "uint256"
        }
      ],
      "name": "getAppointmentTime",
      "outputs": [
        {
          "internalType": "uint256",
          "name": "",
          "type": "uint256"
        }
      ],
      "stateMutability": "view",
      "type": "function",
      "constant": true
    }
  ],
  "bytecode": "0x60806040523480156200001157600080fd5b50336000806101000a81548173ffffffffffffffffffffffffffffffffffffffff021916908373ffffffffffffffffffffffffffffffffffffffff160217905550604051620000609062000208565b604051809103906000f0801580156200007d573d6000803e3d6000fd5b50600160006101000a81548173ffffffffffffffffffffffffffffffffffffffff021916908373ffffffffffffffffffffffffffffffffffffffff160217905550604051620000cc9062000216565b604051809103906000f080158015620000e9573d6000803e3d6000fd5b50600260006101000a81548173ffffffffffffffffffffffffffffffffffffffff021916908373ffffffffffffffffffffffffffffffffffffffff160217905550604051620001389062000224565b604051809103906000f08015801562000155573d6000803e3d6000fd5b50600360006101000a81548173ffffffffffffffffffffffffffffffffffffffff021916908373ffffffffffffffffffffffffffffffffffffffff160217905550604051620001a49062000232565b604051809103906000f080158015620001c1573d6000803e3d6000fd5b50600460006101000a81548173ffffffffffffffffffffffffffffffffffffffff021916908373ffffffffffffffffffffffffffffffffffffffff16021790555062000240565b610e0c8062003d8583390190565b61081a8062004b9183390190565b610b2080620053ab83390190565b610b818062005ecb83390190565b613b3580620002506000396000f3fe6080604052600436106101cd5760003560e01c8063a420e5d2116100f7578063c03f9b4411610095578063cd516c4d11610064578063cd516c4d146106c6578063e4cc4e45146106ef578063e53a6ec31461072c578063f15cb47614610769576101cd565b8063c03f9b44146105f8578063c41a26e314610635578063c573d8a21461065e578063cb32db7214610689576101cd565b8063b5a7314b116100d1578063b5a7314b1461052a578063b61cb6af14610567578063b6db75a0146105a4578063b98389b1146105cf576101cd565b8063a420e5d2146104ab578063a8402602146104d6578063a8cd0a80146104ff576101cd565b80634a69d93d1161016f578063740d87021161013e578063740d8702146103b75780637c7ba0d4146103f45780638a2c6b5114610431578063953058f81461046e576101cd565b80634a69d93d146102ff5780634cc0862d14610328578063537d7685146103515780636b0ae1eb1461037a576101cd565b80631cf82bd2116101ab5780631cf82bd2146102545780632de03b6b1461027d5780632ebda60b146102ba5780634470cadc146102e3576101cd565b80630405df88146101d2578063064eac8a146101fb5780630daae74614610217575b600080fd5b3480156101de57600080fd5b506101f960048036038101906101f49190612df7565b610794565b005b61021560048036038101906102109190612e5a565b6109c7565b005b34801561022357600080fd5b5061023e60048036038101906102399190612e5a565b610f59565b60405161024b9190612e96565b60405180910390f35b34801561026057600080fd5b5061027b60048036038101906102769190612ff7565b6110db565b005b34801561028957600080fd5b506102a4600480360381019061029f9190612df7565b6111fc565b6040516102b1919061306e565b60405180910390f35b3480156102c657600080fd5b506102e160048036038101906102dc9190613089565b6112a1565b005b6102fd60048036038101906102f891906130d2565b611333565b005b34801561030b57600080fd5b5061032660048036038101906103219190612df7565b6116a1565b005b34801561033457600080fd5b5061034f600480360381019061034a9190612e5a565b6118d4565b005b34801561035d57600080fd5b5061037860048036038101906103739190612df7565b611acf565b005b34801561038657600080fd5b506103a1600480360381019061039c9190612df7565b611b5f565b6040516103ae919061306e565b60405180910390f35b3480156103c357600080fd5b506103de60048036038101906103d99190612df7565b611c04565b6040516103eb919061306e565b60405180910390f35b34801561040057600080fd5b5061041b60048036038101906104169190612e5a565b611ca9565b60405161042891906131c7565b60405180910390f35b34801561043d57600080fd5b5061045860048036038101906104539190612e5a565b611d54565b604051610465919061306e565b60405180910390f35b34801561047a57600080fd5b5061049560048036038101906104909190612e5a565b611ed6565b6040516104a29190613261565b60405180910390f35b3480156104b757600080fd5b506104c061205d565b6040516104cd9190612e96565b60405180910390f35b3480156104e257600080fd5b506104fd60048036038101906104f89190612e5a565b612066565b005b34801561050b57600080fd5b50610514612261565b6040516105219190613292565b60405180910390f35b34801561053657600080fd5b50610551600480360381019061054c9190612df7565b61228b565b60405161055e919061306e565b60405180910390f35b34801561057357600080fd5b5061058e60048036038101906105899190612e5a565b612330565b60405161059b919061306e565b60405180910390f35b3480156105b057600080fd5b506105b96124b2565b6040516105c6919061306e565b60405180910390f35b3480156105db57600080fd5b506105f660048036038101906105f19190613089565b612509565b005b34801561060457600080fd5b5061061f600480360381019061061a9190612e5a565b61259b565b60405161062c9190612e96565b60405180910390f35b34801561064157600080fd5b5061065c60048036038101906106579190612df7565b61271d565b005b34801561066a57600080fd5b50610673612761565b6040516106809190612e96565b60405180910390f35b34801561069557600080fd5b506106b060048036038101906106ab9190612e5a565b6127f9565b6040516106bd9190612e96565b60405180910390f35b3480156106d257600080fd5b506106ed60048036038101906106e89190612df7565b61297b565b005b3480156106fb57600080fd5b5061071660048036038101906107119190612df7565b612a99565b60405161072391906131c7565b60405180910390f35b34801561073857600080fd5b50610753600480360381019061074e9190612df7565b612b44565b6040516107609190613261565b60405180910390f35b34801561077557600080fd5b5061077e612ccb565b60405161078b9190613292565b60405180910390f35b8060008054906101000a900473ffffffffffffffffffffffffffffffffffffffff1673ffffffffffffffffffffffffffffffffffffffff163373ffffffffffffffffffffffffffffffffffffffff16148061081a57508073ffffffffffffffffffffffffffffffffffffffff163373ffffffffffffffffffffffffffffffffffffffff16145b610859576040517f08c379a00000000000000000000000000000000000000000000000000000000081526004016108509061331f565b60405180910390fd5b81600160009054906101000a900473ffffffffffffffffffffffffffffffffffffffff1673ffffffffffffffffffffffffffffffffffffffff166312c61114826040518263ffffffff1660e01b81526004016108b59190613292565b602060405180830381865afa1580156108d2573d6000803e3d6000fd5b505050506040513d601f19601f820116820180604052508101906108f6919061336b565b610935576040517f08c379a000000000000000000000000000000000000000000000000000000000815260040161092c906133e4565b60405180910390fd5b600160009054906101000a900473ffffffffffffffffffffffffffffffffffffffff1673ffffffffffffffffffffffffffffffffffffffff16630405df88846040518263ffffffff1660e01b81526004016109909190613292565b600060405180830381600087803b1580156109aa57600080fd5b505af11580156109be573d6000803e3d6000fd5b50505050505050565b33600160009054906101000a900473ffffffffffffffffffffffffffffffffffffffff1673ffffffffffffffffffffffffffffffffffffffff166312c61114826040518263ffffffff1660e01b8152600401610a239190613292565b602060405180830381865afa158015610a40573d6000803e3d6000fd5b505050506040513d601f19601f82011682018060405250810190610a64919061336b565b610aa3576040517f08c379a0000000000000000000000000000000000000000000000000000000008152600401610a9a906133e4565b60405180910390fd5b81600460009054906101000a900473ffffffffffffffffffffffffffffffffffffffff1673ffffffffffffffffffffffffffffffffffffffff16634b47d827826040518263ffffffff1660e01b8152600401610aff9190612e96565b602060405180830381865afa158015610b1c573d6000803e3d6000fd5b505050506040513d601f19601f82011682018060405250810190610b40919061336b565b610b7f576040517f08c379a0000000000000000000000000000000000000000000000000000000008152600401610b7690613450565b60405180910390fd5b8260001515600460009054906101000a900473ffffffffffffffffffffffffffffffffffffffff1673ffffffffffffffffffffffffffffffffffffffff1663b61cb6af836040518263ffffffff1660e01b8152600401610bdf9190612e96565b602060405180830381865afa158015610bfc573d6000803e3d6000fd5b505050506040513d601f19601f82011682018060405250810190610c20919061336b565b151514610c62576040517f08c379a0000000000000000000000000000000000000000000000000000000008152600401610c59906134e2565b60405180910390fd5b600160009054906101000a900473ffffffffffffffffffffffffffffffffffffffff1673ffffffffffffffffffffffffffffffffffffffff16632de03b6b336040518263ffffffff1660e01b8152600401610cbd9190613292565b602060405180830381865afa158015610cda573d6000803e3d6000fd5b505050506040513d601f19601f82011682018060405250810190610cfe919061336b565b610d3d576040517f08c379a0000000000000000000000000000000000000000000000000000000008152600401610d349061354e565b60405180910390fd5b600460009054906101000a900473ffffffffffffffffffffffffffffffffffffffff1673ffffffffffffffffffffffffffffffffffffffff1663064eac8a856040518263ffffffff1660e01b8152600401610d989190612e96565b600060405180830381600087803b158015610db257600080fd5b505af1158015610dc6573d6000803e3d6000fd5b505050506000600460009054906101000a900473ffffffffffffffffffffffffffffffffffffffff1673ffffffffffffffffffffffffffffffffffffffff166378ec04d9866040518263ffffffff1660e01b8152600401610e279190612e96565b602060405180830381865afa158015610e44573d6000803e3d6000fd5b505050506040513d601f19601f82011682018060405250810190610e689190613583565b90506000600360009054906101000a900473ffffffffffffffffffffffffffffffffffffffff1673ffffffffffffffffffffffffffffffffffffffff1663c03f9b44836040518263ffffffff1660e01b8152600401610ec79190612e96565b602060405180830381865afa158015610ee4573d6000803e3d6000fd5b505050506040513d601f19601f82011682018060405250810190610f089190613583565b90503373ffffffffffffffffffffffffffffffffffffffff166108fc829081150290604051600060405180830381858888f19350505050158015610f50573d6000803e3d6000fd5b50505050505050565b600081600460009054906101000a900473ffffffffffffffffffffffffffffffffffffffff1673ffffffffffffffffffffffffffffffffffffffff16634b47d827826040518263ffffffff1660e01b8152600401610fb79190612e96565b602060405180830381865afa158015610fd4573d6000803e3d6000fd5b505050506040513d601f19601f82011682018060405250810190610ff8919061336b565b611037576040517f08c379a000000000000000000000000000000000000000000000000000000000815260040161102e90613450565b60405180910390fd5b600460009054906101000a900473ffffffffffffffffffffffffffffffffffffffff1673ffffffffffffffffffffffffffffffffffffffff16630daae746846040518263ffffffff1660e01b81526004016110929190612e96565b602060405180830381865afa1580156110af573d6000803e3d6000fd5b505050506040513d601f19601f820116820180604052508101906110d39190613583565b915050919050565b60008054906101000a900473ffffffffffffffffffffffffffffffffffffffff1673ffffffffffffffffffffffffffffffffffffffff163373ffffffffffffffffffffffffffffffffffffffff1614611169576040517f08c379a0000000000000000000000000000000000000000000000000000000008152600401611160906135fc565b60405180910390fd5b600360009054906101000a900473ffffffffffffffffffffffffffffffffffffffff1673ffffffffffffffffffffffffffffffffffffffff16631cf82bd283836040518363ffffffff1660e01b81526004016111c692919061361c565b600060405180830381600087803b1580156111e057600080fd5b505af11580156111f4573d6000803e3d6000fd5b505050505050565b6000600160009054906101000a900473ffffffffffffffffffffffffffffffffffffffff1673ffffffffffffffffffffffffffffffffffffffff16632de03b6b836040518263ffffffff1660e01b81526004016112599190613292565b602060405180830381865afa158015611276573d6000803e3d6000fd5b505050506040513d601f19601f8201168201806040525081019061129a919061336b565b9050919050565b600160009054906101000a900473ffffffffffffffffffffffffffffffffffffffff1673ffffffffffffffffffffffffffffffffffffffff1663c011565b33836040518363ffffffff1660e01b81526004016112fe92919061364c565b600060405180830381600087803b15801561131857600080fd5b505af115801561132c573d6000803e3d6000fd5b5050505050565b33600260009054906101000a900473ffffffffffffffffffffffffffffffffffffffff1673ffffffffffffffffffffffffffffffffffffffff1663f0e734d4826040518263ffffffff1660e01b815260040161138f9190613292565b602060405180830381865afa1580156113ac573d6000803e3d6000fd5b505050506040513d601f19601f820116820180604052508101906113d0919061336b565b61140f576040517f08c379a0000000000000000000000000000000000000000000000000000000008152600401611406906136c8565b60405180910390fd5b82600360009054906101000a900473ffffffffffffffffffffffffffffffffffffffff1673ffffffffffffffffffffffffffffffffffffffff1663801d1697826040518263ffffffff1660e01b815260040161146b9190612e96565b602060405180830381865afa158015611488573d6000803e3d6000fd5b505050506040513d601f19601f820116820180604052508101906114ac919061336b565b6114eb576040517f08c379a00000000000000000000000000000000000000000000000000000000081526004016114e290613734565b60405180910390fd5b600360009054906101000a900473ffffffffffffffffffffffffffffffffffffffff1673ffffffffffffffffffffffffffffffffffffffff1663c03f9b44856040518263ffffffff1660e01b81526004016115469190612e96565b602060405180830381865afa158015611563573d6000803e3d6000fd5b505050506040513d601f19601f820116820180604052508101906115879190613583565b34146115c8576040517f08c379a00000000000000000000000000000000000000000000000000000000081526004016115bf906137a0565b60405180910390fd5b82421061160a576040517f08c379a00000000000000000000000000000000000000000000000000000000081526004016116019061380c565b60405180910390fd5b600460009054906101000a900473ffffffffffffffffffffffffffffffffffffffff1673ffffffffffffffffffffffffffffffffffffffff1663929ff9533386866040518463ffffffff1660e01b81526004016116699392919061382c565b600060405180830381600087803b15801561168357600080fd5b505af1158015611697573d6000803e3d6000fd5b5050505050505050565b8060008054906101000a900473ffffffffffffffffffffffffffffffffffffffff1673ffffffffffffffffffffffffffffffffffffffff163373ffffffffffffffffffffffffffffffffffffffff16148061172757508073ffffffffffffffffffffffffffffffffffffffff163373ffffffffffffffffffffffffffffffffffffffff16145b611766576040517f08c379a000000000000000000000000000000000000000000000000000000000815260040161175d9061331f565b60405180910390fd5b81600160009054906101000a900473ffffffffffffffffffffffffffffffffffffffff1673ffffffffffffffffffffffffffffffffffffffff166312c61114826040518263ffffffff1660e01b81526004016117c29190613292565b602060405180830381865afa1580156117df573d6000803e3d6000fd5b505050506040513d601f19601f82011682018060405250810190611803919061336b565b611842576040517f08c379a0000000000000000000000000000000000000000000000000000000008152600401611839906133e4565b60405180910390fd5b600160009054906101000a900473ffffffffffffffffffffffffffffffffffffffff1673ffffffffffffffffffffffffffffffffffffffff16634a69d93d846040518263ffffffff1660e01b815260040161189d9190613292565b600060405180830381600087803b1580156118b757600080fd5b505af11580156118cb573d6000803e3d6000fd5b50505050505050565b60008054906101000a900473ffffffffffffffffffffffffffffffffffffffff1673ffffffffffffffffffffffffffffffffffffffff163373ffffffffffffffffffffffffffffffffffffffff1614611962576040517f08c379a0000000000000000000000000000000000000000000000000000000008152600401611959906138d5565b60405180910390fd5b80600360009054906101000a900473ffffffffffffffffffffffffffffffffffffffff1673ffffffffffffffffffffffffffffffffffffffff1663801d1697826040518263ffffffff1660e01b81526004016119be9190612e96565b602060405180830381865afa1580156119db573d6000803e3d6000fd5b505050506040513d601f19601f820116820180604052508101906119ff919061336b565b611a3e576040517f08c379a0000000000000000000000000000000000000000000000000000000008152600401611a3590613734565b60405180910390fd5b600360009054906101000a900473ffffffffffffffffffffffffffffffffffffffff1673ffffffffffffffffffffffffffffffffffffffff16634cc0862d836040518263ffffffff1660e01b8152600401611a999190612e96565b600060405180830381600087803b158015611ab357600080fd5b505af1158015611ac7573d6000803e3d6000fd5b505050505050565b600260009054906101000a900473ffffffffffffffffffffffffffffffffffffffff1673ffffffffffffffffffffffffffffffffffffffff1663c41a26e3826040518263ffffffff1660e01b8152600401611b2a9190613292565b600060405180830381600087803b158015611b4457600080fd5b505af1158015611b58573d6000803e3d6000fd5b5050505050565b6000600260009054906101000a900473ffffffffffffffffffffffffffffffffffffffff1673ffffffffffffffffffffffffffffffffffffffff1663f0e734d4836040518263ffffffff1660e01b8152600401611bbc9190613292565b602060405180830381865afa158015611bd9573d6000803e3d6000fd5b505050506040513d601f19601f82011682018060405250810190611bfd919061336b565b9050919050565b6000600160009054906101000a900473ffffffffffffffffffffffffffffffffffffffff1673ffffffffffffffffffffffffffffffffffffffff166385d8fff0836040518263ffffffff1660e01b8152600401611c619190613292565b602060405180830381865afa158015611c7e573d6000803e3d6000fd5b505050506040513d601f19601f82011682018060405250810190611ca2919061336b565b9050919050565b611cb1612d63565b600460009054906101000a900473ffffffffffffffffffffffffffffffffffffffff1673ffffffffffffffffffffffffffffffffffffffff16637c7ba0d4836040518263ffffffff1660e01b8152600401611d0c9190612e96565b60a060405180830381865afa158015611d29573d6000803e3d6000fd5b505050506040513d601f19601f82011682018060405250810190611d4d91906139d7565b9050919050565b600081600360009054906101000a900473ffffffffffffffffffffffffffffffffffffffff1673ffffffffffffffffffffffffffffffffffffffff1663801d1697826040518263ffffffff1660e01b8152600401611db29190612e96565b602060405180830381865afa158015611dcf573d6000803e3d6000fd5b505050506040513d601f19601f82011682018060405250810190611df3919061336b565b611e32576040517f08c379a0000000000000000000000000000000000000000000000000000000008152600401611e2990613734565b60405180910390fd5b600360009054906101000a900473ffffffffffffffffffffffffffffffffffffffff1673ffffffffffffffffffffffffffffffffffffffff16638a2c6b51846040518263ffffffff1660e01b8152600401611e8d9190612e96565b602060405180830381865afa158015611eaa573d6000803e3d6000fd5b505050506040513d601f19601f82011682018060405250810190611ece919061336b565b915050919050565b606081600360009054906101000a900473ffffffffffffffffffffffffffffffffffffffff1673ffffffffffffffffffffffffffffffffffffffff1663801d1697826040518263ffffffff1660e01b8152600401611f349190612e96565b602060405180830381865afa158015611f51573d6000803e3d6000fd5b505050506040513d601f19601f82011682018060405250810190611f75919061336b565b611fb4576040517f08c379a0000000000000000000000000000000000000000000000000000000008152600401611fab90613734565b60405180910390fd5b600360009054906101000a900473ffffffffffffffffffffffffffffffffffffffff1673ffffffffffffffffffffffffffffffffffffffff1663953058f8846040518263ffffffff1660e01b815260040161200f9190612e96565b600060405180830381865afa15801561202c573d6000803e3d6000fd5b505050506040513d6000823e3d601f19601f820116820180604052508101906120559190613a74565b915050919050565b60006003905090565b60008054906101000a900473ffffffffffffffffffffffffffffffffffffffff1673ffffffffffffffffffffffffffffffffffffffff163373ffffffffffffffffffffffffffffffffffffffff16146120f4576040517f08c379a00000000000000000000000000000000000000000000000000000000081526004016120eb906138d5565b60405180910390fd5b80600360009054906101000a900473ffffffffffffffffffffffffffffffffffffffff1673ffffffffffffffffffffffffffffffffffffffff1663801d1697826040518263ffffffff1660e01b81526004016121509190612e96565b602060405180830381865afa15801561216d573d6000803e3d6000fd5b505050506040513d601f19601f82011682018060405250810190612191919061336b565b6121d0576040517f08c379a00000000000000000000000000000000000000000000000000000000081526004016121c790613734565b60405180910390fd5b600360009054906101000a900473ffffffffffffffffffffffffffffffffffffffff1673ffffffffffffffffffffffffffffffffffffffff1663a8402602836040518263ffffffff1660e01b815260040161222b9190612e96565b600060405180830381600087803b15801561224557600080fd5b505af1158015612259573d6000803e3d6000fd5b505050505050565b6000600560009054906101000a900473ffffffffffffffffffffffffffffffffffffffff16905090565b6000600160009054906101000a900473ffffffffffffffffffffffffffffffffffffffff1673ffffffffffffffffffffffffffffffffffffffff166312c61114836040518263ffffffff1660e01b81526004016122e89190613292565b602060405180830381865afa158015612305573d6000803e3d6000fd5b505050506040513d601f19601f82011682018060405250810190612329919061336b565b9050919050565b600081600460009054906101000a900473ffffffffffffffffffffffffffffffffffffffff1673ffffffffffffffffffffffffffffffffffffffff16634b47d827826040518263ffffffff1660e01b815260040161238e9190612e96565b602060405180830381865afa1580156123ab573d6000803e3d6000fd5b505050506040513d601f19601f820116820180604052508101906123cf919061336b565b61240e576040517f08c379a000000000000000000000000000000000000000000000000000000000815260040161240590613450565b60405180910390fd5b600460009054906101000a900473ffffffffffffffffffffffffffffffffffffffff1673ffffffffffffffffffffffffffffffffffffffff1663b61cb6af846040518263ffffffff1660e01b81526004016124699190612e96565b602060405180830381865afa158015612486573d6000803e3d6000fd5b505050506040513d601f19601f820116820180604052508101906124aa919061336b565b915050919050565b60008060009054906101000a900473ffffffffffffffffffffffffffffffffffffffff1673ffffffffffffffffffffffffffffffffffffffff163373ffffffffffffffffffffffffffffffffffffffff1614905090565b600260009054906101000a900473ffffffffffffffffffffffffffffffffffffffff1673ffffffffffffffffffffffffffffffffffffffff1663f2fef58b33836040518363ffffffff1660e01b815260040161256692919061364c565b600060405180830381600087803b15801561258057600080fd5b505af1158015612594573d6000803e3d6000fd5b5050505050565b600081600360009054906101000a900473ffffffffffffffffffffffffffffffffffffffff1673ffffffffffffffffffffffffffffffffffffffff1663801d1697826040518263ffffffff1660e01b81526004016125f99190612e96565b602060405180830381865afa158015612616573d6000803e3d6000fd5b505050506040513d601f19601f8201168201806040525081019061263a919061336b565b612679576040517f08c379a000000000000000000000000000000000000000000000000000000000815260040161267090613734565b60405180910390fd5b600360009054906101000a900473ffffffffffffffffffffffffffffffffffffffff1673ffffffffffffffffffffffffffffffffffffffff1663c03f9b44846040518263ffffffff1660e01b81526004016126d49190612e96565b602060405180830381865afa1580156126f1573d6000803e3d6000fd5b505050506040513d601f19601f820116820180604052508101906127159190613583565b915050919050565b80600560006101000a81548173ffffffffffffffffffffffffffffffffffffffff021916908373ffffffffffffffffffffffffffffffffffffffff16021790555050565b6000600360009054906101000a900473ffffffffffffffffffffffffffffffffffffffff1673ffffffffffffffffffffffffffffffffffffffff1663c573d8a26040518163ffffffff1660e01b8152600401602060405180830381865afa1580156127d0573d6000803e3d6000fd5b505050506040513d601f19601f820116820180604052508101906127f49190613583565b905090565b600081600460009054906101000a900473ffffffffffffffffffffffffffffffffffffffff1673ffffffffffffffffffffffffffffffffffffffff16634b47d827826040518263ffffffff1660e01b81526004016128579190612e96565b602060405180830381865afa158015612874573d6000803e3d6000fd5b505050506040513d601f19601f82011682018060405250810190612898919061336b565b6128d7576040517f08c379a00000000000000000000000000000000000000000000000000000000081526004016128ce90613450565b60405180910390fd5b600460009054906101000a900473ffffffffffffffffffffffffffffffffffffffff1673ffffffffffffffffffffffffffffffffffffffff1663cb32db72846040518263ffffffff1660e01b81526004016129329190612e96565b602060405180830381865afa15801561294f573d6000803e3d6000fd5b505050506040513d601f19601f820116820180604052508101906129739190613583565b915050919050565b60008054906101000a900473ffffffffffffffffffffffffffffffffffffffff1673ffffffffffffffffffffffffffffffffffffffff163373ffffffffffffffffffffffffffffffffffffffff1614612a09576040517f08c379a0000000000000000000000000000000000000000000000000000000008152600401612a009061331f565b60405180910390fd5b600160009054906101000a900473ffffffffffffffffffffffffffffffffffffffff1673ffffffffffffffffffffffffffffffffffffffff1663061dff9a826040518263ffffffff1660e01b8152600401612a649190613292565b600060405180830381600087803b158015612a7e57600080fd5b505af1158015612a92573d6000803e3d6000fd5b5050505050565b612aa1612d63565b600460009054906101000a900473ffffffffffffffffffffffffffffffffffffffff1673ffffffffffffffffffffffffffffffffffffffff1663e4cc4e45836040518263ffffffff1660e01b8152600401612afc9190613292565b60a060405180830381865afa158015612b19573d6000803e3d6000fd5b505050506040513d601f19601f82011682018060405250810190612b3d91906139d7565b9050919050565b606081600160009054906101000a900473ffffffffffffffffffffffffffffffffffffffff1673ffffffffffffffffffffffffffffffffffffffff166312c61114826040518263ffffffff1660e01b8152600401612ba29190613292565b602060405180830381865afa158015612bbf573d6000803e3d6000fd5b505050506040513d601f19601f82011682018060405250810190612be3919061336b565b612c22576040517f08c379a0000000000000000000000000000000000000000000000000000000008152600401612c19906133e4565b60405180910390fd5b600160009054906101000a900473ffffffffffffffffffffffffffffffffffffffff1673ffffffffffffffffffffffffffffffffffffffff1663e53a6ec3846040518263ffffffff1660e01b8152600401612c7d9190613292565b600060405180830381865afa158015612c9a573d6000803e3d6000fd5b505050506040513d6000823e3d601f19601f82011682018060405250810190612cc39190613a74565b915050919050565b6000600260009054906101000a900473ffffffffffffffffffffffffffffffffffffffff1673ffffffffffffffffffffffffffffffffffffffff1663a8cd0a806040518163ffffffff1660e01b8152600401602060405180830381865afa158015612d3a573d6000803e3d6000fd5b505050506040513d601f19601f82011682018060405250810190612d5e9190613ad2565b905090565b6040518060a00160405280600590602082028036833780820191505090505090565b6000604051905090565b600080fd5b600080fd5b600073ffffffffffffffffffffffffffffffffffffffff82169050919050565b6000612dc482612d99565b9050919050565b612dd481612db9565b8114612ddf57600080fd5b50565b600081359050612df181612dcb565b92915050565b600060208284031215612e0d57612e0c612d8f565b5b6000612e1b84828501612de2565b91505092915050565b6000819050919050565b612e3781612e24565b8114612e4257600080fd5b50565b600081359050612e5481612e2e565b92915050565b600060208284031215612e7057612e6f612d8f565b5b6000612e7e84828501612e45565b91505092915050565b612e9081612e24565b82525050565b6000602082019050612eab6000830184612e87565b92915050565b600080fd5b600080fd5b6000601f19601f8301169050919050565b7f4e487b7100000000000000000000000000000000000000000000000000000000600052604160045260246000fd5b612f0482612ebb565b810181811067ffffffffffffffff82111715612f2357612f22612ecc565b5b80604052505050565b6000612f36612d85565b9050612f428282612efb565b919050565b600067ffffffffffffffff821115612f6257612f61612ecc565b5b612f6b82612ebb565b9050602081019050919050565b82818337600083830152505050565b6000612f9a612f9584612f47565b612f2c565b905082815260208101848484011115612fb657612fb5612eb6565b5b612fc1848285612f78565b509392505050565b600082601f830112612fde57612fdd612eb1565b5b8135612fee848260208601612f87565b91505092915050565b6000806040838503121561300e5761300d612d8f565b5b600083013567ffffffffffffffff81111561302c5761302b612d94565b5b61303885828601612fc9565b925050602061304985828601612e45565b9150509250929050565b60008115159050919050565b61306881613053565b82525050565b6000602082019050613083600083018461305f565b92915050565b60006020828403121561309f5761309e612d8f565b5b600082013567ffffffffffffffff8111156130bd576130bc612d94565b5b6130c984828501612fc9565b91505092915050565b600080604083850312156130e9576130e8612d8f565b5b60006130f785828601612e45565b925050602061310885828601612e45565b9150509250929050565b600060059050919050565b600081905092915050565b6000819050919050565b6000819050919050565b61314581613132565b82525050565b6000613157838361313c565b60208301905092915050565b6000602082019050919050565b61317981613112565b613183818461311d565b925061318e82613128565b8060005b838110156131bf5781516131a6878261314b565b96506131b183613163565b925050600181019050613192565b505050505050565b600060a0820190506131dc6000830184613170565b92915050565b600081519050919050565b600082825260208201905092915050565b60005b8381101561321c578082015181840152602081019050613201565b60008484015250505050565b6000613233826131e2565b61323d81856131ed565b935061324d8185602086016131fe565b61325681612ebb565b840191505092915050565b6000602082019050818103600083015261327b8184613228565b905092915050565b61328c81612db9565b82525050565b60006020820190506132a76000830184613283565b92915050565b7f4f6e6c79206465706c6f7965722063616e20617070726f766520776f726b657260008201527f20726567697374726174696f6e20726571756573747300000000000000000000602082015250565b60006133096036836131ed565b9150613314826132ad565b604082019050919050565b60006020820190508181036000830152613338816132fc565b9050919050565b61334881613053565b811461335357600080fd5b50565b6000815190506133658161333f565b92915050565b60006020828403121561338157613380612d8f565b5b600061338f84828501613356565b91505092915050565b7f576f726b65722069736e27742068657265000000000000000000000000000000600082015250565b60006133ce6011836131ed565b91506133d982613398565b602082019050919050565b600060208201905081810360008301526133fd816133c1565b9050919050565b7f446f6e2774206861766520616e206170706f696e746d656e7400000000000000600082015250565b600061343a6019836131ed565b915061344582613404565b602082019050919050565b600060208201905081810360008301526134698161342d565b9050919050565b7f446f6e2774206861766520616e20756e617070726f766564206170706f696e7460008201527f6d656e7400000000000000000000000000000000000000000000000000000000602082015250565b60006134cc6024836131ed565b91506134d782613470565b604082019050919050565b600060208201905081810360008301526134fb816134bf565b9050919050565b7f596f752061726520756e617661696c61626c6500000000000000000000000000600082015250565b60006135386013836131ed565b915061354382613502565b602082019050919050565b600060208201905081810360008301526135678161352b565b9050919050565b60008151905061357d81612e2e565b92915050565b60006020828403121561359957613598612d8f565b5b60006135a78482850161356e565b91505092915050565b7f4f6e6c792061646d696e2063616e206372656174652073657276696365730000600082015250565b60006135e6601e836131ed565b91506135f1826135b0565b602082019050919050565b60006020820190508181036000830152613615816135d9565b9050919050565b600060408201905081810360008301526136368185613228565b90506136456020830184612e87565b9392505050565b60006040820190506136616000830185613283565b81810360208301526136738184613228565b90509392505050565b7f436c69656e742069736e27742068657265000000000000000000000000000000600082015250565b60006136b26011836131ed565b91506136bd8261367c565b602082019050919050565b600060208201905081810360008301526136e1816136a5565b9050919050565b7f5365727669636520646f65736e27742065786973740000000000000000000000600082015250565b600061371e6015836131ed565b9150613729826136e8565b602082019050919050565b6000602082019050818103600083015261374d81613711565b9050919050565b7f57726f6e672076616c756520666f722073657276696365000000000000000000600082015250565b600061378a6017836131ed565b915061379582613754565b602082019050919050565b600060208201905081810360008301526137b98161377d565b9050919050565b7f57726f6e672074696d6500000000000000000000000000000000000000000000600082015250565b60006137f6600a836131ed565b9150613801826137c0565b602082019050919050565b60006020820190508181036000830152613825816137e9565b9050919050565b60006060820190506138416000830186613283565b61384e6020830185612e87565b61385b6040830184612e87565b949350505050565b7f4f6e6c792061646d696e2063616e206368616e6765207365727669636520737460008201527f6174757300000000000000000000000000000000000000000000000000000000602082015250565b60006138bf6024836131ed565b91506138ca82613863565b604082019050919050565b600060208201905081810360008301526138ee816138b2565b9050919050565b600067ffffffffffffffff8211156139105761390f612ecc565b5b602082029050919050565b600080fd5b61392981613132565b811461393457600080fd5b50565b60008151905061394681613920565b92915050565b600061395f61395a846138f5565b612f2c565b905080602084028301858111156139795761397861391b565b5b835b818110156139a2578061398e8882613937565b84526020840193505060208101905061397b565b5050509392505050565b600082601f8301126139c1576139c0612eb1565b5b60056139ce84828561394c565b91505092915050565b600060a082840312156139ed576139ec612d8f565b5b60006139fb848285016139ac565b91505092915050565b6000613a17613a1284612f47565b612f2c565b905082815260208101848484011115613a3357613a32612eb6565b5b613a3e8482856131fe565b509392505050565b600082601f830112613a5b57613a5a612eb1565b5b8151613a6b848260208601613a04565b91505092915050565b600060208284031215613a8a57613a89612d8f565b5b600082015167ffffffffffffffff811115613aa857613aa7612d94565b5b613ab484828501613a46565b91505092915050565b600081519050613acc81612dcb565b92915050565b600060208284031215613ae857613ae7612d8f565b5b6000613af684828501613abd565b9150509291505056fea26469706673582212204b3dd4b7e272ff8e041e38f8b258622484cc17052a3aad195d8716732db8ac1e64736f6c63430008110033608060405234801561001057600080fd5b50610dec806100206000396000f3fe608060405234801561001057600080fd5b50600436106100885760003560e01c80634a69d93d1161005b5780634a69d93d1461012557806385d8fff014610141578063c011565b14610171578063e53a6ec31461018d57610088565b80630405df881461008d578063061dff9a146100a957806312c61114146100c55780632de03b6b146100f5575b600080fd5b6100a760048036038101906100a291906107f9565b6101bd565b005b6100c360048036038101906100be91906107f9565b61022a565b005b6100df60048036038101906100da91906107f9565b610429565b6040516100ec9190610841565b60405180910390f35b61010f600480360381019061010a91906107f9565b610482565b60405161011c9190610841565b60405180910390f35b61013f600480360381019061013a91906107f9565b61055a565b005b61015b600480360381019061015691906107f9565b6105c8565b6040516101689190610841565b60405180910390f35b61018b600480360381019061018691906109a2565b610620565b005b6101a760048036038101906101a291906107f9565b6106b3565b6040516101b49190610a7d565b60405180910390f35b60018060008373ffffffffffffffffffffffffffffffffffffffff1673ffffffffffffffffffffffffffffffffffffffff16815260200190815260200160002060010160016101000a81548160ff0219169083600281111561022257610221610a9f565b5b021790555050565b60008060008373ffffffffffffffffffffffffffffffffffffffff1673ffffffffffffffffffffffffffffffffffffffff16815260200190815260200160002060010160006101000a81548160ff02191690831515021790555060405180606001604052806000808473ffffffffffffffffffffffffffffffffffffffff1673ffffffffffffffffffffffffffffffffffffffff16815260200190815260200160002060000180546102db90610afd565b80601f016020809104026020016040519081016040528092919081815260200182805461030790610afd565b80156103545780601f1061032957610100808354040283529160200191610354565b820191906000526020600020905b81548152906001019060200180831161033757829003601f168201915b505050505081526020016001151581526020016001600281111561037b5761037a610a9f565b5b815250600160008373ffffffffffffffffffffffffffffffffffffffff1673ffffffffffffffffffffffffffffffffffffffff16815260200190815260200160002060008201518160000190816103d29190610ce4565b5060208201518160010160006101000a81548160ff02191690831515021790555060408201518160010160016101000a81548160ff0219169083600281111561041e5761041d610a9f565b5b021790555090505050565b6000600160008373ffffffffffffffffffffffffffffffffffffffff1673ffffffffffffffffffffffffffffffffffffffff16815260200190815260200160002060010160009054906101000a900460ff169050919050565b6000600160008373ffffffffffffffffffffffffffffffffffffffff1673ffffffffffffffffffffffffffffffffffffffff16815260200190815260200160002060010160009054906101000a900460ff1680156105535750600160028111156104ef576104ee610a9f565b5b600160008473ffffffffffffffffffffffffffffffffffffffff1673ffffffffffffffffffffffffffffffffffffffff16815260200190815260200160002060010160019054906101000a900460ff16600281111561055157610550610a9f565b5b145b9050919050565b6002600160008373ffffffffffffffffffffffffffffffffffffffff1673ffffffffffffffffffffffffffffffffffffffff16815260200190815260200160002060010160016101000a81548160ff021916908360028111156105c0576105bf610a9f565b5b021790555050565b60008060008373ffffffffffffffffffffffffffffffffffffffff1673ffffffffffffffffffffffffffffffffffffffff16815260200190815260200160002060010160009054906101000a900460ff169050919050565b6040518060400160405280828152602001600115158152506000808473ffffffffffffffffffffffffffffffffffffffff1673ffffffffffffffffffffffffffffffffffffffff168152602001908152602001600020600082015181600001908161068b9190610ce4565b5060208201518160010160006101000a81548160ff0219169083151502179055509050505050565b6060600160008373ffffffffffffffffffffffffffffffffffffffff1673ffffffffffffffffffffffffffffffffffffffff168152602001908152602001600020600001805461070290610afd565b80601f016020809104026020016040519081016040528092919081815260200182805461072e90610afd565b801561077b5780601f106107505761010080835404028352916020019161077b565b820191906000526020600020905b81548152906001019060200180831161075e57829003601f168201915b50505050509050919050565b6000604051905090565b600080fd5b600080fd5b600073ffffffffffffffffffffffffffffffffffffffff82169050919050565b60006107c68261079b565b9050919050565b6107d6816107bb565b81146107e157600080fd5b50565b6000813590506107f3816107cd565b92915050565b60006020828403121561080f5761080e610791565b5b600061081d848285016107e4565b91505092915050565b60008115159050919050565b61083b81610826565b82525050565b60006020820190506108566000830184610832565b92915050565b600080fd5b600080fd5b6000601f19601f8301169050919050565b7f4e487b7100000000000000000000000000000000000000000000000000000000600052604160045260246000fd5b6108af82610866565b810181811067ffffffffffffffff821117156108ce576108cd610877565b5b80604052505050565b60006108e1610787565b90506108ed82826108a6565b919050565b600067ffffffffffffffff82111561090d5761090c610877565b5b61091682610866565b9050602081019050919050565b82818337600083830152505050565b6000610945610940846108f2565b6108d7565b90508281526020810184848401111561096157610960610861565b5b61096c848285610923565b509392505050565b600082601f8301126109895761098861085c565b5b8135610999848260208601610932565b91505092915050565b600080604083850312156109b9576109b8610791565b5b60006109c7858286016107e4565b925050602083013567ffffffffffffffff8111156109e8576109e7610796565b5b6109f485828601610974565b9150509250929050565b600081519050919050565b600082825260208201905092915050565b60005b83811015610a38578082015181840152602081019050610a1d565b60008484015250505050565b6000610a4f826109fe565b610a598185610a09565b9350610a69818560208601610a1a565b610a7281610866565b840191505092915050565b60006020820190508181036000830152610a978184610a44565b905092915050565b7f4e487b7100000000000000000000000000000000000000000000000000000000600052602160045260246000fd5b7f4e487b7100000000000000000000000000000000000000000000000000000000600052602260045260246000fd5b60006002820490506001821680610b1557607f821691505b602082108103610b2857610b27610ace565b5b50919050565b60008190508160005260206000209050919050565b60006020601f8301049050919050565b600082821b905092915050565b600060088302610b907fffffffffffffffffffffffffffffffffffffffffffffffffffffffffffffffff82610b53565b610b9a8683610b53565b95508019841693508086168417925050509392505050565b6000819050919050565b6000819050919050565b6000610be1610bdc610bd784610bb2565b610bbc565b610bb2565b9050919050565b6000819050919050565b610bfb83610bc6565b610c0f610c0782610be8565b848454610b60565b825550505050565b600090565b610c24610c17565b610c2f818484610bf2565b505050565b5b81811015610c5357610c48600082610c1c565b600181019050610c35565b5050565b601f821115610c9857610c6981610b2e565b610c7284610b43565b81016020851015610c81578190505b610c95610c8d85610b43565b830182610c34565b50505b505050565b600082821c905092915050565b6000610cbb60001984600802610c9d565b1980831691505092915050565b6000610cd48383610caa565b9150826002028217905092915050565b610ced826109fe565b67ffffffffffffffff811115610d0657610d05610877565b5b610d108254610afd565b610d1b828285610c57565b600060209050601f831160018114610d4e5760008415610d3c578287015190505b610d468582610cc8565b865550610dae565b601f198416610d5c86610b2e565b60005b82811015610d8457848901518255600182019150602085019450602081019050610d5f565b86831015610da15784890151610d9d601f891682610caa565b8355505b6001600288020188555050505b50505050505056fea26469706673582212207b005344891ad22181cddb0d9531c8d5d8aa32bc5c75b3321654c2a39deef38e64736f6c63430008110033608060405234801561001057600080fd5b506107fa806100206000396000f3fe608060405234801561001057600080fd5b506004361061004c5760003560e01c8063a8cd0a8014610051578063c41a26e31461006f578063f0e734d41461008b578063f2fef58b146100bb575b600080fd5b6100596100d7565b6040516100669190610271565b60405180910390f35b610089600480360381019061008491906102cc565b610101565b005b6100a560048036038101906100a091906102cc565b610145565b6040516100b29190610314565b60405180910390f35b6100d560048036038101906100d09190610475565b61019d565b005b6000600160009054906101000a900473ffffffffffffffffffffffffffffffffffffffff16905090565b80600160006101000a81548173ffffffffffffffffffffffffffffffffffffffff021916908373ffffffffffffffffffffffffffffffffffffffff16021790555050565b60008060008373ffffffffffffffffffffffffffffffffffffffff1673ffffffffffffffffffffffffffffffffffffffff16815260200190815260200160002060010160009054906101000a900460ff169050919050565b6040518060400160405280828152602001600115158152506000808473ffffffffffffffffffffffffffffffffffffffff1673ffffffffffffffffffffffffffffffffffffffff168152602001908152602001600020600082015181600001908161020891906106f2565b5060208201518160010160006101000a81548160ff0219169083151502179055509050505050565b600073ffffffffffffffffffffffffffffffffffffffff82169050919050565b600061025b82610230565b9050919050565b61026b81610250565b82525050565b60006020820190506102866000830184610262565b92915050565b6000604051905090565b600080fd5b600080fd5b6102a981610250565b81146102b457600080fd5b50565b6000813590506102c6816102a0565b92915050565b6000602082840312156102e2576102e1610296565b5b60006102f0848285016102b7565b91505092915050565b60008115159050919050565b61030e816102f9565b82525050565b60006020820190506103296000830184610305565b92915050565b600080fd5b600080fd5b6000601f19601f8301169050919050565b7f4e487b7100000000000000000000000000000000000000000000000000000000600052604160045260246000fd5b61038282610339565b810181811067ffffffffffffffff821117156103a1576103a061034a565b5b80604052505050565b60006103b461028c565b90506103c08282610379565b919050565b600067ffffffffffffffff8211156103e0576103df61034a565b5b6103e982610339565b9050602081019050919050565b82818337600083830152505050565b6000610418610413846103c5565b6103aa565b90508281526020810184848401111561043457610433610334565b5b61043f8482856103f6565b509392505050565b600082601f83011261045c5761045b61032f565b5b813561046c848260208601610405565b91505092915050565b6000806040838503121561048c5761048b610296565b5b600061049a858286016102b7565b925050602083013567ffffffffffffffff8111156104bb576104ba61029b565b5b6104c785828601610447565b9150509250929050565b600081519050919050565b7f4e487b7100000000000000000000000000000000000000000000000000000000600052602260045260246000fd5b6000600282049050600182168061052357607f821691505b602082108103610536576105356104dc565b5b50919050565b60008190508160005260206000209050919050565b60006020601f8301049050919050565b600082821b905092915050565b60006008830261059e7fffffffffffffffffffffffffffffffffffffffffffffffffffffffffffffffff82610561565b6105a88683610561565b95508019841693508086168417925050509392505050565b6000819050919050565b6000819050919050565b60006105ef6105ea6105e5846105c0565b6105ca565b6105c0565b9050919050565b6000819050919050565b610609836105d4565b61061d610615826105f6565b84845461056e565b825550505050565b600090565b610632610625565b61063d818484610600565b505050565b5b818110156106615761065660008261062a565b600181019050610643565b5050565b601f8211156106a6576106778161053c565b61068084610551565b8101602085101561068f578190505b6106a361069b85610551565b830182610642565b50505b505050565b600082821c905092915050565b60006106c9600019846008026106ab565b1980831691505092915050565b60006106e283836106b8565b9150826002028217905092915050565b6106fb826104d1565b67ffffffffffffffff8111156107145761071361034a565b5b61071e825461050b565b610729828285610665565b600060209050601f83116001811461075c576000841561074a578287015190505b61075485826106d6565b8655506107bc565b601f19841661076a8661053c565b60005b828110156107925784890151825560018201915060208501945060208101905061076d565b868310156107af57848901516107ab601f8916826106b8565b8355505b6001600288020188555050505b50505050505056fea2646970667358221220603055f9ef23238edcf5fa881d094402372cc87b3e4cb49f29b1779c60450f6e64736f6c63430008110033608060405234801561001057600080fd5b50610b00806100206000396000f3fe608060405234801561001057600080fd5b50600436106100885760003560e01c8063953058f81161005b578063953058f814610125578063a840260214610155578063c03f9b4414610171578063c573d8a2146101a157610088565b80631cf82bd21461008d5780634cc0862d146100a9578063801d1697146100c55780638a2c6b51146100f5575b600080fd5b6100a760048036038101906100a29190610604565b6101bf565b005b6100c360048036038101906100be9190610660565b61026e565b005b6100df60048036038101906100da9190610660565b6102bf565b6040516100ec91906106a8565b60405180910390f35b61010f600480360381019061010a9190610660565b6102cf565b60405161011c91906106a8565b60405180910390f35b61013f600480360381019061013a9190610660565b610332565b60405161014c9190610742565b60405180910390f35b61016f600480360381019061016a9190610660565b6103e9565b005b61018b60048036038101906101869190610660565b61043a565b6040516101989190610773565b60405180910390f35b6101a9610468565b6040516101b69190610773565b60405180910390f35b60006040518060600160405280848152602001838152602001600160028111156101ec576101eb61078e565b5b8152509080600181540180825580915050600190039060005260206000209060030201600090919091909150600082015181600001908161022d91906109c9565b506020820151816001015560408201518160020160006101000a81548160ff021916908360028111156102635761026261078e565b5b021790555050505050565b60016000828154811061028457610283610a9b565b5b906000526020600020906003020160020160006101000a81548160ff021916908360028111156102b7576102b661078e565b5b021790555050565b6000808054905082109050919050565b6000600160028111156102e5576102e461078e565b5b600083815481106102f9576102f8610a9b565b5b906000526020600020906003020160020160009054906101000a900460ff16600281111561032a5761032961078e565b5b149050919050565b60606000828154811061034857610347610a9b565b5b90600052602060002090600302016000018054610364906107ec565b80601f0160208091040260200160405190810160405280929190818152602001828054610390906107ec565b80156103dd5780601f106103b2576101008083540402835291602001916103dd565b820191906000526020600020905b8154815290600101906020018083116103c057829003601f168201915b50505050509050919050565b6002600082815481106103ff576103fe610a9b565b5b906000526020600020906003020160020160006101000a81548160ff021916908360028111156104325761043161078e565b5b021790555050565b600080828154811061044f5761044e610a9b565b5b9060005260206000209060030201600101549050919050565b60008080549050905090565b6000604051905090565b600080fd5b600080fd5b600080fd5b600080fd5b6000601f19601f8301169050919050565b7f4e487b7100000000000000000000000000000000000000000000000000000000600052604160045260246000fd5b6104db82610492565b810181811067ffffffffffffffff821117156104fa576104f96104a3565b5b80604052505050565b600061050d610474565b905061051982826104d2565b919050565b600067ffffffffffffffff821115610539576105386104a3565b5b61054282610492565b9050602081019050919050565b82818337600083830152505050565b600061057161056c8461051e565b610503565b90508281526020810184848401111561058d5761058c61048d565b5b61059884828561054f565b509392505050565b600082601f8301126105b5576105b4610488565b5b81356105c584826020860161055e565b91505092915050565b6000819050919050565b6105e1816105ce565b81146105ec57600080fd5b50565b6000813590506105fe816105d8565b92915050565b6000806040838503121561061b5761061a61047e565b5b600083013567ffffffffffffffff81111561063957610638610483565b5b610645858286016105a0565b9250506020610656858286016105ef565b9150509250929050565b6000602082840312156106765761067561047e565b5b6000610684848285016105ef565b91505092915050565b60008115159050919050565b6106a28161068d565b82525050565b60006020820190506106bd6000830184610699565b92915050565b600081519050919050565b600082825260208201905092915050565b60005b838110156106fd5780820151818401526020810190506106e2565b60008484015250505050565b6000610714826106c3565b61071e81856106ce565b935061072e8185602086016106df565b61073781610492565b840191505092915050565b6000602082019050818103600083015261075c8184610709565b905092915050565b61076d816105ce565b82525050565b60006020820190506107886000830184610764565b92915050565b7f4e487b7100000000000000000000000000000000000000000000000000000000600052602160045260246000fd5b7f4e487b7100000000000000000000000000000000000000000000000000000000600052602260045260246000fd5b6000600282049050600182168061080457607f821691505b602082108103610817576108166107bd565b5b50919050565b60008190508160005260206000209050919050565b60006020601f8301049050919050565b600082821b905092915050565b60006008830261087f7fffffffffffffffffffffffffffffffffffffffffffffffffffffffffffffffff82610842565b6108898683610842565b95508019841693508086168417925050509392505050565b6000819050919050565b60006108c66108c16108bc846105ce565b6108a1565b6105ce565b9050919050565b6000819050919050565b6108e0836108ab565b6108f46108ec826108cd565b84845461084f565b825550505050565b600090565b6109096108fc565b6109148184846108d7565b505050565b5b818110156109385761092d600082610901565b60018101905061091a565b5050565b601f82111561097d5761094e8161081d565b61095784610832565b81016020851015610966578190505b61097a61097285610832565b830182610919565b50505b505050565b600082821c905092915050565b60006109a060001984600802610982565b1980831691505092915050565b60006109b9838361098f565b9150826002028217905092915050565b6109d2826106c3565b67ffffffffffffffff8111156109eb576109ea6104a3565b5b6109f582546107ec565b610a0082828561093c565b600060209050601f831160018114610a335760008415610a21578287015190505b610a2b85826109ad565b865550610a93565b601f198416610a418661081d565b60005b82811015610a6957848901518255600182019150602085019450602081019050610a44565b86831015610a865784890151610a82601f89168261098f565b8355505b6001600288020188555050505b505050505050565b7f4e487b7100000000000000000000000000000000000000000000000000000000600052603260045260246000fdfea264697066735822122026c88b08b6406c86a2f77f8f9be90f2ac503d41579c04562876ae2c7e36e6fc264736f6c63430008110033608060405234801561001057600080fd5b50610b61806100206000396000f3fe608060405234801561001057600080fd5b506004361061009e5760003560e01c80637c7ba0d4116100665780637c7ba0d41461016d578063929ff9531461019d578063b61cb6af146101b9578063cb32db72146101e9578063e4cc4e45146102195761009e565b8063064eac8a146100a35780630daae746146100bf578063454322b8146100ef5780634b47d8271461010d57806378ec04d91461013d575b600080fd5b6100bd60048036038101906100b8919061081b565b610249565b005b6100d960048036038101906100d4919061081b565b61029a565b6040516100e69190610857565b60405180910390f35b6100f76102c8565b6040516101049190610857565b60405180910390f35b6101276004803603810190610122919061081b565b6102d4565b604051610134919061088d565b60405180910390f35b6101576004803603810190610152919061081b565b6102e4565b6040516101649190610857565b60405180910390f35b6101876004803603810190610182919061081b565b610312565b604051610194919061095d565b60405180910390f35b6101b760048036038101906101b291906109d6565b610476565b005b6101d360048036038101906101ce919061081b565b6105e1565b6040516101e0919061088d565b60405180910390f35b61020360048036038101906101fe919061081b565b610643565b6040516102109190610857565b60405180910390f35b610233600480360381019061022e9190610a29565b610671565b604051610240919061095d565b60405180910390f35b60026000828154811061025f5761025e610a56565b5b906000526020600020906004020160030160146101000a81548160ff0219169083600281111561029257610291610a85565b5b021790555050565b60008082815481106102af576102ae610a56565b5b9060005260206000209060040201600001549050919050565b60008080549050905090565b6000808054905082109050919050565b60008082815481106102f9576102f8610a56565b5b9060005260206000209060040201600001549050919050565b61031a6107be565b6000806000808054905090506000600590506103346107be565b5b828410801561034357508185105b1561041257866000858154811061035d5761035c610a56565b5b9060005260206000209060040201600001541480156103d257506001600281111561038b5761038a610a85565b5b6000858154811061039f5761039e610a56565b5b906000526020600020906004020160030160149054906101000a900460ff1660028111156103d0576103cf610a85565b5b145b1561040157838186806103e490610ae3565b9750600581106103f7576103f6610a56565b5b6020020181815250505b8361040b90610ae3565b9350610335565b5b81851015610469577fffffffffffffffffffffffffffffffffffffffffffffffffffffffffffffffff81866005811061044f5761044e610a56565b5b6020020181815250508461046290610ae3565b9450610413565b8095505050505050919050565b60006040518060a001604052808481526020018381526020018573ffffffffffffffffffffffffffffffffffffffff168152602001600073ffffffffffffffffffffffffffffffffffffffff168152602001600160028111156104dc576104db610a85565b5b8152509080600181540180825580915050600190039060005260206000209060040201600090919091909150600082015181600001556020820151816001015560408201518160020160006101000a81548173ffffffffffffffffffffffffffffffffffffffff021916908373ffffffffffffffffffffffffffffffffffffffff16021790555060608201518160030160006101000a81548173ffffffffffffffffffffffffffffffffffffffff021916908373ffffffffffffffffffffffffffffffffffffffff16021790555060808201518160030160146101000a81548160ff021916908360028111156105d5576105d4610a85565b5b02179055505050505050565b60006002808111156105f6576105f5610a85565b5b6000838154811061060a57610609610a56565b5b906000526020600020906004020160030160149054906101000a900460ff16600281111561063b5761063a610a85565b5b149050919050565b600080828154811061065857610657610a56565b5b9060005260206000209060040201600101549050919050565b6106796107be565b6000806000808054905090506000600590506106936107be565b5b82841080156106a257508185105b1561075a578673ffffffffffffffffffffffffffffffffffffffff16600085815481106106d2576106d1610a56565b5b906000526020600020906004020160020160009054906101000a900473ffffffffffffffffffffffffffffffffffffffff1673ffffffffffffffffffffffffffffffffffffffff1603610749578381868061072c90610ae3565b97506005811061073f5761073e610a56565b5b6020020181815250505b8361075390610ae3565b9350610694565b5b818510156107b1577fffffffffffffffffffffffffffffffffffffffffffffffffffffffffffffffff81866005811061079757610796610a56565b5b602002018181525050846107aa90610ae3565b945061075b565b8095505050505050919050565b6040518060a00160405280600590602082028036833780820191505090505090565b600080fd5b6000819050919050565b6107f8816107e5565b811461080357600080fd5b50565b600081359050610815816107ef565b92915050565b600060208284031215610831576108306107e0565b5b600061083f84828501610806565b91505092915050565b610851816107e5565b82525050565b600060208201905061086c6000830184610848565b92915050565b60008115159050919050565b61088781610872565b82525050565b60006020820190506108a2600083018461087e565b92915050565b600060059050919050565b600081905092915050565b6000819050919050565b6000819050919050565b6108db816108c8565b82525050565b60006108ed83836108d2565b60208301905092915050565b6000602082019050919050565b61090f816108a8565b61091981846108b3565b9250610924826108be565b8060005b8381101561095557815161093c87826108e1565b9650610947836108f9565b925050600181019050610928565b505050505050565b600060a0820190506109726000830184610906565b92915050565b600073ffffffffffffffffffffffffffffffffffffffff82169050919050565b60006109a382610978565b9050919050565b6109b381610998565b81146109be57600080fd5b50565b6000813590506109d0816109aa565b92915050565b6000806000606084860312156109ef576109ee6107e0565b5b60006109fd868287016109c1565b9350506020610a0e86828701610806565b9250506040610a1f86828701610806565b9150509250925092565b600060208284031215610a3f57610a3e6107e0565b5b6000610a4d848285016109c1565b91505092915050565b7f4e487b7100000000000000000000000000000000000000000000000000000000600052603260045260246000fd5b7f4e487b7100000000000000000000000000000000000000000000000000000000600052602160045260246000fd5b7f4e487b7100000000000000000000000000000000000000000000000000000000600052601160045260246000fd5b6000610aee826107e5565b91507fffffffffffffffffffffffffffffffffffffffffffffffffffffffffffffffff8203610b2057610b1f610ab4565b5b60018201905091905056fea2646970667358221220849a9005915413448e3b011b5ae9f012b4b2af679064ddae4dfcabedcb16ba0d64736f6c63430008110033",
  "immutableReferences": {},
  "source": "pragma solidity ^0.8.13;\r\n\r\nimport \"./WorkerManager.sol\";\r\nimport \"./ClientManager.sol\";\r\nimport \"./ServiceManager.sol\";\r\nimport \"./AppointmentManager.sol\";\r\n\r\ncontract MassageRoom {\r\n    address deployer;\r\n\r\n    WorkerManager workerManager;\r\n    ClientManager clientManager;\r\n    ServiceManager serviceManager;\r\n    AppointmentManager appointmentManager;\r\n\r\n    constructor() {\r\n        deployer = msg.sender;\r\n\r\n        workerManager = new WorkerManager();\r\n        clientManager = new ClientManager();\r\n        serviceManager = new ServiceManager();\r\n        appointmentManager = new AppointmentManager();\r\n    }\r\n\r\n    address testV;\r\n\r\n    function putTest(address v) external {\r\n        testV = v;\r\n    }\r\n\r\n    function getTest() external view returns (address) {\r\n        return testV;\r\n    }\r\n\r\n    function putTestHop(address v) external {\r\n        clientManager.putTest(v);\r\n    }\r\n\r\n    function getTestHop() external view returns (address) {\r\n        return clientManager.getTest();\r\n    }\r\n\r\n    //* Modifiers//\r\n\r\n    modifier _canApproveWorkerRegistrationRequests() {\r\n        require(\r\n            msg.sender == deployer,\r\n            \"Only deployer can approve worker registration requests\"\r\n        );\r\n        _;\r\n    }\r\n\r\n    modifier _canChangeWorkerStatus(address targetWorker) {\r\n        require(\r\n            msg.sender == deployer || msg.sender == targetWorker,\r\n            \"Only deployer can approve worker registration requests\"\r\n        );\r\n        _;\r\n    }\r\n\r\n    modifier _hasWorker(address targetWorker) {\r\n        require(workerManager.isWorkerHere(targetWorker), \"Worker isn't here\");\r\n        _;\r\n    }\r\n\r\n    modifier _hasWorkerRequest(address targetWorker) {\r\n        require(\r\n            workerManager.isRequestHere(targetWorker),\r\n            \"Request isn't here\"\r\n        );\r\n        _;\r\n    }\r\n\r\n    modifier _hasClient(address targetClient) {\r\n        require(clientManager.isClientHere(targetClient), \"Client isn't here\");\r\n        _;\r\n    }\r\n\r\n    modifier _canCreateServices() {\r\n        require(msg.sender == deployer, \"Only admin can create services\");\r\n        _;\r\n    }\r\n\r\n    modifier _canChangeServiceStatus() {\r\n        require(msg.sender == deployer, \"Only admin can change service status\");\r\n        _;\r\n    }\r\n\r\n    modifier _hasService(uint256 i) {\r\n        require(serviceManager.hasService(i), \"Service doesn't exist\");\r\n        _;\r\n    }\r\n\r\n    modifier _hasUnapprovedAppointment(uint256 i) {\r\n        require(\r\n            appointmentManager.isAppointmentApproved(i) == false,\r\n            \"Don't have an unapproved appointment\"\r\n        );\r\n        _;\r\n    }\r\n\r\n    modifier _hasAppointment(uint256 i) {\r\n        require(\r\n            appointmentManager.hasAppointment(i),\r\n            \"Don't have an appointment\"\r\n        );\r\n        _;\r\n    }\r\n\r\n    //* ~Modifiers//\r\n\r\n    function getTestValue() external pure returns (uint256) {\r\n        return 3;\r\n    }\r\n\r\n    function isAdmin() external view returns (bool) {\r\n        return msg.sender == deployer;\r\n    }\r\n\r\n    //* Workers//\r\n    function askToRegisterAsWorker(string memory name) external {\r\n        workerManager.putRequestToRegister(msg.sender, name);\r\n    }\r\n\r\n    function approveWorkerRegistrationRequest(address workerAddr)\r\n        external\r\n        _canApproveWorkerRegistrationRequests\r\n    {\r\n        workerManager.approveRequest(workerAddr);\r\n    }\r\n\r\n    function isWorkerRequestHere(address addr) external view returns (bool) {\r\n        return workerManager.isRequestHere(addr);\r\n    }\r\n\r\n    function isAWorker(address addr) external view returns (bool) {\r\n        return workerManager.isWorkerHere(addr);\r\n    }\r\n\r\n    function getWorkerName(address addr)\r\n        external\r\n        view\r\n        _hasWorker(addr)\r\n        returns (string memory)\r\n    {\r\n        return workerManager.getWorkerName(addr);\r\n    }\r\n\r\n    function isWorkerAvailable(address workerAddr)\r\n        external\r\n        view\r\n        returns (bool)\r\n    {\r\n        return workerManager.isWorkerAvailable(workerAddr);\r\n    }\r\n\r\n    function setWorkerAsUnavailable(address workerAddr)\r\n        external\r\n        _canChangeWorkerStatus(workerAddr)\r\n        _hasWorker(workerAddr)\r\n    {\r\n        workerManager.setWorkerAsUnavailable(workerAddr);\r\n    }\r\n\r\n    function setWorkerAsAvailable(address workerAddr)\r\n        external\r\n        _canChangeWorkerStatus(workerAddr)\r\n        _hasWorker(workerAddr)\r\n    {\r\n        workerManager.setWorkerAsAvailable(workerAddr);\r\n    }\r\n\r\n    //* ~Workers//\r\n\r\n    //* Clients//\r\n    function registerAsClient(string memory name) external {\r\n        clientManager.registerClient(msg.sender, name);\r\n    }\r\n\r\n    function isAClient(address addr) external view returns (bool) {\r\n        return clientManager.isClientHere(addr);\r\n    }\r\n\r\n    //* ~Clients//\r\n\r\n    //* Services//\r\n    function createService(string memory name, uint256 price)\r\n        external\r\n        _canCreateServices\r\n    {\r\n        serviceManager.createService(name, price);\r\n    }\r\n\r\n    function getServicesLength() external view returns (uint256) {\r\n        return serviceManager.getServicesLength();\r\n    }\r\n\r\n    function getServiceName(uint256 i)\r\n        external\r\n        view\r\n        _hasService(i)\r\n        returns (string memory)\r\n    {\r\n        return serviceManager.getServiceName(i);\r\n    }\r\n\r\n    function getServicePrice(uint256 i)\r\n        external\r\n        view\r\n        _hasService(i)\r\n        returns (uint256)\r\n    {\r\n        return serviceManager.getServicePrice(i);\r\n    }\r\n\r\n    function setServiceAsUnavailable(uint256 i)\r\n        external\r\n        _canChangeServiceStatus\r\n        _hasService(i)\r\n    {\r\n        serviceManager.setServiceAsUnavailable(i);\r\n    }\r\n\r\n    function setServiceAsAvailable(uint256 i)\r\n        external\r\n        _canChangeServiceStatus\r\n        _hasService(i)\r\n    {\r\n        serviceManager.setServiceAsAvailable(i);\r\n    }\r\n\r\n    function isServiceAvailable(uint256 i)\r\n        external\r\n        view\r\n        _hasService(i)\r\n        returns (bool)\r\n    {\r\n        return serviceManager.isServiceAvailable(i);\r\n    }\r\n\r\n    //* ~Clients//\r\n\r\n    //* Appointments//\r\n    function requestAppointment(uint256 serviceI, uint256 time)\r\n        external\r\n        payable\r\n        _hasClient(msg.sender)\r\n        _hasService(serviceI)\r\n    {\r\n        require(\r\n            msg.value == serviceManager.getServicePrice(serviceI),\r\n            \"Wrong value for service\"\r\n        );\r\n\r\n        require(block.timestamp < time, \"Wrong time\");\r\n\r\n        appointmentManager.requestAppointment(msg.sender, serviceI, time);\r\n    }\r\n\r\n    function isAppointmentApproved(uint256 i)\r\n        external\r\n        view\r\n        _hasAppointment(i)\r\n        returns (bool)\r\n    {\r\n        return appointmentManager.isAppointmentApproved(i);\r\n    }\r\n\r\n    function approveAppointment(uint256 i)\r\n        external\r\n        payable\r\n        _hasWorker(msg.sender)\r\n        _hasAppointment(i)\r\n        _hasUnapprovedAppointment(i)\r\n    {\r\n        require(\r\n            workerManager.isWorkerAvailable(msg.sender),\r\n            \"You are unavailable\"\r\n        );\r\n        appointmentManager.approveAppointment(i);\r\n        uint256 serviceI = appointmentManager.getServiceIndex(i);\r\n        uint256 servicePrice = serviceManager.getServicePrice(serviceI);\r\n        payable(msg.sender).transfer(servicePrice);\r\n    }\r\n\r\n    function getClientAppointments(address client)\r\n        external\r\n        view\r\n        returns (int256[5] memory)\r\n    {\r\n        return appointmentManager.getClientAppointments(client);\r\n    }\r\n\r\n    function getUnapprovedAppointments(uint256 serviceI)\r\n        external\r\n        view\r\n        returns (int256[5] memory)\r\n    {\r\n        return appointmentManager.getUnapprovedAppointments(serviceI);\r\n    }\r\n\r\n    function getAppointmentService(uint256 i)\r\n        external\r\n        view\r\n        _hasAppointment(i)\r\n        returns (uint256)\r\n    {\r\n        return appointmentManager.getAppointmentService(i);\r\n    }\r\n\r\n    function getAppointmentTime(uint256 i)\r\n        external\r\n        view\r\n        _hasAppointment(i)\r\n        returns (uint256)\r\n    {\r\n        return appointmentManager.getAppointmentTime(i);\r\n    }\r\n    //* ~Appointments//\r\n}\r\n",
  "sourcePath": "/home/seva/Projects/uni-eth-practice/contracts/MassageRoom.sol",
  "compiler": {
    "name": "solc",
    "version": "0.8.17+commit.8df45f5f.Emscripten.clang"
  },
  "schemaVersion": "3.4.11",
  "updatedAt": "2022-12-10T08:44:17.644Z",
  "networkType": "ethereum",
  "devdoc": {
    "kind": "dev",
    "methods": {},
    "version": 1
  },
  "userdoc": {
    "kind": "user",
    "methods": {},
    "version": 1
  }
}