{
  "contractName": "MassageRoom",
  "abi": [
    {
      "inputs": [],
      "stateMutability": "nonpayable",
      "type": "constructor"
    },
    {
      "inputs": [
        {
          "internalType": "address",
          "name": "v",
          "type": "address"
        }
      ],
      "name": "putTest",
      "outputs": [],
      "stateMutability": "nonpayable",
      "type": "function"
    },
    {
      "inputs": [],
      "name": "getTest",
      "outputs": [
        {
          "internalType": "address",
          "name": "",
          "type": "address"
        }
      ],
      "stateMutability": "view",
      "type": "function",
      "constant": true
    },
    {
      "inputs": [
        {
          "internalType": "address",
          "name": "v",
          "type": "address"
        }
      ],
      "name": "putTestHop",
      "outputs": [],
      "stateMutability": "nonpayable",
      "type": "function"
    },
    {
      "inputs": [],
      "name": "getTestHop",
      "outputs": [
        {
          "internalType": "address",
          "name": "",
          "type": "address"
        }
      ],
      "stateMutability": "view",
      "type": "function",
      "constant": true
    },
    {
      "inputs": [],
      "name": "getTestValue",
      "outputs": [
        {
          "internalType": "uint256",
          "name": "",
          "type": "uint256"
        }
      ],
      "stateMutability": "pure",
      "type": "function",
      "constant": true
    },
    {
      "inputs": [],
      "name": "isAdmin",
      "outputs": [
        {
          "internalType": "bool",
          "name": "",
          "type": "bool"
        }
      ],
      "stateMutability": "view",
      "type": "function",
      "constant": true
    },
    {
      "inputs": [
        {
          "internalType": "string",
          "name": "name",
          "type": "string"
        }
      ],
      "name": "askToRegisterAsWorker",
      "outputs": [],
      "stateMutability": "nonpayable",
      "type": "function"
    },
    {
      "inputs": [
        {
          "internalType": "address",
          "name": "workerAddr",
          "type": "address"
        }
      ],
      "name": "approveWorkerRegistrationRequest",
      "outputs": [],
      "stateMutability": "nonpayable",
      "type": "function"
    },
    {
      "inputs": [
        {
          "internalType": "address",
          "name": "addr",
          "type": "address"
        }
      ],
      "name": "isWorkerRequestHere",
      "outputs": [
        {
          "internalType": "bool",
          "name": "",
          "type": "bool"
        }
      ],
      "stateMutability": "view",
      "type": "function",
      "constant": true
    },
    {
      "inputs": [
        {
          "internalType": "address",
          "name": "addr",
          "type": "address"
        }
      ],
      "name": "isAWorker",
      "outputs": [
        {
          "internalType": "bool",
          "name": "",
          "type": "bool"
        }
      ],
      "stateMutability": "view",
      "type": "function",
      "constant": true
    },
    {
      "inputs": [
        {
          "internalType": "address",
          "name": "addr",
          "type": "address"
        }
      ],
      "name": "getWorkerName",
      "outputs": [
        {
          "internalType": "string",
          "name": "",
          "type": "string"
        }
      ],
      "stateMutability": "view",
      "type": "function",
      "constant": true
    },
    {
      "inputs": [
        {
          "internalType": "address",
          "name": "addr",
          "type": "address"
        }
      ],
      "name": "getWorkerRequestName",
      "outputs": [
        {
          "internalType": "string",
          "name": "",
          "type": "string"
        }
      ],
      "stateMutability": "view",
      "type": "function",
      "constant": true
    },
    {
      "inputs": [
        {
          "internalType": "address",
          "name": "workerAddr",
          "type": "address"
        }
      ],
      "name": "isWorkerAvailable",
      "outputs": [
        {
          "internalType": "bool",
          "name": "",
          "type": "bool"
        }
      ],
      "stateMutability": "view",
      "type": "function",
      "constant": true
    },
    {
      "inputs": [
        {
          "internalType": "address",
          "name": "workerAddr",
          "type": "address"
        }
      ],
      "name": "setWorkerAsUnavailable",
      "outputs": [],
      "stateMutability": "nonpayable",
      "type": "function"
    },
    {
      "inputs": [
        {
          "internalType": "address",
          "name": "workerAddr",
          "type": "address"
        }
      ],
      "name": "setWorkerAsAvailable",
      "outputs": [],
      "stateMutability": "nonpayable",
      "type": "function"
    },
    {
      "inputs": [
        {
          "internalType": "string",
          "name": "name",
          "type": "string"
        }
      ],
      "name": "registerAsClient",
      "outputs": [],
      "stateMutability": "nonpayable",
      "type": "function"
    },
    {
      "inputs": [
        {
          "internalType": "address",
          "name": "addr",
          "type": "address"
        }
      ],
      "name": "isAClient",
      "outputs": [
        {
          "internalType": "bool",
          "name": "",
          "type": "bool"
        }
      ],
      "stateMutability": "view",
      "type": "function",
      "constant": true
    },
    {
      "inputs": [
        {
          "internalType": "address",
          "name": "addr",
          "type": "address"
        }
      ],
      "name": "getClientName",
      "outputs": [
        {
          "internalType": "string",
          "name": "",
          "type": "string"
        }
      ],
      "stateMutability": "view",
      "type": "function",
      "constant": true
    },
    {
      "inputs": [
        {
          "internalType": "string",
          "name": "name",
          "type": "string"
        },
        {
          "internalType": "uint256",
          "name": "price",
          "type": "uint256"
        }
      ],
      "name": "createService",
      "outputs": [],
      "stateMutability": "nonpayable",
      "type": "function"
    },
    {
      "inputs": [],
      "name": "getServicesLength",
      "outputs": [
        {
          "internalType": "uint256",
          "name": "",
          "type": "uint256"
        }
      ],
      "stateMutability": "view",
      "type": "function",
      "constant": true
    },
    {
      "inputs": [
        {
          "internalType": "uint256",
          "name": "i",
          "type": "uint256"
        }
      ],
      "name": "getServiceName",
      "outputs": [
        {
          "internalType": "string",
          "name": "",
          "type": "string"
        }
      ],
      "stateMutability": "view",
      "type": "function",
      "constant": true
    },
    {
      "inputs": [
        {
          "internalType": "uint256",
          "name": "i",
          "type": "uint256"
        }
      ],
      "name": "getServicePrice",
      "outputs": [
        {
          "internalType": "uint256",
          "name": "",
          "type": "uint256"
        }
      ],
      "stateMutability": "view",
      "type": "function",
      "constant": true
    },
    {
      "inputs": [
        {
          "internalType": "uint256",
          "name": "i",
          "type": "uint256"
        }
      ],
      "name": "setServiceAsUnavailable",
      "outputs": [],
      "stateMutability": "nonpayable",
      "type": "function"
    },
    {
      "inputs": [
        {
          "internalType": "uint256",
          "name": "i",
          "type": "uint256"
        }
      ],
      "name": "setServiceAsAvailable",
      "outputs": [],
      "stateMutability": "nonpayable",
      "type": "function"
    },
    {
      "inputs": [
        {
          "internalType": "uint256",
          "name": "i",
          "type": "uint256"
        }
      ],
      "name": "isServiceAvailable",
      "outputs": [
        {
          "internalType": "bool",
          "name": "",
          "type": "bool"
        }
      ],
      "stateMutability": "view",
      "type": "function",
      "constant": true
    },
    {
      "inputs": [
        {
          "internalType": "uint256",
          "name": "serviceI",
          "type": "uint256"
        },
        {
          "internalType": "uint256",
          "name": "time",
          "type": "uint256"
        }
      ],
      "name": "requestAppointment",
      "outputs": [],
      "stateMutability": "payable",
      "type": "function",
      "payable": true
    },
    {
      "inputs": [
        {
          "internalType": "uint256",
          "name": "i",
          "type": "uint256"
        }
      ],
      "name": "isAppointmentApproved",
      "outputs": [
        {
          "internalType": "bool",
          "name": "",
          "type": "bool"
        }
      ],
      "stateMutability": "view",
      "type": "function",
      "constant": true
    },
    {
      "inputs": [
        {
          "internalType": "uint256",
          "name": "i",
          "type": "uint256"
        }
      ],
      "name": "approveAppointment",
      "outputs": [],
      "stateMutability": "payable",
      "type": "function",
      "payable": true
    },
    {
      "inputs": [
        {
          "internalType": "address",
          "name": "client",
          "type": "address"
        }
      ],
      "name": "getClientAppointments",
      "outputs": [
        {
          "internalType": "int256[5]",
          "name": "",
          "type": "int256[5]"
        }
      ],
      "stateMutability": "view",
      "type": "function",
      "constant": true
    },
    {
      "inputs": [
        {
          "internalType": "uint256",
          "name": "serviceI",
          "type": "uint256"
        }
      ],
      "name": "getUnapprovedAppointments",
      "outputs": [
        {
          "internalType": "int256[5]",
          "name": "",
          "type": "int256[5]"
        }
      ],
      "stateMutability": "view",
      "type": "function",
      "constant": true
    },
    {
      "inputs": [
        {
          "internalType": "uint256",
          "name": "i",
          "type": "uint256"
        }
      ],
      "name": "getAppointmentService",
      "outputs": [
        {
          "internalType": "uint256",
          "name": "",
          "type": "uint256"
        }
      ],
      "stateMutability": "view",
      "type": "function",
      "constant": true
    },
    {
      "inputs": [
        {
          "internalType": "uint256",
          "name": "i",
          "type": "uint256"
        }
      ],
      "name": "getAppointmentTime",
      "outputs": [
        {
          "internalType": "uint256",
          "name": "",
          "type": "uint256"
        }
      ],
      "stateMutability": "view",
      "type": "function",
      "constant": true
    }
  ],
  "bytecode": "0x60806040523480156200001157600080fd5b50336000806101000a81548173ffffffffffffffffffffffffffffffffffffffff021916908373ffffffffffffffffffffffffffffffffffffffff160217905550604051620000609062000208565b604051809103906000f0801580156200007d573d6000803e3d6000fd5b50600160006101000a81548173ffffffffffffffffffffffffffffffffffffffff021916908373ffffffffffffffffffffffffffffffffffffffff160217905550604051620000cc9062000216565b604051809103906000f080158015620000e9573d6000803e3d6000fd5b50600260006101000a81548173ffffffffffffffffffffffffffffffffffffffff021916908373ffffffffffffffffffffffffffffffffffffffff160217905550604051620001389062000224565b604051809103906000f08015801562000155573d6000803e3d6000fd5b50600360006101000a81548173ffffffffffffffffffffffffffffffffffffffff021916908373ffffffffffffffffffffffffffffffffffffffff160217905550604051620001a49062000232565b604051809103906000f080158015620001c1573d6000803e3d6000fd5b50600460006101000a81548173ffffffffffffffffffffffffffffffffffffffff021916908373ffffffffffffffffffffffffffffffffffffffff16021790555062000240565b610f1a806200412383390190565b6109be806200503d83390190565b610b2080620059fb83390190565b610b81806200651b83390190565b613ed380620002506000396000f3fe6080604052600436106101e35760003560e01c8063a420e5d211610102578063c03f9b4411610095578063cd516c4d11610064578063cd516c4d14610756578063e4cc4e451461077f578063e53a6ec3146107bc578063f15cb476146107f9576101e3565b8063c03f9b4414610688578063c41a26e3146106c5578063c573d8a2146106ee578063cb32db7214610719576101e3565b8063b5a7314b116100d1578063b5a7314b146105ba578063b61cb6af146105f7578063b6db75a014610634578063b98389b11461065f576101e3565b8063a420e5d2146104fe578063a840260214610529578063a8cd0a8014610552578063a8d5ded91461057d576101e3565b80634cc0862d1161017a578063740d870211610149578063740d87021461040a5780637c7ba0d4146104475780638a2c6b5114610484578063953058f8146104c1576101e3565b80634cc0862d1461033e578063537d7685146103675780636b0ae1eb1461039057806373923d34146103cd576101e3565b80632de03b6b116101b65780632de03b6b146102935780632ebda60b146102d05780634470cadc146102f95780634a69d93d14610315576101e3565b80630405df88146101e8578063064eac8a146102115780630daae7461461022d5780631cf82bd21461026a575b600080fd5b3480156101f457600080fd5b5061020f600480360381019061020a9190613195565b610824565b005b61022b600480360381019061022691906131f8565b610a57565b005b34801561023957600080fd5b50610254600480360381019061024f91906131f8565b610fe9565b6040516102619190613234565b60405180910390f35b34801561027657600080fd5b50610291600480360381019061028c9190613395565b61116b565b005b34801561029f57600080fd5b506102ba60048036038101906102b59190613195565b61128c565b6040516102c7919061340c565b60405180910390f35b3480156102dc57600080fd5b506102f760048036038101906102f29190613427565b611331565b005b610313600480360381019061030e9190613470565b6113c3565b005b34801561032157600080fd5b5061033c60048036038101906103379190613195565b611731565b005b34801561034a57600080fd5b50610365600480360381019061036091906131f8565b611964565b005b34801561037357600080fd5b5061038e60048036038101906103899190613195565b611b5f565b005b34801561039c57600080fd5b506103b760048036038101906103b29190613195565b611bef565b6040516103c4919061340c565b60405180910390f35b3480156103d957600080fd5b506103f460048036038101906103ef9190613195565b611c94565b604051610401919061352f565b60405180910390f35b34801561041657600080fd5b50610431600480360381019061042c9190613195565b611e1b565b60405161043e919061340c565b60405180910390f35b34801561045357600080fd5b5061046e600480360381019061046991906131f8565b611ec0565b60405161047b9190613606565b60405180910390f35b34801561049057600080fd5b506104ab60048036038101906104a691906131f8565b611f6b565b6040516104b8919061340c565b60405180910390f35b3480156104cd57600080fd5b506104e860048036038101906104e391906131f8565b6120ed565b6040516104f5919061352f565b60405180910390f35b34801561050a57600080fd5b50610513612274565b6040516105209190613234565b60405180910390f35b34801561053557600080fd5b50610550600480360381019061054b91906131f8565b61227d565b005b34801561055e57600080fd5b50610567612478565b6040516105749190613630565b60405180910390f35b34801561058957600080fd5b506105a4600480360381019061059f9190613195565b6124a2565b6040516105b1919061352f565b60405180910390f35b3480156105c657600080fd5b506105e160048036038101906105dc9190613195565b612629565b6040516105ee919061340c565b60405180910390f35b34801561060357600080fd5b5061061e600480360381019061061991906131f8565b6126ce565b60405161062b919061340c565b60405180910390f35b34801561064057600080fd5b50610649612850565b604051610656919061340c565b60405180910390f35b34801561066b57600080fd5b5061068660048036038101906106819190613427565b6128a7565b005b34801561069457600080fd5b506106af60048036038101906106aa91906131f8565b612939565b6040516106bc9190613234565b60405180910390f35b3480156106d157600080fd5b506106ec60048036038101906106e79190613195565b612abb565b005b3480156106fa57600080fd5b50610703612aff565b6040516107109190613234565b60405180910390f35b34801561072557600080fd5b50610740600480360381019061073b91906131f8565b612b97565b60405161074d9190613234565b60405180910390f35b34801561076257600080fd5b5061077d60048036038101906107789190613195565b612d19565b005b34801561078b57600080fd5b506107a660048036038101906107a19190613195565b612e37565b6040516107b39190613606565b60405180910390f35b3480156107c857600080fd5b506107e360048036038101906107de9190613195565b612ee2565b6040516107f0919061352f565b60405180910390f35b34801561080557600080fd5b5061080e613069565b60405161081b9190613630565b60405180910390f35b8060008054906101000a900473ffffffffffffffffffffffffffffffffffffffff1673ffffffffffffffffffffffffffffffffffffffff163373ffffffffffffffffffffffffffffffffffffffff1614806108aa57508073ffffffffffffffffffffffffffffffffffffffff163373ffffffffffffffffffffffffffffffffffffffff16145b6108e9576040517f08c379a00000000000000000000000000000000000000000000000000000000081526004016108e0906136bd565b60405180910390fd5b81600160009054906101000a900473ffffffffffffffffffffffffffffffffffffffff1673ffffffffffffffffffffffffffffffffffffffff166312c61114826040518263ffffffff1660e01b81526004016109459190613630565b602060405180830381865afa158015610962573d6000803e3d6000fd5b505050506040513d601f19601f820116820180604052508101906109869190613709565b6109c5576040517f08c379a00000000000000000000000000000000000000000000000000000000081526004016109bc90613782565b60405180910390fd5b600160009054906101000a900473ffffffffffffffffffffffffffffffffffffffff1673ffffffffffffffffffffffffffffffffffffffff16630405df88846040518263ffffffff1660e01b8152600401610a209190613630565b600060405180830381600087803b158015610a3a57600080fd5b505af1158015610a4e573d6000803e3d6000fd5b50505050505050565b33600160009054906101000a900473ffffffffffffffffffffffffffffffffffffffff1673ffffffffffffffffffffffffffffffffffffffff166312c61114826040518263ffffffff1660e01b8152600401610ab39190613630565b602060405180830381865afa158015610ad0573d6000803e3d6000fd5b505050506040513d601f19601f82011682018060405250810190610af49190613709565b610b33576040517f08c379a0000000000000000000000000000000000000000000000000000000008152600401610b2a90613782565b60405180910390fd5b81600460009054906101000a900473ffffffffffffffffffffffffffffffffffffffff1673ffffffffffffffffffffffffffffffffffffffff16634b47d827826040518263ffffffff1660e01b8152600401610b8f9190613234565b602060405180830381865afa158015610bac573d6000803e3d6000fd5b505050506040513d601f19601f82011682018060405250810190610bd09190613709565b610c0f576040517f08c379a0000000000000000000000000000000000000000000000000000000008152600401610c06906137ee565b60405180910390fd5b8260001515600460009054906101000a900473ffffffffffffffffffffffffffffffffffffffff1673ffffffffffffffffffffffffffffffffffffffff1663b61cb6af836040518263ffffffff1660e01b8152600401610c6f9190613234565b602060405180830381865afa158015610c8c573d6000803e3d6000fd5b505050506040513d601f19601f82011682018060405250810190610cb09190613709565b151514610cf2576040517f08c379a0000000000000000000000000000000000000000000000000000000008152600401610ce990613880565b60405180910390fd5b600160009054906101000a900473ffffffffffffffffffffffffffffffffffffffff1673ffffffffffffffffffffffffffffffffffffffff16632de03b6b336040518263ffffffff1660e01b8152600401610d4d9190613630565b602060405180830381865afa158015610d6a573d6000803e3d6000fd5b505050506040513d601f19601f82011682018060405250810190610d8e9190613709565b610dcd576040517f08c379a0000000000000000000000000000000000000000000000000000000008152600401610dc4906138ec565b60405180910390fd5b600460009054906101000a900473ffffffffffffffffffffffffffffffffffffffff1673ffffffffffffffffffffffffffffffffffffffff1663064eac8a856040518263ffffffff1660e01b8152600401610e289190613234565b600060405180830381600087803b158015610e4257600080fd5b505af1158015610e56573d6000803e3d6000fd5b505050506000600460009054906101000a900473ffffffffffffffffffffffffffffffffffffffff1673ffffffffffffffffffffffffffffffffffffffff166378ec04d9866040518263ffffffff1660e01b8152600401610eb79190613234565b602060405180830381865afa158015610ed4573d6000803e3d6000fd5b505050506040513d601f19601f82011682018060405250810190610ef89190613921565b90506000600360009054906101000a900473ffffffffffffffffffffffffffffffffffffffff1673ffffffffffffffffffffffffffffffffffffffff1663c03f9b44836040518263ffffffff1660e01b8152600401610f579190613234565b602060405180830381865afa158015610f74573d6000803e3d6000fd5b505050506040513d601f19601f82011682018060405250810190610f989190613921565b90503373ffffffffffffffffffffffffffffffffffffffff166108fc829081150290604051600060405180830381858888f19350505050158015610fe0573d6000803e3d6000fd5b50505050505050565b600081600460009054906101000a900473ffffffffffffffffffffffffffffffffffffffff1673ffffffffffffffffffffffffffffffffffffffff16634b47d827826040518263ffffffff1660e01b81526004016110479190613234565b602060405180830381865afa158015611064573d6000803e3d6000fd5b505050506040513d601f19601f820116820180604052508101906110889190613709565b6110c7576040517f08c379a00000000000000000000000000000000000000000000000000000000081526004016110be906137ee565b60405180910390fd5b600460009054906101000a900473ffffffffffffffffffffffffffffffffffffffff1673ffffffffffffffffffffffffffffffffffffffff16630daae746846040518263ffffffff1660e01b81526004016111229190613234565b602060405180830381865afa15801561113f573d6000803e3d6000fd5b505050506040513d601f19601f820116820180604052508101906111639190613921565b915050919050565b60008054906101000a900473ffffffffffffffffffffffffffffffffffffffff1673ffffffffffffffffffffffffffffffffffffffff163373ffffffffffffffffffffffffffffffffffffffff16146111f9576040517f08c379a00000000000000000000000000000000000000000000000000000000081526004016111f09061399a565b60405180910390fd5b600360009054906101000a900473ffffffffffffffffffffffffffffffffffffffff1673ffffffffffffffffffffffffffffffffffffffff16631cf82bd283836040518363ffffffff1660e01b81526004016112569291906139ba565b600060405180830381600087803b15801561127057600080fd5b505af1158015611284573d6000803e3d6000fd5b505050505050565b6000600160009054906101000a900473ffffffffffffffffffffffffffffffffffffffff1673ffffffffffffffffffffffffffffffffffffffff16632de03b6b836040518263ffffffff1660e01b81526004016112e99190613630565b602060405180830381865afa158015611306573d6000803e3d6000fd5b505050506040513d601f19601f8201168201806040525081019061132a9190613709565b9050919050565b600160009054906101000a900473ffffffffffffffffffffffffffffffffffffffff1673ffffffffffffffffffffffffffffffffffffffff1663c011565b33836040518363ffffffff1660e01b815260040161138e9291906139ea565b600060405180830381600087803b1580156113a857600080fd5b505af11580156113bc573d6000803e3d6000fd5b5050505050565b33600260009054906101000a900473ffffffffffffffffffffffffffffffffffffffff1673ffffffffffffffffffffffffffffffffffffffff1663f0e734d4826040518263ffffffff1660e01b815260040161141f9190613630565b602060405180830381865afa15801561143c573d6000803e3d6000fd5b505050506040513d601f19601f820116820180604052508101906114609190613709565b61149f576040517f08c379a000000000000000000000000000000000000000000000000000000000815260040161149690613a66565b60405180910390fd5b82600360009054906101000a900473ffffffffffffffffffffffffffffffffffffffff1673ffffffffffffffffffffffffffffffffffffffff1663801d1697826040518263ffffffff1660e01b81526004016114fb9190613234565b602060405180830381865afa158015611518573d6000803e3d6000fd5b505050506040513d601f19601f8201168201806040525081019061153c9190613709565b61157b576040517f08c379a000000000000000000000000000000000000000000000000000000000815260040161157290613ad2565b60405180910390fd5b600360009054906101000a900473ffffffffffffffffffffffffffffffffffffffff1673ffffffffffffffffffffffffffffffffffffffff1663c03f9b44856040518263ffffffff1660e01b81526004016115d69190613234565b602060405180830381865afa1580156115f3573d6000803e3d6000fd5b505050506040513d601f19601f820116820180604052508101906116179190613921565b3414611658576040517f08c379a000000000000000000000000000000000000000000000000000000000815260040161164f90613b3e565b60405180910390fd5b82421061169a576040517f08c379a000000000000000000000000000000000000000000000000000000000815260040161169190613baa565b60405180910390fd5b600460009054906101000a900473ffffffffffffffffffffffffffffffffffffffff1673ffffffffffffffffffffffffffffffffffffffff1663929ff9533386866040518463ffffffff1660e01b81526004016116f993929190613bca565b600060405180830381600087803b15801561171357600080fd5b505af1158015611727573d6000803e3d6000fd5b5050505050505050565b8060008054906101000a900473ffffffffffffffffffffffffffffffffffffffff1673ffffffffffffffffffffffffffffffffffffffff163373ffffffffffffffffffffffffffffffffffffffff1614806117b757508073ffffffffffffffffffffffffffffffffffffffff163373ffffffffffffffffffffffffffffffffffffffff16145b6117f6576040517f08c379a00000000000000000000000000000000000000000000000000000000081526004016117ed906136bd565b60405180910390fd5b81600160009054906101000a900473ffffffffffffffffffffffffffffffffffffffff1673ffffffffffffffffffffffffffffffffffffffff166312c61114826040518263ffffffff1660e01b81526004016118529190613630565b602060405180830381865afa15801561186f573d6000803e3d6000fd5b505050506040513d601f19601f820116820180604052508101906118939190613709565b6118d2576040517f08c379a00000000000000000000000000000000000000000000000000000000081526004016118c990613782565b60405180910390fd5b600160009054906101000a900473ffffffffffffffffffffffffffffffffffffffff1673ffffffffffffffffffffffffffffffffffffffff16634a69d93d846040518263ffffffff1660e01b815260040161192d9190613630565b600060405180830381600087803b15801561194757600080fd5b505af115801561195b573d6000803e3d6000fd5b50505050505050565b60008054906101000a900473ffffffffffffffffffffffffffffffffffffffff1673ffffffffffffffffffffffffffffffffffffffff163373ffffffffffffffffffffffffffffffffffffffff16146119f2576040517f08c379a00000000000000000000000000000000000000000000000000000000081526004016119e990613c73565b60405180910390fd5b80600360009054906101000a900473ffffffffffffffffffffffffffffffffffffffff1673ffffffffffffffffffffffffffffffffffffffff1663801d1697826040518263ffffffff1660e01b8152600401611a4e9190613234565b602060405180830381865afa158015611a6b573d6000803e3d6000fd5b505050506040513d601f19601f82011682018060405250810190611a8f9190613709565b611ace576040517f08c379a0000000000000000000000000000000000000000000000000000000008152600401611ac590613ad2565b60405180910390fd5b600360009054906101000a900473ffffffffffffffffffffffffffffffffffffffff1673ffffffffffffffffffffffffffffffffffffffff16634cc0862d836040518263ffffffff1660e01b8152600401611b299190613234565b600060405180830381600087803b158015611b4357600080fd5b505af1158015611b57573d6000803e3d6000fd5b505050505050565b600260009054906101000a900473ffffffffffffffffffffffffffffffffffffffff1673ffffffffffffffffffffffffffffffffffffffff1663c41a26e3826040518263ffffffff1660e01b8152600401611bba9190613630565b600060405180830381600087803b158015611bd457600080fd5b505af1158015611be8573d6000803e3d6000fd5b5050505050565b6000600260009054906101000a900473ffffffffffffffffffffffffffffffffffffffff1673ffffffffffffffffffffffffffffffffffffffff1663f0e734d4836040518263ffffffff1660e01b8152600401611c4c9190613630565b602060405180830381865afa158015611c69573d6000803e3d6000fd5b505050506040513d601f19601f82011682018060405250810190611c8d9190613709565b9050919050565b606081600260009054906101000a900473ffffffffffffffffffffffffffffffffffffffff1673ffffffffffffffffffffffffffffffffffffffff1663f0e734d4826040518263ffffffff1660e01b8152600401611cf29190613630565b602060405180830381865afa158015611d0f573d6000803e3d6000fd5b505050506040513d601f19601f82011682018060405250810190611d339190613709565b611d72576040517f08c379a0000000000000000000000000000000000000000000000000000000008152600401611d6990613a66565b60405180910390fd5b600260009054906101000a900473ffffffffffffffffffffffffffffffffffffffff1673ffffffffffffffffffffffffffffffffffffffff166373923d34846040518263ffffffff1660e01b8152600401611dcd9190613630565b600060405180830381865afa158015611dea573d6000803e3d6000fd5b505050506040513d6000823e3d601f19601f82011682018060405250810190611e139190613d03565b915050919050565b6000600160009054906101000a900473ffffffffffffffffffffffffffffffffffffffff1673ffffffffffffffffffffffffffffffffffffffff166385d8fff0836040518263ffffffff1660e01b8152600401611e789190613630565b602060405180830381865afa158015611e95573d6000803e3d6000fd5b505050506040513d601f19601f82011682018060405250810190611eb99190613709565b9050919050565b611ec8613101565b600460009054906101000a900473ffffffffffffffffffffffffffffffffffffffff1673ffffffffffffffffffffffffffffffffffffffff16637c7ba0d4836040518263ffffffff1660e01b8152600401611f239190613234565b60a060405180830381865afa158015611f40573d6000803e3d6000fd5b505050506040513d601f19601f82011682018060405250810190611f649190613e2e565b9050919050565b600081600360009054906101000a900473ffffffffffffffffffffffffffffffffffffffff1673ffffffffffffffffffffffffffffffffffffffff1663801d1697826040518263ffffffff1660e01b8152600401611fc99190613234565b602060405180830381865afa158015611fe6573d6000803e3d6000fd5b505050506040513d601f19601f8201168201806040525081019061200a9190613709565b612049576040517f08c379a000000000000000000000000000000000000000000000000000000000815260040161204090613ad2565b60405180910390fd5b600360009054906101000a900473ffffffffffffffffffffffffffffffffffffffff1673ffffffffffffffffffffffffffffffffffffffff16638a2c6b51846040518263ffffffff1660e01b81526004016120a49190613234565b602060405180830381865afa1580156120c1573d6000803e3d6000fd5b505050506040513d601f19601f820116820180604052508101906120e59190613709565b915050919050565b606081600360009054906101000a900473ffffffffffffffffffffffffffffffffffffffff1673ffffffffffffffffffffffffffffffffffffffff1663801d1697826040518263ffffffff1660e01b815260040161214b9190613234565b602060405180830381865afa158015612168573d6000803e3d6000fd5b505050506040513d601f19601f8201168201806040525081019061218c9190613709565b6121cb576040517f08c379a00000000000000000000000000000000000000000000000000000000081526004016121c290613ad2565b60405180910390fd5b600360009054906101000a900473ffffffffffffffffffffffffffffffffffffffff1673ffffffffffffffffffffffffffffffffffffffff1663953058f8846040518263ffffffff1660e01b81526004016122269190613234565b600060405180830381865afa158015612243573d6000803e3d6000fd5b505050506040513d6000823e3d601f19601f8201168201806040525081019061226c9190613d03565b915050919050565b60006003905090565b60008054906101000a900473ffffffffffffffffffffffffffffffffffffffff1673ffffffffffffffffffffffffffffffffffffffff163373ffffffffffffffffffffffffffffffffffffffff161461230b576040517f08c379a000000000000000000000000000000000000000000000000000000000815260040161230290613c73565b60405180910390fd5b80600360009054906101000a900473ffffffffffffffffffffffffffffffffffffffff1673ffffffffffffffffffffffffffffffffffffffff1663801d1697826040518263ffffffff1660e01b81526004016123679190613234565b602060405180830381865afa158015612384573d6000803e3d6000fd5b505050506040513d601f19601f820116820180604052508101906123a89190613709565b6123e7576040517f08c379a00000000000000000000000000000000000000000000000000000000081526004016123de90613ad2565b60405180910390fd5b600360009054906101000a900473ffffffffffffffffffffffffffffffffffffffff1673ffffffffffffffffffffffffffffffffffffffff1663a8402602836040518263ffffffff1660e01b81526004016124429190613234565b600060405180830381600087803b15801561245c57600080fd5b505af1158015612470573d6000803e3d6000fd5b505050505050565b6000600560009054906101000a900473ffffffffffffffffffffffffffffffffffffffff16905090565b606081600160009054906101000a900473ffffffffffffffffffffffffffffffffffffffff1673ffffffffffffffffffffffffffffffffffffffff166312c61114826040518263ffffffff1660e01b81526004016125009190613630565b602060405180830381865afa15801561251d573d6000803e3d6000fd5b505050506040513d601f19601f820116820180604052508101906125419190613709565b612580576040517f08c379a000000000000000000000000000000000000000000000000000000000815260040161257790613782565b60405180910390fd5b600160009054906101000a900473ffffffffffffffffffffffffffffffffffffffff1673ffffffffffffffffffffffffffffffffffffffff1663ec12c006846040518263ffffffff1660e01b81526004016125db9190613630565b600060405180830381865afa1580156125f8573d6000803e3d6000fd5b505050506040513d6000823e3d601f19601f820116820180604052508101906126219190613d03565b915050919050565b6000600160009054906101000a900473ffffffffffffffffffffffffffffffffffffffff1673ffffffffffffffffffffffffffffffffffffffff166312c61114836040518263ffffffff1660e01b81526004016126869190613630565b602060405180830381865afa1580156126a3573d6000803e3d6000fd5b505050506040513d601f19601f820116820180604052508101906126c79190613709565b9050919050565b600081600460009054906101000a900473ffffffffffffffffffffffffffffffffffffffff1673ffffffffffffffffffffffffffffffffffffffff16634b47d827826040518263ffffffff1660e01b815260040161272c9190613234565b602060405180830381865afa158015612749573d6000803e3d6000fd5b505050506040513d601f19601f8201168201806040525081019061276d9190613709565b6127ac576040517f08c379a00000000000000000000000000000000000000000000000000000000081526004016127a3906137ee565b60405180910390fd5b600460009054906101000a900473ffffffffffffffffffffffffffffffffffffffff1673ffffffffffffffffffffffffffffffffffffffff1663b61cb6af846040518263ffffffff1660e01b81526004016128079190613234565b602060405180830381865afa158015612824573d6000803e3d6000fd5b505050506040513d601f19601f820116820180604052508101906128489190613709565b915050919050565b60008060009054906101000a900473ffffffffffffffffffffffffffffffffffffffff1673ffffffffffffffffffffffffffffffffffffffff163373ffffffffffffffffffffffffffffffffffffffff1614905090565b600260009054906101000a900473ffffffffffffffffffffffffffffffffffffffff1673ffffffffffffffffffffffffffffffffffffffff1663f2fef58b33836040518363ffffffff1660e01b81526004016129049291906139ea565b600060405180830381600087803b15801561291e57600080fd5b505af1158015612932573d6000803e3d6000fd5b5050505050565b600081600360009054906101000a900473ffffffffffffffffffffffffffffffffffffffff1673ffffffffffffffffffffffffffffffffffffffff1663801d1697826040518263ffffffff1660e01b81526004016129979190613234565b602060405180830381865afa1580156129b4573d6000803e3d6000fd5b505050506040513d601f19601f820116820180604052508101906129d89190613709565b612a17576040517f08c379a0000000000000000000000000000000000000000000000000000000008152600401612a0e90613ad2565b60405180910390fd5b600360009054906101000a900473ffffffffffffffffffffffffffffffffffffffff1673ffffffffffffffffffffffffffffffffffffffff1663c03f9b44846040518263ffffffff1660e01b8152600401612a729190613234565b602060405180830381865afa158015612a8f573d6000803e3d6000fd5b505050506040513d601f19601f82011682018060405250810190612ab39190613921565b915050919050565b80600560006101000a81548173ffffffffffffffffffffffffffffffffffffffff021916908373ffffffffffffffffffffffffffffffffffffffff16021790555050565b6000600360009054906101000a900473ffffffffffffffffffffffffffffffffffffffff1673ffffffffffffffffffffffffffffffffffffffff1663c573d8a26040518163ffffffff1660e01b8152600401602060405180830381865afa158015612b6e573d6000803e3d6000fd5b505050506040513d601f19601f82011682018060405250810190612b929190613921565b905090565b600081600460009054906101000a900473ffffffffffffffffffffffffffffffffffffffff1673ffffffffffffffffffffffffffffffffffffffff16634b47d827826040518263ffffffff1660e01b8152600401612bf59190613234565b602060405180830381865afa158015612c12573d6000803e3d6000fd5b505050506040513d601f19601f82011682018060405250810190612c369190613709565b612c75576040517f08c379a0000000000000000000000000000000000000000000000000000000008152600401612c6c906137ee565b60405180910390fd5b600460009054906101000a900473ffffffffffffffffffffffffffffffffffffffff1673ffffffffffffffffffffffffffffffffffffffff1663cb32db72846040518263ffffffff1660e01b8152600401612cd09190613234565b602060405180830381865afa158015612ced573d6000803e3d6000fd5b505050506040513d601f19601f82011682018060405250810190612d119190613921565b915050919050565b60008054906101000a900473ffffffffffffffffffffffffffffffffffffffff1673ffffffffffffffffffffffffffffffffffffffff163373ffffffffffffffffffffffffffffffffffffffff1614612da7576040517f08c379a0000000000000000000000000000000000000000000000000000000008152600401612d9e906136bd565b60405180910390fd5b600160009054906101000a900473ffffffffffffffffffffffffffffffffffffffff1673ffffffffffffffffffffffffffffffffffffffff1663061dff9a826040518263ffffffff1660e01b8152600401612e029190613630565b600060405180830381600087803b158015612e1c57600080fd5b505af1158015612e30573d6000803e3d6000fd5b5050505050565b612e3f613101565b600460009054906101000a900473ffffffffffffffffffffffffffffffffffffffff1673ffffffffffffffffffffffffffffffffffffffff1663e4cc4e45836040518263ffffffff1660e01b8152600401612e9a9190613630565b60a060405180830381865afa158015612eb7573d6000803e3d6000fd5b505050506040513d601f19601f82011682018060405250810190612edb9190613e2e565b9050919050565b606081600160009054906101000a900473ffffffffffffffffffffffffffffffffffffffff1673ffffffffffffffffffffffffffffffffffffffff166312c61114826040518263ffffffff1660e01b8152600401612f409190613630565b602060405180830381865afa158015612f5d573d6000803e3d6000fd5b505050506040513d601f19601f82011682018060405250810190612f819190613709565b612fc0576040517f08c379a0000000000000000000000000000000000000000000000000000000008152600401612fb790613782565b60405180910390fd5b600160009054906101000a900473ffffffffffffffffffffffffffffffffffffffff1673ffffffffffffffffffffffffffffffffffffffff1663e53a6ec3846040518263ffffffff1660e01b815260040161301b9190613630565b600060405180830381865afa158015613038573d6000803e3d6000fd5b505050506040513d6000823e3d601f19601f820116820180604052508101906130619190613d03565b915050919050565b6000600260009054906101000a900473ffffffffffffffffffffffffffffffffffffffff1673ffffffffffffffffffffffffffffffffffffffff1663a8cd0a806040518163ffffffff1660e01b8152600401602060405180830381865afa1580156130d8573d6000803e3d6000fd5b505050506040513d601f19601f820116820180604052508101906130fc9190613e70565b905090565b6040518060a00160405280600590602082028036833780820191505090505090565b6000604051905090565b600080fd5b600080fd5b600073ffffffffffffffffffffffffffffffffffffffff82169050919050565b600061316282613137565b9050919050565b61317281613157565b811461317d57600080fd5b50565b60008135905061318f81613169565b92915050565b6000602082840312156131ab576131aa61312d565b5b60006131b984828501613180565b91505092915050565b6000819050919050565b6131d5816131c2565b81146131e057600080fd5b50565b6000813590506131f2816131cc565b92915050565b60006020828403121561320e5761320d61312d565b5b600061321c848285016131e3565b91505092915050565b61322e816131c2565b82525050565b60006020820190506132496000830184613225565b92915050565b600080fd5b600080fd5b6000601f19601f8301169050919050565b7f4e487b7100000000000000000000000000000000000000000000000000000000600052604160045260246000fd5b6132a282613259565b810181811067ffffffffffffffff821117156132c1576132c061326a565b5b80604052505050565b60006132d4613123565b90506132e08282613299565b919050565b600067ffffffffffffffff821115613300576132ff61326a565b5b61330982613259565b9050602081019050919050565b82818337600083830152505050565b6000613338613333846132e5565b6132ca565b90508281526020810184848401111561335457613353613254565b5b61335f848285613316565b509392505050565b600082601f83011261337c5761337b61324f565b5b813561338c848260208601613325565b91505092915050565b600080604083850312156133ac576133ab61312d565b5b600083013567ffffffffffffffff8111156133ca576133c9613132565b5b6133d685828601613367565b92505060206133e7858286016131e3565b9150509250929050565b60008115159050919050565b613406816133f1565b82525050565b600060208201905061342160008301846133fd565b92915050565b60006020828403121561343d5761343c61312d565b5b600082013567ffffffffffffffff81111561345b5761345a613132565b5b61346784828501613367565b91505092915050565b600080604083850312156134875761348661312d565b5b6000613495858286016131e3565b92505060206134a6858286016131e3565b9150509250929050565b600081519050919050565b600082825260208201905092915050565b60005b838110156134ea5780820151818401526020810190506134cf565b60008484015250505050565b6000613501826134b0565b61350b81856134bb565b935061351b8185602086016134cc565b61352481613259565b840191505092915050565b6000602082019050818103600083015261354981846134f6565b905092915050565b600060059050919050565b600081905092915050565b6000819050919050565b6000819050919050565b61358481613571565b82525050565b6000613596838361357b565b60208301905092915050565b6000602082019050919050565b6135b881613551565b6135c2818461355c565b92506135cd82613567565b8060005b838110156135fe5781516135e5878261358a565b96506135f0836135a2565b9250506001810190506135d1565b505050505050565b600060a08201905061361b60008301846135af565b92915050565b61362a81613157565b82525050565b60006020820190506136456000830184613621565b92915050565b7f4f6e6c79206465706c6f7965722063616e20617070726f766520776f726b657260008201527f20726567697374726174696f6e20726571756573747300000000000000000000602082015250565b60006136a76036836134bb565b91506136b28261364b565b604082019050919050565b600060208201905081810360008301526136d68161369a565b9050919050565b6136e6816133f1565b81146136f157600080fd5b50565b600081519050613703816136dd565b92915050565b60006020828403121561371f5761371e61312d565b5b600061372d848285016136f4565b91505092915050565b7f576f726b65722069736e27742068657265000000000000000000000000000000600082015250565b600061376c6011836134bb565b915061377782613736565b602082019050919050565b6000602082019050818103600083015261379b8161375f565b9050919050565b7f446f6e2774206861766520616e206170706f696e746d656e7400000000000000600082015250565b60006137d86019836134bb565b91506137e3826137a2565b602082019050919050565b60006020820190508181036000830152613807816137cb565b9050919050565b7f446f6e2774206861766520616e20756e617070726f766564206170706f696e7460008201527f6d656e7400000000000000000000000000000000000000000000000000000000602082015250565b600061386a6024836134bb565b91506138758261380e565b604082019050919050565b600060208201905081810360008301526138998161385d565b9050919050565b7f596f752061726520756e617661696c61626c6500000000000000000000000000600082015250565b60006138d66013836134bb565b91506138e1826138a0565b602082019050919050565b60006020820190508181036000830152613905816138c9565b9050919050565b60008151905061391b816131cc565b92915050565b6000602082840312156139375761393661312d565b5b60006139458482850161390c565b91505092915050565b7f4f6e6c792061646d696e2063616e206372656174652073657276696365730000600082015250565b6000613984601e836134bb565b915061398f8261394e565b602082019050919050565b600060208201905081810360008301526139b381613977565b9050919050565b600060408201905081810360008301526139d481856134f6565b90506139e36020830184613225565b9392505050565b60006040820190506139ff6000830185613621565b8181036020830152613a1181846134f6565b90509392505050565b7f436c69656e742069736e27742068657265000000000000000000000000000000600082015250565b6000613a506011836134bb565b9150613a5b82613a1a565b602082019050919050565b60006020820190508181036000830152613a7f81613a43565b9050919050565b7f5365727669636520646f65736e27742065786973740000000000000000000000600082015250565b6000613abc6015836134bb565b9150613ac782613a86565b602082019050919050565b60006020820190508181036000830152613aeb81613aaf565b9050919050565b7f57726f6e672076616c756520666f722073657276696365000000000000000000600082015250565b6000613b286017836134bb565b9150613b3382613af2565b602082019050919050565b60006020820190508181036000830152613b5781613b1b565b9050919050565b7f57726f6e672074696d6500000000000000000000000000000000000000000000600082015250565b6000613b94600a836134bb565b9150613b9f82613b5e565b602082019050919050565b60006020820190508181036000830152613bc381613b87565b9050919050565b6000606082019050613bdf6000830186613621565b613bec6020830185613225565b613bf96040830184613225565b949350505050565b7f4f6e6c792061646d696e2063616e206368616e6765207365727669636520737460008201527f6174757300000000000000000000000000000000000000000000000000000000602082015250565b6000613c5d6024836134bb565b9150613c6882613c01565b604082019050919050565b60006020820190508181036000830152613c8c81613c50565b9050919050565b6000613ca6613ca1846132e5565b6132ca565b905082815260208101848484011115613cc257613cc1613254565b5b613ccd8482856134cc565b509392505050565b600082601f830112613cea57613ce961324f565b5b8151613cfa848260208601613c93565b91505092915050565b600060208284031215613d1957613d1861312d565b5b600082015167ffffffffffffffff811115613d3757613d36613132565b5b613d4384828501613cd5565b91505092915050565b600067ffffffffffffffff821115613d6757613d6661326a565b5b602082029050919050565b600080fd5b613d8081613571565b8114613d8b57600080fd5b50565b600081519050613d9d81613d77565b92915050565b6000613db6613db184613d4c565b6132ca565b90508060208402830185811115613dd057613dcf613d72565b5b835b81811015613df95780613de58882613d8e565b845260208401935050602081019050613dd2565b5050509392505050565b600082601f830112613e1857613e1761324f565b5b6005613e25848285613da3565b91505092915050565b600060a08284031215613e4457613e4361312d565b5b6000613e5284828501613e03565b91505092915050565b600081519050613e6a81613169565b92915050565b600060208284031215613e8657613e8561312d565b5b6000613e9484828501613e5b565b9150509291505056fea26469706673582212202bd3c83836432634b5532065860668ddfdc47b4459d95bff117e58746a2b2c6964736f6c63430008110033608060405234801561001057600080fd5b50610efa806100206000396000f3fe608060405234801561001057600080fd5b50600436106100935760003560e01c80634a69d93d116100665780634a69d93d1461013057806385d8fff01461014c578063c011565b1461017c578063e53a6ec314610198578063ec12c006146101c857610093565b80630405df8814610098578063061dff9a146100b457806312c61114146100d05780632de03b6b14610100575b600080fd5b6100b260048036038101906100ad9190610907565b6101f8565b005b6100ce60048036038101906100c99190610907565b610265565b005b6100ea60048036038101906100e59190610907565b610464565b6040516100f7919061094f565b60405180910390f35b61011a60048036038101906101159190610907565b6104bd565b604051610127919061094f565b60405180910390f35b61014a60048036038101906101459190610907565b610595565b005b61016660048036038101906101619190610907565b610603565b604051610173919061094f565b60405180910390f35b61019660048036038101906101919190610ab0565b61065b565b005b6101b260048036038101906101ad9190610907565b6106ee565b6040516101bf9190610b8b565b60405180910390f35b6101e260048036038101906101dd9190610907565b6107c2565b6040516101ef9190610b8b565b60405180910390f35b60018060008373ffffffffffffffffffffffffffffffffffffffff1673ffffffffffffffffffffffffffffffffffffffff16815260200190815260200160002060010160016101000a81548160ff0219169083600281111561025d5761025c610bad565b5b021790555050565b60008060008373ffffffffffffffffffffffffffffffffffffffff1673ffffffffffffffffffffffffffffffffffffffff16815260200190815260200160002060010160006101000a81548160ff02191690831515021790555060405180606001604052806000808473ffffffffffffffffffffffffffffffffffffffff1673ffffffffffffffffffffffffffffffffffffffff168152602001908152602001600020600001805461031690610c0b565b80601f016020809104026020016040519081016040528092919081815260200182805461034290610c0b565b801561038f5780601f106103645761010080835404028352916020019161038f565b820191906000526020600020905b81548152906001019060200180831161037257829003601f168201915b50505050508152602001600115158152602001600160028111156103b6576103b5610bad565b5b815250600160008373ffffffffffffffffffffffffffffffffffffffff1673ffffffffffffffffffffffffffffffffffffffff168152602001908152602001600020600082015181600001908161040d9190610df2565b5060208201518160010160006101000a81548160ff02191690831515021790555060408201518160010160016101000a81548160ff0219169083600281111561045957610458610bad565b5b021790555090505050565b6000600160008373ffffffffffffffffffffffffffffffffffffffff1673ffffffffffffffffffffffffffffffffffffffff16815260200190815260200160002060010160009054906101000a900460ff169050919050565b6000600160008373ffffffffffffffffffffffffffffffffffffffff1673ffffffffffffffffffffffffffffffffffffffff16815260200190815260200160002060010160009054906101000a900460ff16801561058e57506001600281111561052a57610529610bad565b5b600160008473ffffffffffffffffffffffffffffffffffffffff1673ffffffffffffffffffffffffffffffffffffffff16815260200190815260200160002060010160019054906101000a900460ff16600281111561058c5761058b610bad565b5b145b9050919050565b6002600160008373ffffffffffffffffffffffffffffffffffffffff1673ffffffffffffffffffffffffffffffffffffffff16815260200190815260200160002060010160016101000a81548160ff021916908360028111156105fb576105fa610bad565b5b021790555050565b60008060008373ffffffffffffffffffffffffffffffffffffffff1673ffffffffffffffffffffffffffffffffffffffff16815260200190815260200160002060010160009054906101000a900460ff169050919050565b6040518060400160405280828152602001600115158152506000808473ffffffffffffffffffffffffffffffffffffffff1673ffffffffffffffffffffffffffffffffffffffff16815260200190815260200160002060008201518160000190816106c69190610df2565b5060208201518160010160006101000a81548160ff0219169083151502179055509050505050565b6060600160008373ffffffffffffffffffffffffffffffffffffffff1673ffffffffffffffffffffffffffffffffffffffff168152602001908152602001600020600001805461073d90610c0b565b80601f016020809104026020016040519081016040528092919081815260200182805461076990610c0b565b80156107b65780601f1061078b576101008083540402835291602001916107b6565b820191906000526020600020905b81548152906001019060200180831161079957829003601f168201915b50505050509050919050565b60606000808373ffffffffffffffffffffffffffffffffffffffff1673ffffffffffffffffffffffffffffffffffffffff168152602001908152602001600020600001805461081090610c0b565b80601f016020809104026020016040519081016040528092919081815260200182805461083c90610c0b565b80156108895780601f1061085e57610100808354040283529160200191610889565b820191906000526020600020905b81548152906001019060200180831161086c57829003601f168201915b50505050509050919050565b6000604051905090565b600080fd5b600080fd5b600073ffffffffffffffffffffffffffffffffffffffff82169050919050565b60006108d4826108a9565b9050919050565b6108e4816108c9565b81146108ef57600080fd5b50565b600081359050610901816108db565b92915050565b60006020828403121561091d5761091c61089f565b5b600061092b848285016108f2565b91505092915050565b60008115159050919050565b61094981610934565b82525050565b60006020820190506109646000830184610940565b92915050565b600080fd5b600080fd5b6000601f19601f8301169050919050565b7f4e487b7100000000000000000000000000000000000000000000000000000000600052604160045260246000fd5b6109bd82610974565b810181811067ffffffffffffffff821117156109dc576109db610985565b5b80604052505050565b60006109ef610895565b90506109fb82826109b4565b919050565b600067ffffffffffffffff821115610a1b57610a1a610985565b5b610a2482610974565b9050602081019050919050565b82818337600083830152505050565b6000610a53610a4e84610a00565b6109e5565b905082815260208101848484011115610a6f57610a6e61096f565b5b610a7a848285610a31565b509392505050565b600082601f830112610a9757610a9661096a565b5b8135610aa7848260208601610a40565b91505092915050565b60008060408385031215610ac757610ac661089f565b5b6000610ad5858286016108f2565b925050602083013567ffffffffffffffff811115610af657610af56108a4565b5b610b0285828601610a82565b9150509250929050565b600081519050919050565b600082825260208201905092915050565b60005b83811015610b46578082015181840152602081019050610b2b565b60008484015250505050565b6000610b5d82610b0c565b610b678185610b17565b9350610b77818560208601610b28565b610b8081610974565b840191505092915050565b60006020820190508181036000830152610ba58184610b52565b905092915050565b7f4e487b7100000000000000000000000000000000000000000000000000000000600052602160045260246000fd5b7f4e487b7100000000000000000000000000000000000000000000000000000000600052602260045260246000fd5b60006002820490506001821680610c2357607f821691505b602082108103610c3657610c35610bdc565b5b50919050565b60008190508160005260206000209050919050565b60006020601f8301049050919050565b600082821b905092915050565b600060088302610c9e7fffffffffffffffffffffffffffffffffffffffffffffffffffffffffffffffff82610c61565b610ca88683610c61565b95508019841693508086168417925050509392505050565b6000819050919050565b6000819050919050565b6000610cef610cea610ce584610cc0565b610cca565b610cc0565b9050919050565b6000819050919050565b610d0983610cd4565b610d1d610d1582610cf6565b848454610c6e565b825550505050565b600090565b610d32610d25565b610d3d818484610d00565b505050565b5b81811015610d6157610d56600082610d2a565b600181019050610d43565b5050565b601f821115610da657610d7781610c3c565b610d8084610c51565b81016020851015610d8f578190505b610da3610d9b85610c51565b830182610d42565b50505b505050565b600082821c905092915050565b6000610dc960001984600802610dab565b1980831691505092915050565b6000610de28383610db8565b9150826002028217905092915050565b610dfb82610b0c565b67ffffffffffffffff811115610e1457610e13610985565b5b610e1e8254610c0b565b610e29828285610d65565b600060209050601f831160018114610e5c5760008415610e4a578287015190505b610e548582610dd6565b865550610ebc565b601f198416610e6a86610c3c565b60005b82811015610e9257848901518255600182019150602085019450602081019050610e6d565b86831015610eaf5784890151610eab601f891682610db8565b8355505b6001600288020188555050505b50505050505056fea26469706673582212205f28971e452305534cdfdb3fd5f47987b435b07ace24196ead4546eef6cf221064736f6c63430008110033608060405234801561001057600080fd5b5061099e806100206000396000f3fe608060405234801561001057600080fd5b50600436106100575760003560e01c806373923d341461005c578063a8cd0a801461008c578063c41a26e3146100aa578063f0e734d4146100c6578063f2fef58b146100f6575b600080fd5b610076600480360381019061007191906103b0565b610112565b604051610083919061046d565b60405180910390f35b6100946101e5565b6040516100a1919061049e565b60405180910390f35b6100c460048036038101906100bf91906103b0565b61020f565b005b6100e060048036038101906100db91906103b0565b610253565b6040516100ed91906104d4565b60405180910390f35b610110600480360381019061010b9190610624565b6102ab565b005b60606000808373ffffffffffffffffffffffffffffffffffffffff1673ffffffffffffffffffffffffffffffffffffffff1681526020019081526020016000206000018054610160906106af565b80601f016020809104026020016040519081016040528092919081815260200182805461018c906106af565b80156101d95780601f106101ae576101008083540402835291602001916101d9565b820191906000526020600020905b8154815290600101906020018083116101bc57829003601f168201915b50505050509050919050565b6000600160009054906101000a900473ffffffffffffffffffffffffffffffffffffffff16905090565b80600160006101000a81548173ffffffffffffffffffffffffffffffffffffffff021916908373ffffffffffffffffffffffffffffffffffffffff16021790555050565b60008060008373ffffffffffffffffffffffffffffffffffffffff1673ffffffffffffffffffffffffffffffffffffffff16815260200190815260200160002060010160009054906101000a900460ff169050919050565b6040518060400160405280828152602001600115158152506000808473ffffffffffffffffffffffffffffffffffffffff1673ffffffffffffffffffffffffffffffffffffffff16815260200190815260200160002060008201518160000190816103169190610896565b5060208201518160010160006101000a81548160ff0219169083151502179055509050505050565b6000604051905090565b600080fd5b600080fd5b600073ffffffffffffffffffffffffffffffffffffffff82169050919050565b600061037d82610352565b9050919050565b61038d81610372565b811461039857600080fd5b50565b6000813590506103aa81610384565b92915050565b6000602082840312156103c6576103c5610348565b5b60006103d48482850161039b565b91505092915050565b600081519050919050565b600082825260208201905092915050565b60005b838110156104175780820151818401526020810190506103fc565b60008484015250505050565b6000601f19601f8301169050919050565b600061043f826103dd565b61044981856103e8565b93506104598185602086016103f9565b61046281610423565b840191505092915050565b600060208201905081810360008301526104878184610434565b905092915050565b61049881610372565b82525050565b60006020820190506104b3600083018461048f565b92915050565b60008115159050919050565b6104ce816104b9565b82525050565b60006020820190506104e960008301846104c5565b92915050565b600080fd5b600080fd5b7f4e487b7100000000000000000000000000000000000000000000000000000000600052604160045260246000fd5b61053182610423565b810181811067ffffffffffffffff821117156105505761054f6104f9565b5b80604052505050565b600061056361033e565b905061056f8282610528565b919050565b600067ffffffffffffffff82111561058f5761058e6104f9565b5b61059882610423565b9050602081019050919050565b82818337600083830152505050565b60006105c76105c284610574565b610559565b9050828152602081018484840111156105e3576105e26104f4565b5b6105ee8482856105a5565b509392505050565b600082601f83011261060b5761060a6104ef565b5b813561061b8482602086016105b4565b91505092915050565b6000806040838503121561063b5761063a610348565b5b60006106498582860161039b565b925050602083013567ffffffffffffffff81111561066a5761066961034d565b5b610676858286016105f6565b9150509250929050565b7f4e487b7100000000000000000000000000000000000000000000000000000000600052602260045260246000fd5b600060028204905060018216806106c757607f821691505b6020821081036106da576106d9610680565b5b50919050565b60008190508160005260206000209050919050565b60006020601f8301049050919050565b600082821b905092915050565b6000600883026107427fffffffffffffffffffffffffffffffffffffffffffffffffffffffffffffffff82610705565b61074c8683610705565b95508019841693508086168417925050509392505050565b6000819050919050565b6000819050919050565b600061079361078e61078984610764565b61076e565b610764565b9050919050565b6000819050919050565b6107ad83610778565b6107c16107b98261079a565b848454610712565b825550505050565b600090565b6107d66107c9565b6107e18184846107a4565b505050565b5b81811015610805576107fa6000826107ce565b6001810190506107e7565b5050565b601f82111561084a5761081b816106e0565b610824846106f5565b81016020851015610833578190505b61084761083f856106f5565b8301826107e6565b50505b505050565b600082821c905092915050565b600061086d6000198460080261084f565b1980831691505092915050565b6000610886838361085c565b9150826002028217905092915050565b61089f826103dd565b67ffffffffffffffff8111156108b8576108b76104f9565b5b6108c282546106af565b6108cd828285610809565b600060209050601f83116001811461090057600084156108ee578287015190505b6108f8858261087a565b865550610960565b601f19841661090e866106e0565b60005b8281101561093657848901518255600182019150602085019450602081019050610911565b86831015610953578489015161094f601f89168261085c565b8355505b6001600288020188555050505b50505050505056fea26469706673582212205c153e1897d441530528b61d2fde4c5d658e2cd2faafbd51a0fa2b14d8dfff9664736f6c63430008110033608060405234801561001057600080fd5b50610b00806100206000396000f3fe608060405234801561001057600080fd5b50600436106100885760003560e01c8063953058f81161005b578063953058f814610125578063a840260214610155578063c03f9b4414610171578063c573d8a2146101a157610088565b80631cf82bd21461008d5780634cc0862d146100a9578063801d1697146100c55780638a2c6b51146100f5575b600080fd5b6100a760048036038101906100a29190610604565b6101bf565b005b6100c360048036038101906100be9190610660565b61026e565b005b6100df60048036038101906100da9190610660565b6102bf565b6040516100ec91906106a8565b60405180910390f35b61010f600480360381019061010a9190610660565b6102cf565b60405161011c91906106a8565b60405180910390f35b61013f600480360381019061013a9190610660565b610332565b60405161014c9190610742565b60405180910390f35b61016f600480360381019061016a9190610660565b6103e9565b005b61018b60048036038101906101869190610660565b61043a565b6040516101989190610773565b60405180910390f35b6101a9610468565b6040516101b69190610773565b60405180910390f35b60006040518060600160405280848152602001838152602001600160028111156101ec576101eb61078e565b5b8152509080600181540180825580915050600190039060005260206000209060030201600090919091909150600082015181600001908161022d91906109c9565b506020820151816001015560408201518160020160006101000a81548160ff021916908360028111156102635761026261078e565b5b021790555050505050565b60016000828154811061028457610283610a9b565b5b906000526020600020906003020160020160006101000a81548160ff021916908360028111156102b7576102b661078e565b5b021790555050565b6000808054905082109050919050565b6000600160028111156102e5576102e461078e565b5b600083815481106102f9576102f8610a9b565b5b906000526020600020906003020160020160009054906101000a900460ff16600281111561032a5761032961078e565b5b149050919050565b60606000828154811061034857610347610a9b565b5b90600052602060002090600302016000018054610364906107ec565b80601f0160208091040260200160405190810160405280929190818152602001828054610390906107ec565b80156103dd5780601f106103b2576101008083540402835291602001916103dd565b820191906000526020600020905b8154815290600101906020018083116103c057829003601f168201915b50505050509050919050565b6002600082815481106103ff576103fe610a9b565b5b906000526020600020906003020160020160006101000a81548160ff021916908360028111156104325761043161078e565b5b021790555050565b600080828154811061044f5761044e610a9b565b5b9060005260206000209060030201600101549050919050565b60008080549050905090565b6000604051905090565b600080fd5b600080fd5b600080fd5b600080fd5b6000601f19601f8301169050919050565b7f4e487b7100000000000000000000000000000000000000000000000000000000600052604160045260246000fd5b6104db82610492565b810181811067ffffffffffffffff821117156104fa576104f96104a3565b5b80604052505050565b600061050d610474565b905061051982826104d2565b919050565b600067ffffffffffffffff821115610539576105386104a3565b5b61054282610492565b9050602081019050919050565b82818337600083830152505050565b600061057161056c8461051e565b610503565b90508281526020810184848401111561058d5761058c61048d565b5b61059884828561054f565b509392505050565b600082601f8301126105b5576105b4610488565b5b81356105c584826020860161055e565b91505092915050565b6000819050919050565b6105e1816105ce565b81146105ec57600080fd5b50565b6000813590506105fe816105d8565b92915050565b6000806040838503121561061b5761061a61047e565b5b600083013567ffffffffffffffff81111561063957610638610483565b5b610645858286016105a0565b9250506020610656858286016105ef565b9150509250929050565b6000602082840312156106765761067561047e565b5b6000610684848285016105ef565b91505092915050565b60008115159050919050565b6106a28161068d565b82525050565b60006020820190506106bd6000830184610699565b92915050565b600081519050919050565b600082825260208201905092915050565b60005b838110156106fd5780820151818401526020810190506106e2565b60008484015250505050565b6000610714826106c3565b61071e81856106ce565b935061072e8185602086016106df565b61073781610492565b840191505092915050565b6000602082019050818103600083015261075c8184610709565b905092915050565b61076d816105ce565b82525050565b60006020820190506107886000830184610764565b92915050565b7f4e487b7100000000000000000000000000000000000000000000000000000000600052602160045260246000fd5b7f4e487b7100000000000000000000000000000000000000000000000000000000600052602260045260246000fd5b6000600282049050600182168061080457607f821691505b602082108103610817576108166107bd565b5b50919050565b60008190508160005260206000209050919050565b60006020601f8301049050919050565b600082821b905092915050565b60006008830261087f7fffffffffffffffffffffffffffffffffffffffffffffffffffffffffffffffff82610842565b6108898683610842565b95508019841693508086168417925050509392505050565b6000819050919050565b60006108c66108c16108bc846105ce565b6108a1565b6105ce565b9050919050565b6000819050919050565b6108e0836108ab565b6108f46108ec826108cd565b84845461084f565b825550505050565b600090565b6109096108fc565b6109148184846108d7565b505050565b5b818110156109385761092d600082610901565b60018101905061091a565b5050565b601f82111561097d5761094e8161081d565b61095784610832565b81016020851015610966578190505b61097a61097285610832565b830182610919565b50505b505050565b600082821c905092915050565b60006109a060001984600802610982565b1980831691505092915050565b60006109b9838361098f565b9150826002028217905092915050565b6109d2826106c3565b67ffffffffffffffff8111156109eb576109ea6104a3565b5b6109f582546107ec565b610a0082828561093c565b600060209050601f831160018114610a335760008415610a21578287015190505b610a2b85826109ad565b865550610a93565b601f198416610a418661081d565b60005b82811015610a6957848901518255600182019150602085019450602081019050610a44565b86831015610a865784890151610a82601f89168261098f565b8355505b6001600288020188555050505b505050505050565b7f4e487b7100000000000000000000000000000000000000000000000000000000600052603260045260246000fdfea264697066735822122026c88b08b6406c86a2f77f8f9be90f2ac503d41579c04562876ae2c7e36e6fc264736f6c63430008110033608060405234801561001057600080fd5b50610b61806100206000396000f3fe608060405234801561001057600080fd5b506004361061009e5760003560e01c80637c7ba0d4116100665780637c7ba0d41461016d578063929ff9531461019d578063b61cb6af146101b9578063cb32db72146101e9578063e4cc4e45146102195761009e565b8063064eac8a146100a35780630daae746146100bf578063454322b8146100ef5780634b47d8271461010d57806378ec04d91461013d575b600080fd5b6100bd60048036038101906100b8919061081b565b610249565b005b6100d960048036038101906100d4919061081b565b61029a565b6040516100e69190610857565b60405180910390f35b6100f76102c8565b6040516101049190610857565b60405180910390f35b6101276004803603810190610122919061081b565b6102d4565b604051610134919061088d565b60405180910390f35b6101576004803603810190610152919061081b565b6102e4565b6040516101649190610857565b60405180910390f35b6101876004803603810190610182919061081b565b610312565b604051610194919061095d565b60405180910390f35b6101b760048036038101906101b291906109d6565b610476565b005b6101d360048036038101906101ce919061081b565b6105e1565b6040516101e0919061088d565b60405180910390f35b61020360048036038101906101fe919061081b565b610643565b6040516102109190610857565b60405180910390f35b610233600480360381019061022e9190610a29565b610671565b604051610240919061095d565b60405180910390f35b60026000828154811061025f5761025e610a56565b5b906000526020600020906004020160030160146101000a81548160ff0219169083600281111561029257610291610a85565b5b021790555050565b60008082815481106102af576102ae610a56565b5b9060005260206000209060040201600001549050919050565b60008080549050905090565b6000808054905082109050919050565b60008082815481106102f9576102f8610a56565b5b9060005260206000209060040201600001549050919050565b61031a6107be565b6000806000808054905090506000600590506103346107be565b5b828410801561034357508185105b1561041257866000858154811061035d5761035c610a56565b5b9060005260206000209060040201600001541480156103d257506001600281111561038b5761038a610a85565b5b6000858154811061039f5761039e610a56565b5b906000526020600020906004020160030160149054906101000a900460ff1660028111156103d0576103cf610a85565b5b145b1561040157838186806103e490610ae3565b9750600581106103f7576103f6610a56565b5b6020020181815250505b8361040b90610ae3565b9350610335565b5b81851015610469577fffffffffffffffffffffffffffffffffffffffffffffffffffffffffffffffff81866005811061044f5761044e610a56565b5b6020020181815250508461046290610ae3565b9450610413565b8095505050505050919050565b60006040518060a001604052808481526020018381526020018573ffffffffffffffffffffffffffffffffffffffff168152602001600073ffffffffffffffffffffffffffffffffffffffff168152602001600160028111156104dc576104db610a85565b5b8152509080600181540180825580915050600190039060005260206000209060040201600090919091909150600082015181600001556020820151816001015560408201518160020160006101000a81548173ffffffffffffffffffffffffffffffffffffffff021916908373ffffffffffffffffffffffffffffffffffffffff16021790555060608201518160030160006101000a81548173ffffffffffffffffffffffffffffffffffffffff021916908373ffffffffffffffffffffffffffffffffffffffff16021790555060808201518160030160146101000a81548160ff021916908360028111156105d5576105d4610a85565b5b02179055505050505050565b60006002808111156105f6576105f5610a85565b5b6000838154811061060a57610609610a56565b5b906000526020600020906004020160030160149054906101000a900460ff16600281111561063b5761063a610a85565b5b149050919050565b600080828154811061065857610657610a56565b5b9060005260206000209060040201600101549050919050565b6106796107be565b6000806000808054905090506000600590506106936107be565b5b82841080156106a257508185105b1561075a578673ffffffffffffffffffffffffffffffffffffffff16600085815481106106d2576106d1610a56565b5b906000526020600020906004020160020160009054906101000a900473ffffffffffffffffffffffffffffffffffffffff1673ffffffffffffffffffffffffffffffffffffffff1603610749578381868061072c90610ae3565b97506005811061073f5761073e610a56565b5b6020020181815250505b8361075390610ae3565b9350610694565b5b818510156107b1577fffffffffffffffffffffffffffffffffffffffffffffffffffffffffffffffff81866005811061079757610796610a56565b5b602002018181525050846107aa90610ae3565b945061075b565b8095505050505050919050565b6040518060a00160405280600590602082028036833780820191505090505090565b600080fd5b6000819050919050565b6107f8816107e5565b811461080357600080fd5b50565b600081359050610815816107ef565b92915050565b600060208284031215610831576108306107e0565b5b600061083f84828501610806565b91505092915050565b610851816107e5565b82525050565b600060208201905061086c6000830184610848565b92915050565b60008115159050919050565b61088781610872565b82525050565b60006020820190506108a2600083018461087e565b92915050565b600060059050919050565b600081905092915050565b6000819050919050565b6000819050919050565b6108db816108c8565b82525050565b60006108ed83836108d2565b60208301905092915050565b6000602082019050919050565b61090f816108a8565b61091981846108b3565b9250610924826108be565b8060005b8381101561095557815161093c87826108e1565b9650610947836108f9565b925050600181019050610928565b505050505050565b600060a0820190506109726000830184610906565b92915050565b600073ffffffffffffffffffffffffffffffffffffffff82169050919050565b60006109a382610978565b9050919050565b6109b381610998565b81146109be57600080fd5b50565b6000813590506109d0816109aa565b92915050565b6000806000606084860312156109ef576109ee6107e0565b5b60006109fd868287016109c1565b9350506020610a0e86828701610806565b9250506040610a1f86828701610806565b9150509250925092565b600060208284031215610a3f57610a3e6107e0565b5b6000610a4d848285016109c1565b91505092915050565b7f4e487b7100000000000000000000000000000000000000000000000000000000600052603260045260246000fd5b7f4e487b7100000000000000000000000000000000000000000000000000000000600052602160045260246000fd5b7f4e487b7100000000000000000000000000000000000000000000000000000000600052601160045260246000fd5b6000610aee826107e5565b91507fffffffffffffffffffffffffffffffffffffffffffffffffffffffffffffffff8203610b2057610b1f610ab4565b5b60018201905091905056fea2646970667358221220849a9005915413448e3b011b5ae9f012b4b2af679064ddae4dfcabedcb16ba0d64736f6c63430008110033",
  "immutableReferences": {},
  "source": "pragma solidity ^0.8.13;\r\n\r\nimport \"./WorkerManager.sol\";\r\nimport \"./ClientManager.sol\";\r\nimport \"./ServiceManager.sol\";\r\nimport \"./AppointmentManager.sol\";\r\n\r\ncontract MassageRoom {\r\n    address deployer;\r\n\r\n    WorkerManager workerManager;\r\n    ClientManager clientManager;\r\n    ServiceManager serviceManager;\r\n    AppointmentManager appointmentManager;\r\n\r\n    constructor() {\r\n        deployer = msg.sender;\r\n\r\n        workerManager = new WorkerManager();\r\n        clientManager = new ClientManager();\r\n        serviceManager = new ServiceManager();\r\n        appointmentManager = new AppointmentManager();\r\n    }\r\n\r\n    address testV;\r\n\r\n    function putTest(address v) external {\r\n        testV = v;\r\n    }\r\n\r\n    function getTest() external view returns (address) {\r\n        return testV;\r\n    }\r\n\r\n    function putTestHop(address v) external {\r\n        clientManager.putTest(v);\r\n    }\r\n\r\n    function getTestHop() external view returns (address) {\r\n        return clientManager.getTest();\r\n    }\r\n\r\n    //* Modifiers//\r\n\r\n    modifier _canApproveWorkerRegistrationRequests() {\r\n        require(\r\n            msg.sender == deployer,\r\n            \"Only deployer can approve worker registration requests\"\r\n        );\r\n        _;\r\n    }\r\n\r\n    modifier _canChangeWorkerStatus(address targetWorker) {\r\n        require(\r\n            msg.sender == deployer || msg.sender == targetWorker,\r\n            \"Only deployer can approve worker registration requests\"\r\n        );\r\n        _;\r\n    }\r\n\r\n    modifier _hasWorker(address targetWorker) {\r\n        require(workerManager.isWorkerHere(targetWorker), \"Worker isn't here\");\r\n        _;\r\n    }\r\n\r\n    modifier _hasWorkerRequest(address targetWorker) {\r\n        require(\r\n            workerManager.isRequestHere(targetWorker),\r\n            \"Request isn't here\"\r\n        );\r\n        _;\r\n    }\r\n\r\n    modifier _hasClient(address targetClient) {\r\n        require(clientManager.isClientHere(targetClient), \"Client isn't here\");\r\n        _;\r\n    }\r\n\r\n    modifier _canCreateServices() {\r\n        require(msg.sender == deployer, \"Only admin can create services\");\r\n        _;\r\n    }\r\n\r\n    modifier _canChangeServiceStatus() {\r\n        require(msg.sender == deployer, \"Only admin can change service status\");\r\n        _;\r\n    }\r\n\r\n    modifier _hasService(uint256 i) {\r\n        require(serviceManager.hasService(i), \"Service doesn't exist\");\r\n        _;\r\n    }\r\n\r\n    modifier _hasUnapprovedAppointment(uint256 i) {\r\n        require(\r\n            appointmentManager.isAppointmentApproved(i) == false,\r\n            \"Don't have an unapproved appointment\"\r\n        );\r\n        _;\r\n    }\r\n\r\n    modifier _hasAppointment(uint256 i) {\r\n        require(\r\n            appointmentManager.hasAppointment(i),\r\n            \"Don't have an appointment\"\r\n        );\r\n        _;\r\n    }\r\n\r\n    //* ~Modifiers//\r\n\r\n    function getTestValue() external pure returns (uint256) {\r\n        return 3;\r\n    }\r\n\r\n    function isAdmin() external view returns (bool) {\r\n        return msg.sender == deployer;\r\n    }\r\n\r\n    //* Workers//\r\n    function askToRegisterAsWorker(string memory name) external {\r\n        workerManager.putRequestToRegister(msg.sender, name);\r\n    }\r\n\r\n    function approveWorkerRegistrationRequest(address workerAddr)\r\n        external\r\n        _canApproveWorkerRegistrationRequests\r\n    {\r\n        workerManager.approveRequest(workerAddr);\r\n    }\r\n\r\n    function isWorkerRequestHere(address addr) external view returns (bool) {\r\n        return workerManager.isRequestHere(addr);\r\n    }\r\n\r\n    function isAWorker(address addr) external view returns (bool) {\r\n        return workerManager.isWorkerHere(addr);\r\n    }\r\n\r\n    function getWorkerName(address addr)\r\n        external\r\n        view\r\n        _hasWorker(addr)\r\n        returns (string memory)\r\n    {\r\n        return workerManager.getWorkerName(addr);\r\n    }\r\n\r\n    function getWorkerRequestName(address addr)\r\n        external\r\n        view\r\n        _hasWorker(addr)\r\n        returns (string memory)\r\n    {\r\n        return workerManager.getRequestName(addr);\r\n    }\r\n\r\n    function isWorkerAvailable(address workerAddr)\r\n        external\r\n        view\r\n        returns (bool)\r\n    {\r\n        return workerManager.isWorkerAvailable(workerAddr);\r\n    }\r\n\r\n    function setWorkerAsUnavailable(address workerAddr)\r\n        external\r\n        _canChangeWorkerStatus(workerAddr)\r\n        _hasWorker(workerAddr)\r\n    {\r\n        workerManager.setWorkerAsUnavailable(workerAddr);\r\n    }\r\n\r\n    function setWorkerAsAvailable(address workerAddr)\r\n        external\r\n        _canChangeWorkerStatus(workerAddr)\r\n        _hasWorker(workerAddr)\r\n    {\r\n        workerManager.setWorkerAsAvailable(workerAddr);\r\n    }\r\n\r\n    //* ~Workers//\r\n\r\n    //* Clients//\r\n    function registerAsClient(string memory name) external {\r\n        clientManager.registerClient(msg.sender, name);\r\n    }\r\n\r\n    function isAClient(address addr) external view returns (bool) {\r\n        return clientManager.isClientHere(addr);\r\n    }\r\n\r\n    function getClientName(address addr)\r\n        external\r\n        view\r\n        _hasClient(addr)\r\n        returns (string memory)\r\n    {\r\n        return clientManager.getClientName(addr);\r\n    }\r\n\r\n    //* ~Clients//\r\n\r\n    //* Services//\r\n    function createService(string memory name, uint256 price)\r\n        external\r\n        _canCreateServices\r\n    {\r\n        serviceManager.createService(name, price);\r\n    }\r\n\r\n    function getServicesLength() external view returns (uint256) {\r\n        return serviceManager.getServicesLength();\r\n    }\r\n\r\n    function getServiceName(uint256 i)\r\n        external\r\n        view\r\n        _hasService(i)\r\n        returns (string memory)\r\n    {\r\n        return serviceManager.getServiceName(i);\r\n    }\r\n\r\n    function getServicePrice(uint256 i)\r\n        external\r\n        view\r\n        _hasService(i)\r\n        returns (uint256)\r\n    {\r\n        return serviceManager.getServicePrice(i);\r\n    }\r\n\r\n    function setServiceAsUnavailable(uint256 i)\r\n        external\r\n        _canChangeServiceStatus\r\n        _hasService(i)\r\n    {\r\n        serviceManager.setServiceAsUnavailable(i);\r\n    }\r\n\r\n    function setServiceAsAvailable(uint256 i)\r\n        external\r\n        _canChangeServiceStatus\r\n        _hasService(i)\r\n    {\r\n        serviceManager.setServiceAsAvailable(i);\r\n    }\r\n\r\n    function isServiceAvailable(uint256 i)\r\n        external\r\n        view\r\n        _hasService(i)\r\n        returns (bool)\r\n    {\r\n        return serviceManager.isServiceAvailable(i);\r\n    }\r\n\r\n    //* ~Clients//\r\n\r\n    //* Appointments//\r\n    function requestAppointment(uint256 serviceI, uint256 time)\r\n        external\r\n        payable\r\n        _hasClient(msg.sender)\r\n        _hasService(serviceI)\r\n    {\r\n        require(\r\n            msg.value == serviceManager.getServicePrice(serviceI),\r\n            \"Wrong value for service\"\r\n        );\r\n\r\n        require(block.timestamp < time, \"Wrong time\");\r\n\r\n        appointmentManager.requestAppointment(msg.sender, serviceI, time);\r\n    }\r\n\r\n    function isAppointmentApproved(uint256 i)\r\n        external\r\n        view\r\n        _hasAppointment(i)\r\n        returns (bool)\r\n    {\r\n        return appointmentManager.isAppointmentApproved(i);\r\n    }\r\n\r\n    function approveAppointment(uint256 i)\r\n        external\r\n        payable\r\n        _hasWorker(msg.sender)\r\n        _hasAppointment(i)\r\n        _hasUnapprovedAppointment(i)\r\n    {\r\n        require(\r\n            workerManager.isWorkerAvailable(msg.sender),\r\n            \"You are unavailable\"\r\n        );\r\n        appointmentManager.approveAppointment(i);\r\n        uint256 serviceI = appointmentManager.getServiceIndex(i);\r\n        uint256 servicePrice = serviceManager.getServicePrice(serviceI);\r\n        payable(msg.sender).transfer(servicePrice);\r\n    }\r\n\r\n    function getClientAppointments(address client)\r\n        external\r\n        view\r\n        returns (int256[5] memory)\r\n    {\r\n        return appointmentManager.getClientAppointments(client);\r\n    }\r\n\r\n    function getUnapprovedAppointments(uint256 serviceI)\r\n        external\r\n        view\r\n        returns (int256[5] memory)\r\n    {\r\n        return appointmentManager.getUnapprovedAppointments(serviceI);\r\n    }\r\n\r\n    function getAppointmentService(uint256 i)\r\n        external\r\n        view\r\n        _hasAppointment(i)\r\n        returns (uint256)\r\n    {\r\n        return appointmentManager.getAppointmentService(i);\r\n    }\r\n\r\n    function getAppointmentTime(uint256 i)\r\n        external\r\n        view\r\n        _hasAppointment(i)\r\n        returns (uint256)\r\n    {\r\n        return appointmentManager.getAppointmentTime(i);\r\n    }\r\n    //* ~Appointments//\r\n}\r\n",
  "sourcePath": "/home/seva/Projects/uni-eth-practice/contracts/MassageRoom.sol",
  "compiler": {
    "name": "solc",
    "version": "0.8.17+commit.8df45f5f.Emscripten.clang"
  },
  "schemaVersion": "3.4.11",
  "updatedAt": "2022-12-10T09:09:10.833Z",
  "networkType": "ethereum",
  "devdoc": {
    "kind": "dev",
    "methods": {},
    "version": 1
  },
  "userdoc": {
    "kind": "user",
    "methods": {},
    "version": 1
  }
}