{
  "contractName": "MassageRoom",
  "abi": [
    {
      "inputs": [],
      "stateMutability": "nonpayable",
      "type": "constructor"
    },
    {
      "inputs": [
        {
          "internalType": "address",
          "name": "v",
          "type": "address"
        }
      ],
      "name": "putTest",
      "outputs": [],
      "stateMutability": "nonpayable",
      "type": "function"
    },
    {
      "inputs": [],
      "name": "getTest",
      "outputs": [
        {
          "internalType": "address",
          "name": "",
          "type": "address"
        }
      ],
      "stateMutability": "view",
      "type": "function",
      "constant": true
    },
    {
      "inputs": [],
      "name": "getTestValue",
      "outputs": [
        {
          "internalType": "uint256",
          "name": "",
          "type": "uint256"
        }
      ],
      "stateMutability": "pure",
      "type": "function",
      "constant": true
    },
    {
      "inputs": [],
      "name": "isAdmin",
      "outputs": [
        {
          "internalType": "bool",
          "name": "",
          "type": "bool"
        }
      ],
      "stateMutability": "view",
      "type": "function",
      "constant": true
    },
    {
      "inputs": [
        {
          "internalType": "string",
          "name": "name",
          "type": "string"
        }
      ],
      "name": "askToRegisterAsWorker",
      "outputs": [],
      "stateMutability": "nonpayable",
      "type": "function"
    },
    {
      "inputs": [
        {
          "internalType": "address",
          "name": "workerAddr",
          "type": "address"
        }
      ],
      "name": "approveWorkerRegistrationRequest",
      "outputs": [],
      "stateMutability": "nonpayable",
      "type": "function"
    },
    {
      "inputs": [
        {
          "internalType": "address",
          "name": "addr",
          "type": "address"
        }
      ],
      "name": "isWorkerRequestHere",
      "outputs": [
        {
          "internalType": "bool",
          "name": "",
          "type": "bool"
        }
      ],
      "stateMutability": "view",
      "type": "function",
      "constant": true
    },
    {
      "inputs": [
        {
          "internalType": "address",
          "name": "addr",
          "type": "address"
        }
      ],
      "name": "isAWorker",
      "outputs": [
        {
          "internalType": "bool",
          "name": "",
          "type": "bool"
        }
      ],
      "stateMutability": "view",
      "type": "function",
      "constant": true
    },
    {
      "inputs": [
        {
          "internalType": "address",
          "name": "addr",
          "type": "address"
        }
      ],
      "name": "getWorkerName",
      "outputs": [
        {
          "internalType": "string",
          "name": "",
          "type": "string"
        }
      ],
      "stateMutability": "view",
      "type": "function",
      "constant": true
    },
    {
      "inputs": [
        {
          "internalType": "address",
          "name": "workerAddr",
          "type": "address"
        }
      ],
      "name": "isWorkerAvailable",
      "outputs": [
        {
          "internalType": "bool",
          "name": "",
          "type": "bool"
        }
      ],
      "stateMutability": "view",
      "type": "function",
      "constant": true
    },
    {
      "inputs": [
        {
          "internalType": "address",
          "name": "workerAddr",
          "type": "address"
        }
      ],
      "name": "setWorkerAsUnavailable",
      "outputs": [],
      "stateMutability": "nonpayable",
      "type": "function"
    },
    {
      "inputs": [
        {
          "internalType": "address",
          "name": "workerAddr",
          "type": "address"
        }
      ],
      "name": "setWorkerAsAvailable",
      "outputs": [],
      "stateMutability": "nonpayable",
      "type": "function"
    },
    {
      "inputs": [
        {
          "internalType": "string",
          "name": "name",
          "type": "string"
        }
      ],
      "name": "registerAsClient",
      "outputs": [],
      "stateMutability": "nonpayable",
      "type": "function"
    },
    {
      "inputs": [
        {
          "internalType": "address",
          "name": "addr",
          "type": "address"
        }
      ],
      "name": "isAClient",
      "outputs": [
        {
          "internalType": "bool",
          "name": "",
          "type": "bool"
        }
      ],
      "stateMutability": "view",
      "type": "function",
      "constant": true
    },
    {
      "inputs": [
        {
          "internalType": "string",
          "name": "name",
          "type": "string"
        },
        {
          "internalType": "uint256",
          "name": "price",
          "type": "uint256"
        }
      ],
      "name": "createService",
      "outputs": [],
      "stateMutability": "nonpayable",
      "type": "function"
    },
    {
      "inputs": [],
      "name": "getServicesLength",
      "outputs": [
        {
          "internalType": "uint256",
          "name": "",
          "type": "uint256"
        }
      ],
      "stateMutability": "view",
      "type": "function",
      "constant": true
    },
    {
      "inputs": [
        {
          "internalType": "uint256",
          "name": "i",
          "type": "uint256"
        }
      ],
      "name": "getServiceName",
      "outputs": [
        {
          "internalType": "string",
          "name": "",
          "type": "string"
        }
      ],
      "stateMutability": "view",
      "type": "function",
      "constant": true
    },
    {
      "inputs": [
        {
          "internalType": "uint256",
          "name": "i",
          "type": "uint256"
        }
      ],
      "name": "getServicePrice",
      "outputs": [
        {
          "internalType": "uint256",
          "name": "",
          "type": "uint256"
        }
      ],
      "stateMutability": "view",
      "type": "function",
      "constant": true
    },
    {
      "inputs": [
        {
          "internalType": "uint256",
          "name": "i",
          "type": "uint256"
        }
      ],
      "name": "setServiceAsUnavailable",
      "outputs": [],
      "stateMutability": "nonpayable",
      "type": "function"
    },
    {
      "inputs": [
        {
          "internalType": "uint256",
          "name": "i",
          "type": "uint256"
        }
      ],
      "name": "setServiceAsAvailable",
      "outputs": [],
      "stateMutability": "nonpayable",
      "type": "function"
    },
    {
      "inputs": [
        {
          "internalType": "uint256",
          "name": "i",
          "type": "uint256"
        }
      ],
      "name": "isServiceAvailable",
      "outputs": [
        {
          "internalType": "bool",
          "name": "",
          "type": "bool"
        }
      ],
      "stateMutability": "view",
      "type": "function",
      "constant": true
    },
    {
      "inputs": [
        {
          "internalType": "uint256",
          "name": "serviceI",
          "type": "uint256"
        },
        {
          "internalType": "uint256",
          "name": "time",
          "type": "uint256"
        }
      ],
      "name": "requestAppointment",
      "outputs": [],
      "stateMutability": "payable",
      "type": "function",
      "payable": true
    },
    {
      "inputs": [
        {
          "internalType": "uint256",
          "name": "i",
          "type": "uint256"
        }
      ],
      "name": "isAppointmentApproved",
      "outputs": [
        {
          "internalType": "bool",
          "name": "",
          "type": "bool"
        }
      ],
      "stateMutability": "view",
      "type": "function",
      "constant": true
    },
    {
      "inputs": [
        {
          "internalType": "uint256",
          "name": "i",
          "type": "uint256"
        }
      ],
      "name": "approveAppointment",
      "outputs": [],
      "stateMutability": "payable",
      "type": "function",
      "payable": true
    },
    {
      "inputs": [
        {
          "internalType": "address",
          "name": "client",
          "type": "address"
        }
      ],
      "name": "getClientAppointments",
      "outputs": [
        {
          "internalType": "int256[5]",
          "name": "",
          "type": "int256[5]"
        }
      ],
      "stateMutability": "view",
      "type": "function",
      "constant": true
    },
    {
      "inputs": [
        {
          "internalType": "uint256",
          "name": "serviceI",
          "type": "uint256"
        }
      ],
      "name": "getUnapprovedAppointments",
      "outputs": [
        {
          "internalType": "int256[5]",
          "name": "",
          "type": "int256[5]"
        }
      ],
      "stateMutability": "view",
      "type": "function",
      "constant": true
    },
    {
      "inputs": [
        {
          "internalType": "uint256",
          "name": "i",
          "type": "uint256"
        }
      ],
      "name": "getAppointmentService",
      "outputs": [
        {
          "internalType": "uint256",
          "name": "",
          "type": "uint256"
        }
      ],
      "stateMutability": "view",
      "type": "function",
      "constant": true
    },
    {
      "inputs": [
        {
          "internalType": "uint256",
          "name": "i",
          "type": "uint256"
        }
      ],
      "name": "getAppointmentTime",
      "outputs": [
        {
          "internalType": "uint256",
          "name": "",
          "type": "uint256"
        }
      ],
      "stateMutability": "view",
      "type": "function",
      "constant": true
    }
  ],
  "bytecode": "0x60806040523480156200001157600080fd5b50336000806101000a81548173ffffffffffffffffffffffffffffffffffffffff021916908373ffffffffffffffffffffffffffffffffffffffff160217905550604051620000609062000208565b604051809103906000f0801580156200007d573d6000803e3d6000fd5b50600160006101000a81548173ffffffffffffffffffffffffffffffffffffffff021916908373ffffffffffffffffffffffffffffffffffffffff160217905550604051620000cc9062000216565b604051809103906000f080158015620000e9573d6000803e3d6000fd5b50600260006101000a81548173ffffffffffffffffffffffffffffffffffffffff021916908373ffffffffffffffffffffffffffffffffffffffff160217905550604051620001389062000224565b604051809103906000f08015801562000155573d6000803e3d6000fd5b50600360006101000a81548173ffffffffffffffffffffffffffffffffffffffff021916908373ffffffffffffffffffffffffffffffffffffffff160217905550604051620001a49062000232565b604051809103906000f080158015620001c1573d6000803e3d6000fd5b50600460006101000a81548173ffffffffffffffffffffffffffffffffffffffff021916908373ffffffffffffffffffffffffffffffffffffffff16021790555062000240565b610e0c8062003bb183390190565b61073280620049bd83390190565b610b2080620050ef83390190565b610b818062005c0f83390190565b61396180620002506000396000f3fe6080604052600436106101b75760003560e01c8063a420e5d2116100ec578063c03f9b441161008a578063cb32db7211610064578063cb32db721461064a578063cd516c4d14610687578063e4cc4e45146106b0578063e53a6ec3146106ed576101b7565b8063c03f9b44146105b9578063c41a26e3146105f6578063c573d8a21461061f576101b7565b8063b5a7314b116100c6578063b5a7314b146104eb578063b61cb6af14610528578063b6db75a014610565578063b98389b114610590576101b7565b8063a420e5d21461046c578063a840260214610497578063a8cd0a80146104c0576101b7565b80634a69d93d11610159578063740d870211610133578063740d8702146103785780637c7ba0d4146103b55780638a2c6b51146103f2578063953058f81461042f576101b7565b80634a69d93d146102e95780634cc0862d146103125780636b0ae1eb1461033b576101b7565b80631cf82bd2116101955780631cf82bd21461023e5780632de03b6b146102675780632ebda60b146102a45780634470cadc146102cd576101b7565b80630405df88146101bc578063064eac8a146101e55780630daae74614610201575b600080fd5b3480156101c857600080fd5b506101e360048036038101906101de9190612c65565b61072a565b005b6101ff60048036038101906101fa9190612cc8565b61095d565b005b34801561020d57600080fd5b5061022860048036038101906102239190612cc8565b610eef565b6040516102359190612d04565b60405180910390f35b34801561024a57600080fd5b5061026560048036038101906102609190612e65565b611071565b005b34801561027357600080fd5b5061028e60048036038101906102899190612c65565b611192565b60405161029b9190612edc565b60405180910390f35b3480156102b057600080fd5b506102cb60048036038101906102c69190612ef7565b611237565b005b6102e760048036038101906102e29190612f40565b6112c9565b005b3480156102f557600080fd5b50610310600480360381019061030b9190612c65565b611637565b005b34801561031e57600080fd5b5061033960048036038101906103349190612cc8565b61186a565b005b34801561034757600080fd5b50610362600480360381019061035d9190612c65565b611a65565b60405161036f9190612edc565b60405180910390f35b34801561038457600080fd5b5061039f600480360381019061039a9190612c65565b611b0a565b6040516103ac9190612edc565b60405180910390f35b3480156103c157600080fd5b506103dc60048036038101906103d79190612cc8565b611baf565b6040516103e99190613035565b60405180910390f35b3480156103fe57600080fd5b5061041960048036038101906104149190612cc8565b611c5a565b6040516104269190612edc565b60405180910390f35b34801561043b57600080fd5b5061045660048036038101906104519190612cc8565b611ddc565b60405161046391906130cf565b60405180910390f35b34801561047857600080fd5b50610481611f63565b60405161048e9190612d04565b60405180910390f35b3480156104a357600080fd5b506104be60048036038101906104b99190612cc8565b611f6c565b005b3480156104cc57600080fd5b506104d5612167565b6040516104e29190613100565b60405180910390f35b3480156104f757600080fd5b50610512600480360381019061050d9190612c65565b612191565b60405161051f9190612edc565b60405180910390f35b34801561053457600080fd5b5061054f600480360381019061054a9190612cc8565b612236565b60405161055c9190612edc565b60405180910390f35b34801561057157600080fd5b5061057a6123b8565b6040516105879190612edc565b60405180910390f35b34801561059c57600080fd5b506105b760048036038101906105b29190612ef7565b61240f565b005b3480156105c557600080fd5b506105e060048036038101906105db9190612cc8565b6124a1565b6040516105ed9190612d04565b60405180910390f35b34801561060257600080fd5b5061061d60048036038101906106189190612c65565b612623565b005b34801561062b57600080fd5b50610634612667565b6040516106419190612d04565b60405180910390f35b34801561065657600080fd5b50610671600480360381019061066c9190612cc8565b6126ff565b60405161067e9190612d04565b60405180910390f35b34801561069357600080fd5b506106ae60048036038101906106a99190612c65565b612881565b005b3480156106bc57600080fd5b506106d760048036038101906106d29190612c65565b61299f565b6040516106e49190613035565b60405180910390f35b3480156106f957600080fd5b50610714600480360381019061070f9190612c65565b612a4a565b60405161072191906130cf565b60405180910390f35b8060008054906101000a900473ffffffffffffffffffffffffffffffffffffffff1673ffffffffffffffffffffffffffffffffffffffff163373ffffffffffffffffffffffffffffffffffffffff1614806107b057508073ffffffffffffffffffffffffffffffffffffffff163373ffffffffffffffffffffffffffffffffffffffff16145b6107ef576040517f08c379a00000000000000000000000000000000000000000000000000000000081526004016107e69061318d565b60405180910390fd5b81600160009054906101000a900473ffffffffffffffffffffffffffffffffffffffff1673ffffffffffffffffffffffffffffffffffffffff166312c61114826040518263ffffffff1660e01b815260040161084b9190613100565b602060405180830381865afa158015610868573d6000803e3d6000fd5b505050506040513d601f19601f8201168201806040525081019061088c91906131d9565b6108cb576040517f08c379a00000000000000000000000000000000000000000000000000000000081526004016108c290613252565b60405180910390fd5b600160009054906101000a900473ffffffffffffffffffffffffffffffffffffffff1673ffffffffffffffffffffffffffffffffffffffff16630405df88846040518263ffffffff1660e01b81526004016109269190613100565b600060405180830381600087803b15801561094057600080fd5b505af1158015610954573d6000803e3d6000fd5b50505050505050565b33600160009054906101000a900473ffffffffffffffffffffffffffffffffffffffff1673ffffffffffffffffffffffffffffffffffffffff166312c61114826040518263ffffffff1660e01b81526004016109b99190613100565b602060405180830381865afa1580156109d6573d6000803e3d6000fd5b505050506040513d601f19601f820116820180604052508101906109fa91906131d9565b610a39576040517f08c379a0000000000000000000000000000000000000000000000000000000008152600401610a3090613252565b60405180910390fd5b81600460009054906101000a900473ffffffffffffffffffffffffffffffffffffffff1673ffffffffffffffffffffffffffffffffffffffff16634b47d827826040518263ffffffff1660e01b8152600401610a959190612d04565b602060405180830381865afa158015610ab2573d6000803e3d6000fd5b505050506040513d601f19601f82011682018060405250810190610ad691906131d9565b610b15576040517f08c379a0000000000000000000000000000000000000000000000000000000008152600401610b0c906132be565b60405180910390fd5b8260001515600460009054906101000a900473ffffffffffffffffffffffffffffffffffffffff1673ffffffffffffffffffffffffffffffffffffffff1663b61cb6af836040518263ffffffff1660e01b8152600401610b759190612d04565b602060405180830381865afa158015610b92573d6000803e3d6000fd5b505050506040513d601f19601f82011682018060405250810190610bb691906131d9565b151514610bf8576040517f08c379a0000000000000000000000000000000000000000000000000000000008152600401610bef90613350565b60405180910390fd5b600160009054906101000a900473ffffffffffffffffffffffffffffffffffffffff1673ffffffffffffffffffffffffffffffffffffffff16632de03b6b336040518263ffffffff1660e01b8152600401610c539190613100565b602060405180830381865afa158015610c70573d6000803e3d6000fd5b505050506040513d601f19601f82011682018060405250810190610c9491906131d9565b610cd3576040517f08c379a0000000000000000000000000000000000000000000000000000000008152600401610cca906133bc565b60405180910390fd5b600460009054906101000a900473ffffffffffffffffffffffffffffffffffffffff1673ffffffffffffffffffffffffffffffffffffffff1663064eac8a856040518263ffffffff1660e01b8152600401610d2e9190612d04565b600060405180830381600087803b158015610d4857600080fd5b505af1158015610d5c573d6000803e3d6000fd5b505050506000600460009054906101000a900473ffffffffffffffffffffffffffffffffffffffff1673ffffffffffffffffffffffffffffffffffffffff166378ec04d9866040518263ffffffff1660e01b8152600401610dbd9190612d04565b602060405180830381865afa158015610dda573d6000803e3d6000fd5b505050506040513d601f19601f82011682018060405250810190610dfe91906133f1565b90506000600360009054906101000a900473ffffffffffffffffffffffffffffffffffffffff1673ffffffffffffffffffffffffffffffffffffffff1663c03f9b44836040518263ffffffff1660e01b8152600401610e5d9190612d04565b602060405180830381865afa158015610e7a573d6000803e3d6000fd5b505050506040513d601f19601f82011682018060405250810190610e9e91906133f1565b90503373ffffffffffffffffffffffffffffffffffffffff166108fc829081150290604051600060405180830381858888f19350505050158015610ee6573d6000803e3d6000fd5b50505050505050565b600081600460009054906101000a900473ffffffffffffffffffffffffffffffffffffffff1673ffffffffffffffffffffffffffffffffffffffff16634b47d827826040518263ffffffff1660e01b8152600401610f4d9190612d04565b602060405180830381865afa158015610f6a573d6000803e3d6000fd5b505050506040513d601f19601f82011682018060405250810190610f8e91906131d9565b610fcd576040517f08c379a0000000000000000000000000000000000000000000000000000000008152600401610fc4906132be565b60405180910390fd5b600460009054906101000a900473ffffffffffffffffffffffffffffffffffffffff1673ffffffffffffffffffffffffffffffffffffffff16630daae746846040518263ffffffff1660e01b81526004016110289190612d04565b602060405180830381865afa158015611045573d6000803e3d6000fd5b505050506040513d601f19601f8201168201806040525081019061106991906133f1565b915050919050565b60008054906101000a900473ffffffffffffffffffffffffffffffffffffffff1673ffffffffffffffffffffffffffffffffffffffff163373ffffffffffffffffffffffffffffffffffffffff16146110ff576040517f08c379a00000000000000000000000000000000000000000000000000000000081526004016110f69061346a565b60405180910390fd5b600360009054906101000a900473ffffffffffffffffffffffffffffffffffffffff1673ffffffffffffffffffffffffffffffffffffffff16631cf82bd283836040518363ffffffff1660e01b815260040161115c92919061348a565b600060405180830381600087803b15801561117657600080fd5b505af115801561118a573d6000803e3d6000fd5b505050505050565b6000600160009054906101000a900473ffffffffffffffffffffffffffffffffffffffff1673ffffffffffffffffffffffffffffffffffffffff16632de03b6b836040518263ffffffff1660e01b81526004016111ef9190613100565b602060405180830381865afa15801561120c573d6000803e3d6000fd5b505050506040513d601f19601f8201168201806040525081019061123091906131d9565b9050919050565b600160009054906101000a900473ffffffffffffffffffffffffffffffffffffffff1673ffffffffffffffffffffffffffffffffffffffff1663c011565b33836040518363ffffffff1660e01b81526004016112949291906134ba565b600060405180830381600087803b1580156112ae57600080fd5b505af11580156112c2573d6000803e3d6000fd5b5050505050565b33600260009054906101000a900473ffffffffffffffffffffffffffffffffffffffff1673ffffffffffffffffffffffffffffffffffffffff1663f0e734d4826040518263ffffffff1660e01b81526004016113259190613100565b602060405180830381865afa158015611342573d6000803e3d6000fd5b505050506040513d601f19601f8201168201806040525081019061136691906131d9565b6113a5576040517f08c379a000000000000000000000000000000000000000000000000000000000815260040161139c90613536565b60405180910390fd5b82600360009054906101000a900473ffffffffffffffffffffffffffffffffffffffff1673ffffffffffffffffffffffffffffffffffffffff1663801d1697826040518263ffffffff1660e01b81526004016114019190612d04565b602060405180830381865afa15801561141e573d6000803e3d6000fd5b505050506040513d601f19601f8201168201806040525081019061144291906131d9565b611481576040517f08c379a0000000000000000000000000000000000000000000000000000000008152600401611478906135a2565b60405180910390fd5b600360009054906101000a900473ffffffffffffffffffffffffffffffffffffffff1673ffffffffffffffffffffffffffffffffffffffff1663c03f9b44856040518263ffffffff1660e01b81526004016114dc9190612d04565b602060405180830381865afa1580156114f9573d6000803e3d6000fd5b505050506040513d601f19601f8201168201806040525081019061151d91906133f1565b341461155e576040517f08c379a00000000000000000000000000000000000000000000000000000000081526004016115559061360e565b60405180910390fd5b8242106115a0576040517f08c379a00000000000000000000000000000000000000000000000000000000081526004016115979061367a565b60405180910390fd5b600460009054906101000a900473ffffffffffffffffffffffffffffffffffffffff1673ffffffffffffffffffffffffffffffffffffffff1663929ff9533386866040518463ffffffff1660e01b81526004016115ff9392919061369a565b600060405180830381600087803b15801561161957600080fd5b505af115801561162d573d6000803e3d6000fd5b5050505050505050565b8060008054906101000a900473ffffffffffffffffffffffffffffffffffffffff1673ffffffffffffffffffffffffffffffffffffffff163373ffffffffffffffffffffffffffffffffffffffff1614806116bd57508073ffffffffffffffffffffffffffffffffffffffff163373ffffffffffffffffffffffffffffffffffffffff16145b6116fc576040517f08c379a00000000000000000000000000000000000000000000000000000000081526004016116f39061318d565b60405180910390fd5b81600160009054906101000a900473ffffffffffffffffffffffffffffffffffffffff1673ffffffffffffffffffffffffffffffffffffffff166312c61114826040518263ffffffff1660e01b81526004016117589190613100565b602060405180830381865afa158015611775573d6000803e3d6000fd5b505050506040513d601f19601f8201168201806040525081019061179991906131d9565b6117d8576040517f08c379a00000000000000000000000000000000000000000000000000000000081526004016117cf90613252565b60405180910390fd5b600160009054906101000a900473ffffffffffffffffffffffffffffffffffffffff1673ffffffffffffffffffffffffffffffffffffffff16634a69d93d846040518263ffffffff1660e01b81526004016118339190613100565b600060405180830381600087803b15801561184d57600080fd5b505af1158015611861573d6000803e3d6000fd5b50505050505050565b60008054906101000a900473ffffffffffffffffffffffffffffffffffffffff1673ffffffffffffffffffffffffffffffffffffffff163373ffffffffffffffffffffffffffffffffffffffff16146118f8576040517f08c379a00000000000000000000000000000000000000000000000000000000081526004016118ef90613743565b60405180910390fd5b80600360009054906101000a900473ffffffffffffffffffffffffffffffffffffffff1673ffffffffffffffffffffffffffffffffffffffff1663801d1697826040518263ffffffff1660e01b81526004016119549190612d04565b602060405180830381865afa158015611971573d6000803e3d6000fd5b505050506040513d601f19601f8201168201806040525081019061199591906131d9565b6119d4576040517f08c379a00000000000000000000000000000000000000000000000000000000081526004016119cb906135a2565b60405180910390fd5b600360009054906101000a900473ffffffffffffffffffffffffffffffffffffffff1673ffffffffffffffffffffffffffffffffffffffff16634cc0862d836040518263ffffffff1660e01b8152600401611a2f9190612d04565b600060405180830381600087803b158015611a4957600080fd5b505af1158015611a5d573d6000803e3d6000fd5b505050505050565b6000600260009054906101000a900473ffffffffffffffffffffffffffffffffffffffff1673ffffffffffffffffffffffffffffffffffffffff1663f0e734d4836040518263ffffffff1660e01b8152600401611ac29190613100565b602060405180830381865afa158015611adf573d6000803e3d6000fd5b505050506040513d601f19601f82011682018060405250810190611b0391906131d9565b9050919050565b6000600160009054906101000a900473ffffffffffffffffffffffffffffffffffffffff1673ffffffffffffffffffffffffffffffffffffffff166385d8fff0836040518263ffffffff1660e01b8152600401611b679190613100565b602060405180830381865afa158015611b84573d6000803e3d6000fd5b505050506040513d601f19601f82011682018060405250810190611ba891906131d9565b9050919050565b611bb7612bd1565b600460009054906101000a900473ffffffffffffffffffffffffffffffffffffffff1673ffffffffffffffffffffffffffffffffffffffff16637c7ba0d4836040518263ffffffff1660e01b8152600401611c129190612d04565b60a060405180830381865afa158015611c2f573d6000803e3d6000fd5b505050506040513d601f19601f82011682018060405250810190611c539190613845565b9050919050565b600081600360009054906101000a900473ffffffffffffffffffffffffffffffffffffffff1673ffffffffffffffffffffffffffffffffffffffff1663801d1697826040518263ffffffff1660e01b8152600401611cb89190612d04565b602060405180830381865afa158015611cd5573d6000803e3d6000fd5b505050506040513d601f19601f82011682018060405250810190611cf991906131d9565b611d38576040517f08c379a0000000000000000000000000000000000000000000000000000000008152600401611d2f906135a2565b60405180910390fd5b600360009054906101000a900473ffffffffffffffffffffffffffffffffffffffff1673ffffffffffffffffffffffffffffffffffffffff16638a2c6b51846040518263ffffffff1660e01b8152600401611d939190612d04565b602060405180830381865afa158015611db0573d6000803e3d6000fd5b505050506040513d601f19601f82011682018060405250810190611dd491906131d9565b915050919050565b606081600360009054906101000a900473ffffffffffffffffffffffffffffffffffffffff1673ffffffffffffffffffffffffffffffffffffffff1663801d1697826040518263ffffffff1660e01b8152600401611e3a9190612d04565b602060405180830381865afa158015611e57573d6000803e3d6000fd5b505050506040513d601f19601f82011682018060405250810190611e7b91906131d9565b611eba576040517f08c379a0000000000000000000000000000000000000000000000000000000008152600401611eb1906135a2565b60405180910390fd5b600360009054906101000a900473ffffffffffffffffffffffffffffffffffffffff1673ffffffffffffffffffffffffffffffffffffffff1663953058f8846040518263ffffffff1660e01b8152600401611f159190612d04565b600060405180830381865afa158015611f32573d6000803e3d6000fd5b505050506040513d6000823e3d601f19601f82011682018060405250810190611f5b91906138e2565b915050919050565b60006003905090565b60008054906101000a900473ffffffffffffffffffffffffffffffffffffffff1673ffffffffffffffffffffffffffffffffffffffff163373ffffffffffffffffffffffffffffffffffffffff1614611ffa576040517f08c379a0000000000000000000000000000000000000000000000000000000008152600401611ff190613743565b60405180910390fd5b80600360009054906101000a900473ffffffffffffffffffffffffffffffffffffffff1673ffffffffffffffffffffffffffffffffffffffff1663801d1697826040518263ffffffff1660e01b81526004016120569190612d04565b602060405180830381865afa158015612073573d6000803e3d6000fd5b505050506040513d601f19601f8201168201806040525081019061209791906131d9565b6120d6576040517f08c379a00000000000000000000000000000000000000000000000000000000081526004016120cd906135a2565b60405180910390fd5b600360009054906101000a900473ffffffffffffffffffffffffffffffffffffffff1673ffffffffffffffffffffffffffffffffffffffff1663a8402602836040518263ffffffff1660e01b81526004016121319190612d04565b600060405180830381600087803b15801561214b57600080fd5b505af115801561215f573d6000803e3d6000fd5b505050505050565b6000600560009054906101000a900473ffffffffffffffffffffffffffffffffffffffff16905090565b6000600160009054906101000a900473ffffffffffffffffffffffffffffffffffffffff1673ffffffffffffffffffffffffffffffffffffffff166312c61114836040518263ffffffff1660e01b81526004016121ee9190613100565b602060405180830381865afa15801561220b573d6000803e3d6000fd5b505050506040513d601f19601f8201168201806040525081019061222f91906131d9565b9050919050565b600081600460009054906101000a900473ffffffffffffffffffffffffffffffffffffffff1673ffffffffffffffffffffffffffffffffffffffff16634b47d827826040518263ffffffff1660e01b81526004016122949190612d04565b602060405180830381865afa1580156122b1573d6000803e3d6000fd5b505050506040513d601f19601f820116820180604052508101906122d591906131d9565b612314576040517f08c379a000000000000000000000000000000000000000000000000000000000815260040161230b906132be565b60405180910390fd5b600460009054906101000a900473ffffffffffffffffffffffffffffffffffffffff1673ffffffffffffffffffffffffffffffffffffffff1663b61cb6af846040518263ffffffff1660e01b815260040161236f9190612d04565b602060405180830381865afa15801561238c573d6000803e3d6000fd5b505050506040513d601f19601f820116820180604052508101906123b091906131d9565b915050919050565b60008060009054906101000a900473ffffffffffffffffffffffffffffffffffffffff1673ffffffffffffffffffffffffffffffffffffffff163373ffffffffffffffffffffffffffffffffffffffff1614905090565b600260009054906101000a900473ffffffffffffffffffffffffffffffffffffffff1673ffffffffffffffffffffffffffffffffffffffff1663f2fef58b33836040518363ffffffff1660e01b815260040161246c9291906134ba565b600060405180830381600087803b15801561248657600080fd5b505af115801561249a573d6000803e3d6000fd5b5050505050565b600081600360009054906101000a900473ffffffffffffffffffffffffffffffffffffffff1673ffffffffffffffffffffffffffffffffffffffff1663801d1697826040518263ffffffff1660e01b81526004016124ff9190612d04565b602060405180830381865afa15801561251c573d6000803e3d6000fd5b505050506040513d601f19601f8201168201806040525081019061254091906131d9565b61257f576040517f08c379a0000000000000000000000000000000000000000000000000000000008152600401612576906135a2565b60405180910390fd5b600360009054906101000a900473ffffffffffffffffffffffffffffffffffffffff1673ffffffffffffffffffffffffffffffffffffffff1663c03f9b44846040518263ffffffff1660e01b81526004016125da9190612d04565b602060405180830381865afa1580156125f7573d6000803e3d6000fd5b505050506040513d601f19601f8201168201806040525081019061261b91906133f1565b915050919050565b80600560006101000a81548173ffffffffffffffffffffffffffffffffffffffff021916908373ffffffffffffffffffffffffffffffffffffffff16021790555050565b6000600360009054906101000a900473ffffffffffffffffffffffffffffffffffffffff1673ffffffffffffffffffffffffffffffffffffffff1663c573d8a26040518163ffffffff1660e01b8152600401602060405180830381865afa1580156126d6573d6000803e3d6000fd5b505050506040513d601f19601f820116820180604052508101906126fa91906133f1565b905090565b600081600460009054906101000a900473ffffffffffffffffffffffffffffffffffffffff1673ffffffffffffffffffffffffffffffffffffffff16634b47d827826040518263ffffffff1660e01b815260040161275d9190612d04565b602060405180830381865afa15801561277a573d6000803e3d6000fd5b505050506040513d601f19601f8201168201806040525081019061279e91906131d9565b6127dd576040517f08c379a00000000000000000000000000000000000000000000000000000000081526004016127d4906132be565b60405180910390fd5b600460009054906101000a900473ffffffffffffffffffffffffffffffffffffffff1673ffffffffffffffffffffffffffffffffffffffff1663cb32db72846040518263ffffffff1660e01b81526004016128389190612d04565b602060405180830381865afa158015612855573d6000803e3d6000fd5b505050506040513d601f19601f8201168201806040525081019061287991906133f1565b915050919050565b60008054906101000a900473ffffffffffffffffffffffffffffffffffffffff1673ffffffffffffffffffffffffffffffffffffffff163373ffffffffffffffffffffffffffffffffffffffff161461290f576040517f08c379a00000000000000000000000000000000000000000000000000000000081526004016129069061318d565b60405180910390fd5b600160009054906101000a900473ffffffffffffffffffffffffffffffffffffffff1673ffffffffffffffffffffffffffffffffffffffff1663061dff9a826040518263ffffffff1660e01b815260040161296a9190613100565b600060405180830381600087803b15801561298457600080fd5b505af1158015612998573d6000803e3d6000fd5b5050505050565b6129a7612bd1565b600460009054906101000a900473ffffffffffffffffffffffffffffffffffffffff1673ffffffffffffffffffffffffffffffffffffffff1663e4cc4e45836040518263ffffffff1660e01b8152600401612a029190613100565b60a060405180830381865afa158015612a1f573d6000803e3d6000fd5b505050506040513d601f19601f82011682018060405250810190612a439190613845565b9050919050565b606081600160009054906101000a900473ffffffffffffffffffffffffffffffffffffffff1673ffffffffffffffffffffffffffffffffffffffff166312c61114826040518263ffffffff1660e01b8152600401612aa89190613100565b602060405180830381865afa158015612ac5573d6000803e3d6000fd5b505050506040513d601f19601f82011682018060405250810190612ae991906131d9565b612b28576040517f08c379a0000000000000000000000000000000000000000000000000000000008152600401612b1f90613252565b60405180910390fd5b600160009054906101000a900473ffffffffffffffffffffffffffffffffffffffff1673ffffffffffffffffffffffffffffffffffffffff1663e53a6ec3846040518263ffffffff1660e01b8152600401612b839190613100565b600060405180830381865afa158015612ba0573d6000803e3d6000fd5b505050506040513d6000823e3d601f19601f82011682018060405250810190612bc991906138e2565b915050919050565b6040518060a00160405280600590602082028036833780820191505090505090565b6000604051905090565b600080fd5b600080fd5b600073ffffffffffffffffffffffffffffffffffffffff82169050919050565b6000612c3282612c07565b9050919050565b612c4281612c27565b8114612c4d57600080fd5b50565b600081359050612c5f81612c39565b92915050565b600060208284031215612c7b57612c7a612bfd565b5b6000612c8984828501612c50565b91505092915050565b6000819050919050565b612ca581612c92565b8114612cb057600080fd5b50565b600081359050612cc281612c9c565b92915050565b600060208284031215612cde57612cdd612bfd565b5b6000612cec84828501612cb3565b91505092915050565b612cfe81612c92565b82525050565b6000602082019050612d196000830184612cf5565b92915050565b600080fd5b600080fd5b6000601f19601f8301169050919050565b7f4e487b7100000000000000000000000000000000000000000000000000000000600052604160045260246000fd5b612d7282612d29565b810181811067ffffffffffffffff82111715612d9157612d90612d3a565b5b80604052505050565b6000612da4612bf3565b9050612db08282612d69565b919050565b600067ffffffffffffffff821115612dd057612dcf612d3a565b5b612dd982612d29565b9050602081019050919050565b82818337600083830152505050565b6000612e08612e0384612db5565b612d9a565b905082815260208101848484011115612e2457612e23612d24565b5b612e2f848285612de6565b509392505050565b600082601f830112612e4c57612e4b612d1f565b5b8135612e5c848260208601612df5565b91505092915050565b60008060408385031215612e7c57612e7b612bfd565b5b600083013567ffffffffffffffff811115612e9a57612e99612c02565b5b612ea685828601612e37565b9250506020612eb785828601612cb3565b9150509250929050565b60008115159050919050565b612ed681612ec1565b82525050565b6000602082019050612ef16000830184612ecd565b92915050565b600060208284031215612f0d57612f0c612bfd565b5b600082013567ffffffffffffffff811115612f2b57612f2a612c02565b5b612f3784828501612e37565b91505092915050565b60008060408385031215612f5757612f56612bfd565b5b6000612f6585828601612cb3565b9250506020612f7685828601612cb3565b9150509250929050565b600060059050919050565b600081905092915050565b6000819050919050565b6000819050919050565b612fb381612fa0565b82525050565b6000612fc58383612faa565b60208301905092915050565b6000602082019050919050565b612fe781612f80565b612ff18184612f8b565b9250612ffc82612f96565b8060005b8381101561302d5781516130148782612fb9565b965061301f83612fd1565b925050600181019050613000565b505050505050565b600060a08201905061304a6000830184612fde565b92915050565b600081519050919050565b600082825260208201905092915050565b60005b8381101561308a57808201518184015260208101905061306f565b60008484015250505050565b60006130a182613050565b6130ab818561305b565b93506130bb81856020860161306c565b6130c481612d29565b840191505092915050565b600060208201905081810360008301526130e98184613096565b905092915050565b6130fa81612c27565b82525050565b600060208201905061311560008301846130f1565b92915050565b7f4f6e6c79206465706c6f7965722063616e20617070726f766520776f726b657260008201527f20726567697374726174696f6e20726571756573747300000000000000000000602082015250565b600061317760368361305b565b91506131828261311b565b604082019050919050565b600060208201905081810360008301526131a68161316a565b9050919050565b6131b681612ec1565b81146131c157600080fd5b50565b6000815190506131d3816131ad565b92915050565b6000602082840312156131ef576131ee612bfd565b5b60006131fd848285016131c4565b91505092915050565b7f576f726b65722069736e27742068657265000000000000000000000000000000600082015250565b600061323c60118361305b565b915061324782613206565b602082019050919050565b6000602082019050818103600083015261326b8161322f565b9050919050565b7f446f6e2774206861766520616e206170706f696e746d656e7400000000000000600082015250565b60006132a860198361305b565b91506132b382613272565b602082019050919050565b600060208201905081810360008301526132d78161329b565b9050919050565b7f446f6e2774206861766520616e20756e617070726f766564206170706f696e7460008201527f6d656e7400000000000000000000000000000000000000000000000000000000602082015250565b600061333a60248361305b565b9150613345826132de565b604082019050919050565b600060208201905081810360008301526133698161332d565b9050919050565b7f596f752061726520756e617661696c61626c6500000000000000000000000000600082015250565b60006133a660138361305b565b91506133b182613370565b602082019050919050565b600060208201905081810360008301526133d581613399565b9050919050565b6000815190506133eb81612c9c565b92915050565b60006020828403121561340757613406612bfd565b5b6000613415848285016133dc565b91505092915050565b7f4f6e6c792061646d696e2063616e206372656174652073657276696365730000600082015250565b6000613454601e8361305b565b915061345f8261341e565b602082019050919050565b6000602082019050818103600083015261348381613447565b9050919050565b600060408201905081810360008301526134a48185613096565b90506134b36020830184612cf5565b9392505050565b60006040820190506134cf60008301856130f1565b81810360208301526134e18184613096565b90509392505050565b7f436c69656e742069736e27742068657265000000000000000000000000000000600082015250565b600061352060118361305b565b915061352b826134ea565b602082019050919050565b6000602082019050818103600083015261354f81613513565b9050919050565b7f5365727669636520646f65736e27742065786973740000000000000000000000600082015250565b600061358c60158361305b565b915061359782613556565b602082019050919050565b600060208201905081810360008301526135bb8161357f565b9050919050565b7f57726f6e672076616c756520666f722073657276696365000000000000000000600082015250565b60006135f860178361305b565b9150613603826135c2565b602082019050919050565b60006020820190508181036000830152613627816135eb565b9050919050565b7f57726f6e672074696d6500000000000000000000000000000000000000000000600082015250565b6000613664600a8361305b565b915061366f8261362e565b602082019050919050565b6000602082019050818103600083015261369381613657565b9050919050565b60006060820190506136af60008301866130f1565b6136bc6020830185612cf5565b6136c96040830184612cf5565b949350505050565b7f4f6e6c792061646d696e2063616e206368616e6765207365727669636520737460008201527f6174757300000000000000000000000000000000000000000000000000000000602082015250565b600061372d60248361305b565b9150613738826136d1565b604082019050919050565b6000602082019050818103600083015261375c81613720565b9050919050565b600067ffffffffffffffff82111561377e5761377d612d3a565b5b602082029050919050565b600080fd5b61379781612fa0565b81146137a257600080fd5b50565b6000815190506137b48161378e565b92915050565b60006137cd6137c884613763565b612d9a565b905080602084028301858111156137e7576137e6613789565b5b835b8181101561381057806137fc88826137a5565b8452602084019350506020810190506137e9565b5050509392505050565b600082601f83011261382f5761382e612d1f565b5b600561383c8482856137ba565b91505092915050565b600060a0828403121561385b5761385a612bfd565b5b60006138698482850161381a565b91505092915050565b600061388561388084612db5565b612d9a565b9050828152602081018484840111156138a1576138a0612d24565b5b6138ac84828561306c565b509392505050565b600082601f8301126138c9576138c8612d1f565b5b81516138d9848260208601613872565b91505092915050565b6000602082840312156138f8576138f7612bfd565b5b600082015167ffffffffffffffff81111561391657613915612c02565b5b613922848285016138b4565b9150509291505056fea26469706673582212205821b18648ea82a0a6a98c804b83232f2e8e8fa403ee6add66ed40fcb56a52af64736f6c63430008110033608060405234801561001057600080fd5b50610dec806100206000396000f3fe608060405234801561001057600080fd5b50600436106100885760003560e01c80634a69d93d1161005b5780634a69d93d1461012557806385d8fff014610141578063c011565b14610171578063e53a6ec31461018d57610088565b80630405df881461008d578063061dff9a146100a957806312c61114146100c55780632de03b6b146100f5575b600080fd5b6100a760048036038101906100a291906107f9565b6101bd565b005b6100c360048036038101906100be91906107f9565b61022a565b005b6100df60048036038101906100da91906107f9565b610429565b6040516100ec9190610841565b60405180910390f35b61010f600480360381019061010a91906107f9565b610482565b60405161011c9190610841565b60405180910390f35b61013f600480360381019061013a91906107f9565b61055a565b005b61015b600480360381019061015691906107f9565b6105c8565b6040516101689190610841565b60405180910390f35b61018b600480360381019061018691906109a2565b610620565b005b6101a760048036038101906101a291906107f9565b6106b3565b6040516101b49190610a7d565b60405180910390f35b60018060008373ffffffffffffffffffffffffffffffffffffffff1673ffffffffffffffffffffffffffffffffffffffff16815260200190815260200160002060010160016101000a81548160ff0219169083600281111561022257610221610a9f565b5b021790555050565b60008060008373ffffffffffffffffffffffffffffffffffffffff1673ffffffffffffffffffffffffffffffffffffffff16815260200190815260200160002060010160006101000a81548160ff02191690831515021790555060405180606001604052806000808473ffffffffffffffffffffffffffffffffffffffff1673ffffffffffffffffffffffffffffffffffffffff16815260200190815260200160002060000180546102db90610afd565b80601f016020809104026020016040519081016040528092919081815260200182805461030790610afd565b80156103545780601f1061032957610100808354040283529160200191610354565b820191906000526020600020905b81548152906001019060200180831161033757829003601f168201915b505050505081526020016001151581526020016001600281111561037b5761037a610a9f565b5b815250600160008373ffffffffffffffffffffffffffffffffffffffff1673ffffffffffffffffffffffffffffffffffffffff16815260200190815260200160002060008201518160000190816103d29190610ce4565b5060208201518160010160006101000a81548160ff02191690831515021790555060408201518160010160016101000a81548160ff0219169083600281111561041e5761041d610a9f565b5b021790555090505050565b6000600160008373ffffffffffffffffffffffffffffffffffffffff1673ffffffffffffffffffffffffffffffffffffffff16815260200190815260200160002060010160009054906101000a900460ff169050919050565b6000600160008373ffffffffffffffffffffffffffffffffffffffff1673ffffffffffffffffffffffffffffffffffffffff16815260200190815260200160002060010160009054906101000a900460ff1680156105535750600160028111156104ef576104ee610a9f565b5b600160008473ffffffffffffffffffffffffffffffffffffffff1673ffffffffffffffffffffffffffffffffffffffff16815260200190815260200160002060010160019054906101000a900460ff16600281111561055157610550610a9f565b5b145b9050919050565b6002600160008373ffffffffffffffffffffffffffffffffffffffff1673ffffffffffffffffffffffffffffffffffffffff16815260200190815260200160002060010160016101000a81548160ff021916908360028111156105c0576105bf610a9f565b5b021790555050565b60008060008373ffffffffffffffffffffffffffffffffffffffff1673ffffffffffffffffffffffffffffffffffffffff16815260200190815260200160002060010160009054906101000a900460ff169050919050565b6040518060400160405280828152602001600115158152506000808473ffffffffffffffffffffffffffffffffffffffff1673ffffffffffffffffffffffffffffffffffffffff168152602001908152602001600020600082015181600001908161068b9190610ce4565b5060208201518160010160006101000a81548160ff0219169083151502179055509050505050565b6060600160008373ffffffffffffffffffffffffffffffffffffffff1673ffffffffffffffffffffffffffffffffffffffff168152602001908152602001600020600001805461070290610afd565b80601f016020809104026020016040519081016040528092919081815260200182805461072e90610afd565b801561077b5780601f106107505761010080835404028352916020019161077b565b820191906000526020600020905b81548152906001019060200180831161075e57829003601f168201915b50505050509050919050565b6000604051905090565b600080fd5b600080fd5b600073ffffffffffffffffffffffffffffffffffffffff82169050919050565b60006107c68261079b565b9050919050565b6107d6816107bb565b81146107e157600080fd5b50565b6000813590506107f3816107cd565b92915050565b60006020828403121561080f5761080e610791565b5b600061081d848285016107e4565b91505092915050565b60008115159050919050565b61083b81610826565b82525050565b60006020820190506108566000830184610832565b92915050565b600080fd5b600080fd5b6000601f19601f8301169050919050565b7f4e487b7100000000000000000000000000000000000000000000000000000000600052604160045260246000fd5b6108af82610866565b810181811067ffffffffffffffff821117156108ce576108cd610877565b5b80604052505050565b60006108e1610787565b90506108ed82826108a6565b919050565b600067ffffffffffffffff82111561090d5761090c610877565b5b61091682610866565b9050602081019050919050565b82818337600083830152505050565b6000610945610940846108f2565b6108d7565b90508281526020810184848401111561096157610960610861565b5b61096c848285610923565b509392505050565b600082601f8301126109895761098861085c565b5b8135610999848260208601610932565b91505092915050565b600080604083850312156109b9576109b8610791565b5b60006109c7858286016107e4565b925050602083013567ffffffffffffffff8111156109e8576109e7610796565b5b6109f485828601610974565b9150509250929050565b600081519050919050565b600082825260208201905092915050565b60005b83811015610a38578082015181840152602081019050610a1d565b60008484015250505050565b6000610a4f826109fe565b610a598185610a09565b9350610a69818560208601610a1a565b610a7281610866565b840191505092915050565b60006020820190508181036000830152610a978184610a44565b905092915050565b7f4e487b7100000000000000000000000000000000000000000000000000000000600052602160045260246000fd5b7f4e487b7100000000000000000000000000000000000000000000000000000000600052602260045260246000fd5b60006002820490506001821680610b1557607f821691505b602082108103610b2857610b27610ace565b5b50919050565b60008190508160005260206000209050919050565b60006020601f8301049050919050565b600082821b905092915050565b600060088302610b907fffffffffffffffffffffffffffffffffffffffffffffffffffffffffffffffff82610b53565b610b9a8683610b53565b95508019841693508086168417925050509392505050565b6000819050919050565b6000819050919050565b6000610be1610bdc610bd784610bb2565b610bbc565b610bb2565b9050919050565b6000819050919050565b610bfb83610bc6565b610c0f610c0782610be8565b848454610b60565b825550505050565b600090565b610c24610c17565b610c2f818484610bf2565b505050565b5b81811015610c5357610c48600082610c1c565b600181019050610c35565b5050565b601f821115610c9857610c6981610b2e565b610c7284610b43565b81016020851015610c81578190505b610c95610c8d85610b43565b830182610c34565b50505b505050565b600082821c905092915050565b6000610cbb60001984600802610c9d565b1980831691505092915050565b6000610cd48383610caa565b9150826002028217905092915050565b610ced826109fe565b67ffffffffffffffff811115610d0657610d05610877565b5b610d108254610afd565b610d1b828285610c57565b600060209050601f831160018114610d4e5760008415610d3c578287015190505b610d468582610cc8565b865550610dae565b601f198416610d5c86610b2e565b60005b82811015610d8457848901518255600182019150602085019450602081019050610d5f565b86831015610da15784890151610d9d601f891682610caa565b8355505b6001600288020188555050505b50505050505056fea26469706673582212207b005344891ad22181cddb0d9531c8d5d8aa32bc5c75b3321654c2a39deef38e64736f6c63430008110033608060405234801561001057600080fd5b50610712806100206000396000f3fe608060405234801561001057600080fd5b50600436106100365760003560e01c8063f0e734d41461003b578063f2fef58b1461006b575b600080fd5b610055600480360381019061005091906101e4565b610087565b604051610062919061022c565b60405180910390f35b6100856004803603810190610080919061038d565b6100df565b005b60008060008373ffffffffffffffffffffffffffffffffffffffff1673ffffffffffffffffffffffffffffffffffffffff16815260200190815260200160002060010160009054906101000a900460ff169050919050565b6040518060400160405280828152602001600115158152506000808473ffffffffffffffffffffffffffffffffffffffff1673ffffffffffffffffffffffffffffffffffffffff168152602001908152602001600020600082015181600001908161014a919061060a565b5060208201518160010160006101000a81548160ff0219169083151502179055509050505050565b6000604051905090565b600080fd5b600080fd5b600073ffffffffffffffffffffffffffffffffffffffff82169050919050565b60006101b182610186565b9050919050565b6101c1816101a6565b81146101cc57600080fd5b50565b6000813590506101de816101b8565b92915050565b6000602082840312156101fa576101f961017c565b5b6000610208848285016101cf565b91505092915050565b60008115159050919050565b61022681610211565b82525050565b6000602082019050610241600083018461021d565b92915050565b600080fd5b600080fd5b6000601f19601f8301169050919050565b7f4e487b7100000000000000000000000000000000000000000000000000000000600052604160045260246000fd5b61029a82610251565b810181811067ffffffffffffffff821117156102b9576102b8610262565b5b80604052505050565b60006102cc610172565b90506102d88282610291565b919050565b600067ffffffffffffffff8211156102f8576102f7610262565b5b61030182610251565b9050602081019050919050565b82818337600083830152505050565b600061033061032b846102dd565b6102c2565b90508281526020810184848401111561034c5761034b61024c565b5b61035784828561030e565b509392505050565b600082601f83011261037457610373610247565b5b813561038484826020860161031d565b91505092915050565b600080604083850312156103a4576103a361017c565b5b60006103b2858286016101cf565b925050602083013567ffffffffffffffff8111156103d3576103d2610181565b5b6103df8582860161035f565b9150509250929050565b600081519050919050565b7f4e487b7100000000000000000000000000000000000000000000000000000000600052602260045260246000fd5b6000600282049050600182168061043b57607f821691505b60208210810361044e5761044d6103f4565b5b50919050565b60008190508160005260206000209050919050565b60006020601f8301049050919050565b600082821b905092915050565b6000600883026104b67fffffffffffffffffffffffffffffffffffffffffffffffffffffffffffffffff82610479565b6104c08683610479565b95508019841693508086168417925050509392505050565b6000819050919050565b6000819050919050565b60006105076105026104fd846104d8565b6104e2565b6104d8565b9050919050565b6000819050919050565b610521836104ec565b61053561052d8261050e565b848454610486565b825550505050565b600090565b61054a61053d565b610555818484610518565b505050565b5b818110156105795761056e600082610542565b60018101905061055b565b5050565b601f8211156105be5761058f81610454565b61059884610469565b810160208510156105a7578190505b6105bb6105b385610469565b83018261055a565b50505b505050565b600082821c905092915050565b60006105e1600019846008026105c3565b1980831691505092915050565b60006105fa83836105d0565b9150826002028217905092915050565b610613826103e9565b67ffffffffffffffff81111561062c5761062b610262565b5b6106368254610423565b61064182828561057d565b600060209050601f8311600181146106745760008415610662578287015190505b61066c85826105ee565b8655506106d4565b601f19841661068286610454565b60005b828110156106aa57848901518255600182019150602085019450602081019050610685565b868310156106c757848901516106c3601f8916826105d0565b8355505b6001600288020188555050505b50505050505056fea264697066735822122012d142d9e8b3b63c7c260901809804317f2c1f62cba58888c42c5d66eb4c712464736f6c63430008110033608060405234801561001057600080fd5b50610b00806100206000396000f3fe608060405234801561001057600080fd5b50600436106100885760003560e01c8063953058f81161005b578063953058f814610125578063a840260214610155578063c03f9b4414610171578063c573d8a2146101a157610088565b80631cf82bd21461008d5780634cc0862d146100a9578063801d1697146100c55780638a2c6b51146100f5575b600080fd5b6100a760048036038101906100a29190610604565b6101bf565b005b6100c360048036038101906100be9190610660565b61026e565b005b6100df60048036038101906100da9190610660565b6102bf565b6040516100ec91906106a8565b60405180910390f35b61010f600480360381019061010a9190610660565b6102cf565b60405161011c91906106a8565b60405180910390f35b61013f600480360381019061013a9190610660565b610332565b60405161014c9190610742565b60405180910390f35b61016f600480360381019061016a9190610660565b6103e9565b005b61018b60048036038101906101869190610660565b61043a565b6040516101989190610773565b60405180910390f35b6101a9610468565b6040516101b69190610773565b60405180910390f35b60006040518060600160405280848152602001838152602001600160028111156101ec576101eb61078e565b5b8152509080600181540180825580915050600190039060005260206000209060030201600090919091909150600082015181600001908161022d91906109c9565b506020820151816001015560408201518160020160006101000a81548160ff021916908360028111156102635761026261078e565b5b021790555050505050565b60016000828154811061028457610283610a9b565b5b906000526020600020906003020160020160006101000a81548160ff021916908360028111156102b7576102b661078e565b5b021790555050565b6000808054905082109050919050565b6000600160028111156102e5576102e461078e565b5b600083815481106102f9576102f8610a9b565b5b906000526020600020906003020160020160009054906101000a900460ff16600281111561032a5761032961078e565b5b149050919050565b60606000828154811061034857610347610a9b565b5b90600052602060002090600302016000018054610364906107ec565b80601f0160208091040260200160405190810160405280929190818152602001828054610390906107ec565b80156103dd5780601f106103b2576101008083540402835291602001916103dd565b820191906000526020600020905b8154815290600101906020018083116103c057829003601f168201915b50505050509050919050565b6002600082815481106103ff576103fe610a9b565b5b906000526020600020906003020160020160006101000a81548160ff021916908360028111156104325761043161078e565b5b021790555050565b600080828154811061044f5761044e610a9b565b5b9060005260206000209060030201600101549050919050565b60008080549050905090565b6000604051905090565b600080fd5b600080fd5b600080fd5b600080fd5b6000601f19601f8301169050919050565b7f4e487b7100000000000000000000000000000000000000000000000000000000600052604160045260246000fd5b6104db82610492565b810181811067ffffffffffffffff821117156104fa576104f96104a3565b5b80604052505050565b600061050d610474565b905061051982826104d2565b919050565b600067ffffffffffffffff821115610539576105386104a3565b5b61054282610492565b9050602081019050919050565b82818337600083830152505050565b600061057161056c8461051e565b610503565b90508281526020810184848401111561058d5761058c61048d565b5b61059884828561054f565b509392505050565b600082601f8301126105b5576105b4610488565b5b81356105c584826020860161055e565b91505092915050565b6000819050919050565b6105e1816105ce565b81146105ec57600080fd5b50565b6000813590506105fe816105d8565b92915050565b6000806040838503121561061b5761061a61047e565b5b600083013567ffffffffffffffff81111561063957610638610483565b5b610645858286016105a0565b9250506020610656858286016105ef565b9150509250929050565b6000602082840312156106765761067561047e565b5b6000610684848285016105ef565b91505092915050565b60008115159050919050565b6106a28161068d565b82525050565b60006020820190506106bd6000830184610699565b92915050565b600081519050919050565b600082825260208201905092915050565b60005b838110156106fd5780820151818401526020810190506106e2565b60008484015250505050565b6000610714826106c3565b61071e81856106ce565b935061072e8185602086016106df565b61073781610492565b840191505092915050565b6000602082019050818103600083015261075c8184610709565b905092915050565b61076d816105ce565b82525050565b60006020820190506107886000830184610764565b92915050565b7f4e487b7100000000000000000000000000000000000000000000000000000000600052602160045260246000fd5b7f4e487b7100000000000000000000000000000000000000000000000000000000600052602260045260246000fd5b6000600282049050600182168061080457607f821691505b602082108103610817576108166107bd565b5b50919050565b60008190508160005260206000209050919050565b60006020601f8301049050919050565b600082821b905092915050565b60006008830261087f7fffffffffffffffffffffffffffffffffffffffffffffffffffffffffffffffff82610842565b6108898683610842565b95508019841693508086168417925050509392505050565b6000819050919050565b60006108c66108c16108bc846105ce565b6108a1565b6105ce565b9050919050565b6000819050919050565b6108e0836108ab565b6108f46108ec826108cd565b84845461084f565b825550505050565b600090565b6109096108fc565b6109148184846108d7565b505050565b5b818110156109385761092d600082610901565b60018101905061091a565b5050565b601f82111561097d5761094e8161081d565b61095784610832565b81016020851015610966578190505b61097a61097285610832565b830182610919565b50505b505050565b600082821c905092915050565b60006109a060001984600802610982565b1980831691505092915050565b60006109b9838361098f565b9150826002028217905092915050565b6109d2826106c3565b67ffffffffffffffff8111156109eb576109ea6104a3565b5b6109f582546107ec565b610a0082828561093c565b600060209050601f831160018114610a335760008415610a21578287015190505b610a2b85826109ad565b865550610a93565b601f198416610a418661081d565b60005b82811015610a6957848901518255600182019150602085019450602081019050610a44565b86831015610a865784890151610a82601f89168261098f565b8355505b6001600288020188555050505b505050505050565b7f4e487b7100000000000000000000000000000000000000000000000000000000600052603260045260246000fdfea264697066735822122026c88b08b6406c86a2f77f8f9be90f2ac503d41579c04562876ae2c7e36e6fc264736f6c63430008110033608060405234801561001057600080fd5b50610b61806100206000396000f3fe608060405234801561001057600080fd5b506004361061009e5760003560e01c80637c7ba0d4116100665780637c7ba0d41461016d578063929ff9531461019d578063b61cb6af146101b9578063cb32db72146101e9578063e4cc4e45146102195761009e565b8063064eac8a146100a35780630daae746146100bf578063454322b8146100ef5780634b47d8271461010d57806378ec04d91461013d575b600080fd5b6100bd60048036038101906100b8919061081b565b610249565b005b6100d960048036038101906100d4919061081b565b61029a565b6040516100e69190610857565b60405180910390f35b6100f76102c8565b6040516101049190610857565b60405180910390f35b6101276004803603810190610122919061081b565b6102d4565b604051610134919061088d565b60405180910390f35b6101576004803603810190610152919061081b565b6102e4565b6040516101649190610857565b60405180910390f35b6101876004803603810190610182919061081b565b610312565b604051610194919061095d565b60405180910390f35b6101b760048036038101906101b291906109d6565b610476565b005b6101d360048036038101906101ce919061081b565b6105e1565b6040516101e0919061088d565b60405180910390f35b61020360048036038101906101fe919061081b565b610643565b6040516102109190610857565b60405180910390f35b610233600480360381019061022e9190610a29565b610671565b604051610240919061095d565b60405180910390f35b60026000828154811061025f5761025e610a56565b5b906000526020600020906004020160030160146101000a81548160ff0219169083600281111561029257610291610a85565b5b021790555050565b60008082815481106102af576102ae610a56565b5b9060005260206000209060040201600001549050919050565b60008080549050905090565b6000808054905082109050919050565b60008082815481106102f9576102f8610a56565b5b9060005260206000209060040201600001549050919050565b61031a6107be565b6000806000808054905090506000600590506103346107be565b5b828410801561034357508185105b1561041257866000858154811061035d5761035c610a56565b5b9060005260206000209060040201600001541480156103d257506001600281111561038b5761038a610a85565b5b6000858154811061039f5761039e610a56565b5b906000526020600020906004020160030160149054906101000a900460ff1660028111156103d0576103cf610a85565b5b145b1561040157838186806103e490610ae3565b9750600581106103f7576103f6610a56565b5b6020020181815250505b8361040b90610ae3565b9350610335565b5b81851015610469577fffffffffffffffffffffffffffffffffffffffffffffffffffffffffffffffff81866005811061044f5761044e610a56565b5b6020020181815250508461046290610ae3565b9450610413565b8095505050505050919050565b60006040518060a001604052808481526020018381526020018573ffffffffffffffffffffffffffffffffffffffff168152602001600073ffffffffffffffffffffffffffffffffffffffff168152602001600160028111156104dc576104db610a85565b5b8152509080600181540180825580915050600190039060005260206000209060040201600090919091909150600082015181600001556020820151816001015560408201518160020160006101000a81548173ffffffffffffffffffffffffffffffffffffffff021916908373ffffffffffffffffffffffffffffffffffffffff16021790555060608201518160030160006101000a81548173ffffffffffffffffffffffffffffffffffffffff021916908373ffffffffffffffffffffffffffffffffffffffff16021790555060808201518160030160146101000a81548160ff021916908360028111156105d5576105d4610a85565b5b02179055505050505050565b60006002808111156105f6576105f5610a85565b5b6000838154811061060a57610609610a56565b5b906000526020600020906004020160030160149054906101000a900460ff16600281111561063b5761063a610a85565b5b149050919050565b600080828154811061065857610657610a56565b5b9060005260206000209060040201600101549050919050565b6106796107be565b6000806000808054905090506000600590506106936107be565b5b82841080156106a257508185105b1561075a578673ffffffffffffffffffffffffffffffffffffffff16600085815481106106d2576106d1610a56565b5b906000526020600020906004020160020160009054906101000a900473ffffffffffffffffffffffffffffffffffffffff1673ffffffffffffffffffffffffffffffffffffffff1603610749578381868061072c90610ae3565b97506005811061073f5761073e610a56565b5b6020020181815250505b8361075390610ae3565b9350610694565b5b818510156107b1577fffffffffffffffffffffffffffffffffffffffffffffffffffffffffffffffff81866005811061079757610796610a56565b5b602002018181525050846107aa90610ae3565b945061075b565b8095505050505050919050565b6040518060a00160405280600590602082028036833780820191505090505090565b600080fd5b6000819050919050565b6107f8816107e5565b811461080357600080fd5b50565b600081359050610815816107ef565b92915050565b600060208284031215610831576108306107e0565b5b600061083f84828501610806565b91505092915050565b610851816107e5565b82525050565b600060208201905061086c6000830184610848565b92915050565b60008115159050919050565b61088781610872565b82525050565b60006020820190506108a2600083018461087e565b92915050565b600060059050919050565b600081905092915050565b6000819050919050565b6000819050919050565b6108db816108c8565b82525050565b60006108ed83836108d2565b60208301905092915050565b6000602082019050919050565b61090f816108a8565b61091981846108b3565b9250610924826108be565b8060005b8381101561095557815161093c87826108e1565b9650610947836108f9565b925050600181019050610928565b505050505050565b600060a0820190506109726000830184610906565b92915050565b600073ffffffffffffffffffffffffffffffffffffffff82169050919050565b60006109a382610978565b9050919050565b6109b381610998565b81146109be57600080fd5b50565b6000813590506109d0816109aa565b92915050565b6000806000606084860312156109ef576109ee6107e0565b5b60006109fd868287016109c1565b9350506020610a0e86828701610806565b9250506040610a1f86828701610806565b9150509250925092565b600060208284031215610a3f57610a3e6107e0565b5b6000610a4d848285016109c1565b91505092915050565b7f4e487b7100000000000000000000000000000000000000000000000000000000600052603260045260246000fd5b7f4e487b7100000000000000000000000000000000000000000000000000000000600052602160045260246000fd5b7f4e487b7100000000000000000000000000000000000000000000000000000000600052601160045260246000fd5b6000610aee826107e5565b91507fffffffffffffffffffffffffffffffffffffffffffffffffffffffffffffffff8203610b2057610b1f610ab4565b5b60018201905091905056fea2646970667358221220849a9005915413448e3b011b5ae9f012b4b2af679064ddae4dfcabedcb16ba0d64736f6c63430008110033",
  "immutableReferences": {},
  "source": "pragma solidity ^0.8.13;\r\n\r\nimport \"./WorkerManager.sol\";\r\nimport \"./ClientManager.sol\";\r\nimport \"./ServiceManager.sol\";\r\nimport \"./AppointmentManager.sol\";\r\n\r\ncontract MassageRoom {\r\n    address deployer;\r\n\r\n    WorkerManager workerManager;\r\n    ClientManager clientManager;\r\n    ServiceManager serviceManager;\r\n    AppointmentManager appointmentManager;\r\n\r\n    constructor() {\r\n        deployer = msg.sender;\r\n\r\n        workerManager = new WorkerManager();\r\n        clientManager = new ClientManager();\r\n        serviceManager = new ServiceManager();\r\n        appointmentManager = new AppointmentManager();\r\n    }\r\n\r\n    address testV;\r\n\r\n    function putTest(address v) external {\r\n        testV = v;\r\n    }\r\n\r\n    function getTest() external view returns (address) {\r\n        return testV;\r\n    }\r\n\r\n    //* Modifiers//\r\n\r\n    modifier _canApproveWorkerRegistrationRequests() {\r\n        require(\r\n            msg.sender == deployer,\r\n            \"Only deployer can approve worker registration requests\"\r\n        );\r\n        _;\r\n    }\r\n\r\n    modifier _canChangeWorkerStatus(address targetWorker) {\r\n        require(\r\n            msg.sender == deployer || msg.sender == targetWorker,\r\n            \"Only deployer can approve worker registration requests\"\r\n        );\r\n        _;\r\n    }\r\n\r\n    modifier _hasWorker(address targetWorker) {\r\n        require(workerManager.isWorkerHere(targetWorker), \"Worker isn't here\");\r\n        _;\r\n    }\r\n\r\n    modifier _hasWorkerRequest(address targetWorker) {\r\n        require(\r\n            workerManager.isRequestHere(targetWorker),\r\n            \"Request isn't here\"\r\n        );\r\n        _;\r\n    }\r\n\r\n    modifier _hasClient(address targetClient) {\r\n        require(clientManager.isClientHere(targetClient), \"Client isn't here\");\r\n        _;\r\n    }\r\n\r\n    modifier _canCreateServices() {\r\n        require(msg.sender == deployer, \"Only admin can create services\");\r\n        _;\r\n    }\r\n\r\n    modifier _canChangeServiceStatus() {\r\n        require(msg.sender == deployer, \"Only admin can change service status\");\r\n        _;\r\n    }\r\n\r\n    modifier _hasService(uint256 i) {\r\n        require(serviceManager.hasService(i), \"Service doesn't exist\");\r\n        _;\r\n    }\r\n\r\n    modifier _hasUnapprovedAppointment(uint256 i) {\r\n        require(\r\n            appointmentManager.isAppointmentApproved(i) == false,\r\n            \"Don't have an unapproved appointment\"\r\n        );\r\n        _;\r\n    }\r\n\r\n    modifier _hasAppointment(uint256 i) {\r\n        require(\r\n            appointmentManager.hasAppointment(i),\r\n            \"Don't have an appointment\"\r\n        );\r\n        _;\r\n    }\r\n\r\n    //* ~Modifiers//\r\n\r\n    function getTestValue() external pure returns (uint256) {\r\n        return 3;\r\n    }\r\n\r\n    function isAdmin() external view returns (bool) {\r\n        return msg.sender == deployer;\r\n    }\r\n\r\n    //* Workers//\r\n    function askToRegisterAsWorker(string memory name) external {\r\n        workerManager.putRequestToRegister(msg.sender, name);\r\n    }\r\n\r\n    function approveWorkerRegistrationRequest(address workerAddr)\r\n        external\r\n        _canApproveWorkerRegistrationRequests\r\n    {\r\n        workerManager.approveRequest(workerAddr);\r\n    }\r\n\r\n    function isWorkerRequestHere(address addr) external view returns (bool) {\r\n        return workerManager.isRequestHere(addr);\r\n    }\r\n\r\n    function isAWorker(address addr) external view returns (bool) {\r\n        return workerManager.isWorkerHere(addr);\r\n    }\r\n\r\n    function getWorkerName(address addr)\r\n        external\r\n        view\r\n        _hasWorker(addr)\r\n        returns (string memory)\r\n    {\r\n        return workerManager.getWorkerName(addr);\r\n    }\r\n\r\n    function isWorkerAvailable(address workerAddr)\r\n        external\r\n        view\r\n        returns (bool)\r\n    {\r\n        return workerManager.isWorkerAvailable(workerAddr);\r\n    }\r\n\r\n    function setWorkerAsUnavailable(address workerAddr)\r\n        external\r\n        _canChangeWorkerStatus(workerAddr)\r\n        _hasWorker(workerAddr)\r\n    {\r\n        workerManager.setWorkerAsUnavailable(workerAddr);\r\n    }\r\n\r\n    function setWorkerAsAvailable(address workerAddr)\r\n        external\r\n        _canChangeWorkerStatus(workerAddr)\r\n        _hasWorker(workerAddr)\r\n    {\r\n        workerManager.setWorkerAsAvailable(workerAddr);\r\n    }\r\n\r\n    //* ~Workers//\r\n\r\n    //* Clients//\r\n    function registerAsClient(string memory name) external {\r\n        clientManager.registerClient(msg.sender, name);\r\n    }\r\n\r\n    function isAClient(address addr) external view returns (bool) {\r\n        return clientManager.isClientHere(addr);\r\n    }\r\n\r\n    //* ~Clients//\r\n\r\n    //* Services//\r\n    function createService(string memory name, uint256 price)\r\n        external\r\n        _canCreateServices\r\n    {\r\n        serviceManager.createService(name, price);\r\n    }\r\n\r\n    function getServicesLength() external view returns (uint256) {\r\n        return serviceManager.getServicesLength();\r\n    }\r\n\r\n    function getServiceName(uint256 i)\r\n        external\r\n        view\r\n        _hasService(i)\r\n        returns (string memory)\r\n    {\r\n        return serviceManager.getServiceName(i);\r\n    }\r\n\r\n    function getServicePrice(uint256 i)\r\n        external\r\n        view\r\n        _hasService(i)\r\n        returns (uint256)\r\n    {\r\n        return serviceManager.getServicePrice(i);\r\n    }\r\n\r\n    function setServiceAsUnavailable(uint256 i)\r\n        external\r\n        _canChangeServiceStatus\r\n        _hasService(i)\r\n    {\r\n        serviceManager.setServiceAsUnavailable(i);\r\n    }\r\n\r\n    function setServiceAsAvailable(uint256 i)\r\n        external\r\n        _canChangeServiceStatus\r\n        _hasService(i)\r\n    {\r\n        serviceManager.setServiceAsAvailable(i);\r\n    }\r\n\r\n    function isServiceAvailable(uint256 i)\r\n        external\r\n        view\r\n        _hasService(i)\r\n        returns (bool)\r\n    {\r\n        return serviceManager.isServiceAvailable(i);\r\n    }\r\n\r\n    //* ~Clients//\r\n\r\n    //* Appointments//\r\n    function requestAppointment(uint256 serviceI, uint256 time)\r\n        external\r\n        payable\r\n        _hasClient(msg.sender)\r\n        _hasService(serviceI)\r\n    {\r\n        require(\r\n            msg.value == serviceManager.getServicePrice(serviceI),\r\n            \"Wrong value for service\"\r\n        );\r\n\r\n        require(block.timestamp < time, \"Wrong time\");\r\n\r\n        appointmentManager.requestAppointment(msg.sender, serviceI, time);\r\n    }\r\n\r\n    function isAppointmentApproved(uint256 i)\r\n        external\r\n        view\r\n        _hasAppointment(i)\r\n        returns (bool)\r\n    {\r\n        return appointmentManager.isAppointmentApproved(i);\r\n    }\r\n\r\n    function approveAppointment(uint256 i)\r\n        external\r\n        payable\r\n        _hasWorker(msg.sender)\r\n        _hasAppointment(i)\r\n        _hasUnapprovedAppointment(i)\r\n    {\r\n        require(\r\n            workerManager.isWorkerAvailable(msg.sender),\r\n            \"You are unavailable\"\r\n        );\r\n        appointmentManager.approveAppointment(i);\r\n        uint256 serviceI = appointmentManager.getServiceIndex(i);\r\n        uint256 servicePrice = serviceManager.getServicePrice(serviceI);\r\n        payable(msg.sender).transfer(servicePrice);\r\n    }\r\n\r\n    function getClientAppointments(address client)\r\n        external\r\n        view\r\n        returns (int256[5] memory)\r\n    {\r\n        return appointmentManager.getClientAppointments(client);\r\n    }\r\n\r\n    function getUnapprovedAppointments(uint256 serviceI)\r\n        external\r\n        view\r\n        returns (int256[5] memory)\r\n    {\r\n        return appointmentManager.getUnapprovedAppointments(serviceI);\r\n    }\r\n\r\n    function getAppointmentService(uint256 i)\r\n        external\r\n        view\r\n        _hasAppointment(i)\r\n        returns (uint256)\r\n    {\r\n        return appointmentManager.getAppointmentService(i);\r\n    }\r\n\r\n    function getAppointmentTime(uint256 i)\r\n        external\r\n        view\r\n        _hasAppointment(i)\r\n        returns (uint256)\r\n    {\r\n        return appointmentManager.getAppointmentTime(i);\r\n    }\r\n    //* ~Appointments//\r\n}\r\n",
  "sourcePath": "/home/seva/Projects/uni-eth-practice/contracts/MassageRoom.sol",
  "compiler": {
    "name": "solc",
    "version": "0.8.17+commit.8df45f5f.Emscripten.clang"
  },
  "schemaVersion": "3.4.11",
  "updatedAt": "2022-12-10T08:26:38.423Z",
  "networkType": "ethereum",
  "devdoc": {
    "kind": "dev",
    "methods": {},
    "version": 1
  },
  "userdoc": {
    "kind": "user",
    "methods": {},
    "version": 1
  }
}