{
  "contractName": "MassageRoom",
  "abi": [
    {
      "inputs": [],
      "stateMutability": "nonpayable",
      "type": "constructor"
    },
    {
      "inputs": [],
      "name": "getTestValue",
      "outputs": [
        {
          "internalType": "uint256",
          "name": "",
          "type": "uint256"
        }
      ],
      "stateMutability": "pure",
      "type": "function",
      "constant": true
    },
    {
      "inputs": [],
      "name": "isAdmin",
      "outputs": [
        {
          "internalType": "bool",
          "name": "",
          "type": "bool"
        }
      ],
      "stateMutability": "view",
      "type": "function",
      "constant": true
    },
    {
      "inputs": [
        {
          "internalType": "string",
          "name": "name",
          "type": "string"
        }
      ],
      "name": "askToRegisterAsWorker",
      "outputs": [],
      "stateMutability": "nonpayable",
      "type": "function"
    },
    {
      "inputs": [
        {
          "internalType": "address",
          "name": "workerAddr",
          "type": "address"
        }
      ],
      "name": "approveWorkerRegistrationRequest",
      "outputs": [],
      "stateMutability": "nonpayable",
      "type": "function"
    },
    {
      "inputs": [],
      "name": "haveIAskedToBeAWorker",
      "outputs": [
        {
          "internalType": "bool",
          "name": "",
          "type": "bool"
        }
      ],
      "stateMutability": "view",
      "type": "function",
      "constant": true
    },
    {
      "inputs": [
        {
          "internalType": "address",
          "name": "addr",
          "type": "address"
        }
      ],
      "name": "isAWorker",
      "outputs": [
        {
          "internalType": "bool",
          "name": "",
          "type": "bool"
        }
      ],
      "stateMutability": "view",
      "type": "function",
      "constant": true
    },
    {
      "inputs": [
        {
          "internalType": "address",
          "name": "workerAddr",
          "type": "address"
        }
      ],
      "name": "isWorkerAvailable",
      "outputs": [
        {
          "internalType": "bool",
          "name": "",
          "type": "bool"
        }
      ],
      "stateMutability": "view",
      "type": "function",
      "constant": true
    },
    {
      "inputs": [
        {
          "internalType": "address",
          "name": "workerAddr",
          "type": "address"
        }
      ],
      "name": "setWorkerAsUnavailable",
      "outputs": [],
      "stateMutability": "nonpayable",
      "type": "function"
    },
    {
      "inputs": [
        {
          "internalType": "address",
          "name": "workerAddr",
          "type": "address"
        }
      ],
      "name": "setWorkerAsAvailable",
      "outputs": [],
      "stateMutability": "nonpayable",
      "type": "function"
    },
    {
      "inputs": [
        {
          "internalType": "string",
          "name": "name",
          "type": "string"
        }
      ],
      "name": "registerAsClient",
      "outputs": [],
      "stateMutability": "nonpayable",
      "type": "function"
    },
    {
      "inputs": [
        {
          "internalType": "address",
          "name": "addr",
          "type": "address"
        }
      ],
      "name": "isAClient",
      "outputs": [
        {
          "internalType": "bool",
          "name": "",
          "type": "bool"
        }
      ],
      "stateMutability": "view",
      "type": "function",
      "constant": true
    },
    {
      "inputs": [
        {
          "internalType": "string",
          "name": "name",
          "type": "string"
        },
        {
          "internalType": "uint256",
          "name": "price",
          "type": "uint256"
        }
      ],
      "name": "createService",
      "outputs": [],
      "stateMutability": "nonpayable",
      "type": "function"
    },
    {
      "inputs": [],
      "name": "getServicesLength",
      "outputs": [
        {
          "internalType": "uint256",
          "name": "",
          "type": "uint256"
        }
      ],
      "stateMutability": "view",
      "type": "function",
      "constant": true
    },
    {
      "inputs": [
        {
          "internalType": "uint256",
          "name": "i",
          "type": "uint256"
        }
      ],
      "name": "getServiceName",
      "outputs": [
        {
          "internalType": "string",
          "name": "",
          "type": "string"
        }
      ],
      "stateMutability": "view",
      "type": "function",
      "constant": true
    },
    {
      "inputs": [
        {
          "internalType": "uint256",
          "name": "i",
          "type": "uint256"
        }
      ],
      "name": "getServicePrice",
      "outputs": [
        {
          "internalType": "uint256",
          "name": "",
          "type": "uint256"
        }
      ],
      "stateMutability": "view",
      "type": "function",
      "constant": true
    },
    {
      "inputs": [
        {
          "internalType": "uint256",
          "name": "i",
          "type": "uint256"
        }
      ],
      "name": "setServiceAsUnavailable",
      "outputs": [],
      "stateMutability": "nonpayable",
      "type": "function"
    },
    {
      "inputs": [
        {
          "internalType": "uint256",
          "name": "i",
          "type": "uint256"
        }
      ],
      "name": "setServiceAsAvailable",
      "outputs": [],
      "stateMutability": "nonpayable",
      "type": "function"
    },
    {
      "inputs": [
        {
          "internalType": "uint256",
          "name": "i",
          "type": "uint256"
        }
      ],
      "name": "isServiceAvailable",
      "outputs": [
        {
          "internalType": "bool",
          "name": "",
          "type": "bool"
        }
      ],
      "stateMutability": "view",
      "type": "function",
      "constant": true
    },
    {
      "inputs": [
        {
          "internalType": "uint256",
          "name": "serviceI",
          "type": "uint256"
        },
        {
          "internalType": "uint256",
          "name": "time",
          "type": "uint256"
        }
      ],
      "name": "requestAppointment",
      "outputs": [],
      "stateMutability": "payable",
      "type": "function",
      "payable": true
    },
    {
      "inputs": [
        {
          "internalType": "uint256",
          "name": "i",
          "type": "uint256"
        }
      ],
      "name": "isAppointmentApproved",
      "outputs": [
        {
          "internalType": "bool",
          "name": "",
          "type": "bool"
        }
      ],
      "stateMutability": "view",
      "type": "function",
      "constant": true
    },
    {
      "inputs": [
        {
          "internalType": "uint256",
          "name": "i",
          "type": "uint256"
        }
      ],
      "name": "approveAppointment",
      "outputs": [],
      "stateMutability": "payable",
      "type": "function",
      "payable": true
    },
    {
      "inputs": [
        {
          "internalType": "address",
          "name": "client",
          "type": "address"
        }
      ],
      "name": "getClientAppointments",
      "outputs": [
        {
          "internalType": "int256[5]",
          "name": "",
          "type": "int256[5]"
        }
      ],
      "stateMutability": "view",
      "type": "function",
      "constant": true
    },
    {
      "inputs": [
        {
          "internalType": "uint256",
          "name": "i",
          "type": "uint256"
        }
      ],
      "name": "getAppointmentService",
      "outputs": [
        {
          "internalType": "uint256",
          "name": "",
          "type": "uint256"
        }
      ],
      "stateMutability": "view",
      "type": "function",
      "constant": true
    },
    {
      "inputs": [
        {
          "internalType": "uint256",
          "name": "i",
          "type": "uint256"
        }
      ],
      "name": "getAppointmentTime",
      "outputs": [
        {
          "internalType": "uint256",
          "name": "",
          "type": "uint256"
        }
      ],
      "stateMutability": "view",
      "type": "function",
      "constant": true
    }
  ],
  "bytecode": "0x60806040523480156200001157600080fd5b50336000806101000a81548173ffffffffffffffffffffffffffffffffffffffff021916908373ffffffffffffffffffffffffffffffffffffffff160217905550604051620000609062000208565b604051809103906000f0801580156200007d573d6000803e3d6000fd5b50600160006101000a81548173ffffffffffffffffffffffffffffffffffffffff021916908373ffffffffffffffffffffffffffffffffffffffff160217905550604051620000cc9062000216565b604051809103906000f080158015620000e9573d6000803e3d6000fd5b50600260006101000a81548173ffffffffffffffffffffffffffffffffffffffff021916908373ffffffffffffffffffffffffffffffffffffffff160217905550604051620001389062000224565b604051809103906000f08015801562000155573d6000803e3d6000fd5b50600360006101000a81548173ffffffffffffffffffffffffffffffffffffffff021916908373ffffffffffffffffffffffffffffffffffffffff160217905550604051620001a49062000232565b604051809103906000f080158015620001c1573d6000803e3d6000fd5b50600460006101000a81548173ffffffffffffffffffffffffffffffffffffffff021916908373ffffffffffffffffffffffffffffffffffffffff16021790555062000240565b610c6780620037c383390190565b610732806200442a83390190565b610b208062004b5c83390190565b6109e2806200567c83390190565b61357380620002506000396000f3fe60806040526004361061014b5760003560e01c8063953058f8116100b6578063b98389b11161006f578063b98389b1146104aa578063c03f9b44146104d3578063c573d8a214610510578063cb32db721461053b578063cd516c4d14610578578063e4cc4e45146105a15761014b565b8063953058f814610374578063a420e5d2146103b1578063a8402602146103dc578063b5a7314b14610405578063b61cb6af14610442578063b6db75a01461047f5761014b565b80633df1ea05116101085780633df1ea05146102615780634470cadc1461028c5780634a69d93d146102a85780634cc0862d146102d15780636b0ae1eb146102fa5780638a2c6b51146103375761014b565b80630405df8814610150578063064eac8a146101795780630daae746146101955780631cf82bd2146101d25780632de03b6b146101fb5780632ebda60b14610238575b600080fd5b34801561015c57600080fd5b5061017760048036038101906101729190612877565b6105de565b005b610193600480360381019061018e91906128da565b610811565b005b3480156101a157600080fd5b506101bc60048036038101906101b791906128da565b610da3565b6040516101c99190612916565b60405180910390f35b3480156101de57600080fd5b506101f960048036038101906101f49190612a77565b610f25565b005b34801561020757600080fd5b50610222600480360381019061021d9190612877565b611046565b60405161022f9190612aee565b60405180910390f35b34801561024457600080fd5b5061025f600480360381019061025a9190612b09565b6110eb565b005b34801561026d57600080fd5b5061027661117d565b6040516102839190612aee565b60405180910390f35b6102a660048036038101906102a19190612b52565b611220565b005b3480156102b457600080fd5b506102cf60048036038101906102ca9190612877565b61158e565b005b3480156102dd57600080fd5b506102f860048036038101906102f391906128da565b6117c1565b005b34801561030657600080fd5b50610321600480360381019061031c9190612877565b6119bc565b60405161032e9190612aee565b60405180910390f35b34801561034357600080fd5b5061035e600480360381019061035991906128da565b611a61565b60405161036b9190612aee565b60405180910390f35b34801561038057600080fd5b5061039b600480360381019061039691906128da565b611be3565b6040516103a89190612c11565b60405180910390f35b3480156103bd57600080fd5b506103c6611d6a565b6040516103d39190612916565b60405180910390f35b3480156103e857600080fd5b5061040360048036038101906103fe91906128da565b611d73565b005b34801561041157600080fd5b5061042c60048036038101906104279190612877565b611f6e565b6040516104399190612aee565b60405180910390f35b34801561044e57600080fd5b50610469600480360381019061046491906128da565b612013565b6040516104769190612aee565b60405180910390f35b34801561048b57600080fd5b50610494612195565b6040516104a19190612aee565b60405180910390f35b3480156104b657600080fd5b506104d160048036038101906104cc9190612b09565b6121ec565b005b3480156104df57600080fd5b506104fa60048036038101906104f591906128da565b61227e565b6040516105079190612916565b60405180910390f35b34801561051c57600080fd5b50610525612400565b6040516105329190612916565b60405180910390f35b34801561054757600080fd5b50610562600480360381019061055d91906128da565b612498565b60405161056f9190612916565b60405180910390f35b34801561058457600080fd5b5061059f600480360381019061059a9190612877565b61261a565b005b3480156105ad57600080fd5b506105c860048036038101906105c39190612877565b612738565b6040516105d59190612ce8565b60405180910390f35b8060008054906101000a900473ffffffffffffffffffffffffffffffffffffffff1673ffffffffffffffffffffffffffffffffffffffff163373ffffffffffffffffffffffffffffffffffffffff16148061066457508073ffffffffffffffffffffffffffffffffffffffff163373ffffffffffffffffffffffffffffffffffffffff16145b6106a3576040517f08c379a000000000000000000000000000000000000000000000000000000000815260040161069a90612d75565b60405180910390fd5b81600160009054906101000a900473ffffffffffffffffffffffffffffffffffffffff1673ffffffffffffffffffffffffffffffffffffffff166312c61114826040518263ffffffff1660e01b81526004016106ff9190612da4565b602060405180830381865afa15801561071c573d6000803e3d6000fd5b505050506040513d601f19601f820116820180604052508101906107409190612deb565b61077f576040517f08c379a000000000000000000000000000000000000000000000000000000000815260040161077690612e64565b60405180910390fd5b600160009054906101000a900473ffffffffffffffffffffffffffffffffffffffff1673ffffffffffffffffffffffffffffffffffffffff16630405df88846040518263ffffffff1660e01b81526004016107da9190612da4565b600060405180830381600087803b1580156107f457600080fd5b505af1158015610808573d6000803e3d6000fd5b50505050505050565b33600160009054906101000a900473ffffffffffffffffffffffffffffffffffffffff1673ffffffffffffffffffffffffffffffffffffffff166312c61114826040518263ffffffff1660e01b815260040161086d9190612da4565b602060405180830381865afa15801561088a573d6000803e3d6000fd5b505050506040513d601f19601f820116820180604052508101906108ae9190612deb565b6108ed576040517f08c379a00000000000000000000000000000000000000000000000000000000081526004016108e490612e64565b60405180910390fd5b81600460009054906101000a900473ffffffffffffffffffffffffffffffffffffffff1673ffffffffffffffffffffffffffffffffffffffff16634b47d827826040518263ffffffff1660e01b81526004016109499190612916565b602060405180830381865afa158015610966573d6000803e3d6000fd5b505050506040513d601f19601f8201168201806040525081019061098a9190612deb565b6109c9576040517f08c379a00000000000000000000000000000000000000000000000000000000081526004016109c090612ed0565b60405180910390fd5b8260001515600460009054906101000a900473ffffffffffffffffffffffffffffffffffffffff1673ffffffffffffffffffffffffffffffffffffffff1663b61cb6af836040518263ffffffff1660e01b8152600401610a299190612916565b602060405180830381865afa158015610a46573d6000803e3d6000fd5b505050506040513d601f19601f82011682018060405250810190610a6a9190612deb565b151514610aac576040517f08c379a0000000000000000000000000000000000000000000000000000000008152600401610aa390612f62565b60405180910390fd5b600160009054906101000a900473ffffffffffffffffffffffffffffffffffffffff1673ffffffffffffffffffffffffffffffffffffffff16632de03b6b336040518263ffffffff1660e01b8152600401610b079190612da4565b602060405180830381865afa158015610b24573d6000803e3d6000fd5b505050506040513d601f19601f82011682018060405250810190610b489190612deb565b610b87576040517f08c379a0000000000000000000000000000000000000000000000000000000008152600401610b7e90612fce565b60405180910390fd5b600460009054906101000a900473ffffffffffffffffffffffffffffffffffffffff1673ffffffffffffffffffffffffffffffffffffffff1663064eac8a856040518263ffffffff1660e01b8152600401610be29190612916565b600060405180830381600087803b158015610bfc57600080fd5b505af1158015610c10573d6000803e3d6000fd5b505050506000600460009054906101000a900473ffffffffffffffffffffffffffffffffffffffff1673ffffffffffffffffffffffffffffffffffffffff166378ec04d9866040518263ffffffff1660e01b8152600401610c719190612916565b602060405180830381865afa158015610c8e573d6000803e3d6000fd5b505050506040513d601f19601f82011682018060405250810190610cb29190613003565b90506000600360009054906101000a900473ffffffffffffffffffffffffffffffffffffffff1673ffffffffffffffffffffffffffffffffffffffff1663c03f9b44836040518263ffffffff1660e01b8152600401610d119190612916565b602060405180830381865afa158015610d2e573d6000803e3d6000fd5b505050506040513d601f19601f82011682018060405250810190610d529190613003565b90503373ffffffffffffffffffffffffffffffffffffffff166108fc829081150290604051600060405180830381858888f19350505050158015610d9a573d6000803e3d6000fd5b50505050505050565b600081600460009054906101000a900473ffffffffffffffffffffffffffffffffffffffff1673ffffffffffffffffffffffffffffffffffffffff16634b47d827826040518263ffffffff1660e01b8152600401610e019190612916565b602060405180830381865afa158015610e1e573d6000803e3d6000fd5b505050506040513d601f19601f82011682018060405250810190610e429190612deb565b610e81576040517f08c379a0000000000000000000000000000000000000000000000000000000008152600401610e7890612ed0565b60405180910390fd5b600460009054906101000a900473ffffffffffffffffffffffffffffffffffffffff1673ffffffffffffffffffffffffffffffffffffffff16630daae746846040518263ffffffff1660e01b8152600401610edc9190612916565b602060405180830381865afa158015610ef9573d6000803e3d6000fd5b505050506040513d601f19601f82011682018060405250810190610f1d9190613003565b915050919050565b60008054906101000a900473ffffffffffffffffffffffffffffffffffffffff1673ffffffffffffffffffffffffffffffffffffffff163373ffffffffffffffffffffffffffffffffffffffff1614610fb3576040517f08c379a0000000000000000000000000000000000000000000000000000000008152600401610faa9061307c565b60405180910390fd5b600360009054906101000a900473ffffffffffffffffffffffffffffffffffffffff1673ffffffffffffffffffffffffffffffffffffffff16631cf82bd283836040518363ffffffff1660e01b815260040161101092919061309c565b600060405180830381600087803b15801561102a57600080fd5b505af115801561103e573d6000803e3d6000fd5b505050505050565b6000600160009054906101000a900473ffffffffffffffffffffffffffffffffffffffff1673ffffffffffffffffffffffffffffffffffffffff16632de03b6b836040518263ffffffff1660e01b81526004016110a39190612da4565b602060405180830381865afa1580156110c0573d6000803e3d6000fd5b505050506040513d601f19601f820116820180604052508101906110e49190612deb565b9050919050565b600160009054906101000a900473ffffffffffffffffffffffffffffffffffffffff1673ffffffffffffffffffffffffffffffffffffffff1663c011565b33836040518363ffffffff1660e01b81526004016111489291906130cc565b600060405180830381600087803b15801561116257600080fd5b505af1158015611176573d6000803e3d6000fd5b5050505050565b6000600160009054906101000a900473ffffffffffffffffffffffffffffffffffffffff1673ffffffffffffffffffffffffffffffffffffffff166385d8fff0336040518263ffffffff1660e01b81526004016111da9190612da4565b602060405180830381865afa1580156111f7573d6000803e3d6000fd5b505050506040513d601f19601f8201168201806040525081019061121b9190612deb565b905090565b33600260009054906101000a900473ffffffffffffffffffffffffffffffffffffffff1673ffffffffffffffffffffffffffffffffffffffff1663f0e734d4826040518263ffffffff1660e01b815260040161127c9190612da4565b602060405180830381865afa158015611299573d6000803e3d6000fd5b505050506040513d601f19601f820116820180604052508101906112bd9190612deb565b6112fc576040517f08c379a00000000000000000000000000000000000000000000000000000000081526004016112f390613148565b60405180910390fd5b82600360009054906101000a900473ffffffffffffffffffffffffffffffffffffffff1673ffffffffffffffffffffffffffffffffffffffff1663801d1697826040518263ffffffff1660e01b81526004016113589190612916565b602060405180830381865afa158015611375573d6000803e3d6000fd5b505050506040513d601f19601f820116820180604052508101906113999190612deb565b6113d8576040517f08c379a00000000000000000000000000000000000000000000000000000000081526004016113cf906131b4565b60405180910390fd5b600360009054906101000a900473ffffffffffffffffffffffffffffffffffffffff1673ffffffffffffffffffffffffffffffffffffffff1663c03f9b44856040518263ffffffff1660e01b81526004016114339190612916565b602060405180830381865afa158015611450573d6000803e3d6000fd5b505050506040513d601f19601f820116820180604052508101906114749190613003565b34146114b5576040517f08c379a00000000000000000000000000000000000000000000000000000000081526004016114ac90613220565b60405180910390fd5b8242106114f7576040517f08c379a00000000000000000000000000000000000000000000000000000000081526004016114ee9061328c565b60405180910390fd5b600460009054906101000a900473ffffffffffffffffffffffffffffffffffffffff1673ffffffffffffffffffffffffffffffffffffffff1663929ff9533386866040518463ffffffff1660e01b8152600401611556939291906132ac565b600060405180830381600087803b15801561157057600080fd5b505af1158015611584573d6000803e3d6000fd5b5050505050505050565b8060008054906101000a900473ffffffffffffffffffffffffffffffffffffffff1673ffffffffffffffffffffffffffffffffffffffff163373ffffffffffffffffffffffffffffffffffffffff16148061161457508073ffffffffffffffffffffffffffffffffffffffff163373ffffffffffffffffffffffffffffffffffffffff16145b611653576040517f08c379a000000000000000000000000000000000000000000000000000000000815260040161164a90612d75565b60405180910390fd5b81600160009054906101000a900473ffffffffffffffffffffffffffffffffffffffff1673ffffffffffffffffffffffffffffffffffffffff166312c61114826040518263ffffffff1660e01b81526004016116af9190612da4565b602060405180830381865afa1580156116cc573d6000803e3d6000fd5b505050506040513d601f19601f820116820180604052508101906116f09190612deb565b61172f576040517f08c379a000000000000000000000000000000000000000000000000000000000815260040161172690612e64565b60405180910390fd5b600160009054906101000a900473ffffffffffffffffffffffffffffffffffffffff1673ffffffffffffffffffffffffffffffffffffffff16634a69d93d846040518263ffffffff1660e01b815260040161178a9190612da4565b600060405180830381600087803b1580156117a457600080fd5b505af11580156117b8573d6000803e3d6000fd5b50505050505050565b60008054906101000a900473ffffffffffffffffffffffffffffffffffffffff1673ffffffffffffffffffffffffffffffffffffffff163373ffffffffffffffffffffffffffffffffffffffff161461184f576040517f08c379a000000000000000000000000000000000000000000000000000000000815260040161184690613355565b60405180910390fd5b80600360009054906101000a900473ffffffffffffffffffffffffffffffffffffffff1673ffffffffffffffffffffffffffffffffffffffff1663801d1697826040518263ffffffff1660e01b81526004016118ab9190612916565b602060405180830381865afa1580156118c8573d6000803e3d6000fd5b505050506040513d601f19601f820116820180604052508101906118ec9190612deb565b61192b576040517f08c379a0000000000000000000000000000000000000000000000000000000008152600401611922906131b4565b60405180910390fd5b600360009054906101000a900473ffffffffffffffffffffffffffffffffffffffff1673ffffffffffffffffffffffffffffffffffffffff16634cc0862d836040518263ffffffff1660e01b81526004016119869190612916565b600060405180830381600087803b1580156119a057600080fd5b505af11580156119b4573d6000803e3d6000fd5b505050505050565b6000600260009054906101000a900473ffffffffffffffffffffffffffffffffffffffff1673ffffffffffffffffffffffffffffffffffffffff1663f0e734d4836040518263ffffffff1660e01b8152600401611a199190612da4565b602060405180830381865afa158015611a36573d6000803e3d6000fd5b505050506040513d601f19601f82011682018060405250810190611a5a9190612deb565b9050919050565b600081600360009054906101000a900473ffffffffffffffffffffffffffffffffffffffff1673ffffffffffffffffffffffffffffffffffffffff1663801d1697826040518263ffffffff1660e01b8152600401611abf9190612916565b602060405180830381865afa158015611adc573d6000803e3d6000fd5b505050506040513d601f19601f82011682018060405250810190611b009190612deb565b611b3f576040517f08c379a0000000000000000000000000000000000000000000000000000000008152600401611b36906131b4565b60405180910390fd5b600360009054906101000a900473ffffffffffffffffffffffffffffffffffffffff1673ffffffffffffffffffffffffffffffffffffffff16638a2c6b51846040518263ffffffff1660e01b8152600401611b9a9190612916565b602060405180830381865afa158015611bb7573d6000803e3d6000fd5b505050506040513d601f19601f82011682018060405250810190611bdb9190612deb565b915050919050565b606081600360009054906101000a900473ffffffffffffffffffffffffffffffffffffffff1673ffffffffffffffffffffffffffffffffffffffff1663801d1697826040518263ffffffff1660e01b8152600401611c419190612916565b602060405180830381865afa158015611c5e573d6000803e3d6000fd5b505050506040513d601f19601f82011682018060405250810190611c829190612deb565b611cc1576040517f08c379a0000000000000000000000000000000000000000000000000000000008152600401611cb8906131b4565b60405180910390fd5b600360009054906101000a900473ffffffffffffffffffffffffffffffffffffffff1673ffffffffffffffffffffffffffffffffffffffff1663953058f8846040518263ffffffff1660e01b8152600401611d1c9190612916565b600060405180830381865afa158015611d39573d6000803e3d6000fd5b505050506040513d6000823e3d601f19601f82011682018060405250810190611d6291906133e5565b915050919050565b60006003905090565b60008054906101000a900473ffffffffffffffffffffffffffffffffffffffff1673ffffffffffffffffffffffffffffffffffffffff163373ffffffffffffffffffffffffffffffffffffffff1614611e01576040517f08c379a0000000000000000000000000000000000000000000000000000000008152600401611df890613355565b60405180910390fd5b80600360009054906101000a900473ffffffffffffffffffffffffffffffffffffffff1673ffffffffffffffffffffffffffffffffffffffff1663801d1697826040518263ffffffff1660e01b8152600401611e5d9190612916565b602060405180830381865afa158015611e7a573d6000803e3d6000fd5b505050506040513d601f19601f82011682018060405250810190611e9e9190612deb565b611edd576040517f08c379a0000000000000000000000000000000000000000000000000000000008152600401611ed4906131b4565b60405180910390fd5b600360009054906101000a900473ffffffffffffffffffffffffffffffffffffffff1673ffffffffffffffffffffffffffffffffffffffff1663a8402602836040518263ffffffff1660e01b8152600401611f389190612916565b600060405180830381600087803b158015611f5257600080fd5b505af1158015611f66573d6000803e3d6000fd5b505050505050565b6000600160009054906101000a900473ffffffffffffffffffffffffffffffffffffffff1673ffffffffffffffffffffffffffffffffffffffff166312c61114836040518263ffffffff1660e01b8152600401611fcb9190612da4565b602060405180830381865afa158015611fe8573d6000803e3d6000fd5b505050506040513d601f19601f8201168201806040525081019061200c9190612deb565b9050919050565b600081600460009054906101000a900473ffffffffffffffffffffffffffffffffffffffff1673ffffffffffffffffffffffffffffffffffffffff16634b47d827826040518263ffffffff1660e01b81526004016120719190612916565b602060405180830381865afa15801561208e573d6000803e3d6000fd5b505050506040513d601f19601f820116820180604052508101906120b29190612deb565b6120f1576040517f08c379a00000000000000000000000000000000000000000000000000000000081526004016120e890612ed0565b60405180910390fd5b600460009054906101000a900473ffffffffffffffffffffffffffffffffffffffff1673ffffffffffffffffffffffffffffffffffffffff1663b61cb6af846040518263ffffffff1660e01b815260040161214c9190612916565b602060405180830381865afa158015612169573d6000803e3d6000fd5b505050506040513d601f19601f8201168201806040525081019061218d9190612deb565b915050919050565b60008060009054906101000a900473ffffffffffffffffffffffffffffffffffffffff1673ffffffffffffffffffffffffffffffffffffffff163373ffffffffffffffffffffffffffffffffffffffff1614905090565b600260009054906101000a900473ffffffffffffffffffffffffffffffffffffffff1673ffffffffffffffffffffffffffffffffffffffff1663f2fef58b33836040518363ffffffff1660e01b81526004016122499291906130cc565b600060405180830381600087803b15801561226357600080fd5b505af1158015612277573d6000803e3d6000fd5b5050505050565b600081600360009054906101000a900473ffffffffffffffffffffffffffffffffffffffff1673ffffffffffffffffffffffffffffffffffffffff1663801d1697826040518263ffffffff1660e01b81526004016122dc9190612916565b602060405180830381865afa1580156122f9573d6000803e3d6000fd5b505050506040513d601f19601f8201168201806040525081019061231d9190612deb565b61235c576040517f08c379a0000000000000000000000000000000000000000000000000000000008152600401612353906131b4565b60405180910390fd5b600360009054906101000a900473ffffffffffffffffffffffffffffffffffffffff1673ffffffffffffffffffffffffffffffffffffffff1663c03f9b44846040518263ffffffff1660e01b81526004016123b79190612916565b602060405180830381865afa1580156123d4573d6000803e3d6000fd5b505050506040513d601f19601f820116820180604052508101906123f89190613003565b915050919050565b6000600360009054906101000a900473ffffffffffffffffffffffffffffffffffffffff1673ffffffffffffffffffffffffffffffffffffffff1663c573d8a26040518163ffffffff1660e01b8152600401602060405180830381865afa15801561246f573d6000803e3d6000fd5b505050506040513d601f19601f820116820180604052508101906124939190613003565b905090565b600081600460009054906101000a900473ffffffffffffffffffffffffffffffffffffffff1673ffffffffffffffffffffffffffffffffffffffff16634b47d827826040518263ffffffff1660e01b81526004016124f69190612916565b602060405180830381865afa158015612513573d6000803e3d6000fd5b505050506040513d601f19601f820116820180604052508101906125379190612deb565b612576576040517f08c379a000000000000000000000000000000000000000000000000000000000815260040161256d90612ed0565b60405180910390fd5b600460009054906101000a900473ffffffffffffffffffffffffffffffffffffffff1673ffffffffffffffffffffffffffffffffffffffff1663cb32db72846040518263ffffffff1660e01b81526004016125d19190612916565b602060405180830381865afa1580156125ee573d6000803e3d6000fd5b505050506040513d601f19601f820116820180604052508101906126129190613003565b915050919050565b60008054906101000a900473ffffffffffffffffffffffffffffffffffffffff1673ffffffffffffffffffffffffffffffffffffffff163373ffffffffffffffffffffffffffffffffffffffff16146126a8576040517f08c379a000000000000000000000000000000000000000000000000000000000815260040161269f90612d75565b60405180910390fd5b600160009054906101000a900473ffffffffffffffffffffffffffffffffffffffff1673ffffffffffffffffffffffffffffffffffffffff1663061dff9a826040518263ffffffff1660e01b81526004016127039190612da4565b600060405180830381600087803b15801561271d57600080fd5b505af1158015612731573d6000803e3d6000fd5b5050505050565b6127406127e3565b600460009054906101000a900473ffffffffffffffffffffffffffffffffffffffff1673ffffffffffffffffffffffffffffffffffffffff1663e4cc4e45836040518263ffffffff1660e01b815260040161279b9190612da4565b60a060405180830381865afa1580156127b8573d6000803e3d6000fd5b505050506040513d601f19601f820116820180604052508101906127dc9190613510565b9050919050565b6040518060a00160405280600590602082028036833780820191505090505090565b6000604051905090565b600080fd5b600080fd5b600073ffffffffffffffffffffffffffffffffffffffff82169050919050565b600061284482612819565b9050919050565b61285481612839565b811461285f57600080fd5b50565b6000813590506128718161284b565b92915050565b60006020828403121561288d5761288c61280f565b5b600061289b84828501612862565b91505092915050565b6000819050919050565b6128b7816128a4565b81146128c257600080fd5b50565b6000813590506128d4816128ae565b92915050565b6000602082840312156128f0576128ef61280f565b5b60006128fe848285016128c5565b91505092915050565b612910816128a4565b82525050565b600060208201905061292b6000830184612907565b92915050565b600080fd5b600080fd5b6000601f19601f8301169050919050565b7f4e487b7100000000000000000000000000000000000000000000000000000000600052604160045260246000fd5b6129848261293b565b810181811067ffffffffffffffff821117156129a3576129a261294c565b5b80604052505050565b60006129b6612805565b90506129c2828261297b565b919050565b600067ffffffffffffffff8211156129e2576129e161294c565b5b6129eb8261293b565b9050602081019050919050565b82818337600083830152505050565b6000612a1a612a15846129c7565b6129ac565b905082815260208101848484011115612a3657612a35612936565b5b612a418482856129f8565b509392505050565b600082601f830112612a5e57612a5d612931565b5b8135612a6e848260208601612a07565b91505092915050565b60008060408385031215612a8e57612a8d61280f565b5b600083013567ffffffffffffffff811115612aac57612aab612814565b5b612ab885828601612a49565b9250506020612ac9858286016128c5565b9150509250929050565b60008115159050919050565b612ae881612ad3565b82525050565b6000602082019050612b036000830184612adf565b92915050565b600060208284031215612b1f57612b1e61280f565b5b600082013567ffffffffffffffff811115612b3d57612b3c612814565b5b612b4984828501612a49565b91505092915050565b60008060408385031215612b6957612b6861280f565b5b6000612b77858286016128c5565b9250506020612b88858286016128c5565b9150509250929050565b600081519050919050565b600082825260208201905092915050565b60005b83811015612bcc578082015181840152602081019050612bb1565b60008484015250505050565b6000612be382612b92565b612bed8185612b9d565b9350612bfd818560208601612bae565b612c068161293b565b840191505092915050565b60006020820190508181036000830152612c2b8184612bd8565b905092915050565b600060059050919050565b600081905092915050565b6000819050919050565b6000819050919050565b612c6681612c53565b82525050565b6000612c788383612c5d565b60208301905092915050565b6000602082019050919050565b612c9a81612c33565b612ca48184612c3e565b9250612caf82612c49565b8060005b83811015612ce0578151612cc78782612c6c565b9650612cd283612c84565b925050600181019050612cb3565b505050505050565b600060a082019050612cfd6000830184612c91565b92915050565b7f4f6e6c79206465706c6f7965722063616e20617070726f766520776f726b657260008201527f20726567697374726174696f6e20726571756573747300000000000000000000602082015250565b6000612d5f603683612b9d565b9150612d6a82612d03565b604082019050919050565b60006020820190508181036000830152612d8e81612d52565b9050919050565b612d9e81612839565b82525050565b6000602082019050612db96000830184612d95565b92915050565b612dc881612ad3565b8114612dd357600080fd5b50565b600081519050612de581612dbf565b92915050565b600060208284031215612e0157612e0061280f565b5b6000612e0f84828501612dd6565b91505092915050565b7f576f726b65722069736e27742068657265000000000000000000000000000000600082015250565b6000612e4e601183612b9d565b9150612e5982612e18565b602082019050919050565b60006020820190508181036000830152612e7d81612e41565b9050919050565b7f446f6e2774206861766520616e206170706f696e746d656e7400000000000000600082015250565b6000612eba601983612b9d565b9150612ec582612e84565b602082019050919050565b60006020820190508181036000830152612ee981612ead565b9050919050565b7f446f6e2774206861766520616e20756e617070726f766564206170706f696e7460008201527f6d656e7400000000000000000000000000000000000000000000000000000000602082015250565b6000612f4c602483612b9d565b9150612f5782612ef0565b604082019050919050565b60006020820190508181036000830152612f7b81612f3f565b9050919050565b7f596f752061726520756e617661696c61626c6500000000000000000000000000600082015250565b6000612fb8601383612b9d565b9150612fc382612f82565b602082019050919050565b60006020820190508181036000830152612fe781612fab565b9050919050565b600081519050612ffd816128ae565b92915050565b6000602082840312156130195761301861280f565b5b600061302784828501612fee565b91505092915050565b7f4f6e6c792061646d696e2063616e206372656174652073657276696365730000600082015250565b6000613066601e83612b9d565b915061307182613030565b602082019050919050565b6000602082019050818103600083015261309581613059565b9050919050565b600060408201905081810360008301526130b68185612bd8565b90506130c56020830184612907565b9392505050565b60006040820190506130e16000830185612d95565b81810360208301526130f38184612bd8565b90509392505050565b7f436c69656e742069736e27742068657265000000000000000000000000000000600082015250565b6000613132601183612b9d565b915061313d826130fc565b602082019050919050565b6000602082019050818103600083015261316181613125565b9050919050565b7f5365727669636520646f65736e27742065786973740000000000000000000000600082015250565b600061319e601583612b9d565b91506131a982613168565b602082019050919050565b600060208201905081810360008301526131cd81613191565b9050919050565b7f57726f6e672076616c756520666f722073657276696365000000000000000000600082015250565b600061320a601783612b9d565b9150613215826131d4565b602082019050919050565b60006020820190508181036000830152613239816131fd565b9050919050565b7f57726f6e672074696d6500000000000000000000000000000000000000000000600082015250565b6000613276600a83612b9d565b915061328182613240565b602082019050919050565b600060208201905081810360008301526132a581613269565b9050919050565b60006060820190506132c16000830186612d95565b6132ce6020830185612907565b6132db6040830184612907565b949350505050565b7f4f6e6c792061646d696e2063616e206368616e6765207365727669636520737460008201527f6174757300000000000000000000000000000000000000000000000000000000602082015250565b600061333f602483612b9d565b915061334a826132e3565b604082019050919050565b6000602082019050818103600083015261336e81613332565b9050919050565b6000613388613383846129c7565b6129ac565b9050828152602081018484840111156133a4576133a3612936565b5b6133af848285612bae565b509392505050565b600082601f8301126133cc576133cb612931565b5b81516133dc848260208601613375565b91505092915050565b6000602082840312156133fb576133fa61280f565b5b600082015167ffffffffffffffff81111561341957613418612814565b5b613425848285016133b7565b91505092915050565b600067ffffffffffffffff8211156134495761344861294c565b5b602082029050919050565b600080fd5b61346281612c53565b811461346d57600080fd5b50565b60008151905061347f81613459565b92915050565b60006134986134938461342e565b6129ac565b905080602084028301858111156134b2576134b1613454565b5b835b818110156134db57806134c78882613470565b8452602084019350506020810190506134b4565b5050509392505050565b600082601f8301126134fa576134f9612931565b5b6005613507848285613485565b91505092915050565b600060a082840312156135265761352561280f565b5b6000613534848285016134e5565b9150509291505056fea264697066735822122082672f1f09ac591029589dab1a0de2361cacf5addf058f1140fb46f58823f8c464736f6c63430008110033608060405234801561001057600080fd5b50610c47806100206000396000f3fe608060405234801561001057600080fd5b506004361061007d5760003560e01c80632de03b6b1161005b5780632de03b6b146100ea5780634a69d93d1461011a57806385d8fff014610136578063c011565b146101665761007d565b80630405df8814610082578063061dff9a1461009e57806312c61114146100ba575b600080fd5b61009c600480360381019061009791906106ea565b610182565b005b6100b860048036038101906100b391906106ea565b6101ef565b005b6100d460048036038101906100cf91906106ea565b6103ee565b6040516100e19190610732565b60405180910390f35b61010460048036038101906100ff91906106ea565b610447565b6040516101119190610732565b60405180910390f35b610134600480360381019061012f91906106ea565b61051f565b005b610150600480360381019061014b91906106ea565b61058d565b60405161015d9190610732565b60405180910390f35b610180600480360381019061017b9190610893565b6105e5565b005b60018060008373ffffffffffffffffffffffffffffffffffffffff1673ffffffffffffffffffffffffffffffffffffffff16815260200190815260200160002060010160016101000a81548160ff021916908360028111156101e7576101e66108ef565b5b021790555050565b60008060008373ffffffffffffffffffffffffffffffffffffffff1673ffffffffffffffffffffffffffffffffffffffff16815260200190815260200160002060010160006101000a81548160ff02191690831515021790555060405180606001604052806000808473ffffffffffffffffffffffffffffffffffffffff1673ffffffffffffffffffffffffffffffffffffffff16815260200190815260200160002060000180546102a09061094d565b80601f01602080910402602001604051908101604052809291908181526020018280546102cc9061094d565b80156103195780601f106102ee57610100808354040283529160200191610319565b820191906000526020600020905b8154815290600101906020018083116102fc57829003601f168201915b50505050508152602001600115158152602001600160028111156103405761033f6108ef565b5b815250600160008373ffffffffffffffffffffffffffffffffffffffff1673ffffffffffffffffffffffffffffffffffffffff16815260200190815260200160002060008201518160000190816103979190610b3f565b5060208201518160010160006101000a81548160ff02191690831515021790555060408201518160010160016101000a81548160ff021916908360028111156103e3576103e26108ef565b5b021790555090505050565b6000600160008373ffffffffffffffffffffffffffffffffffffffff1673ffffffffffffffffffffffffffffffffffffffff16815260200190815260200160002060010160009054906101000a900460ff169050919050565b6000600160008373ffffffffffffffffffffffffffffffffffffffff1673ffffffffffffffffffffffffffffffffffffffff16815260200190815260200160002060010160009054906101000a900460ff1680156105185750600160028111156104b4576104b36108ef565b5b600160008473ffffffffffffffffffffffffffffffffffffffff1673ffffffffffffffffffffffffffffffffffffffff16815260200190815260200160002060010160019054906101000a900460ff166002811115610516576105156108ef565b5b145b9050919050565b6002600160008373ffffffffffffffffffffffffffffffffffffffff1673ffffffffffffffffffffffffffffffffffffffff16815260200190815260200160002060010160016101000a81548160ff02191690836002811115610585576105846108ef565b5b021790555050565b60008060008373ffffffffffffffffffffffffffffffffffffffff1673ffffffffffffffffffffffffffffffffffffffff16815260200190815260200160002060010160009054906101000a900460ff169050919050565b6040518060400160405280828152602001600115158152506000808473ffffffffffffffffffffffffffffffffffffffff1673ffffffffffffffffffffffffffffffffffffffff16815260200190815260200160002060008201518160000190816106509190610b3f565b5060208201518160010160006101000a81548160ff0219169083151502179055509050505050565b6000604051905090565b600080fd5b600080fd5b600073ffffffffffffffffffffffffffffffffffffffff82169050919050565b60006106b78261068c565b9050919050565b6106c7816106ac565b81146106d257600080fd5b50565b6000813590506106e4816106be565b92915050565b600060208284031215610700576106ff610682565b5b600061070e848285016106d5565b91505092915050565b60008115159050919050565b61072c81610717565b82525050565b60006020820190506107476000830184610723565b92915050565b600080fd5b600080fd5b6000601f19601f8301169050919050565b7f4e487b7100000000000000000000000000000000000000000000000000000000600052604160045260246000fd5b6107a082610757565b810181811067ffffffffffffffff821117156107bf576107be610768565b5b80604052505050565b60006107d2610678565b90506107de8282610797565b919050565b600067ffffffffffffffff8211156107fe576107fd610768565b5b61080782610757565b9050602081019050919050565b82818337600083830152505050565b6000610836610831846107e3565b6107c8565b90508281526020810184848401111561085257610851610752565b5b61085d848285610814565b509392505050565b600082601f83011261087a5761087961074d565b5b813561088a848260208601610823565b91505092915050565b600080604083850312156108aa576108a9610682565b5b60006108b8858286016106d5565b925050602083013567ffffffffffffffff8111156108d9576108d8610687565b5b6108e585828601610865565b9150509250929050565b7f4e487b7100000000000000000000000000000000000000000000000000000000600052602160045260246000fd5b7f4e487b7100000000000000000000000000000000000000000000000000000000600052602260045260246000fd5b6000600282049050600182168061096557607f821691505b6020821081036109785761097761091e565b5b50919050565b600081519050919050565b60008190508160005260206000209050919050565b60006020601f8301049050919050565b600082821b905092915050565b6000600883026109eb7fffffffffffffffffffffffffffffffffffffffffffffffffffffffffffffffff826109ae565b6109f586836109ae565b95508019841693508086168417925050509392505050565b6000819050919050565b6000819050919050565b6000610a3c610a37610a3284610a0d565b610a17565b610a0d565b9050919050565b6000819050919050565b610a5683610a21565b610a6a610a6282610a43565b8484546109bb565b825550505050565b600090565b610a7f610a72565b610a8a818484610a4d565b505050565b5b81811015610aae57610aa3600082610a77565b600181019050610a90565b5050565b601f821115610af357610ac481610989565b610acd8461099e565b81016020851015610adc578190505b610af0610ae88561099e565b830182610a8f565b50505b505050565b600082821c905092915050565b6000610b1660001984600802610af8565b1980831691505092915050565b6000610b2f8383610b05565b9150826002028217905092915050565b610b488261097e565b67ffffffffffffffff811115610b6157610b60610768565b5b610b6b825461094d565b610b76828285610ab2565b600060209050601f831160018114610ba95760008415610b97578287015190505b610ba18582610b23565b865550610c09565b601f198416610bb786610989565b60005b82811015610bdf57848901518255600182019150602085019450602081019050610bba565b86831015610bfc5784890151610bf8601f891682610b05565b8355505b6001600288020188555050505b50505050505056fea26469706673582212208bff0dc7f07a167bc8b5771d8c77404745f247ddd9e326d183f77f307a31fea764736f6c63430008110033608060405234801561001057600080fd5b50610712806100206000396000f3fe608060405234801561001057600080fd5b50600436106100365760003560e01c8063f0e734d41461003b578063f2fef58b1461006b575b600080fd5b610055600480360381019061005091906101e4565b610087565b604051610062919061022c565b60405180910390f35b6100856004803603810190610080919061038d565b6100df565b005b60008060008373ffffffffffffffffffffffffffffffffffffffff1673ffffffffffffffffffffffffffffffffffffffff16815260200190815260200160002060010160009054906101000a900460ff169050919050565b6040518060400160405280828152602001600115158152506000808473ffffffffffffffffffffffffffffffffffffffff1673ffffffffffffffffffffffffffffffffffffffff168152602001908152602001600020600082015181600001908161014a919061060a565b5060208201518160010160006101000a81548160ff0219169083151502179055509050505050565b6000604051905090565b600080fd5b600080fd5b600073ffffffffffffffffffffffffffffffffffffffff82169050919050565b60006101b182610186565b9050919050565b6101c1816101a6565b81146101cc57600080fd5b50565b6000813590506101de816101b8565b92915050565b6000602082840312156101fa576101f961017c565b5b6000610208848285016101cf565b91505092915050565b60008115159050919050565b61022681610211565b82525050565b6000602082019050610241600083018461021d565b92915050565b600080fd5b600080fd5b6000601f19601f8301169050919050565b7f4e487b7100000000000000000000000000000000000000000000000000000000600052604160045260246000fd5b61029a82610251565b810181811067ffffffffffffffff821117156102b9576102b8610262565b5b80604052505050565b60006102cc610172565b90506102d88282610291565b919050565b600067ffffffffffffffff8211156102f8576102f7610262565b5b61030182610251565b9050602081019050919050565b82818337600083830152505050565b600061033061032b846102dd565b6102c2565b90508281526020810184848401111561034c5761034b61024c565b5b61035784828561030e565b509392505050565b600082601f83011261037457610373610247565b5b813561038484826020860161031d565b91505092915050565b600080604083850312156103a4576103a361017c565b5b60006103b2858286016101cf565b925050602083013567ffffffffffffffff8111156103d3576103d2610181565b5b6103df8582860161035f565b9150509250929050565b600081519050919050565b7f4e487b7100000000000000000000000000000000000000000000000000000000600052602260045260246000fd5b6000600282049050600182168061043b57607f821691505b60208210810361044e5761044d6103f4565b5b50919050565b60008190508160005260206000209050919050565b60006020601f8301049050919050565b600082821b905092915050565b6000600883026104b67fffffffffffffffffffffffffffffffffffffffffffffffffffffffffffffffff82610479565b6104c08683610479565b95508019841693508086168417925050509392505050565b6000819050919050565b6000819050919050565b60006105076105026104fd846104d8565b6104e2565b6104d8565b9050919050565b6000819050919050565b610521836104ec565b61053561052d8261050e565b848454610486565b825550505050565b600090565b61054a61053d565b610555818484610518565b505050565b5b818110156105795761056e600082610542565b60018101905061055b565b5050565b601f8211156105be5761058f81610454565b61059884610469565b810160208510156105a7578190505b6105bb6105b385610469565b83018261055a565b50505b505050565b600082821c905092915050565b60006105e1600019846008026105c3565b1980831691505092915050565b60006105fa83836105d0565b9150826002028217905092915050565b610613826103e9565b67ffffffffffffffff81111561062c5761062b610262565b5b6106368254610423565b61064182828561057d565b600060209050601f8311600181146106745760008415610662578287015190505b61066c85826105ee565b8655506106d4565b601f19841661068286610454565b60005b828110156106aa57848901518255600182019150602085019450602081019050610685565b868310156106c757848901516106c3601f8916826105d0565b8355505b6001600288020188555050505b50505050505056fea264697066735822122012d142d9e8b3b63c7c260901809804317f2c1f62cba58888c42c5d66eb4c712464736f6c63430008110033608060405234801561001057600080fd5b50610b00806100206000396000f3fe608060405234801561001057600080fd5b50600436106100885760003560e01c8063953058f81161005b578063953058f814610125578063a840260214610155578063c03f9b4414610171578063c573d8a2146101a157610088565b80631cf82bd21461008d5780634cc0862d146100a9578063801d1697146100c55780638a2c6b51146100f5575b600080fd5b6100a760048036038101906100a29190610604565b6101bf565b005b6100c360048036038101906100be9190610660565b61026e565b005b6100df60048036038101906100da9190610660565b6102bf565b6040516100ec91906106a8565b60405180910390f35b61010f600480360381019061010a9190610660565b6102cf565b60405161011c91906106a8565b60405180910390f35b61013f600480360381019061013a9190610660565b610332565b60405161014c9190610742565b60405180910390f35b61016f600480360381019061016a9190610660565b6103e9565b005b61018b60048036038101906101869190610660565b61043a565b6040516101989190610773565b60405180910390f35b6101a9610468565b6040516101b69190610773565b60405180910390f35b60006040518060600160405280848152602001838152602001600160028111156101ec576101eb61078e565b5b8152509080600181540180825580915050600190039060005260206000209060030201600090919091909150600082015181600001908161022d91906109c9565b506020820151816001015560408201518160020160006101000a81548160ff021916908360028111156102635761026261078e565b5b021790555050505050565b60016000828154811061028457610283610a9b565b5b906000526020600020906003020160020160006101000a81548160ff021916908360028111156102b7576102b661078e565b5b021790555050565b6000808054905082109050919050565b6000600160028111156102e5576102e461078e565b5b600083815481106102f9576102f8610a9b565b5b906000526020600020906003020160020160009054906101000a900460ff16600281111561032a5761032961078e565b5b149050919050565b60606000828154811061034857610347610a9b565b5b90600052602060002090600302016000018054610364906107ec565b80601f0160208091040260200160405190810160405280929190818152602001828054610390906107ec565b80156103dd5780601f106103b2576101008083540402835291602001916103dd565b820191906000526020600020905b8154815290600101906020018083116103c057829003601f168201915b50505050509050919050565b6002600082815481106103ff576103fe610a9b565b5b906000526020600020906003020160020160006101000a81548160ff021916908360028111156104325761043161078e565b5b021790555050565b600080828154811061044f5761044e610a9b565b5b9060005260206000209060030201600101549050919050565b60008080549050905090565b6000604051905090565b600080fd5b600080fd5b600080fd5b600080fd5b6000601f19601f8301169050919050565b7f4e487b7100000000000000000000000000000000000000000000000000000000600052604160045260246000fd5b6104db82610492565b810181811067ffffffffffffffff821117156104fa576104f96104a3565b5b80604052505050565b600061050d610474565b905061051982826104d2565b919050565b600067ffffffffffffffff821115610539576105386104a3565b5b61054282610492565b9050602081019050919050565b82818337600083830152505050565b600061057161056c8461051e565b610503565b90508281526020810184848401111561058d5761058c61048d565b5b61059884828561054f565b509392505050565b600082601f8301126105b5576105b4610488565b5b81356105c584826020860161055e565b91505092915050565b6000819050919050565b6105e1816105ce565b81146105ec57600080fd5b50565b6000813590506105fe816105d8565b92915050565b6000806040838503121561061b5761061a61047e565b5b600083013567ffffffffffffffff81111561063957610638610483565b5b610645858286016105a0565b9250506020610656858286016105ef565b9150509250929050565b6000602082840312156106765761067561047e565b5b6000610684848285016105ef565b91505092915050565b60008115159050919050565b6106a28161068d565b82525050565b60006020820190506106bd6000830184610699565b92915050565b600081519050919050565b600082825260208201905092915050565b60005b838110156106fd5780820151818401526020810190506106e2565b60008484015250505050565b6000610714826106c3565b61071e81856106ce565b935061072e8185602086016106df565b61073781610492565b840191505092915050565b6000602082019050818103600083015261075c8184610709565b905092915050565b61076d816105ce565b82525050565b60006020820190506107886000830184610764565b92915050565b7f4e487b7100000000000000000000000000000000000000000000000000000000600052602160045260246000fd5b7f4e487b7100000000000000000000000000000000000000000000000000000000600052602260045260246000fd5b6000600282049050600182168061080457607f821691505b602082108103610817576108166107bd565b5b50919050565b60008190508160005260206000209050919050565b60006020601f8301049050919050565b600082821b905092915050565b60006008830261087f7fffffffffffffffffffffffffffffffffffffffffffffffffffffffffffffffff82610842565b6108898683610842565b95508019841693508086168417925050509392505050565b6000819050919050565b60006108c66108c16108bc846105ce565b6108a1565b6105ce565b9050919050565b6000819050919050565b6108e0836108ab565b6108f46108ec826108cd565b84845461084f565b825550505050565b600090565b6109096108fc565b6109148184846108d7565b505050565b5b818110156109385761092d600082610901565b60018101905061091a565b5050565b601f82111561097d5761094e8161081d565b61095784610832565b81016020851015610966578190505b61097a61097285610832565b830182610919565b50505b505050565b600082821c905092915050565b60006109a060001984600802610982565b1980831691505092915050565b60006109b9838361098f565b9150826002028217905092915050565b6109d2826106c3565b67ffffffffffffffff8111156109eb576109ea6104a3565b5b6109f582546107ec565b610a0082828561093c565b600060209050601f831160018114610a335760008415610a21578287015190505b610a2b85826109ad565b865550610a93565b601f198416610a418661081d565b60005b82811015610a6957848901518255600182019150602085019450602081019050610a44565b86831015610a865784890151610a82601f89168261098f565b8355505b6001600288020188555050505b505050505050565b7f4e487b7100000000000000000000000000000000000000000000000000000000600052603260045260246000fdfea264697066735822122026c88b08b6406c86a2f77f8f9be90f2ac503d41579c04562876ae2c7e36e6fc264736f6c63430008110033608060405234801561001057600080fd5b506109c2806100206000396000f3fe608060405234801561001057600080fd5b50600436106100935760003560e01c806378ec04d91161006657806378ec04d914610132578063929ff95314610162578063b61cb6af1461017e578063cb32db72146101ae578063e4cc4e45146101de57610093565b8063064eac8a146100985780630daae746146100b4578063454322b8146100e45780634b47d82714610102575b600080fd5b6100b260048036038101906100ad919061067c565b61020e565b005b6100ce60048036038101906100c9919061067c565b61025f565b6040516100db91906106b8565b60405180910390f35b6100ec61028d565b6040516100f991906106b8565b60405180910390f35b61011c6004803603810190610117919061067c565b610299565b60405161012991906106ee565b60405180910390f35b61014c6004803603810190610147919061067c565b6102a9565b60405161015991906106b8565b60405180910390f35b61017c60048036038101906101779190610767565b6102d7565b005b6101986004803603810190610193919061067c565b610442565b6040516101a591906106ee565b60405180910390f35b6101c860048036038101906101c3919061067c565b6104a4565b6040516101d591906106b8565b60405180910390f35b6101f860048036038101906101f391906107ba565b6104d2565b604051610205919061089c565b60405180910390f35b600260008281548110610224576102236108b7565b5b906000526020600020906004020160030160146101000a81548160ff02191690836002811115610257576102566108e6565b5b021790555050565b6000808281548110610274576102736108b7565b5b9060005260206000209060040201600001549050919050565b60008080549050905090565b6000808054905082109050919050565b60008082815481106102be576102bd6108b7565b5b9060005260206000209060040201600001549050919050565b60006040518060a001604052808481526020018381526020018573ffffffffffffffffffffffffffffffffffffffff168152602001600073ffffffffffffffffffffffffffffffffffffffff1681526020016001600281111561033d5761033c6108e6565b5b8152509080600181540180825580915050600190039060005260206000209060040201600090919091909150600082015181600001556020820151816001015560408201518160020160006101000a81548173ffffffffffffffffffffffffffffffffffffffff021916908373ffffffffffffffffffffffffffffffffffffffff16021790555060608201518160030160006101000a81548173ffffffffffffffffffffffffffffffffffffffff021916908373ffffffffffffffffffffffffffffffffffffffff16021790555060808201518160030160146101000a81548160ff02191690836002811115610436576104356108e6565b5b02179055505050505050565b6000600280811115610457576104566108e6565b5b6000838154811061046b5761046a6108b7565b5b906000526020600020906004020160030160149054906101000a900460ff16600281111561049c5761049b6108e6565b5b149050919050565b60008082815481106104b9576104b86108b7565b5b9060005260206000209060040201600101549050919050565b6104da61061f565b6000806000808054905090506000600590506104f461061f565b5b828410801561050357508185105b156105bb578673ffffffffffffffffffffffffffffffffffffffff1660008581548110610533576105326108b7565b5b906000526020600020906004020160020160009054906101000a900473ffffffffffffffffffffffffffffffffffffffff1673ffffffffffffffffffffffffffffffffffffffff16036105aa578381868061058d90610944565b9750600581106105a05761059f6108b7565b5b6020020181815250505b836105b490610944565b93506104f5565b5b81851015610612577fffffffffffffffffffffffffffffffffffffffffffffffffffffffffffffffff8186600581106105f8576105f76108b7565b5b6020020181815250508461060b90610944565b94506105bc565b8095505050505050919050565b6040518060a00160405280600590602082028036833780820191505090505090565b600080fd5b6000819050919050565b61065981610646565b811461066457600080fd5b50565b60008135905061067681610650565b92915050565b60006020828403121561069257610691610641565b5b60006106a084828501610667565b91505092915050565b6106b281610646565b82525050565b60006020820190506106cd60008301846106a9565b92915050565b60008115159050919050565b6106e8816106d3565b82525050565b600060208201905061070360008301846106df565b92915050565b600073ffffffffffffffffffffffffffffffffffffffff82169050919050565b600061073482610709565b9050919050565b61074481610729565b811461074f57600080fd5b50565b6000813590506107618161073b565b92915050565b6000806000606084860312156107805761077f610641565b5b600061078e86828701610752565b935050602061079f86828701610667565b92505060406107b086828701610667565b9150509250925092565b6000602082840312156107d0576107cf610641565b5b60006107de84828501610752565b91505092915050565b600060059050919050565b600081905092915050565b6000819050919050565b6000819050919050565b61081a81610807565b82525050565b600061082c8383610811565b60208301905092915050565b6000602082019050919050565b61084e816107e7565b61085881846107f2565b9250610863826107fd565b8060005b8381101561089457815161087b8782610820565b965061088683610838565b925050600181019050610867565b505050505050565b600060a0820190506108b16000830184610845565b92915050565b7f4e487b7100000000000000000000000000000000000000000000000000000000600052603260045260246000fd5b7f4e487b7100000000000000000000000000000000000000000000000000000000600052602160045260246000fd5b7f4e487b7100000000000000000000000000000000000000000000000000000000600052601160045260246000fd5b600061094f82610646565b91507fffffffffffffffffffffffffffffffffffffffffffffffffffffffffffffffff820361098157610980610915565b5b60018201905091905056fea2646970667358221220cf230cb7c39038dd16df35b49a0a433bc78a895f06bc36a0b906767d0e8df29664736f6c63430008110033",
  "immutableReferences": {},
  "source": "pragma solidity ^0.8.13;\r\n\r\nimport \"./WorkerManager.sol\";\r\nimport \"./ClientManager.sol\";\r\nimport \"./ServiceManager.sol\";\r\nimport \"./AppointmentManager.sol\";\r\n\r\ncontract MassageRoom {\r\n    address deployer;\r\n\r\n    WorkerManager workerManager;\r\n    ClientManager clientManager;\r\n    ServiceManager serviceManager;\r\n    AppointmentManager appointmentManager;\r\n\r\n    constructor() {\r\n        deployer = msg.sender;\r\n\r\n        workerManager = new WorkerManager();\r\n        clientManager = new ClientManager();\r\n        serviceManager = new ServiceManager();\r\n        appointmentManager = new AppointmentManager();\r\n    }\r\n\r\n    //* Modifiers//\r\n\r\n    modifier _canApproveWorkerRegistrationRequests() {\r\n        require(\r\n            msg.sender == deployer,\r\n            \"Only deployer can approve worker registration requests\"\r\n        );\r\n        _;\r\n    }\r\n\r\n    modifier _canChangeWorkerStatus(address targetWorker) {\r\n        require(\r\n            msg.sender == deployer || msg.sender == targetWorker,\r\n            \"Only deployer can approve worker registration requests\"\r\n        );\r\n        _;\r\n    }\r\n\r\n    modifier _hasWorker(address targetWorker) {\r\n        require(workerManager.isWorkerHere(targetWorker), \"Worker isn't here\");\r\n        _;\r\n    }\r\n\r\n    modifier _hasWorkerRequest(address targetWorker) {\r\n        require(\r\n            workerManager.isRequestHere(targetWorker),\r\n            \"Request isn't here\"\r\n        );\r\n        _;\r\n    }\r\n\r\n    modifier _hasClient(address targetClient) {\r\n        require(clientManager.isClientHere(targetClient), \"Client isn't here\");\r\n        _;\r\n    }\r\n\r\n    modifier _canCreateServices() {\r\n        require(msg.sender == deployer, \"Only admin can create services\");\r\n        _;\r\n    }\r\n\r\n    modifier _canChangeServiceStatus() {\r\n        require(msg.sender == deployer, \"Only admin can change service status\");\r\n        _;\r\n    }\r\n\r\n    modifier _hasService(uint256 i) {\r\n        require(serviceManager.hasService(i), \"Service doesn't exist\");\r\n        _;\r\n    }\r\n\r\n    modifier _hasUnapprovedAppointment(uint256 i) {\r\n        require(\r\n            appointmentManager.isAppointmentApproved(i) == false,\r\n            \"Don't have an unapproved appointment\"\r\n        );\r\n        _;\r\n    }\r\n\r\n    modifier _hasAppointment(uint256 i) {\r\n        require(\r\n            appointmentManager.hasAppointment(i),\r\n            \"Don't have an appointment\"\r\n        );\r\n        _;\r\n    }\r\n\r\n    //* ~Modifiers//\r\n\r\n    function getTestValue() external pure returns (uint256) {\r\n        return 3;\r\n    }\r\n\r\n    function isAdmin() external view returns (bool) {\r\n        return msg.sender == deployer;\r\n    }\r\n\r\n    //* Workers//\r\n    function askToRegisterAsWorker(string memory name) external {\r\n        workerManager.putRequestToRegister(msg.sender, name);\r\n    }\r\n\r\n    function approveWorkerRegistrationRequest(address workerAddr)\r\n        external\r\n        _canApproveWorkerRegistrationRequests\r\n    {\r\n        workerManager.approveRequest(workerAddr);\r\n    }\r\n\r\n    function haveIAskedToBeAWorker() external view returns (bool) {\r\n        return workerManager.isRequestHere(msg.sender);\r\n    }\r\n\r\n    function isAWorker(address addr) external view returns (bool) {\r\n        return workerManager.isWorkerHere(addr);\r\n    }\r\n\r\n    function isWorkerAvailable(address workerAddr)\r\n        external\r\n        view\r\n        returns (bool)\r\n    {\r\n        return workerManager.isWorkerAvailable(workerAddr);\r\n    }\r\n\r\n    function setWorkerAsUnavailable(address workerAddr)\r\n        external\r\n        _canChangeWorkerStatus(workerAddr)\r\n        _hasWorker(workerAddr)\r\n    {\r\n        workerManager.setWorkerAsUnavailable(workerAddr);\r\n    }\r\n\r\n    function setWorkerAsAvailable(address workerAddr)\r\n        external\r\n        _canChangeWorkerStatus(workerAddr)\r\n        _hasWorker(workerAddr)\r\n    {\r\n        workerManager.setWorkerAsAvailable(workerAddr);\r\n    }\r\n\r\n    //* ~Workers//\r\n\r\n    //* Clients//\r\n    function registerAsClient(string memory name) external {\r\n        clientManager.registerClient(msg.sender, name);\r\n    }\r\n\r\n    function isAClient(address addr) external view returns (bool) {\r\n        return clientManager.isClientHere(addr);\r\n    }\r\n\r\n    //* ~Clients//\r\n\r\n    //* Services//\r\n    function createService(string memory name, uint256 price)\r\n        external\r\n        _canCreateServices\r\n    {\r\n        serviceManager.createService(name, price);\r\n    }\r\n\r\n    function getServicesLength() external view returns (uint256) {\r\n        return serviceManager.getServicesLength();\r\n    }\r\n\r\n    function getServiceName(uint256 i)\r\n        external\r\n        view\r\n        _hasService(i)\r\n        returns (string memory)\r\n    {\r\n        return serviceManager.getServiceName(i);\r\n    }\r\n\r\n    function getServicePrice(uint256 i)\r\n        external\r\n        view\r\n        _hasService(i)\r\n        returns (uint256)\r\n    {\r\n        return serviceManager.getServicePrice(i);\r\n    }\r\n\r\n    function setServiceAsUnavailable(uint256 i)\r\n        external\r\n        _canChangeServiceStatus\r\n        _hasService(i)\r\n    {\r\n        serviceManager.setServiceAsUnavailable(i);\r\n    }\r\n\r\n    function setServiceAsAvailable(uint256 i)\r\n        external\r\n        _canChangeServiceStatus\r\n        _hasService(i)\r\n    {\r\n        serviceManager.setServiceAsAvailable(i);\r\n    }\r\n\r\n    function isServiceAvailable(uint256 i)\r\n        external\r\n        view\r\n        _hasService(i)\r\n        returns (bool)\r\n    {\r\n        return serviceManager.isServiceAvailable(i);\r\n    }\r\n\r\n    //* ~Clients//\r\n\r\n    //* Appointments//\r\n    function requestAppointment(uint256 serviceI, uint256 time)\r\n        external\r\n        payable\r\n        _hasClient(msg.sender)\r\n        _hasService(serviceI)\r\n    {\r\n        require(\r\n            msg.value == serviceManager.getServicePrice(serviceI),\r\n            \"Wrong value for service\"\r\n        );\r\n\r\n        require(block.timestamp < time, \"Wrong time\");\r\n\r\n        appointmentManager.requestAppointment(msg.sender, serviceI, time);\r\n    }\r\n\r\n    function isAppointmentApproved(uint256 i)\r\n        external\r\n        view\r\n        _hasAppointment(i)\r\n        returns (bool)\r\n    {\r\n        return appointmentManager.isAppointmentApproved(i);\r\n    }\r\n\r\n    function approveAppointment(uint256 i)\r\n        external\r\n        payable\r\n        _hasWorker(msg.sender)\r\n        _hasAppointment(i)\r\n        _hasUnapprovedAppointment(i)\r\n    {\r\n        require(\r\n            workerManager.isWorkerAvailable(msg.sender),\r\n            \"You are unavailable\"\r\n        );\r\n        appointmentManager.approveAppointment(i);\r\n        uint256 serviceI = appointmentManager.getServiceIndex(i);\r\n        uint256 servicePrice = serviceManager.getServicePrice(serviceI);\r\n        payable(msg.sender).transfer(servicePrice);\r\n    }\r\n\r\n    function getClientAppointments(address client)\r\n        external\r\n        view\r\n        returns (int256[5] memory)\r\n    {\r\n        return appointmentManager.getClientAppointments(client);\r\n    }\r\n\r\n    function getAppointmentService(uint256 i)\r\n        external\r\n        view\r\n        _hasAppointment(i)\r\n        returns (uint256)\r\n    {\r\n        return appointmentManager.getAppointmentService(i);\r\n    }\r\n\r\n    function getAppointmentTime(uint256 i)\r\n        external\r\n        view\r\n        _hasAppointment(i)\r\n        returns (uint256)\r\n    {\r\n        return appointmentManager.getAppointmentTime(i);\r\n    }\r\n    //* ~Appointments//\r\n}\r\n",
  "sourcePath": "/home/seva/Projects/uni-eth-practice/contracts/MassageRoom.sol",
  "compiler": {
    "name": "solc",
    "version": "0.8.17+commit.8df45f5f.Emscripten.clang"
  },
  "schemaVersion": "3.4.11",
  "updatedAt": "2022-12-09T08:45:24.810Z",
  "networkType": "ethereum",
  "devdoc": {
    "kind": "dev",
    "methods": {},
    "version": 1
  },
  "userdoc": {
    "kind": "user",
    "methods": {},
    "version": 1
  }
}