{
  "contractName": "MassageRoom",
  "abi": [
    {
      "inputs": [],
      "stateMutability": "nonpayable",
      "type": "constructor"
    },
    {
      "inputs": [],
      "name": "getTestValue",
      "outputs": [
        {
          "internalType": "uint256",
          "name": "",
          "type": "uint256"
        }
      ],
      "stateMutability": "pure",
      "type": "function",
      "constant": true
    },
    {
      "inputs": [],
      "name": "isAdmin",
      "outputs": [
        {
          "internalType": "bool",
          "name": "",
          "type": "bool"
        }
      ],
      "stateMutability": "view",
      "type": "function",
      "constant": true
    },
    {
      "inputs": [
        {
          "internalType": "string",
          "name": "name",
          "type": "string"
        }
      ],
      "name": "askToRegisterAsWorker",
      "outputs": [],
      "stateMutability": "nonpayable",
      "type": "function"
    },
    {
      "inputs": [
        {
          "internalType": "address",
          "name": "workerAddr",
          "type": "address"
        }
      ],
      "name": "approveWorkerRegistrationRequest",
      "outputs": [],
      "stateMutability": "nonpayable",
      "type": "function"
    },
    {
      "inputs": [
        {
          "internalType": "address",
          "name": "addr",
          "type": "address"
        }
      ],
      "name": "isWorkerRequestHere",
      "outputs": [
        {
          "internalType": "bool",
          "name": "",
          "type": "bool"
        }
      ],
      "stateMutability": "view",
      "type": "function",
      "constant": true
    },
    {
      "inputs": [
        {
          "internalType": "address",
          "name": "addr",
          "type": "address"
        }
      ],
      "name": "isAWorker",
      "outputs": [
        {
          "internalType": "bool",
          "name": "",
          "type": "bool"
        }
      ],
      "stateMutability": "view",
      "type": "function",
      "constant": true
    },
    {
      "inputs": [
        {
          "internalType": "address",
          "name": "addr",
          "type": "address"
        }
      ],
      "name": "getWorkerName",
      "outputs": [
        {
          "internalType": "string",
          "name": "",
          "type": "string"
        }
      ],
      "stateMutability": "view",
      "type": "function",
      "constant": true
    },
    {
      "inputs": [
        {
          "internalType": "address",
          "name": "workerAddr",
          "type": "address"
        }
      ],
      "name": "isWorkerAvailable",
      "outputs": [
        {
          "internalType": "bool",
          "name": "",
          "type": "bool"
        }
      ],
      "stateMutability": "view",
      "type": "function",
      "constant": true
    },
    {
      "inputs": [
        {
          "internalType": "address",
          "name": "workerAddr",
          "type": "address"
        }
      ],
      "name": "setWorkerAsUnavailable",
      "outputs": [],
      "stateMutability": "nonpayable",
      "type": "function"
    },
    {
      "inputs": [
        {
          "internalType": "address",
          "name": "workerAddr",
          "type": "address"
        }
      ],
      "name": "setWorkerAsAvailable",
      "outputs": [],
      "stateMutability": "nonpayable",
      "type": "function"
    },
    {
      "inputs": [
        {
          "internalType": "string",
          "name": "name",
          "type": "string"
        }
      ],
      "name": "registerAsClient",
      "outputs": [],
      "stateMutability": "nonpayable",
      "type": "function"
    },
    {
      "inputs": [
        {
          "internalType": "address",
          "name": "addr",
          "type": "address"
        }
      ],
      "name": "isAClient",
      "outputs": [
        {
          "internalType": "bool",
          "name": "",
          "type": "bool"
        }
      ],
      "stateMutability": "view",
      "type": "function",
      "constant": true
    },
    {
      "inputs": [
        {
          "internalType": "string",
          "name": "name",
          "type": "string"
        },
        {
          "internalType": "uint256",
          "name": "price",
          "type": "uint256"
        }
      ],
      "name": "createService",
      "outputs": [],
      "stateMutability": "nonpayable",
      "type": "function"
    },
    {
      "inputs": [],
      "name": "getServicesLength",
      "outputs": [
        {
          "internalType": "uint256",
          "name": "",
          "type": "uint256"
        }
      ],
      "stateMutability": "view",
      "type": "function",
      "constant": true
    },
    {
      "inputs": [
        {
          "internalType": "uint256",
          "name": "i",
          "type": "uint256"
        }
      ],
      "name": "getServiceName",
      "outputs": [
        {
          "internalType": "string",
          "name": "",
          "type": "string"
        }
      ],
      "stateMutability": "view",
      "type": "function",
      "constant": true
    },
    {
      "inputs": [
        {
          "internalType": "uint256",
          "name": "i",
          "type": "uint256"
        }
      ],
      "name": "getServicePrice",
      "outputs": [
        {
          "internalType": "uint256",
          "name": "",
          "type": "uint256"
        }
      ],
      "stateMutability": "view",
      "type": "function",
      "constant": true
    },
    {
      "inputs": [
        {
          "internalType": "uint256",
          "name": "i",
          "type": "uint256"
        }
      ],
      "name": "setServiceAsUnavailable",
      "outputs": [],
      "stateMutability": "nonpayable",
      "type": "function"
    },
    {
      "inputs": [
        {
          "internalType": "uint256",
          "name": "i",
          "type": "uint256"
        }
      ],
      "name": "setServiceAsAvailable",
      "outputs": [],
      "stateMutability": "nonpayable",
      "type": "function"
    },
    {
      "inputs": [
        {
          "internalType": "uint256",
          "name": "i",
          "type": "uint256"
        }
      ],
      "name": "isServiceAvailable",
      "outputs": [
        {
          "internalType": "bool",
          "name": "",
          "type": "bool"
        }
      ],
      "stateMutability": "view",
      "type": "function",
      "constant": true
    },
    {
      "inputs": [
        {
          "internalType": "uint256",
          "name": "serviceI",
          "type": "uint256"
        },
        {
          "internalType": "uint256",
          "name": "time",
          "type": "uint256"
        }
      ],
      "name": "requestAppointment",
      "outputs": [],
      "stateMutability": "payable",
      "type": "function",
      "payable": true
    },
    {
      "inputs": [
        {
          "internalType": "uint256",
          "name": "i",
          "type": "uint256"
        }
      ],
      "name": "isAppointmentApproved",
      "outputs": [
        {
          "internalType": "bool",
          "name": "",
          "type": "bool"
        }
      ],
      "stateMutability": "view",
      "type": "function",
      "constant": true
    },
    {
      "inputs": [
        {
          "internalType": "uint256",
          "name": "i",
          "type": "uint256"
        }
      ],
      "name": "approveAppointment",
      "outputs": [],
      "stateMutability": "payable",
      "type": "function",
      "payable": true
    },
    {
      "inputs": [
        {
          "internalType": "address",
          "name": "client",
          "type": "address"
        }
      ],
      "name": "getClientAppointments",
      "outputs": [
        {
          "internalType": "int256[5]",
          "name": "",
          "type": "int256[5]"
        }
      ],
      "stateMutability": "view",
      "type": "function",
      "constant": true
    },
    {
      "inputs": [
        {
          "internalType": "uint256",
          "name": "serviceI",
          "type": "uint256"
        }
      ],
      "name": "getUnapprovedAppointments",
      "outputs": [
        {
          "internalType": "int256[5]",
          "name": "",
          "type": "int256[5]"
        }
      ],
      "stateMutability": "view",
      "type": "function",
      "constant": true
    },
    {
      "inputs": [
        {
          "internalType": "uint256",
          "name": "i",
          "type": "uint256"
        }
      ],
      "name": "getAppointmentService",
      "outputs": [
        {
          "internalType": "uint256",
          "name": "",
          "type": "uint256"
        }
      ],
      "stateMutability": "view",
      "type": "function",
      "constant": true
    },
    {
      "inputs": [
        {
          "internalType": "uint256",
          "name": "i",
          "type": "uint256"
        }
      ],
      "name": "getAppointmentTime",
      "outputs": [
        {
          "internalType": "uint256",
          "name": "",
          "type": "uint256"
        }
      ],
      "stateMutability": "view",
      "type": "function",
      "constant": true
    }
  ],
  "bytecode": "0x60806040523480156200001157600080fd5b50336000806101000a81548173ffffffffffffffffffffffffffffffffffffffff021916908373ffffffffffffffffffffffffffffffffffffffff160217905550604051620000609062000208565b604051809103906000f0801580156200007d573d6000803e3d6000fd5b50600160006101000a81548173ffffffffffffffffffffffffffffffffffffffff021916908373ffffffffffffffffffffffffffffffffffffffff160217905550604051620000cc9062000216565b604051809103906000f080158015620000e9573d6000803e3d6000fd5b50600260006101000a81548173ffffffffffffffffffffffffffffffffffffffff021916908373ffffffffffffffffffffffffffffffffffffffff160217905550604051620001389062000224565b604051809103906000f08015801562000155573d6000803e3d6000fd5b50600360006101000a81548173ffffffffffffffffffffffffffffffffffffffff021916908373ffffffffffffffffffffffffffffffffffffffff160217905550604051620001a49062000232565b604051809103906000f080158015620001c1573d6000803e3d6000fd5b50600460006101000a81548173ffffffffffffffffffffffffffffffffffffffff021916908373ffffffffffffffffffffffffffffffffffffffff16021790555062000240565b610e0c8062003ab983390190565b61073280620048c583390190565b610b208062004ff783390190565b610b818062005b1783390190565b61386980620002506000396000f3fe6080604052600436106101815760003560e01c8063953058f8116100d1578063b98389b11161008a578063cb32db7211610064578063cb32db72146105c0578063cd516c4d146105fd578063e4cc4e4514610626578063e53a6ec31461066357610181565b8063b98389b11461052f578063c03f9b4414610558578063c573d8a21461059557610181565b8063953058f8146103f9578063a420e5d214610436578063a840260214610461578063b5a7314b1461048a578063b61cb6af146104c7578063b6db75a01461050457610181565b80634470cadc1161013e5780636b0ae1eb116101185780636b0ae1eb14610305578063740d8702146103425780637c7ba0d41461037f5780638a2c6b51146103bc57610181565b80634470cadc146102975780634a69d93d146102b35780634cc0862d146102dc57610181565b80630405df8814610186578063064eac8a146101af5780630daae746146101cb5780631cf82bd2146102085780632de03b6b146102315780632ebda60b1461026e575b600080fd5b34801561019257600080fd5b506101ad60048036038101906101a89190612b6d565b6106a0565b005b6101c960048036038101906101c49190612bd0565b6108d3565b005b3480156101d757600080fd5b506101f260048036038101906101ed9190612bd0565b610e65565b6040516101ff9190612c0c565b60405180910390f35b34801561021457600080fd5b5061022f600480360381019061022a9190612d6d565b610fe7565b005b34801561023d57600080fd5b5061025860048036038101906102539190612b6d565b611108565b6040516102659190612de4565b60405180910390f35b34801561027a57600080fd5b5061029560048036038101906102909190612dff565b6111ad565b005b6102b160048036038101906102ac9190612e48565b61123f565b005b3480156102bf57600080fd5b506102da60048036038101906102d59190612b6d565b6115ad565b005b3480156102e857600080fd5b5061030360048036038101906102fe9190612bd0565b6117e0565b005b34801561031157600080fd5b5061032c60048036038101906103279190612b6d565b6119db565b6040516103399190612de4565b60405180910390f35b34801561034e57600080fd5b5061036960048036038101906103649190612b6d565b611a80565b6040516103769190612de4565b60405180910390f35b34801561038b57600080fd5b506103a660048036038101906103a19190612bd0565b611b25565b6040516103b39190612f3d565b60405180910390f35b3480156103c857600080fd5b506103e360048036038101906103de9190612bd0565b611bd0565b6040516103f09190612de4565b60405180910390f35b34801561040557600080fd5b50610420600480360381019061041b9190612bd0565b611d52565b60405161042d9190612fd7565b60405180910390f35b34801561044257600080fd5b5061044b611ed9565b6040516104589190612c0c565b60405180910390f35b34801561046d57600080fd5b5061048860048036038101906104839190612bd0565b611ee2565b005b34801561049657600080fd5b506104b160048036038101906104ac9190612b6d565b6120dd565b6040516104be9190612de4565b60405180910390f35b3480156104d357600080fd5b506104ee60048036038101906104e99190612bd0565b612182565b6040516104fb9190612de4565b60405180910390f35b34801561051057600080fd5b50610519612304565b6040516105269190612de4565b60405180910390f35b34801561053b57600080fd5b5061055660048036038101906105519190612dff565b61235b565b005b34801561056457600080fd5b5061057f600480360381019061057a9190612bd0565b6123ed565b60405161058c9190612c0c565b60405180910390f35b3480156105a157600080fd5b506105aa61256f565b6040516105b79190612c0c565b60405180910390f35b3480156105cc57600080fd5b506105e760048036038101906105e29190612bd0565b612607565b6040516105f49190612c0c565b60405180910390f35b34801561060957600080fd5b50610624600480360381019061061f9190612b6d565b612789565b005b34801561063257600080fd5b5061064d60048036038101906106489190612b6d565b6128a7565b60405161065a9190612f3d565b60405180910390f35b34801561066f57600080fd5b5061068a60048036038101906106859190612b6d565b612952565b6040516106979190612fd7565b60405180910390f35b8060008054906101000a900473ffffffffffffffffffffffffffffffffffffffff1673ffffffffffffffffffffffffffffffffffffffff163373ffffffffffffffffffffffffffffffffffffffff16148061072657508073ffffffffffffffffffffffffffffffffffffffff163373ffffffffffffffffffffffffffffffffffffffff16145b610765576040517f08c379a000000000000000000000000000000000000000000000000000000000815260040161075c9061306b565b60405180910390fd5b81600160009054906101000a900473ffffffffffffffffffffffffffffffffffffffff1673ffffffffffffffffffffffffffffffffffffffff166312c61114826040518263ffffffff1660e01b81526004016107c1919061309a565b602060405180830381865afa1580156107de573d6000803e3d6000fd5b505050506040513d601f19601f8201168201806040525081019061080291906130e1565b610841576040517f08c379a00000000000000000000000000000000000000000000000000000000081526004016108389061315a565b60405180910390fd5b600160009054906101000a900473ffffffffffffffffffffffffffffffffffffffff1673ffffffffffffffffffffffffffffffffffffffff16630405df88846040518263ffffffff1660e01b815260040161089c919061309a565b600060405180830381600087803b1580156108b657600080fd5b505af11580156108ca573d6000803e3d6000fd5b50505050505050565b33600160009054906101000a900473ffffffffffffffffffffffffffffffffffffffff1673ffffffffffffffffffffffffffffffffffffffff166312c61114826040518263ffffffff1660e01b815260040161092f919061309a565b602060405180830381865afa15801561094c573d6000803e3d6000fd5b505050506040513d601f19601f8201168201806040525081019061097091906130e1565b6109af576040517f08c379a00000000000000000000000000000000000000000000000000000000081526004016109a69061315a565b60405180910390fd5b81600460009054906101000a900473ffffffffffffffffffffffffffffffffffffffff1673ffffffffffffffffffffffffffffffffffffffff16634b47d827826040518263ffffffff1660e01b8152600401610a0b9190612c0c565b602060405180830381865afa158015610a28573d6000803e3d6000fd5b505050506040513d601f19601f82011682018060405250810190610a4c91906130e1565b610a8b576040517f08c379a0000000000000000000000000000000000000000000000000000000008152600401610a82906131c6565b60405180910390fd5b8260001515600460009054906101000a900473ffffffffffffffffffffffffffffffffffffffff1673ffffffffffffffffffffffffffffffffffffffff1663b61cb6af836040518263ffffffff1660e01b8152600401610aeb9190612c0c565b602060405180830381865afa158015610b08573d6000803e3d6000fd5b505050506040513d601f19601f82011682018060405250810190610b2c91906130e1565b151514610b6e576040517f08c379a0000000000000000000000000000000000000000000000000000000008152600401610b6590613258565b60405180910390fd5b600160009054906101000a900473ffffffffffffffffffffffffffffffffffffffff1673ffffffffffffffffffffffffffffffffffffffff16632de03b6b336040518263ffffffff1660e01b8152600401610bc9919061309a565b602060405180830381865afa158015610be6573d6000803e3d6000fd5b505050506040513d601f19601f82011682018060405250810190610c0a91906130e1565b610c49576040517f08c379a0000000000000000000000000000000000000000000000000000000008152600401610c40906132c4565b60405180910390fd5b600460009054906101000a900473ffffffffffffffffffffffffffffffffffffffff1673ffffffffffffffffffffffffffffffffffffffff1663064eac8a856040518263ffffffff1660e01b8152600401610ca49190612c0c565b600060405180830381600087803b158015610cbe57600080fd5b505af1158015610cd2573d6000803e3d6000fd5b505050506000600460009054906101000a900473ffffffffffffffffffffffffffffffffffffffff1673ffffffffffffffffffffffffffffffffffffffff166378ec04d9866040518263ffffffff1660e01b8152600401610d339190612c0c565b602060405180830381865afa158015610d50573d6000803e3d6000fd5b505050506040513d601f19601f82011682018060405250810190610d7491906132f9565b90506000600360009054906101000a900473ffffffffffffffffffffffffffffffffffffffff1673ffffffffffffffffffffffffffffffffffffffff1663c03f9b44836040518263ffffffff1660e01b8152600401610dd39190612c0c565b602060405180830381865afa158015610df0573d6000803e3d6000fd5b505050506040513d601f19601f82011682018060405250810190610e1491906132f9565b90503373ffffffffffffffffffffffffffffffffffffffff166108fc829081150290604051600060405180830381858888f19350505050158015610e5c573d6000803e3d6000fd5b50505050505050565b600081600460009054906101000a900473ffffffffffffffffffffffffffffffffffffffff1673ffffffffffffffffffffffffffffffffffffffff16634b47d827826040518263ffffffff1660e01b8152600401610ec39190612c0c565b602060405180830381865afa158015610ee0573d6000803e3d6000fd5b505050506040513d601f19601f82011682018060405250810190610f0491906130e1565b610f43576040517f08c379a0000000000000000000000000000000000000000000000000000000008152600401610f3a906131c6565b60405180910390fd5b600460009054906101000a900473ffffffffffffffffffffffffffffffffffffffff1673ffffffffffffffffffffffffffffffffffffffff16630daae746846040518263ffffffff1660e01b8152600401610f9e9190612c0c565b602060405180830381865afa158015610fbb573d6000803e3d6000fd5b505050506040513d601f19601f82011682018060405250810190610fdf91906132f9565b915050919050565b60008054906101000a900473ffffffffffffffffffffffffffffffffffffffff1673ffffffffffffffffffffffffffffffffffffffff163373ffffffffffffffffffffffffffffffffffffffff1614611075576040517f08c379a000000000000000000000000000000000000000000000000000000000815260040161106c90613372565b60405180910390fd5b600360009054906101000a900473ffffffffffffffffffffffffffffffffffffffff1673ffffffffffffffffffffffffffffffffffffffff16631cf82bd283836040518363ffffffff1660e01b81526004016110d2929190613392565b600060405180830381600087803b1580156110ec57600080fd5b505af1158015611100573d6000803e3d6000fd5b505050505050565b6000600160009054906101000a900473ffffffffffffffffffffffffffffffffffffffff1673ffffffffffffffffffffffffffffffffffffffff16632de03b6b836040518263ffffffff1660e01b8152600401611165919061309a565b602060405180830381865afa158015611182573d6000803e3d6000fd5b505050506040513d601f19601f820116820180604052508101906111a691906130e1565b9050919050565b600160009054906101000a900473ffffffffffffffffffffffffffffffffffffffff1673ffffffffffffffffffffffffffffffffffffffff1663c011565b33836040518363ffffffff1660e01b815260040161120a9291906133c2565b600060405180830381600087803b15801561122457600080fd5b505af1158015611238573d6000803e3d6000fd5b5050505050565b33600260009054906101000a900473ffffffffffffffffffffffffffffffffffffffff1673ffffffffffffffffffffffffffffffffffffffff1663f0e734d4826040518263ffffffff1660e01b815260040161129b919061309a565b602060405180830381865afa1580156112b8573d6000803e3d6000fd5b505050506040513d601f19601f820116820180604052508101906112dc91906130e1565b61131b576040517f08c379a00000000000000000000000000000000000000000000000000000000081526004016113129061343e565b60405180910390fd5b82600360009054906101000a900473ffffffffffffffffffffffffffffffffffffffff1673ffffffffffffffffffffffffffffffffffffffff1663801d1697826040518263ffffffff1660e01b81526004016113779190612c0c565b602060405180830381865afa158015611394573d6000803e3d6000fd5b505050506040513d601f19601f820116820180604052508101906113b891906130e1565b6113f7576040517f08c379a00000000000000000000000000000000000000000000000000000000081526004016113ee906134aa565b60405180910390fd5b600360009054906101000a900473ffffffffffffffffffffffffffffffffffffffff1673ffffffffffffffffffffffffffffffffffffffff1663c03f9b44856040518263ffffffff1660e01b81526004016114529190612c0c565b602060405180830381865afa15801561146f573d6000803e3d6000fd5b505050506040513d601f19601f8201168201806040525081019061149391906132f9565b34146114d4576040517f08c379a00000000000000000000000000000000000000000000000000000000081526004016114cb90613516565b60405180910390fd5b824210611516576040517f08c379a000000000000000000000000000000000000000000000000000000000815260040161150d90613582565b60405180910390fd5b600460009054906101000a900473ffffffffffffffffffffffffffffffffffffffff1673ffffffffffffffffffffffffffffffffffffffff1663929ff9533386866040518463ffffffff1660e01b8152600401611575939291906135a2565b600060405180830381600087803b15801561158f57600080fd5b505af11580156115a3573d6000803e3d6000fd5b5050505050505050565b8060008054906101000a900473ffffffffffffffffffffffffffffffffffffffff1673ffffffffffffffffffffffffffffffffffffffff163373ffffffffffffffffffffffffffffffffffffffff16148061163357508073ffffffffffffffffffffffffffffffffffffffff163373ffffffffffffffffffffffffffffffffffffffff16145b611672576040517f08c379a00000000000000000000000000000000000000000000000000000000081526004016116699061306b565b60405180910390fd5b81600160009054906101000a900473ffffffffffffffffffffffffffffffffffffffff1673ffffffffffffffffffffffffffffffffffffffff166312c61114826040518263ffffffff1660e01b81526004016116ce919061309a565b602060405180830381865afa1580156116eb573d6000803e3d6000fd5b505050506040513d601f19601f8201168201806040525081019061170f91906130e1565b61174e576040517f08c379a00000000000000000000000000000000000000000000000000000000081526004016117459061315a565b60405180910390fd5b600160009054906101000a900473ffffffffffffffffffffffffffffffffffffffff1673ffffffffffffffffffffffffffffffffffffffff16634a69d93d846040518263ffffffff1660e01b81526004016117a9919061309a565b600060405180830381600087803b1580156117c357600080fd5b505af11580156117d7573d6000803e3d6000fd5b50505050505050565b60008054906101000a900473ffffffffffffffffffffffffffffffffffffffff1673ffffffffffffffffffffffffffffffffffffffff163373ffffffffffffffffffffffffffffffffffffffff161461186e576040517f08c379a00000000000000000000000000000000000000000000000000000000081526004016118659061364b565b60405180910390fd5b80600360009054906101000a900473ffffffffffffffffffffffffffffffffffffffff1673ffffffffffffffffffffffffffffffffffffffff1663801d1697826040518263ffffffff1660e01b81526004016118ca9190612c0c565b602060405180830381865afa1580156118e7573d6000803e3d6000fd5b505050506040513d601f19601f8201168201806040525081019061190b91906130e1565b61194a576040517f08c379a0000000000000000000000000000000000000000000000000000000008152600401611941906134aa565b60405180910390fd5b600360009054906101000a900473ffffffffffffffffffffffffffffffffffffffff1673ffffffffffffffffffffffffffffffffffffffff16634cc0862d836040518263ffffffff1660e01b81526004016119a59190612c0c565b600060405180830381600087803b1580156119bf57600080fd5b505af11580156119d3573d6000803e3d6000fd5b505050505050565b6000600260009054906101000a900473ffffffffffffffffffffffffffffffffffffffff1673ffffffffffffffffffffffffffffffffffffffff1663f0e734d4836040518263ffffffff1660e01b8152600401611a38919061309a565b602060405180830381865afa158015611a55573d6000803e3d6000fd5b505050506040513d601f19601f82011682018060405250810190611a7991906130e1565b9050919050565b6000600160009054906101000a900473ffffffffffffffffffffffffffffffffffffffff1673ffffffffffffffffffffffffffffffffffffffff166385d8fff0836040518263ffffffff1660e01b8152600401611add919061309a565b602060405180830381865afa158015611afa573d6000803e3d6000fd5b505050506040513d601f19601f82011682018060405250810190611b1e91906130e1565b9050919050565b611b2d612ad9565b600460009054906101000a900473ffffffffffffffffffffffffffffffffffffffff1673ffffffffffffffffffffffffffffffffffffffff16637c7ba0d4836040518263ffffffff1660e01b8152600401611b889190612c0c565b60a060405180830381865afa158015611ba5573d6000803e3d6000fd5b505050506040513d601f19601f82011682018060405250810190611bc9919061374d565b9050919050565b600081600360009054906101000a900473ffffffffffffffffffffffffffffffffffffffff1673ffffffffffffffffffffffffffffffffffffffff1663801d1697826040518263ffffffff1660e01b8152600401611c2e9190612c0c565b602060405180830381865afa158015611c4b573d6000803e3d6000fd5b505050506040513d601f19601f82011682018060405250810190611c6f91906130e1565b611cae576040517f08c379a0000000000000000000000000000000000000000000000000000000008152600401611ca5906134aa565b60405180910390fd5b600360009054906101000a900473ffffffffffffffffffffffffffffffffffffffff1673ffffffffffffffffffffffffffffffffffffffff16638a2c6b51846040518263ffffffff1660e01b8152600401611d099190612c0c565b602060405180830381865afa158015611d26573d6000803e3d6000fd5b505050506040513d601f19601f82011682018060405250810190611d4a91906130e1565b915050919050565b606081600360009054906101000a900473ffffffffffffffffffffffffffffffffffffffff1673ffffffffffffffffffffffffffffffffffffffff1663801d1697826040518263ffffffff1660e01b8152600401611db09190612c0c565b602060405180830381865afa158015611dcd573d6000803e3d6000fd5b505050506040513d601f19601f82011682018060405250810190611df191906130e1565b611e30576040517f08c379a0000000000000000000000000000000000000000000000000000000008152600401611e27906134aa565b60405180910390fd5b600360009054906101000a900473ffffffffffffffffffffffffffffffffffffffff1673ffffffffffffffffffffffffffffffffffffffff1663953058f8846040518263ffffffff1660e01b8152600401611e8b9190612c0c565b600060405180830381865afa158015611ea8573d6000803e3d6000fd5b505050506040513d6000823e3d601f19601f82011682018060405250810190611ed191906137ea565b915050919050565b60006003905090565b60008054906101000a900473ffffffffffffffffffffffffffffffffffffffff1673ffffffffffffffffffffffffffffffffffffffff163373ffffffffffffffffffffffffffffffffffffffff1614611f70576040517f08c379a0000000000000000000000000000000000000000000000000000000008152600401611f679061364b565b60405180910390fd5b80600360009054906101000a900473ffffffffffffffffffffffffffffffffffffffff1673ffffffffffffffffffffffffffffffffffffffff1663801d1697826040518263ffffffff1660e01b8152600401611fcc9190612c0c565b602060405180830381865afa158015611fe9573d6000803e3d6000fd5b505050506040513d601f19601f8201168201806040525081019061200d91906130e1565b61204c576040517f08c379a0000000000000000000000000000000000000000000000000000000008152600401612043906134aa565b60405180910390fd5b600360009054906101000a900473ffffffffffffffffffffffffffffffffffffffff1673ffffffffffffffffffffffffffffffffffffffff1663a8402602836040518263ffffffff1660e01b81526004016120a79190612c0c565b600060405180830381600087803b1580156120c157600080fd5b505af11580156120d5573d6000803e3d6000fd5b505050505050565b6000600160009054906101000a900473ffffffffffffffffffffffffffffffffffffffff1673ffffffffffffffffffffffffffffffffffffffff166312c61114836040518263ffffffff1660e01b815260040161213a919061309a565b602060405180830381865afa158015612157573d6000803e3d6000fd5b505050506040513d601f19601f8201168201806040525081019061217b91906130e1565b9050919050565b600081600460009054906101000a900473ffffffffffffffffffffffffffffffffffffffff1673ffffffffffffffffffffffffffffffffffffffff16634b47d827826040518263ffffffff1660e01b81526004016121e09190612c0c565b602060405180830381865afa1580156121fd573d6000803e3d6000fd5b505050506040513d601f19601f8201168201806040525081019061222191906130e1565b612260576040517f08c379a0000000000000000000000000000000000000000000000000000000008152600401612257906131c6565b60405180910390fd5b600460009054906101000a900473ffffffffffffffffffffffffffffffffffffffff1673ffffffffffffffffffffffffffffffffffffffff1663b61cb6af846040518263ffffffff1660e01b81526004016122bb9190612c0c565b602060405180830381865afa1580156122d8573d6000803e3d6000fd5b505050506040513d601f19601f820116820180604052508101906122fc91906130e1565b915050919050565b60008060009054906101000a900473ffffffffffffffffffffffffffffffffffffffff1673ffffffffffffffffffffffffffffffffffffffff163373ffffffffffffffffffffffffffffffffffffffff1614905090565b600260009054906101000a900473ffffffffffffffffffffffffffffffffffffffff1673ffffffffffffffffffffffffffffffffffffffff1663f2fef58b33836040518363ffffffff1660e01b81526004016123b89291906133c2565b600060405180830381600087803b1580156123d257600080fd5b505af11580156123e6573d6000803e3d6000fd5b5050505050565b600081600360009054906101000a900473ffffffffffffffffffffffffffffffffffffffff1673ffffffffffffffffffffffffffffffffffffffff1663801d1697826040518263ffffffff1660e01b815260040161244b9190612c0c565b602060405180830381865afa158015612468573d6000803e3d6000fd5b505050506040513d601f19601f8201168201806040525081019061248c91906130e1565b6124cb576040517f08c379a00000000000000000000000000000000000000000000000000000000081526004016124c2906134aa565b60405180910390fd5b600360009054906101000a900473ffffffffffffffffffffffffffffffffffffffff1673ffffffffffffffffffffffffffffffffffffffff1663c03f9b44846040518263ffffffff1660e01b81526004016125269190612c0c565b602060405180830381865afa158015612543573d6000803e3d6000fd5b505050506040513d601f19601f8201168201806040525081019061256791906132f9565b915050919050565b6000600360009054906101000a900473ffffffffffffffffffffffffffffffffffffffff1673ffffffffffffffffffffffffffffffffffffffff1663c573d8a26040518163ffffffff1660e01b8152600401602060405180830381865afa1580156125de573d6000803e3d6000fd5b505050506040513d601f19601f8201168201806040525081019061260291906132f9565b905090565b600081600460009054906101000a900473ffffffffffffffffffffffffffffffffffffffff1673ffffffffffffffffffffffffffffffffffffffff16634b47d827826040518263ffffffff1660e01b81526004016126659190612c0c565b602060405180830381865afa158015612682573d6000803e3d6000fd5b505050506040513d601f19601f820116820180604052508101906126a691906130e1565b6126e5576040517f08c379a00000000000000000000000000000000000000000000000000000000081526004016126dc906131c6565b60405180910390fd5b600460009054906101000a900473ffffffffffffffffffffffffffffffffffffffff1673ffffffffffffffffffffffffffffffffffffffff1663cb32db72846040518263ffffffff1660e01b81526004016127409190612c0c565b602060405180830381865afa15801561275d573d6000803e3d6000fd5b505050506040513d601f19601f8201168201806040525081019061278191906132f9565b915050919050565b60008054906101000a900473ffffffffffffffffffffffffffffffffffffffff1673ffffffffffffffffffffffffffffffffffffffff163373ffffffffffffffffffffffffffffffffffffffff1614612817576040517f08c379a000000000000000000000000000000000000000000000000000000000815260040161280e9061306b565b60405180910390fd5b600160009054906101000a900473ffffffffffffffffffffffffffffffffffffffff1673ffffffffffffffffffffffffffffffffffffffff1663061dff9a826040518263ffffffff1660e01b8152600401612872919061309a565b600060405180830381600087803b15801561288c57600080fd5b505af11580156128a0573d6000803e3d6000fd5b5050505050565b6128af612ad9565b600460009054906101000a900473ffffffffffffffffffffffffffffffffffffffff1673ffffffffffffffffffffffffffffffffffffffff1663e4cc4e45836040518263ffffffff1660e01b815260040161290a919061309a565b60a060405180830381865afa158015612927573d6000803e3d6000fd5b505050506040513d601f19601f8201168201806040525081019061294b919061374d565b9050919050565b606081600160009054906101000a900473ffffffffffffffffffffffffffffffffffffffff1673ffffffffffffffffffffffffffffffffffffffff166312c61114826040518263ffffffff1660e01b81526004016129b0919061309a565b602060405180830381865afa1580156129cd573d6000803e3d6000fd5b505050506040513d601f19601f820116820180604052508101906129f191906130e1565b612a30576040517f08c379a0000000000000000000000000000000000000000000000000000000008152600401612a279061315a565b60405180910390fd5b600160009054906101000a900473ffffffffffffffffffffffffffffffffffffffff1673ffffffffffffffffffffffffffffffffffffffff1663e53a6ec3846040518263ffffffff1660e01b8152600401612a8b919061309a565b600060405180830381865afa158015612aa8573d6000803e3d6000fd5b505050506040513d6000823e3d601f19601f82011682018060405250810190612ad191906137ea565b915050919050565b6040518060a00160405280600590602082028036833780820191505090505090565b6000604051905090565b600080fd5b600080fd5b600073ffffffffffffffffffffffffffffffffffffffff82169050919050565b6000612b3a82612b0f565b9050919050565b612b4a81612b2f565b8114612b5557600080fd5b50565b600081359050612b6781612b41565b92915050565b600060208284031215612b8357612b82612b05565b5b6000612b9184828501612b58565b91505092915050565b6000819050919050565b612bad81612b9a565b8114612bb857600080fd5b50565b600081359050612bca81612ba4565b92915050565b600060208284031215612be657612be5612b05565b5b6000612bf484828501612bbb565b91505092915050565b612c0681612b9a565b82525050565b6000602082019050612c216000830184612bfd565b92915050565b600080fd5b600080fd5b6000601f19601f8301169050919050565b7f4e487b7100000000000000000000000000000000000000000000000000000000600052604160045260246000fd5b612c7a82612c31565b810181811067ffffffffffffffff82111715612c9957612c98612c42565b5b80604052505050565b6000612cac612afb565b9050612cb88282612c71565b919050565b600067ffffffffffffffff821115612cd857612cd7612c42565b5b612ce182612c31565b9050602081019050919050565b82818337600083830152505050565b6000612d10612d0b84612cbd565b612ca2565b905082815260208101848484011115612d2c57612d2b612c2c565b5b612d37848285612cee565b509392505050565b600082601f830112612d5457612d53612c27565b5b8135612d64848260208601612cfd565b91505092915050565b60008060408385031215612d8457612d83612b05565b5b600083013567ffffffffffffffff811115612da257612da1612b0a565b5b612dae85828601612d3f565b9250506020612dbf85828601612bbb565b9150509250929050565b60008115159050919050565b612dde81612dc9565b82525050565b6000602082019050612df96000830184612dd5565b92915050565b600060208284031215612e1557612e14612b05565b5b600082013567ffffffffffffffff811115612e3357612e32612b0a565b5b612e3f84828501612d3f565b91505092915050565b60008060408385031215612e5f57612e5e612b05565b5b6000612e6d85828601612bbb565b9250506020612e7e85828601612bbb565b9150509250929050565b600060059050919050565b600081905092915050565b6000819050919050565b6000819050919050565b612ebb81612ea8565b82525050565b6000612ecd8383612eb2565b60208301905092915050565b6000602082019050919050565b612eef81612e88565b612ef98184612e93565b9250612f0482612e9e565b8060005b83811015612f35578151612f1c8782612ec1565b9650612f2783612ed9565b925050600181019050612f08565b505050505050565b600060a082019050612f526000830184612ee6565b92915050565b600081519050919050565b600082825260208201905092915050565b60005b83811015612f92578082015181840152602081019050612f77565b60008484015250505050565b6000612fa982612f58565b612fb38185612f63565b9350612fc3818560208601612f74565b612fcc81612c31565b840191505092915050565b60006020820190508181036000830152612ff18184612f9e565b905092915050565b7f4f6e6c79206465706c6f7965722063616e20617070726f766520776f726b657260008201527f20726567697374726174696f6e20726571756573747300000000000000000000602082015250565b6000613055603683612f63565b915061306082612ff9565b604082019050919050565b6000602082019050818103600083015261308481613048565b9050919050565b61309481612b2f565b82525050565b60006020820190506130af600083018461308b565b92915050565b6130be81612dc9565b81146130c957600080fd5b50565b6000815190506130db816130b5565b92915050565b6000602082840312156130f7576130f6612b05565b5b6000613105848285016130cc565b91505092915050565b7f576f726b65722069736e27742068657265000000000000000000000000000000600082015250565b6000613144601183612f63565b915061314f8261310e565b602082019050919050565b6000602082019050818103600083015261317381613137565b9050919050565b7f446f6e2774206861766520616e206170706f696e746d656e7400000000000000600082015250565b60006131b0601983612f63565b91506131bb8261317a565b602082019050919050565b600060208201905081810360008301526131df816131a3565b9050919050565b7f446f6e2774206861766520616e20756e617070726f766564206170706f696e7460008201527f6d656e7400000000000000000000000000000000000000000000000000000000602082015250565b6000613242602483612f63565b915061324d826131e6565b604082019050919050565b6000602082019050818103600083015261327181613235565b9050919050565b7f596f752061726520756e617661696c61626c6500000000000000000000000000600082015250565b60006132ae601383612f63565b91506132b982613278565b602082019050919050565b600060208201905081810360008301526132dd816132a1565b9050919050565b6000815190506132f381612ba4565b92915050565b60006020828403121561330f5761330e612b05565b5b600061331d848285016132e4565b91505092915050565b7f4f6e6c792061646d696e2063616e206372656174652073657276696365730000600082015250565b600061335c601e83612f63565b915061336782613326565b602082019050919050565b6000602082019050818103600083015261338b8161334f565b9050919050565b600060408201905081810360008301526133ac8185612f9e565b90506133bb6020830184612bfd565b9392505050565b60006040820190506133d7600083018561308b565b81810360208301526133e98184612f9e565b90509392505050565b7f436c69656e742069736e27742068657265000000000000000000000000000000600082015250565b6000613428601183612f63565b9150613433826133f2565b602082019050919050565b600060208201905081810360008301526134578161341b565b9050919050565b7f5365727669636520646f65736e27742065786973740000000000000000000000600082015250565b6000613494601583612f63565b915061349f8261345e565b602082019050919050565b600060208201905081810360008301526134c381613487565b9050919050565b7f57726f6e672076616c756520666f722073657276696365000000000000000000600082015250565b6000613500601783612f63565b915061350b826134ca565b602082019050919050565b6000602082019050818103600083015261352f816134f3565b9050919050565b7f57726f6e672074696d6500000000000000000000000000000000000000000000600082015250565b600061356c600a83612f63565b915061357782613536565b602082019050919050565b6000602082019050818103600083015261359b8161355f565b9050919050565b60006060820190506135b7600083018661308b565b6135c46020830185612bfd565b6135d16040830184612bfd565b949350505050565b7f4f6e6c792061646d696e2063616e206368616e6765207365727669636520737460008201527f6174757300000000000000000000000000000000000000000000000000000000602082015250565b6000613635602483612f63565b9150613640826135d9565b604082019050919050565b6000602082019050818103600083015261366481613628565b9050919050565b600067ffffffffffffffff82111561368657613685612c42565b5b602082029050919050565b600080fd5b61369f81612ea8565b81146136aa57600080fd5b50565b6000815190506136bc81613696565b92915050565b60006136d56136d08461366b565b612ca2565b905080602084028301858111156136ef576136ee613691565b5b835b81811015613718578061370488826136ad565b8452602084019350506020810190506136f1565b5050509392505050565b600082601f83011261373757613736612c27565b5b60056137448482856136c2565b91505092915050565b600060a0828403121561376357613762612b05565b5b600061377184828501613722565b91505092915050565b600061378d61378884612cbd565b612ca2565b9050828152602081018484840111156137a9576137a8612c2c565b5b6137b4848285612f74565b509392505050565b600082601f8301126137d1576137d0612c27565b5b81516137e184826020860161377a565b91505092915050565b600060208284031215613800576137ff612b05565b5b600082015167ffffffffffffffff81111561381e5761381d612b0a565b5b61382a848285016137bc565b9150509291505056fea2646970667358221220afe34fcd4d1617a6fe53f0f1dabcdfb80ff87965c8961fcc5807f802d00215d664736f6c63430008110033608060405234801561001057600080fd5b50610dec806100206000396000f3fe608060405234801561001057600080fd5b50600436106100885760003560e01c80634a69d93d1161005b5780634a69d93d1461012557806385d8fff014610141578063c011565b14610171578063e53a6ec31461018d57610088565b80630405df881461008d578063061dff9a146100a957806312c61114146100c55780632de03b6b146100f5575b600080fd5b6100a760048036038101906100a291906107f9565b6101bd565b005b6100c360048036038101906100be91906107f9565b61022a565b005b6100df60048036038101906100da91906107f9565b610429565b6040516100ec9190610841565b60405180910390f35b61010f600480360381019061010a91906107f9565b610482565b60405161011c9190610841565b60405180910390f35b61013f600480360381019061013a91906107f9565b61055a565b005b61015b600480360381019061015691906107f9565b6105c8565b6040516101689190610841565b60405180910390f35b61018b600480360381019061018691906109a2565b610620565b005b6101a760048036038101906101a291906107f9565b6106b3565b6040516101b49190610a7d565b60405180910390f35b60018060008373ffffffffffffffffffffffffffffffffffffffff1673ffffffffffffffffffffffffffffffffffffffff16815260200190815260200160002060010160016101000a81548160ff0219169083600281111561022257610221610a9f565b5b021790555050565b60008060008373ffffffffffffffffffffffffffffffffffffffff1673ffffffffffffffffffffffffffffffffffffffff16815260200190815260200160002060010160006101000a81548160ff02191690831515021790555060405180606001604052806000808473ffffffffffffffffffffffffffffffffffffffff1673ffffffffffffffffffffffffffffffffffffffff16815260200190815260200160002060000180546102db90610afd565b80601f016020809104026020016040519081016040528092919081815260200182805461030790610afd565b80156103545780601f1061032957610100808354040283529160200191610354565b820191906000526020600020905b81548152906001019060200180831161033757829003601f168201915b505050505081526020016001151581526020016001600281111561037b5761037a610a9f565b5b815250600160008373ffffffffffffffffffffffffffffffffffffffff1673ffffffffffffffffffffffffffffffffffffffff16815260200190815260200160002060008201518160000190816103d29190610ce4565b5060208201518160010160006101000a81548160ff02191690831515021790555060408201518160010160016101000a81548160ff0219169083600281111561041e5761041d610a9f565b5b021790555090505050565b6000600160008373ffffffffffffffffffffffffffffffffffffffff1673ffffffffffffffffffffffffffffffffffffffff16815260200190815260200160002060010160009054906101000a900460ff169050919050565b6000600160008373ffffffffffffffffffffffffffffffffffffffff1673ffffffffffffffffffffffffffffffffffffffff16815260200190815260200160002060010160009054906101000a900460ff1680156105535750600160028111156104ef576104ee610a9f565b5b600160008473ffffffffffffffffffffffffffffffffffffffff1673ffffffffffffffffffffffffffffffffffffffff16815260200190815260200160002060010160019054906101000a900460ff16600281111561055157610550610a9f565b5b145b9050919050565b6002600160008373ffffffffffffffffffffffffffffffffffffffff1673ffffffffffffffffffffffffffffffffffffffff16815260200190815260200160002060010160016101000a81548160ff021916908360028111156105c0576105bf610a9f565b5b021790555050565b60008060008373ffffffffffffffffffffffffffffffffffffffff1673ffffffffffffffffffffffffffffffffffffffff16815260200190815260200160002060010160009054906101000a900460ff169050919050565b6040518060400160405280828152602001600115158152506000808473ffffffffffffffffffffffffffffffffffffffff1673ffffffffffffffffffffffffffffffffffffffff168152602001908152602001600020600082015181600001908161068b9190610ce4565b5060208201518160010160006101000a81548160ff0219169083151502179055509050505050565b6060600160008373ffffffffffffffffffffffffffffffffffffffff1673ffffffffffffffffffffffffffffffffffffffff168152602001908152602001600020600001805461070290610afd565b80601f016020809104026020016040519081016040528092919081815260200182805461072e90610afd565b801561077b5780601f106107505761010080835404028352916020019161077b565b820191906000526020600020905b81548152906001019060200180831161075e57829003601f168201915b50505050509050919050565b6000604051905090565b600080fd5b600080fd5b600073ffffffffffffffffffffffffffffffffffffffff82169050919050565b60006107c68261079b565b9050919050565b6107d6816107bb565b81146107e157600080fd5b50565b6000813590506107f3816107cd565b92915050565b60006020828403121561080f5761080e610791565b5b600061081d848285016107e4565b91505092915050565b60008115159050919050565b61083b81610826565b82525050565b60006020820190506108566000830184610832565b92915050565b600080fd5b600080fd5b6000601f19601f8301169050919050565b7f4e487b7100000000000000000000000000000000000000000000000000000000600052604160045260246000fd5b6108af82610866565b810181811067ffffffffffffffff821117156108ce576108cd610877565b5b80604052505050565b60006108e1610787565b90506108ed82826108a6565b919050565b600067ffffffffffffffff82111561090d5761090c610877565b5b61091682610866565b9050602081019050919050565b82818337600083830152505050565b6000610945610940846108f2565b6108d7565b90508281526020810184848401111561096157610960610861565b5b61096c848285610923565b509392505050565b600082601f8301126109895761098861085c565b5b8135610999848260208601610932565b91505092915050565b600080604083850312156109b9576109b8610791565b5b60006109c7858286016107e4565b925050602083013567ffffffffffffffff8111156109e8576109e7610796565b5b6109f485828601610974565b9150509250929050565b600081519050919050565b600082825260208201905092915050565b60005b83811015610a38578082015181840152602081019050610a1d565b60008484015250505050565b6000610a4f826109fe565b610a598185610a09565b9350610a69818560208601610a1a565b610a7281610866565b840191505092915050565b60006020820190508181036000830152610a978184610a44565b905092915050565b7f4e487b7100000000000000000000000000000000000000000000000000000000600052602160045260246000fd5b7f4e487b7100000000000000000000000000000000000000000000000000000000600052602260045260246000fd5b60006002820490506001821680610b1557607f821691505b602082108103610b2857610b27610ace565b5b50919050565b60008190508160005260206000209050919050565b60006020601f8301049050919050565b600082821b905092915050565b600060088302610b907fffffffffffffffffffffffffffffffffffffffffffffffffffffffffffffffff82610b53565b610b9a8683610b53565b95508019841693508086168417925050509392505050565b6000819050919050565b6000819050919050565b6000610be1610bdc610bd784610bb2565b610bbc565b610bb2565b9050919050565b6000819050919050565b610bfb83610bc6565b610c0f610c0782610be8565b848454610b60565b825550505050565b600090565b610c24610c17565b610c2f818484610bf2565b505050565b5b81811015610c5357610c48600082610c1c565b600181019050610c35565b5050565b601f821115610c9857610c6981610b2e565b610c7284610b43565b81016020851015610c81578190505b610c95610c8d85610b43565b830182610c34565b50505b505050565b600082821c905092915050565b6000610cbb60001984600802610c9d565b1980831691505092915050565b6000610cd48383610caa565b9150826002028217905092915050565b610ced826109fe565b67ffffffffffffffff811115610d0657610d05610877565b5b610d108254610afd565b610d1b828285610c57565b600060209050601f831160018114610d4e5760008415610d3c578287015190505b610d468582610cc8565b865550610dae565b601f198416610d5c86610b2e565b60005b82811015610d8457848901518255600182019150602085019450602081019050610d5f565b86831015610da15784890151610d9d601f891682610caa565b8355505b6001600288020188555050505b50505050505056fea26469706673582212207b005344891ad22181cddb0d9531c8d5d8aa32bc5c75b3321654c2a39deef38e64736f6c63430008110033608060405234801561001057600080fd5b50610712806100206000396000f3fe608060405234801561001057600080fd5b50600436106100365760003560e01c8063f0e734d41461003b578063f2fef58b1461006b575b600080fd5b610055600480360381019061005091906101e4565b610087565b604051610062919061022c565b60405180910390f35b6100856004803603810190610080919061038d565b6100df565b005b60008060008373ffffffffffffffffffffffffffffffffffffffff1673ffffffffffffffffffffffffffffffffffffffff16815260200190815260200160002060010160009054906101000a900460ff169050919050565b6040518060400160405280828152602001600115158152506000808473ffffffffffffffffffffffffffffffffffffffff1673ffffffffffffffffffffffffffffffffffffffff168152602001908152602001600020600082015181600001908161014a919061060a565b5060208201518160010160006101000a81548160ff0219169083151502179055509050505050565b6000604051905090565b600080fd5b600080fd5b600073ffffffffffffffffffffffffffffffffffffffff82169050919050565b60006101b182610186565b9050919050565b6101c1816101a6565b81146101cc57600080fd5b50565b6000813590506101de816101b8565b92915050565b6000602082840312156101fa576101f961017c565b5b6000610208848285016101cf565b91505092915050565b60008115159050919050565b61022681610211565b82525050565b6000602082019050610241600083018461021d565b92915050565b600080fd5b600080fd5b6000601f19601f8301169050919050565b7f4e487b7100000000000000000000000000000000000000000000000000000000600052604160045260246000fd5b61029a82610251565b810181811067ffffffffffffffff821117156102b9576102b8610262565b5b80604052505050565b60006102cc610172565b90506102d88282610291565b919050565b600067ffffffffffffffff8211156102f8576102f7610262565b5b61030182610251565b9050602081019050919050565b82818337600083830152505050565b600061033061032b846102dd565b6102c2565b90508281526020810184848401111561034c5761034b61024c565b5b61035784828561030e565b509392505050565b600082601f83011261037457610373610247565b5b813561038484826020860161031d565b91505092915050565b600080604083850312156103a4576103a361017c565b5b60006103b2858286016101cf565b925050602083013567ffffffffffffffff8111156103d3576103d2610181565b5b6103df8582860161035f565b9150509250929050565b600081519050919050565b7f4e487b7100000000000000000000000000000000000000000000000000000000600052602260045260246000fd5b6000600282049050600182168061043b57607f821691505b60208210810361044e5761044d6103f4565b5b50919050565b60008190508160005260206000209050919050565b60006020601f8301049050919050565b600082821b905092915050565b6000600883026104b67fffffffffffffffffffffffffffffffffffffffffffffffffffffffffffffffff82610479565b6104c08683610479565b95508019841693508086168417925050509392505050565b6000819050919050565b6000819050919050565b60006105076105026104fd846104d8565b6104e2565b6104d8565b9050919050565b6000819050919050565b610521836104ec565b61053561052d8261050e565b848454610486565b825550505050565b600090565b61054a61053d565b610555818484610518565b505050565b5b818110156105795761056e600082610542565b60018101905061055b565b5050565b601f8211156105be5761058f81610454565b61059884610469565b810160208510156105a7578190505b6105bb6105b385610469565b83018261055a565b50505b505050565b600082821c905092915050565b60006105e1600019846008026105c3565b1980831691505092915050565b60006105fa83836105d0565b9150826002028217905092915050565b610613826103e9565b67ffffffffffffffff81111561062c5761062b610262565b5b6106368254610423565b61064182828561057d565b600060209050601f8311600181146106745760008415610662578287015190505b61066c85826105ee565b8655506106d4565b601f19841661068286610454565b60005b828110156106aa57848901518255600182019150602085019450602081019050610685565b868310156106c757848901516106c3601f8916826105d0565b8355505b6001600288020188555050505b50505050505056fea264697066735822122012d142d9e8b3b63c7c260901809804317f2c1f62cba58888c42c5d66eb4c712464736f6c63430008110033608060405234801561001057600080fd5b50610b00806100206000396000f3fe608060405234801561001057600080fd5b50600436106100885760003560e01c8063953058f81161005b578063953058f814610125578063a840260214610155578063c03f9b4414610171578063c573d8a2146101a157610088565b80631cf82bd21461008d5780634cc0862d146100a9578063801d1697146100c55780638a2c6b51146100f5575b600080fd5b6100a760048036038101906100a29190610604565b6101bf565b005b6100c360048036038101906100be9190610660565b61026e565b005b6100df60048036038101906100da9190610660565b6102bf565b6040516100ec91906106a8565b60405180910390f35b61010f600480360381019061010a9190610660565b6102cf565b60405161011c91906106a8565b60405180910390f35b61013f600480360381019061013a9190610660565b610332565b60405161014c9190610742565b60405180910390f35b61016f600480360381019061016a9190610660565b6103e9565b005b61018b60048036038101906101869190610660565b61043a565b6040516101989190610773565b60405180910390f35b6101a9610468565b6040516101b69190610773565b60405180910390f35b60006040518060600160405280848152602001838152602001600160028111156101ec576101eb61078e565b5b8152509080600181540180825580915050600190039060005260206000209060030201600090919091909150600082015181600001908161022d91906109c9565b506020820151816001015560408201518160020160006101000a81548160ff021916908360028111156102635761026261078e565b5b021790555050505050565b60016000828154811061028457610283610a9b565b5b906000526020600020906003020160020160006101000a81548160ff021916908360028111156102b7576102b661078e565b5b021790555050565b6000808054905082109050919050565b6000600160028111156102e5576102e461078e565b5b600083815481106102f9576102f8610a9b565b5b906000526020600020906003020160020160009054906101000a900460ff16600281111561032a5761032961078e565b5b149050919050565b60606000828154811061034857610347610a9b565b5b90600052602060002090600302016000018054610364906107ec565b80601f0160208091040260200160405190810160405280929190818152602001828054610390906107ec565b80156103dd5780601f106103b2576101008083540402835291602001916103dd565b820191906000526020600020905b8154815290600101906020018083116103c057829003601f168201915b50505050509050919050565b6002600082815481106103ff576103fe610a9b565b5b906000526020600020906003020160020160006101000a81548160ff021916908360028111156104325761043161078e565b5b021790555050565b600080828154811061044f5761044e610a9b565b5b9060005260206000209060030201600101549050919050565b60008080549050905090565b6000604051905090565b600080fd5b600080fd5b600080fd5b600080fd5b6000601f19601f8301169050919050565b7f4e487b7100000000000000000000000000000000000000000000000000000000600052604160045260246000fd5b6104db82610492565b810181811067ffffffffffffffff821117156104fa576104f96104a3565b5b80604052505050565b600061050d610474565b905061051982826104d2565b919050565b600067ffffffffffffffff821115610539576105386104a3565b5b61054282610492565b9050602081019050919050565b82818337600083830152505050565b600061057161056c8461051e565b610503565b90508281526020810184848401111561058d5761058c61048d565b5b61059884828561054f565b509392505050565b600082601f8301126105b5576105b4610488565b5b81356105c584826020860161055e565b91505092915050565b6000819050919050565b6105e1816105ce565b81146105ec57600080fd5b50565b6000813590506105fe816105d8565b92915050565b6000806040838503121561061b5761061a61047e565b5b600083013567ffffffffffffffff81111561063957610638610483565b5b610645858286016105a0565b9250506020610656858286016105ef565b9150509250929050565b6000602082840312156106765761067561047e565b5b6000610684848285016105ef565b91505092915050565b60008115159050919050565b6106a28161068d565b82525050565b60006020820190506106bd6000830184610699565b92915050565b600081519050919050565b600082825260208201905092915050565b60005b838110156106fd5780820151818401526020810190506106e2565b60008484015250505050565b6000610714826106c3565b61071e81856106ce565b935061072e8185602086016106df565b61073781610492565b840191505092915050565b6000602082019050818103600083015261075c8184610709565b905092915050565b61076d816105ce565b82525050565b60006020820190506107886000830184610764565b92915050565b7f4e487b7100000000000000000000000000000000000000000000000000000000600052602160045260246000fd5b7f4e487b7100000000000000000000000000000000000000000000000000000000600052602260045260246000fd5b6000600282049050600182168061080457607f821691505b602082108103610817576108166107bd565b5b50919050565b60008190508160005260206000209050919050565b60006020601f8301049050919050565b600082821b905092915050565b60006008830261087f7fffffffffffffffffffffffffffffffffffffffffffffffffffffffffffffffff82610842565b6108898683610842565b95508019841693508086168417925050509392505050565b6000819050919050565b60006108c66108c16108bc846105ce565b6108a1565b6105ce565b9050919050565b6000819050919050565b6108e0836108ab565b6108f46108ec826108cd565b84845461084f565b825550505050565b600090565b6109096108fc565b6109148184846108d7565b505050565b5b818110156109385761092d600082610901565b60018101905061091a565b5050565b601f82111561097d5761094e8161081d565b61095784610832565b81016020851015610966578190505b61097a61097285610832565b830182610919565b50505b505050565b600082821c905092915050565b60006109a060001984600802610982565b1980831691505092915050565b60006109b9838361098f565b9150826002028217905092915050565b6109d2826106c3565b67ffffffffffffffff8111156109eb576109ea6104a3565b5b6109f582546107ec565b610a0082828561093c565b600060209050601f831160018114610a335760008415610a21578287015190505b610a2b85826109ad565b865550610a93565b601f198416610a418661081d565b60005b82811015610a6957848901518255600182019150602085019450602081019050610a44565b86831015610a865784890151610a82601f89168261098f565b8355505b6001600288020188555050505b505050505050565b7f4e487b7100000000000000000000000000000000000000000000000000000000600052603260045260246000fdfea264697066735822122026c88b08b6406c86a2f77f8f9be90f2ac503d41579c04562876ae2c7e36e6fc264736f6c63430008110033608060405234801561001057600080fd5b50610b61806100206000396000f3fe608060405234801561001057600080fd5b506004361061009e5760003560e01c80637c7ba0d4116100665780637c7ba0d41461016d578063929ff9531461019d578063b61cb6af146101b9578063cb32db72146101e9578063e4cc4e45146102195761009e565b8063064eac8a146100a35780630daae746146100bf578063454322b8146100ef5780634b47d8271461010d57806378ec04d91461013d575b600080fd5b6100bd60048036038101906100b8919061081b565b610249565b005b6100d960048036038101906100d4919061081b565b61029a565b6040516100e69190610857565b60405180910390f35b6100f76102c8565b6040516101049190610857565b60405180910390f35b6101276004803603810190610122919061081b565b6102d4565b604051610134919061088d565b60405180910390f35b6101576004803603810190610152919061081b565b6102e4565b6040516101649190610857565b60405180910390f35b6101876004803603810190610182919061081b565b610312565b604051610194919061095d565b60405180910390f35b6101b760048036038101906101b291906109d6565b610476565b005b6101d360048036038101906101ce919061081b565b6105e1565b6040516101e0919061088d565b60405180910390f35b61020360048036038101906101fe919061081b565b610643565b6040516102109190610857565b60405180910390f35b610233600480360381019061022e9190610a29565b610671565b604051610240919061095d565b60405180910390f35b60026000828154811061025f5761025e610a56565b5b906000526020600020906004020160030160146101000a81548160ff0219169083600281111561029257610291610a85565b5b021790555050565b60008082815481106102af576102ae610a56565b5b9060005260206000209060040201600001549050919050565b60008080549050905090565b6000808054905082109050919050565b60008082815481106102f9576102f8610a56565b5b9060005260206000209060040201600001549050919050565b61031a6107be565b6000806000808054905090506000600590506103346107be565b5b828410801561034357508185105b1561041257866000858154811061035d5761035c610a56565b5b9060005260206000209060040201600001541480156103d257506001600281111561038b5761038a610a85565b5b6000858154811061039f5761039e610a56565b5b906000526020600020906004020160030160149054906101000a900460ff1660028111156103d0576103cf610a85565b5b145b1561040157838186806103e490610ae3565b9750600581106103f7576103f6610a56565b5b6020020181815250505b8361040b90610ae3565b9350610335565b5b81851015610469577fffffffffffffffffffffffffffffffffffffffffffffffffffffffffffffffff81866005811061044f5761044e610a56565b5b6020020181815250508461046290610ae3565b9450610413565b8095505050505050919050565b60006040518060a001604052808481526020018381526020018573ffffffffffffffffffffffffffffffffffffffff168152602001600073ffffffffffffffffffffffffffffffffffffffff168152602001600160028111156104dc576104db610a85565b5b8152509080600181540180825580915050600190039060005260206000209060040201600090919091909150600082015181600001556020820151816001015560408201518160020160006101000a81548173ffffffffffffffffffffffffffffffffffffffff021916908373ffffffffffffffffffffffffffffffffffffffff16021790555060608201518160030160006101000a81548173ffffffffffffffffffffffffffffffffffffffff021916908373ffffffffffffffffffffffffffffffffffffffff16021790555060808201518160030160146101000a81548160ff021916908360028111156105d5576105d4610a85565b5b02179055505050505050565b60006002808111156105f6576105f5610a85565b5b6000838154811061060a57610609610a56565b5b906000526020600020906004020160030160149054906101000a900460ff16600281111561063b5761063a610a85565b5b149050919050565b600080828154811061065857610657610a56565b5b9060005260206000209060040201600101549050919050565b6106796107be565b6000806000808054905090506000600590506106936107be565b5b82841080156106a257508185105b1561075a578673ffffffffffffffffffffffffffffffffffffffff16600085815481106106d2576106d1610a56565b5b906000526020600020906004020160020160009054906101000a900473ffffffffffffffffffffffffffffffffffffffff1673ffffffffffffffffffffffffffffffffffffffff1603610749578381868061072c90610ae3565b97506005811061073f5761073e610a56565b5b6020020181815250505b8361075390610ae3565b9350610694565b5b818510156107b1577fffffffffffffffffffffffffffffffffffffffffffffffffffffffffffffffff81866005811061079757610796610a56565b5b602002018181525050846107aa90610ae3565b945061075b565b8095505050505050919050565b6040518060a00160405280600590602082028036833780820191505090505090565b600080fd5b6000819050919050565b6107f8816107e5565b811461080357600080fd5b50565b600081359050610815816107ef565b92915050565b600060208284031215610831576108306107e0565b5b600061083f84828501610806565b91505092915050565b610851816107e5565b82525050565b600060208201905061086c6000830184610848565b92915050565b60008115159050919050565b61088781610872565b82525050565b60006020820190506108a2600083018461087e565b92915050565b600060059050919050565b600081905092915050565b6000819050919050565b6000819050919050565b6108db816108c8565b82525050565b60006108ed83836108d2565b60208301905092915050565b6000602082019050919050565b61090f816108a8565b61091981846108b3565b9250610924826108be565b8060005b8381101561095557815161093c87826108e1565b9650610947836108f9565b925050600181019050610928565b505050505050565b600060a0820190506109726000830184610906565b92915050565b600073ffffffffffffffffffffffffffffffffffffffff82169050919050565b60006109a382610978565b9050919050565b6109b381610998565b81146109be57600080fd5b50565b6000813590506109d0816109aa565b92915050565b6000806000606084860312156109ef576109ee6107e0565b5b60006109fd868287016109c1565b9350506020610a0e86828701610806565b9250506040610a1f86828701610806565b9150509250925092565b600060208284031215610a3f57610a3e6107e0565b5b6000610a4d848285016109c1565b91505092915050565b7f4e487b7100000000000000000000000000000000000000000000000000000000600052603260045260246000fd5b7f4e487b7100000000000000000000000000000000000000000000000000000000600052602160045260246000fd5b7f4e487b7100000000000000000000000000000000000000000000000000000000600052601160045260246000fd5b6000610aee826107e5565b91507fffffffffffffffffffffffffffffffffffffffffffffffffffffffffffffffff8203610b2057610b1f610ab4565b5b60018201905091905056fea2646970667358221220849a9005915413448e3b011b5ae9f012b4b2af679064ddae4dfcabedcb16ba0d64736f6c63430008110033",
  "immutableReferences": {},
  "source": "pragma solidity ^0.8.13;\r\n\r\nimport \"./WorkerManager.sol\";\r\nimport \"./ClientManager.sol\";\r\nimport \"./ServiceManager.sol\";\r\nimport \"./AppointmentManager.sol\";\r\n\r\ncontract MassageRoom {\r\n    address deployer;\r\n\r\n    WorkerManager workerManager;\r\n    ClientManager clientManager;\r\n    ServiceManager serviceManager;\r\n    AppointmentManager appointmentManager;\r\n\r\n    constructor() {\r\n        deployer = msg.sender;\r\n\r\n        workerManager = new WorkerManager();\r\n        clientManager = new ClientManager();\r\n        serviceManager = new ServiceManager();\r\n        appointmentManager = new AppointmentManager();\r\n    }\r\n\r\n    //* Modifiers//\r\n\r\n    modifier _canApproveWorkerRegistrationRequests() {\r\n        require(\r\n            msg.sender == deployer,\r\n            \"Only deployer can approve worker registration requests\"\r\n        );\r\n        _;\r\n    }\r\n\r\n    modifier _canChangeWorkerStatus(address targetWorker) {\r\n        require(\r\n            msg.sender == deployer || msg.sender == targetWorker,\r\n            \"Only deployer can approve worker registration requests\"\r\n        );\r\n        _;\r\n    }\r\n\r\n    modifier _hasWorker(address targetWorker) {\r\n        require(workerManager.isWorkerHere(targetWorker), \"Worker isn't here\");\r\n        _;\r\n    }\r\n\r\n    modifier _hasWorkerRequest(address targetWorker) {\r\n        require(\r\n            workerManager.isRequestHere(targetWorker),\r\n            \"Request isn't here\"\r\n        );\r\n        _;\r\n    }\r\n\r\n    modifier _hasClient(address targetClient) {\r\n        require(clientManager.isClientHere(targetClient), \"Client isn't here\");\r\n        _;\r\n    }\r\n\r\n    modifier _canCreateServices() {\r\n        require(msg.sender == deployer, \"Only admin can create services\");\r\n        _;\r\n    }\r\n\r\n    modifier _canChangeServiceStatus() {\r\n        require(msg.sender == deployer, \"Only admin can change service status\");\r\n        _;\r\n    }\r\n\r\n    modifier _hasService(uint256 i) {\r\n        require(serviceManager.hasService(i), \"Service doesn't exist\");\r\n        _;\r\n    }\r\n\r\n    modifier _hasUnapprovedAppointment(uint256 i) {\r\n        require(\r\n            appointmentManager.isAppointmentApproved(i) == false,\r\n            \"Don't have an unapproved appointment\"\r\n        );\r\n        _;\r\n    }\r\n\r\n    modifier _hasAppointment(uint256 i) {\r\n        require(\r\n            appointmentManager.hasAppointment(i),\r\n            \"Don't have an appointment\"\r\n        );\r\n        _;\r\n    }\r\n\r\n    //* ~Modifiers//\r\n\r\n    function getTestValue() external pure returns (uint256) {\r\n        return 3;\r\n    }\r\n\r\n    function isAdmin() external view returns (bool) {\r\n        return msg.sender == deployer;\r\n    }\r\n\r\n    //* Workers//\r\n    function askToRegisterAsWorker(string memory name) external {\r\n        workerManager.putRequestToRegister(msg.sender, name);\r\n    }\r\n\r\n    function approveWorkerRegistrationRequest(address workerAddr)\r\n        external\r\n        _canApproveWorkerRegistrationRequests\r\n    {\r\n        workerManager.approveRequest(workerAddr);\r\n    }\r\n\r\n    function isWorkerRequestHere(address addr) external view returns (bool) {\r\n        return workerManager.isRequestHere(addr);\r\n    }\r\n\r\n    function isAWorker(address addr) external view returns (bool) {\r\n        return workerManager.isWorkerHere(addr);\r\n    }\r\n\r\n    function getWorkerName(address addr)\r\n        external\r\n        view\r\n        _hasWorker(addr)\r\n        returns (string memory)\r\n    {\r\n        return workerManager.getWorkerName(addr);\r\n    }\r\n\r\n    function isWorkerAvailable(address workerAddr)\r\n        external\r\n        view\r\n        returns (bool)\r\n    {\r\n        return workerManager.isWorkerAvailable(workerAddr);\r\n    }\r\n\r\n    function setWorkerAsUnavailable(address workerAddr)\r\n        external\r\n        _canChangeWorkerStatus(workerAddr)\r\n        _hasWorker(workerAddr)\r\n    {\r\n        workerManager.setWorkerAsUnavailable(workerAddr);\r\n    }\r\n\r\n    function setWorkerAsAvailable(address workerAddr)\r\n        external\r\n        _canChangeWorkerStatus(workerAddr)\r\n        _hasWorker(workerAddr)\r\n    {\r\n        workerManager.setWorkerAsAvailable(workerAddr);\r\n    }\r\n\r\n    //* ~Workers//\r\n\r\n    //* Clients//\r\n    function registerAsClient(string memory name) external {\r\n        clientManager.registerClient(msg.sender, name);\r\n    }\r\n\r\n    function isAClient(address addr) external view returns (bool) {\r\n        return clientManager.isClientHere(addr);\r\n    }\r\n\r\n    //* ~Clients//\r\n\r\n    //* Services//\r\n    function createService(string memory name, uint256 price)\r\n        external\r\n        _canCreateServices\r\n    {\r\n        serviceManager.createService(name, price);\r\n    }\r\n\r\n    function getServicesLength() external view returns (uint256) {\r\n        return serviceManager.getServicesLength();\r\n    }\r\n\r\n    function getServiceName(uint256 i)\r\n        external\r\n        view\r\n        _hasService(i)\r\n        returns (string memory)\r\n    {\r\n        return serviceManager.getServiceName(i);\r\n    }\r\n\r\n    function getServicePrice(uint256 i)\r\n        external\r\n        view\r\n        _hasService(i)\r\n        returns (uint256)\r\n    {\r\n        return serviceManager.getServicePrice(i);\r\n    }\r\n\r\n    function setServiceAsUnavailable(uint256 i)\r\n        external\r\n        _canChangeServiceStatus\r\n        _hasService(i)\r\n    {\r\n        serviceManager.setServiceAsUnavailable(i);\r\n    }\r\n\r\n    function setServiceAsAvailable(uint256 i)\r\n        external\r\n        _canChangeServiceStatus\r\n        _hasService(i)\r\n    {\r\n        serviceManager.setServiceAsAvailable(i);\r\n    }\r\n\r\n    function isServiceAvailable(uint256 i)\r\n        external\r\n        view\r\n        _hasService(i)\r\n        returns (bool)\r\n    {\r\n        return serviceManager.isServiceAvailable(i);\r\n    }\r\n\r\n    //* ~Clients//\r\n\r\n    //* Appointments//\r\n    function requestAppointment(uint256 serviceI, uint256 time)\r\n        external\r\n        payable\r\n        _hasClient(msg.sender)\r\n        _hasService(serviceI)\r\n    {\r\n        require(\r\n            msg.value == serviceManager.getServicePrice(serviceI),\r\n            \"Wrong value for service\"\r\n        );\r\n\r\n        require(block.timestamp < time, \"Wrong time\");\r\n\r\n        appointmentManager.requestAppointment(msg.sender, serviceI, time);\r\n    }\r\n\r\n    function isAppointmentApproved(uint256 i)\r\n        external\r\n        view\r\n        _hasAppointment(i)\r\n        returns (bool)\r\n    {\r\n        return appointmentManager.isAppointmentApproved(i);\r\n    }\r\n\r\n    function approveAppointment(uint256 i)\r\n        external\r\n        payable\r\n        _hasWorker(msg.sender)\r\n        _hasAppointment(i)\r\n        _hasUnapprovedAppointment(i)\r\n    {\r\n        require(\r\n            workerManager.isWorkerAvailable(msg.sender),\r\n            \"You are unavailable\"\r\n        );\r\n        appointmentManager.approveAppointment(i);\r\n        uint256 serviceI = appointmentManager.getServiceIndex(i);\r\n        uint256 servicePrice = serviceManager.getServicePrice(serviceI);\r\n        payable(msg.sender).transfer(servicePrice);\r\n    }\r\n\r\n    function getClientAppointments(address client)\r\n        external\r\n        view\r\n        returns (int256[5] memory)\r\n    {\r\n        return appointmentManager.getClientAppointments(client);\r\n    }\r\n\r\n    function getUnapprovedAppointments(uint256 serviceI)\r\n        external\r\n        view\r\n        returns (int256[5] memory)\r\n    {\r\n        return appointmentManager.getUnapprovedAppointments(serviceI);\r\n    }\r\n\r\n    function getAppointmentService(uint256 i)\r\n        external\r\n        view\r\n        _hasAppointment(i)\r\n        returns (uint256)\r\n    {\r\n        return appointmentManager.getAppointmentService(i);\r\n    }\r\n\r\n    function getAppointmentTime(uint256 i)\r\n        external\r\n        view\r\n        _hasAppointment(i)\r\n        returns (uint256)\r\n    {\r\n        return appointmentManager.getAppointmentTime(i);\r\n    }\r\n    //* ~Appointments//\r\n}\r\n",
  "sourcePath": "/home/seva/Projects/uni-eth-practice/contracts/MassageRoom.sol",
  "compiler": {
    "name": "solc",
    "version": "0.8.17+commit.8df45f5f.Emscripten.clang"
  },
  "schemaVersion": "3.4.11",
  "updatedAt": "2022-12-09T19:50:12.980Z",
  "networkType": "ethereum",
  "devdoc": {
    "kind": "dev",
    "methods": {},
    "version": 1
  },
  "userdoc": {
    "kind": "user",
    "methods": {},
    "version": 1
  }
}