{
  "contractName": "WorkerManager",
  "abi": [
    {
      "inputs": [
        {
          "internalType": "address",
          "name": "addr",
          "type": "address"
        },
        {
          "internalType": "string",
          "name": "name",
          "type": "string"
        }
      ],
      "name": "putRequestToRegister",
      "outputs": [],
      "stateMutability": "nonpayable",
      "type": "function"
    },
    {
      "inputs": [
        {
          "internalType": "address",
          "name": "addr",
          "type": "address"
        }
      ],
      "name": "getWorkerName",
      "outputs": [
        {
          "internalType": "string",
          "name": "",
          "type": "string"
        }
      ],
      "stateMutability": "view",
      "type": "function",
      "constant": true
    },
    {
      "inputs": [
        {
          "internalType": "address",
          "name": "addr",
          "type": "address"
        }
      ],
      "name": "approveRequest",
      "outputs": [],
      "stateMutability": "nonpayable",
      "type": "function"
    },
    {
      "inputs": [
        {
          "internalType": "address",
          "name": "addr",
          "type": "address"
        }
      ],
      "name": "isRequestHere",
      "outputs": [
        {
          "internalType": "bool",
          "name": "",
          "type": "bool"
        }
      ],
      "stateMutability": "view",
      "type": "function",
      "constant": true
    },
    {
      "inputs": [
        {
          "internalType": "address",
          "name": "addr",
          "type": "address"
        }
      ],
      "name": "isWorkerHere",
      "outputs": [
        {
          "internalType": "bool",
          "name": "",
          "type": "bool"
        }
      ],
      "stateMutability": "view",
      "type": "function",
      "constant": true
    },
    {
      "inputs": [
        {
          "internalType": "address",
          "name": "addr",
          "type": "address"
        }
      ],
      "name": "isWorkerAvailable",
      "outputs": [
        {
          "internalType": "bool",
          "name": "",
          "type": "bool"
        }
      ],
      "stateMutability": "view",
      "type": "function",
      "constant": true
    },
    {
      "inputs": [
        {
          "internalType": "address",
          "name": "addr",
          "type": "address"
        }
      ],
      "name": "setWorkerAsUnavailable",
      "outputs": [],
      "stateMutability": "nonpayable",
      "type": "function"
    },
    {
      "inputs": [
        {
          "internalType": "address",
          "name": "addr",
          "type": "address"
        }
      ],
      "name": "setWorkerAsAvailable",
      "outputs": [],
      "stateMutability": "nonpayable",
      "type": "function"
    }
  ],
  "bytecode": "0x608060405234801561001057600080fd5b50610dec806100206000396000f3fe608060405234801561001057600080fd5b50600436106100885760003560e01c80634a69d93d1161005b5780634a69d93d1461012557806385d8fff014610141578063c011565b14610171578063e53a6ec31461018d57610088565b80630405df881461008d578063061dff9a146100a957806312c61114146100c55780632de03b6b146100f5575b600080fd5b6100a760048036038101906100a291906107f9565b6101bd565b005b6100c360048036038101906100be91906107f9565b61022a565b005b6100df60048036038101906100da91906107f9565b610429565b6040516100ec9190610841565b60405180910390f35b61010f600480360381019061010a91906107f9565b610482565b60405161011c9190610841565b60405180910390f35b61013f600480360381019061013a91906107f9565b61055a565b005b61015b600480360381019061015691906107f9565b6105c8565b6040516101689190610841565b60405180910390f35b61018b600480360381019061018691906109a2565b610620565b005b6101a760048036038101906101a291906107f9565b6106b3565b6040516101b49190610a7d565b60405180910390f35b60018060008373ffffffffffffffffffffffffffffffffffffffff1673ffffffffffffffffffffffffffffffffffffffff16815260200190815260200160002060010160016101000a81548160ff0219169083600281111561022257610221610a9f565b5b021790555050565b60008060008373ffffffffffffffffffffffffffffffffffffffff1673ffffffffffffffffffffffffffffffffffffffff16815260200190815260200160002060010160006101000a81548160ff02191690831515021790555060405180606001604052806000808473ffffffffffffffffffffffffffffffffffffffff1673ffffffffffffffffffffffffffffffffffffffff16815260200190815260200160002060000180546102db90610afd565b80601f016020809104026020016040519081016040528092919081815260200182805461030790610afd565b80156103545780601f1061032957610100808354040283529160200191610354565b820191906000526020600020905b81548152906001019060200180831161033757829003601f168201915b505050505081526020016001151581526020016001600281111561037b5761037a610a9f565b5b815250600160008373ffffffffffffffffffffffffffffffffffffffff1673ffffffffffffffffffffffffffffffffffffffff16815260200190815260200160002060008201518160000190816103d29190610ce4565b5060208201518160010160006101000a81548160ff02191690831515021790555060408201518160010160016101000a81548160ff0219169083600281111561041e5761041d610a9f565b5b021790555090505050565b6000600160008373ffffffffffffffffffffffffffffffffffffffff1673ffffffffffffffffffffffffffffffffffffffff16815260200190815260200160002060010160009054906101000a900460ff169050919050565b6000600160008373ffffffffffffffffffffffffffffffffffffffff1673ffffffffffffffffffffffffffffffffffffffff16815260200190815260200160002060010160009054906101000a900460ff1680156105535750600160028111156104ef576104ee610a9f565b5b600160008473ffffffffffffffffffffffffffffffffffffffff1673ffffffffffffffffffffffffffffffffffffffff16815260200190815260200160002060010160019054906101000a900460ff16600281111561055157610550610a9f565b5b145b9050919050565b6002600160008373ffffffffffffffffffffffffffffffffffffffff1673ffffffffffffffffffffffffffffffffffffffff16815260200190815260200160002060010160016101000a81548160ff021916908360028111156105c0576105bf610a9f565b5b021790555050565b60008060008373ffffffffffffffffffffffffffffffffffffffff1673ffffffffffffffffffffffffffffffffffffffff16815260200190815260200160002060010160009054906101000a900460ff169050919050565b6040518060400160405280828152602001600115158152506000808473ffffffffffffffffffffffffffffffffffffffff1673ffffffffffffffffffffffffffffffffffffffff168152602001908152602001600020600082015181600001908161068b9190610ce4565b5060208201518160010160006101000a81548160ff0219169083151502179055509050505050565b6060600160008373ffffffffffffffffffffffffffffffffffffffff1673ffffffffffffffffffffffffffffffffffffffff168152602001908152602001600020600001805461070290610afd565b80601f016020809104026020016040519081016040528092919081815260200182805461072e90610afd565b801561077b5780601f106107505761010080835404028352916020019161077b565b820191906000526020600020905b81548152906001019060200180831161075e57829003601f168201915b50505050509050919050565b6000604051905090565b600080fd5b600080fd5b600073ffffffffffffffffffffffffffffffffffffffff82169050919050565b60006107c68261079b565b9050919050565b6107d6816107bb565b81146107e157600080fd5b50565b6000813590506107f3816107cd565b92915050565b60006020828403121561080f5761080e610791565b5b600061081d848285016107e4565b91505092915050565b60008115159050919050565b61083b81610826565b82525050565b60006020820190506108566000830184610832565b92915050565b600080fd5b600080fd5b6000601f19601f8301169050919050565b7f4e487b7100000000000000000000000000000000000000000000000000000000600052604160045260246000fd5b6108af82610866565b810181811067ffffffffffffffff821117156108ce576108cd610877565b5b80604052505050565b60006108e1610787565b90506108ed82826108a6565b919050565b600067ffffffffffffffff82111561090d5761090c610877565b5b61091682610866565b9050602081019050919050565b82818337600083830152505050565b6000610945610940846108f2565b6108d7565b90508281526020810184848401111561096157610960610861565b5b61096c848285610923565b509392505050565b600082601f8301126109895761098861085c565b5b8135610999848260208601610932565b91505092915050565b600080604083850312156109b9576109b8610791565b5b60006109c7858286016107e4565b925050602083013567ffffffffffffffff8111156109e8576109e7610796565b5b6109f485828601610974565b9150509250929050565b600081519050919050565b600082825260208201905092915050565b60005b83811015610a38578082015181840152602081019050610a1d565b60008484015250505050565b6000610a4f826109fe565b610a598185610a09565b9350610a69818560208601610a1a565b610a7281610866565b840191505092915050565b60006020820190508181036000830152610a978184610a44565b905092915050565b7f4e487b7100000000000000000000000000000000000000000000000000000000600052602160045260246000fd5b7f4e487b7100000000000000000000000000000000000000000000000000000000600052602260045260246000fd5b60006002820490506001821680610b1557607f821691505b602082108103610b2857610b27610ace565b5b50919050565b60008190508160005260206000209050919050565b60006020601f8301049050919050565b600082821b905092915050565b600060088302610b907fffffffffffffffffffffffffffffffffffffffffffffffffffffffffffffffff82610b53565b610b9a8683610b53565b95508019841693508086168417925050509392505050565b6000819050919050565b6000819050919050565b6000610be1610bdc610bd784610bb2565b610bbc565b610bb2565b9050919050565b6000819050919050565b610bfb83610bc6565b610c0f610c0782610be8565b848454610b60565b825550505050565b600090565b610c24610c17565b610c2f818484610bf2565b505050565b5b81811015610c5357610c48600082610c1c565b600181019050610c35565b5050565b601f821115610c9857610c6981610b2e565b610c7284610b43565b81016020851015610c81578190505b610c95610c8d85610b43565b830182610c34565b50505b505050565b600082821c905092915050565b6000610cbb60001984600802610c9d565b1980831691505092915050565b6000610cd48383610caa565b9150826002028217905092915050565b610ced826109fe565b67ffffffffffffffff811115610d0657610d05610877565b5b610d108254610afd565b610d1b828285610c57565b600060209050601f831160018114610d4e5760008415610d3c578287015190505b610d468582610cc8565b865550610dae565b601f198416610d5c86610b2e565b60005b82811015610d8457848901518255600182019150602085019450602081019050610d5f565b86831015610da15784890151610d9d601f891682610caa565b8355505b6001600288020188555050505b50505050505056fea26469706673582212207b005344891ad22181cddb0d9531c8d5d8aa32bc5c75b3321654c2a39deef38e64736f6c63430008110033",
  "immutableReferences": {},
  "source": "pragma solidity ^0.8.13;\r\n\r\ncontract WorkerManager {\r\n    struct Request {\r\n        string name;\r\n        bool isHere;\r\n    }\r\n\r\n    enum WorkerStatus {\r\n        Unknown,\r\n        Available,\r\n        Unavailable\r\n    }\r\n\r\n    struct Worker {\r\n        string name;\r\n        bool isHere;\r\n        WorkerStatus status;\r\n    }\r\n\r\n    mapping(address => Request) requests;\r\n    mapping(address => Worker) workers;\r\n\r\n    function putRequestToRegister(address addr, string memory name) external {\r\n        requests[addr] = Request(name, true);\r\n    }\r\n\r\n    function getWorkerName(address addr) external view returns (string memory) {\r\n        return workers[addr].name;\r\n    }\r\n\r\n    function approveRequest(address addr) external {\r\n        requests[addr].isHere = false;\r\n        workers[addr] = Worker(\r\n            requests[addr].name,\r\n            true,\r\n            WorkerStatus.Available\r\n        );\r\n    }\r\n\r\n    function isRequestHere(address addr) external view returns (bool) {\r\n        return requests[addr].isHere;\r\n    }\r\n\r\n    function isWorkerHere(address addr) external view returns (bool) {\r\n        return workers[addr].isHere;\r\n    }\r\n\r\n    function isWorkerAvailable(address addr) external view returns (bool) {\r\n        return\r\n            workers[addr].isHere &&\r\n            workers[addr].status == WorkerStatus.Available;\r\n    }\r\n\r\n    function setWorkerAsUnavailable(address addr) external {\r\n        workers[addr].status = WorkerStatus.Unavailable;\r\n    }\r\n\r\n    function setWorkerAsAvailable(address addr) external {\r\n        workers[addr].status = WorkerStatus.Available;\r\n    }\r\n}\r\n",
  "sourcePath": "/home/seva/Projects/uni-eth-practice/contracts/WorkerManager.sol",
  "compiler": {
    "name": "solc",
    "version": "0.8.17+commit.8df45f5f.Emscripten.clang"
  },
  "schemaVersion": "3.4.11",
  "updatedAt": "2022-12-10T08:44:17.627Z",
  "networkType": "ethereum",
  "devdoc": {
    "kind": "dev",
    "methods": {},
    "version": 1
  },
  "userdoc": {
    "kind": "user",
    "methods": {},
    "version": 1
  }
}