{
  "contractName": "WorkerManager",
  "abi": [
    {
      "inputs": [
        {
          "internalType": "address",
          "name": "addr",
          "type": "address"
        },
        {
          "internalType": "string",
          "name": "name",
          "type": "string"
        }
      ],
      "name": "putRequestToRegister",
      "outputs": [],
      "stateMutability": "nonpayable",
      "type": "function"
    },
    {
      "inputs": [
        {
          "internalType": "address",
          "name": "addr",
          "type": "address"
        }
      ],
      "name": "approveRequest",
      "outputs": [],
      "stateMutability": "nonpayable",
      "type": "function"
    },
    {
      "inputs": [
        {
          "internalType": "address",
          "name": "addr",
          "type": "address"
        }
      ],
      "name": "isRequestHere",
      "outputs": [
        {
          "internalType": "bool",
          "name": "",
          "type": "bool"
        }
      ],
      "stateMutability": "view",
      "type": "function",
      "constant": true
    },
    {
      "inputs": [
        {
          "internalType": "address",
          "name": "addr",
          "type": "address"
        }
      ],
      "name": "isWorkerHere",
      "outputs": [
        {
          "internalType": "bool",
          "name": "",
          "type": "bool"
        }
      ],
      "stateMutability": "view",
      "type": "function",
      "constant": true
    },
    {
      "inputs": [
        {
          "internalType": "address",
          "name": "addr",
          "type": "address"
        }
      ],
      "name": "isWorkerAvailable",
      "outputs": [
        {
          "internalType": "bool",
          "name": "",
          "type": "bool"
        }
      ],
      "stateMutability": "view",
      "type": "function",
      "constant": true
    },
    {
      "inputs": [
        {
          "internalType": "address",
          "name": "addr",
          "type": "address"
        }
      ],
      "name": "setWorkerAsUnavailable",
      "outputs": [],
      "stateMutability": "nonpayable",
      "type": "function"
    },
    {
      "inputs": [
        {
          "internalType": "address",
          "name": "addr",
          "type": "address"
        }
      ],
      "name": "setWorkerAsAvailable",
      "outputs": [],
      "stateMutability": "nonpayable",
      "type": "function"
    }
  ],
  "bytecode": "0x608060405234801561001057600080fd5b50610c47806100206000396000f3fe608060405234801561001057600080fd5b506004361061007d5760003560e01c80632de03b6b1161005b5780632de03b6b146100ea5780634a69d93d1461011a57806385d8fff014610136578063c011565b146101665761007d565b80630405df8814610082578063061dff9a1461009e57806312c61114146100ba575b600080fd5b61009c600480360381019061009791906106ea565b610182565b005b6100b860048036038101906100b391906106ea565b6101ef565b005b6100d460048036038101906100cf91906106ea565b6103ee565b6040516100e19190610732565b60405180910390f35b61010460048036038101906100ff91906106ea565b610447565b6040516101119190610732565b60405180910390f35b610134600480360381019061012f91906106ea565b61051f565b005b610150600480360381019061014b91906106ea565b61058d565b60405161015d9190610732565b60405180910390f35b610180600480360381019061017b9190610893565b6105e5565b005b60018060008373ffffffffffffffffffffffffffffffffffffffff1673ffffffffffffffffffffffffffffffffffffffff16815260200190815260200160002060010160016101000a81548160ff021916908360028111156101e7576101e66108ef565b5b021790555050565b60008060008373ffffffffffffffffffffffffffffffffffffffff1673ffffffffffffffffffffffffffffffffffffffff16815260200190815260200160002060010160006101000a81548160ff02191690831515021790555060405180606001604052806000808473ffffffffffffffffffffffffffffffffffffffff1673ffffffffffffffffffffffffffffffffffffffff16815260200190815260200160002060000180546102a09061094d565b80601f01602080910402602001604051908101604052809291908181526020018280546102cc9061094d565b80156103195780601f106102ee57610100808354040283529160200191610319565b820191906000526020600020905b8154815290600101906020018083116102fc57829003601f168201915b50505050508152602001600115158152602001600160028111156103405761033f6108ef565b5b815250600160008373ffffffffffffffffffffffffffffffffffffffff1673ffffffffffffffffffffffffffffffffffffffff16815260200190815260200160002060008201518160000190816103979190610b3f565b5060208201518160010160006101000a81548160ff02191690831515021790555060408201518160010160016101000a81548160ff021916908360028111156103e3576103e26108ef565b5b021790555090505050565b6000600160008373ffffffffffffffffffffffffffffffffffffffff1673ffffffffffffffffffffffffffffffffffffffff16815260200190815260200160002060010160009054906101000a900460ff169050919050565b6000600160008373ffffffffffffffffffffffffffffffffffffffff1673ffffffffffffffffffffffffffffffffffffffff16815260200190815260200160002060010160009054906101000a900460ff1680156105185750600160028111156104b4576104b36108ef565b5b600160008473ffffffffffffffffffffffffffffffffffffffff1673ffffffffffffffffffffffffffffffffffffffff16815260200190815260200160002060010160019054906101000a900460ff166002811115610516576105156108ef565b5b145b9050919050565b6002600160008373ffffffffffffffffffffffffffffffffffffffff1673ffffffffffffffffffffffffffffffffffffffff16815260200190815260200160002060010160016101000a81548160ff02191690836002811115610585576105846108ef565b5b021790555050565b60008060008373ffffffffffffffffffffffffffffffffffffffff1673ffffffffffffffffffffffffffffffffffffffff16815260200190815260200160002060010160009054906101000a900460ff169050919050565b6040518060400160405280828152602001600115158152506000808473ffffffffffffffffffffffffffffffffffffffff1673ffffffffffffffffffffffffffffffffffffffff16815260200190815260200160002060008201518160000190816106509190610b3f565b5060208201518160010160006101000a81548160ff0219169083151502179055509050505050565b6000604051905090565b600080fd5b600080fd5b600073ffffffffffffffffffffffffffffffffffffffff82169050919050565b60006106b78261068c565b9050919050565b6106c7816106ac565b81146106d257600080fd5b50565b6000813590506106e4816106be565b92915050565b600060208284031215610700576106ff610682565b5b600061070e848285016106d5565b91505092915050565b60008115159050919050565b61072c81610717565b82525050565b60006020820190506107476000830184610723565b92915050565b600080fd5b600080fd5b6000601f19601f8301169050919050565b7f4e487b7100000000000000000000000000000000000000000000000000000000600052604160045260246000fd5b6107a082610757565b810181811067ffffffffffffffff821117156107bf576107be610768565b5b80604052505050565b60006107d2610678565b90506107de8282610797565b919050565b600067ffffffffffffffff8211156107fe576107fd610768565b5b61080782610757565b9050602081019050919050565b82818337600083830152505050565b6000610836610831846107e3565b6107c8565b90508281526020810184848401111561085257610851610752565b5b61085d848285610814565b509392505050565b600082601f83011261087a5761087961074d565b5b813561088a848260208601610823565b91505092915050565b600080604083850312156108aa576108a9610682565b5b60006108b8858286016106d5565b925050602083013567ffffffffffffffff8111156108d9576108d8610687565b5b6108e585828601610865565b9150509250929050565b7f4e487b7100000000000000000000000000000000000000000000000000000000600052602160045260246000fd5b7f4e487b7100000000000000000000000000000000000000000000000000000000600052602260045260246000fd5b6000600282049050600182168061096557607f821691505b6020821081036109785761097761091e565b5b50919050565b600081519050919050565b60008190508160005260206000209050919050565b60006020601f8301049050919050565b600082821b905092915050565b6000600883026109eb7fffffffffffffffffffffffffffffffffffffffffffffffffffffffffffffffff826109ae565b6109f586836109ae565b95508019841693508086168417925050509392505050565b6000819050919050565b6000819050919050565b6000610a3c610a37610a3284610a0d565b610a17565b610a0d565b9050919050565b6000819050919050565b610a5683610a21565b610a6a610a6282610a43565b8484546109bb565b825550505050565b600090565b610a7f610a72565b610a8a818484610a4d565b505050565b5b81811015610aae57610aa3600082610a77565b600181019050610a90565b5050565b601f821115610af357610ac481610989565b610acd8461099e565b81016020851015610adc578190505b610af0610ae88561099e565b830182610a8f565b50505b505050565b600082821c905092915050565b6000610b1660001984600802610af8565b1980831691505092915050565b6000610b2f8383610b05565b9150826002028217905092915050565b610b488261097e565b67ffffffffffffffff811115610b6157610b60610768565b5b610b6b825461094d565b610b76828285610ab2565b600060209050601f831160018114610ba95760008415610b97578287015190505b610ba18582610b23565b865550610c09565b601f198416610bb786610989565b60005b82811015610bdf57848901518255600182019150602085019450602081019050610bba565b86831015610bfc5784890151610bf8601f891682610b05565b8355505b6001600288020188555050505b50505050505056fea26469706673582212208bff0dc7f07a167bc8b5771d8c77404745f247ddd9e326d183f77f307a31fea764736f6c63430008110033",
  "immutableReferences": {},
  "source": "pragma solidity ^0.8.13;\r\n\r\ncontract WorkerManager {\r\n    struct Request {\r\n        string name;\r\n        bool isHere;\r\n    }\r\n\r\n    enum WorkerStatus {\r\n        Unknown,\r\n        Available,\r\n        Unavailable\r\n    }\r\n\r\n    struct Worker {\r\n        string name;\r\n        bool isHere;\r\n        WorkerStatus status;\r\n    }\r\n\r\n    mapping(address => Request) requests;\r\n    mapping(address => Worker) workers;\r\n\r\n    function putRequestToRegister(address addr, string memory name) external {\r\n        requests[addr] = Request(name, true);\r\n    }\r\n\r\n    function approveRequest(address addr) external {\r\n        requests[addr].isHere = false;\r\n        workers[addr] = Worker(\r\n            requests[addr].name,\r\n            true,\r\n            WorkerStatus.Available\r\n        );\r\n    }\r\n\r\n    function isRequestHere(address addr) external view returns (bool) {\r\n        return requests[addr].isHere;\r\n    }\r\n\r\n    function isWorkerHere(address addr) external view returns (bool) {\r\n        return workers[addr].isHere;\r\n    }\r\n\r\n    function isWorkerAvailable(address addr) external view returns (bool) {\r\n        return\r\n            workers[addr].isHere &&\r\n            workers[addr].status == WorkerStatus.Available;\r\n    }\r\n\r\n    function setWorkerAsUnavailable(address addr) external {\r\n        workers[addr].status = WorkerStatus.Unavailable;\r\n    }\r\n\r\n    function setWorkerAsAvailable(address addr) external {\r\n        workers[addr].status = WorkerStatus.Available;\r\n    }\r\n}\r\n",
  "sourcePath": "/home/seva/Projects/uni-eth-practice/contracts/WorkerManager.sol",
  "compiler": {
    "name": "solc",
    "version": "0.8.17+commit.8df45f5f.Emscripten.clang"
  },
  "schemaVersion": "3.4.11",
  "updatedAt": "2022-12-09T08:45:24.795Z",
  "networkType": "ethereum",
  "devdoc": {
    "kind": "dev",
    "methods": {},
    "version": 1
  },
  "userdoc": {
    "kind": "user",
    "methods": {},
    "version": 1
  }
}